{
    "_format": "hh-sol-artifact-1",
    "contractName": "Tornado",
    "sourceName": "contracts/Tornado.sol",
    "abi": [
        {
            "inputs": [
                {
                    "internalType": "address",
                    "name": "_hasher",
                    "type": "address"
                },
                {
                    "internalType": "address",
                    "name": "_verifier",
                    "type": "address"
                }
            ],
            "stateMutability": "nonpayable",
            "type": "constructor"
        },
        {
            "anonymous": false,
            "inputs": [
                {
                    "indexed": true,
                    "internalType": "uint256",
                    "name": "root",
                    "type": "uint256"
                },
                {
                    "indexed": false,
                    "internalType": "uint256[10]",
                    "name": "hashPairings",
                    "type": "uint256[10]"
                },
                {
                    "indexed": false,
                    "internalType": "uint8[10]",
                    "name": "pairDirection",
                    "type": "uint8[10]"
                }
            ],
            "name": "Deposit",
            "type": "event"
        },
        {
            "anonymous": false,
            "inputs": [
                {
                    "indexed": true,
                    "internalType": "address",
                    "name": "user",
                    "type": "address"
                },
                {
                    "indexed": true,
                    "internalType": "uint256",
                    "name": "nullifierHash",
                    "type": "uint256"
                }
            ],
            "name": "Withdrawal",
            "type": "event"
        },
        {
            "inputs": [
                {
                    "internalType": "uint256",
                    "name": "",
                    "type": "uint256"
                }
            ],
            "name": "commitments",
            "outputs": [
                {
                    "internalType": "bool",
                    "name": "",
                    "type": "bool"
                }
            ],
            "stateMutability": "view",
            "type": "function"
        },
        {
            "inputs": [],
            "name": "denomination",
            "outputs": [
                {
                    "internalType": "uint256",
                    "name": "",
                    "type": "uint256"
                }
            ],
            "stateMutability": "view",
            "type": "function"
        },
        {
            "inputs": [
                {
                    "internalType": "uint256",
                    "name": "_commitment",
                    "type": "uint256"
                }
            ],
            "name": "deposit",
            "outputs": [],
            "stateMutability": "payable",
            "type": "function"
        },
        {
            "inputs": [],
            "name": "hasher",
            "outputs": [
                {
                    "internalType": "contract Hasher",
                    "name": "",
                    "type": "address"
                }
            ],
            "stateMutability": "view",
            "type": "function"
        },
        {
            "inputs": [
                {
                    "internalType": "uint8",
                    "name": "",
                    "type": "uint8"
                }
            ],
            "name": "lastLevelHash",
            "outputs": [
                {
                    "internalType": "uint256",
                    "name": "",
                    "type": "uint256"
                }
            ],
            "stateMutability": "view",
            "type": "function"
        },
        {
            "inputs": [],
            "name": "nextLeafIdex",
            "outputs": [
                {
                    "internalType": "uint256",
                    "name": "",
                    "type": "uint256"
                }
            ],
            "stateMutability": "view",
            "type": "function"
        },
        {
            "inputs": [
                {
                    "internalType": "uint256",
                    "name": "",
                    "type": "uint256"
                }
            ],
            "name": "nullifierHashs",
            "outputs": [
                {
                    "internalType": "bool",
                    "name": "",
                    "type": "bool"
                }
            ],
            "stateMutability": "view",
            "type": "function"
        },
        {
            "inputs": [
                {
                    "internalType": "uint256",
                    "name": "",
                    "type": "uint256"
                }
            ],
            "name": "roots",
            "outputs": [
                {
                    "internalType": "bool",
                    "name": "",
                    "type": "bool"
                }
            ],
            "stateMutability": "view",
            "type": "function"
        },
        {
            "inputs": [],
            "name": "treeLevel",
            "outputs": [
                {
                    "internalType": "uint8",
                    "name": "",
                    "type": "uint8"
                }
            ],
            "stateMutability": "view",
            "type": "function"
        },
        {
            "inputs": [],
            "name": "verifier",
            "outputs": [
                {
                    "internalType": "address",
                    "name": "",
                    "type": "address"
                }
            ],
            "stateMutability": "view",
            "type": "function"
        },
        {
            "inputs": [
                {
                    "internalType": "uint256[2]",
                    "name": "_pA",
                    "type": "uint256[2]"
                },
                {
                    "internalType": "uint256[2][2]",
                    "name": "_pB",
                    "type": "uint256[2][2]"
                },
                {
                    "internalType": "uint256[2]",
                    "name": "_pC",
                    "type": "uint256[2]"
                },
                {
                    "internalType": "uint256[2]",
                    "name": "_pubSignals",
                    "type": "uint256[2]"
                }
            ],
            "name": "withdraw",
            "outputs": [],
            "stateMutability": "payable",
            "type": "function"
        }
    ],
    "bytecode": "0x6080604052600a600260146101000a81548160ff021916908360ff16021790555067016345785d8a000060035560006004556040518061014001604052807fd4b1397294ac371d7e6327985b84e513e1a67d7511cd9e97c8d863f475234ff381526020017f7a1950291d8f8d98ffa31fb48d4ade1f75579c189663a7ad6253e054eb3c6e0281526020017f9a5bd8dcbf46dd9d94aa5f453a88c30ea30078f4233b48b7e6a09c309efcaacf81526020017f10d25a62653575746e8c8d14d457cad6d4d84237f8c0469f2b6fc1d8eefdedcf81526020017fb8cca00d5457eeba20a4a2559e4b7b8474aa461fdcca193ab9c684f42548a79281526020017ff1fa21b6a1c7e39c31bc19188cd3492b0093f7a08b3a5452bcc90fd72e39169b81526020017fa7719a5fce76578cf8f2fe028aa33a8d8dafbb9d56d135d6bdbb98b588bfbe4d81526020017fd74b7e6e290c206af23fa785f7088f4646778a6f4e238bff11a81493b421da6b81526020017f43b04fd9e248d46a8e3c53786aaa06abcbc7152859d957393a7ed77f937b82df81526020017f4a6b78ef2b2e9ae43bb3c90c13058a03141de722292df4b889908ef2f19fd3e6815250600990600a620001c99291906200028f565b50348015620001d757600080fd5b5060405162001e2438038062001e248339818101604052810190620001fd91906200035d565b600160008190555081600260006101000a81548173ffffffffffffffffffffffffffffffffffffffff021916908373ffffffffffffffffffffffffffffffffffffffff16021790555080600160006101000a81548173ffffffffffffffffffffffffffffffffffffffff021916908373ffffffffffffffffffffffffffffffffffffffff1602179055505050620003a4565b82600a8101928215620002c1579160200282015b82811115620002c0578251825591602001919060010190620002a3565b5b509050620002d09190620002d4565b5090565b5b80821115620002ef576000816000905550600101620002d5565b5090565b600080fd5b600073ffffffffffffffffffffffffffffffffffffffff82169050919050565b60006200032582620002f8565b9050919050565b620003378162000318565b81146200034357600080fd5b50565b60008151905062000357816200032c565b92915050565b60008060408385031215620003775762000376620002f3565b5b6000620003878582860162000346565b92505060206200039a8582860162000346565b9150509250929050565b611a7080620003b46000396000f3fe60806040526004361061009c5760003560e01c8063b6b55f2511610064578063b6b55f251461019c578063b8e79564146101b8578063c2b40ae4146101e3578063c78784d714610220578063d54000471461023c578063ed33639f146102795761009c565b806306683e4b146100a15780632b7ac3f3146100cc57806349ce8997146100f75780637b5758b1146101345780638bca6d1614610171575b600080fd5b3480156100ad57600080fd5b506100b66102a4565b6040516100c39190610c62565b60405180910390f35b3480156100d857600080fd5b506100e16102aa565b6040516100ee9190610cbe565b60405180910390f35b34801561010357600080fd5b5061011e60048036038101906101199190610d0a565b6102d0565b60405161012b9190610d52565b60405180910390f35b34801561014057600080fd5b5061015b60048036038101906101569190610d0a565b6102f0565b6040516101689190610d52565b60405180910390f35b34801561017d57600080fd5b50610186610310565b6040516101939190610c62565b60405180910390f35b6101b660048036038101906101b19190610d0a565b610316565b005b3480156101c457600080fd5b506101cd61077e565b6040516101da9190610d89565b60405180910390f35b3480156101ef57600080fd5b5061020a60048036038101906102059190610d0a565b610791565b6040516102179190610d52565b60405180910390f35b61023a60048036038101906102359190610ded565b6107b1565b005b34801561024857600080fd5b50610263600480360381019061025e9190610e82565b610b4a565b6040516102709190610c62565b60405180910390f35b34801561028557600080fd5b5061028e610b62565b60405161029b9190610f0e565b60405180910390f35b60045481565b600160009054906101000a900473ffffffffffffffffffffffffffffffffffffffff1681565b60086020528060005260406000206000915054906101000a900460ff1681565b60076020528060005260406000206000915054906101000a900460ff1681565b60035481565b61031e610b88565b6003543414610362576040517f08c379a000000000000000000000000000000000000000000000000000000000815260040161035990610f86565b60405180910390fd5b6008600082815260200190815260200160002060009054906101000a900460ff16156103c3576040517f08c379a00000000000000000000000000000000000000000000000000000000081526004016103ba90610ff2565b60405180910390fd5b600260149054906101000a900460ff1660026103df9190611174565b60045410610422576040517f08c379a00000000000000000000000000000000000000000000000000000000081526004016104199061120b565b60405180910390fd5b600061042c610be1565b610434610c04565b60006004549050600085905060008061044b610c27565b60005b600260149054906101000a900460ff1660ff168160ff1610156106bb578460066000600260149054906101000a900460ff1660ff1660ff1681526020019081526020016000208190555060006002876104a7919061125a565b036105305784935060098160ff16600a81106104c6576104c561128b565b5b0154925060098160ff16600a81106104e1576104e061128b565b5b0154888260ff16600a81106104f9576104f861128b565b5b6020020181815250506000878260ff16600a811061051a5761051961128b565b5b602002019060ff16908160ff16815250506105b2565b600660008260ff1660ff168152602001908152602001600020549350849250600660008260ff1660ff16815260200190815260200160002054888260ff16600a811061057f5761057e61128b565b5b6020020181815250506001878260ff16600a81106105a05761059f61128b565b5b602002019060ff16908160ff16815250505b83826000600281106105c7576105c661128b565b5b60200201818152505082826001600281106105e5576105e461128b565b5b6020020181815250506000600260009054906101000a900473ffffffffffffffffffffffffffffffffffffffff1673ffffffffffffffffffffffffffffffffffffffff1663d622e5a462200b20858e6040518463ffffffff1660e01b8152600401610651929190611365565b6020604051808303818786fa15801561066e573d6000803e3d6000fd5b50505050506040513d601f19601f8201168201806040525081019061069391906113a3565b90508095506002876106a591906113d0565b96505080806106b390611401565b91505061044e565b508397506001600560008a815260200190815260200160002060006101000a81548160ff0219169083151502179055506001600460008282546106fe919061142a565b925050819055506001600860008b815260200190815260200160002060006101000a81548160ff021916908315150217905550877fe6ab8667cb740d6c65a4ad321c031eb42f6c5085d5753238d1b2e1e370c13483888860405161076392919061158d565b60405180910390a2505050505050505061077b610bd7565b50565b600260149054906101000a900460ff1681565b60056020528060005260406000206000915054906101000a900460ff1681565b6107b9610b88565b6000816000600281106107cf576107ce61128b565b5b602002013590506000826001600281106107ec576107eb61128b565b5b602002013590506007600082815260200190815260200160002060009054906101000a900460ff1615610854576040517f08c379a000000000000000000000000000000000000000000000000000000000815260040161084b90611604565b60405180910390fd5b6005600083815260200190815260200160002060009054906101000a900460ff166108b4576040517f08c379a00000000000000000000000000000000000000000000000000000000081526004016108ab90611670565b60405180910390fd5b60003373ffffffffffffffffffffffffffffffffffffffff1690506000600160009054906101000a900473ffffffffffffffffffffffffffffffffffffffff1673ffffffffffffffffffffffffffffffffffffffff1688888860405180606001604052808981526020018881526020018781525060405160240161093b94939291906117ec565b6040516020818303038152906040526311479fea60e01b6020820180517bffffffffffffffffffffffffffffffffffffffffffffffffffffffff838183161783525050505060405161098d91906118a4565b6000604051808303816000865af19150503d80600081146109ca576040519150601f19603f3d011682016040523d82523d6000602084013e6109cf565b606091505b5050905080610a13576040517f08c379a0000000000000000000000000000000000000000000000000000000008152600401610a0a90611907565b60405180910390fd5b60016007600085815260200190815260200160002060006101000a81548160ff021916908315150217905550600033905060008173ffffffffffffffffffffffffffffffffffffffff16600354604051610a6c9061194d565b60006040518083038185875af1925050503d8060008114610aa9576040519150601f19603f3d011682016040523d82523d6000602084013e610aae565b606091505b5050905080610af2576040517f08c379a0000000000000000000000000000000000000000000000000000000008152600401610ae9906119ae565b60405180910390fd5b843373ffffffffffffffffffffffffffffffffffffffff167f7fcf532c15f0a6db0bd6d0e038bea71d30d808c7d98cb3bf7268a95bf5081b6560405160405180910390a3505050505050610b44610bd7565b50505050565b60066020528060005260406000206000915090505481565b600260009054906101000a900473ffffffffffffffffffffffffffffffffffffffff1681565b600260005403610bcd576040517f08c379a0000000000000000000000000000000000000000000000000000000008152600401610bc490611a1a565b60405180910390fd5b6002600081905550565b6001600081905550565b604051806101400160405280600a90602082028036833780820191505090505090565b604051806101400160405280600a90602082028036833780820191505090505090565b6040518060400160405280600290602082028036833780820191505090505090565b6000819050919050565b610c5c81610c49565b82525050565b6000602082019050610c776000830184610c53565b92915050565b600073ffffffffffffffffffffffffffffffffffffffff82169050919050565b6000610ca882610c7d565b9050919050565b610cb881610c9d565b82525050565b6000602082019050610cd36000830184610caf565b92915050565b600080fd5b610ce781610c49565b8114610cf257600080fd5b50565b600081359050610d0481610cde565b92915050565b600060208284031215610d2057610d1f610cd9565b5b6000610d2e84828501610cf5565b91505092915050565b60008115159050919050565b610d4c81610d37565b82525050565b6000602082019050610d676000830184610d43565b92915050565b600060ff82169050919050565b610d8381610d6d565b82525050565b6000602082019050610d9e6000830184610d7a565b92915050565b600080fd5b600081905082602060020282011115610dc557610dc4610da4565b5b92915050565b600081905082604060020282011115610de757610de6610da4565b5b92915050565b6000806000806101408587031215610e0857610e07610cd9565b5b6000610e1687828801610da9565b9450506040610e2787828801610dcb565b93505060c0610e3887828801610da9565b925050610100610e4a87828801610da9565b91505092959194509250565b610e5f81610d6d565b8114610e6a57600080fd5b50565b600081359050610e7c81610e56565b92915050565b600060208284031215610e9857610e97610cd9565b5b6000610ea684828501610e6d565b91505092915050565b6000819050919050565b6000610ed4610ecf610eca84610c7d565b610eaf565b610c7d565b9050919050565b6000610ee682610eb9565b9050919050565b6000610ef882610edb565b9050919050565b610f0881610eed565b82525050565b6000602082019050610f236000830184610eff565b92915050565b600082825260208201905092915050565b7f696e636f727265637420616d6f756e7400000000000000000000000000000000600082015250565b6000610f70601083610f29565b9150610f7b82610f3a565b602082019050919050565b60006020820190508181036000830152610f9f81610f63565b9050919050565b7f6475706c696361746520636f6d6d69746d656e74206861736800000000000000600082015250565b6000610fdc601983610f29565b9150610fe782610fa6565b602082019050919050565b6000602082019050818103600083015261100b81610fcf565b9050919050565b7f4e487b7100000000000000000000000000000000000000000000000000000000600052601160045260246000fd5b60008160011c9050919050565b6000808291508390505b60018511156110985780860481111561107457611073611012565b5b60018516156110835780820291505b808102905061109185611041565b9450611058565b94509492505050565b6000826110b1576001905061116d565b816110bf576000905061116d565b81600181146110d557600281146110df5761110e565b600191505061116d565b60ff8411156110f1576110f0611012565b5b8360020a91508482111561110857611107611012565b5b5061116d565b5060208310610133831016604e8410600b84101617156111435782820a90508381111561113e5761113d611012565b5b61116d565b611150848484600161104e565b9250905081840481111561116757611166611012565b5b81810290505b9392505050565b600061117f82610c49565b915061118a83610d6d565b92506111b77fffffffffffffffffffffffffffffffffffffffffffffffffffffffffffffffff84846110a1565b905092915050565b7f747265652066756c6c0000000000000000000000000000000000000000000000600082015250565b60006111f5600983610f29565b9150611200826111bf565b602082019050919050565b60006020820190508181036000830152611224816111e8565b9050919050565b7f4e487b7100000000000000000000000000000000000000000000000000000000600052601260045260246000fd5b600061126582610c49565b915061127083610c49565b9250826112805761127f61122b565b5b828206905092915050565b7f4e487b7100000000000000000000000000000000000000000000000000000000600052603260045260246000fd5b600060029050919050565b600081905092915050565b6000819050919050565b6112e381610c49565b82525050565b60006112f583836112da565b60208301905092915050565b6000602082019050919050565b611317816112ba565b61132181846112c5565b925061132c826112d0565b8060005b8381101561135d57815161134487826112e9565b965061134f83611301565b925050600181019050611330565b505050505050565b600060608201905061137a600083018561130e565b6113876040830184610c53565b9392505050565b60008151905061139d81610cde565b92915050565b6000602082840312156113b9576113b8610cd9565b5b60006113c78482850161138e565b91505092915050565b60006113db82610c49565b91506113e683610c49565b9250826113f6576113f561122b565b5b828204905092915050565b600061140c82610d6d565b915060ff820361141f5761141e611012565b5b600182019050919050565b600061143582610c49565b915061144083610c49565b925082820190508082111561145857611457611012565b5b92915050565b6000600a9050919050565b600081905092915050565b6000819050919050565b6000602082019050919050565b6114948161145e565b61149e8184611469565b92506114a982611474565b8060005b838110156114da5781516114c187826112e9565b96506114cc8361147e565b9250506001810190506114ad565b505050505050565b6000600a9050919050565b600081905092915050565b6000819050919050565b61150b81610d6d565b82525050565b600061151d8383611502565b60208301905092915050565b6000602082019050919050565b61153f816114e2565b61154981846114ed565b9250611554826114f8565b8060005b8381101561158557815161156c8782611511565b965061157783611529565b925050600181019050611558565b505050505050565b6000610280820190506115a3600083018561148b565b6115b1610140830184611536565b9392505050565b7f616c7265616479207370656e7400000000000000000000000000000000000000600082015250565b60006115ee600d83610f29565b91506115f9826115b8565b602082019050919050565b6000602082019050818103600083015261161d816115e1565b9050919050565b7f6e6f7420726f6f74000000000000000000000000000000000000000000000000600082015250565b600061165a600883610f29565b915061166582611624565b602082019050919050565b600060208201905081810360008301526116898161164d565b9050919050565b82818337505050565b6116a560408383611690565b5050565b600060029050919050565b600081905092915050565b6000819050919050565b6116d560408383611690565b5050565b60006116e583836116c9565b60408301905092915050565b600082905092915050565b6000604082019050919050565b611712816116a9565b61171c81846116b4565b9250611727826116bf565b8060005b838110156117605761173d82846116f1565b61174787826116d9565b9650611752836116fc565b92505060018101905061172b565b505050505050565b600060039050919050565b600081905092915050565b6000819050919050565b6000602082019050919050565b61179e81611768565b6117a88184611773565b92506117b38261177e565b8060005b838110156117e45781516117cb87826112e9565b96506117d683611788565b9250506001810190506117b7565b505050505050565b6000610160820190506118026000830187611699565b61180f6040830186611709565b61181c60c0830185611699565b61182a610100830184611795565b95945050505050565b600081519050919050565b600081905092915050565b60005b8381101561186757808201518184015260208101905061184c565b60008484015250505050565b600061187e82611833565b611888818561183e565b9350611898818560208601611849565b80840191505092915050565b60006118b08284611873565b915081905092915050565b7f696e76616c69642070726f6f6600000000000000000000000000000000000000600082015250565b60006118f1600d83610f29565b91506118fc826118bb565b602082019050919050565b60006020820190508181036000830152611920816118e4565b9050919050565b50565b600061193760008361183e565b915061194282611927565b600082019050919050565b60006119588261192a565b9150819050919050565b7f7472616e73616374696f6e206661696c65640000000000000000000000000000600082015250565b6000611998601283610f29565b91506119a382611962565b602082019050919050565b600060208201905081810360008301526119c78161198b565b9050919050565b7f5265656e7472616e637947756172643a207265656e7472616e742063616c6c00600082015250565b6000611a04601f83610f29565b9150611a0f826119ce565b602082019050919050565b60006020820190508181036000830152611a33816119f7565b905091905056fea264697066735822122063323e80c648b608a196b160fc572059c35432801ba63f4c7ef90d9694c9cdd664736f6c63430008110033",
    "linkReferences": {},
    "deployedLinkReferences": {}
}