{"contracts/Trivia.sol":{"Trivia":{"abi":[{"inputs":[{"internalType":"address","name":"_hasher","type":"address"},{"internalType":"address","name":"_verifier","type":"address"},{"internalType":"address","name":"_usdcToken","type":"address"},{"internalType":"address","name":"_aavePool","type":"address"}],"stateMutability":"nonpayable","type":"constructor"},{"inputs":[{"internalType":"address","name":"spender","type":"address"},{"internalType":"uint256","name":"allowance","type":"uint256"},{"internalType":"uint256","name":"needed","type":"uint256"}],"name":"ERC20InsufficientAllowance","type":"error"},{"inputs":[{"internalType":"address","name":"sender","type":"address"},{"internalType":"uint256","name":"balance","type":"uint256"},{"internalType":"uint256","name":"needed","type":"uint256"}],"name":"ERC20InsufficientBalance","type":"error"},{"inputs":[{"internalType":"address","name":"approver","type":"address"}],"name":"ERC20InvalidApprover","type":"error"},{"inputs":[{"internalType":"address","name":"receiver","type":"address"}],"name":"ERC20InvalidReceiver","type":"error"},{"inputs":[{"internalType":"address","name":"sender","type":"address"}],"name":"ERC20InvalidSender","type":"error"},{"inputs":[{"internalType":"address","name":"spender","type":"address"}],"name":"ERC20InvalidSpender","type":"error"},{"inputs":[{"internalType":"address","name":"owner","type":"address"}],"name":"OwnableInvalidOwner","type":"error"},{"inputs":[{"internalType":"address","name":"account","type":"address"}],"name":"OwnableUnauthorizedAccount","type":"error"},{"anonymous":false,"inputs":[{"indexed":true,"internalType":"address","name":"owner","type":"address"},{"indexed":true,"internalType":"address","name":"spender","type":"address"},{"indexed":false,"internalType":"uint256","name":"value","type":"uint256"}],"name":"Approval","type":"event"},{"anonymous":false,"inputs":[{"indexed":true,"internalType":"uint256","name":"root","type":"uint256"},{"indexed":false,"internalType":"uint256[10]","name":"hashPairings","type":"uint256[10]"},{"indexed":false,"internalType":"uint8[10]","name":"pairDirection","type":"uint8[10]"},{"indexed":false,"internalType":"uint256","name":"amount","type":"uint256"}],"name":"Deposit","type":"event"},{"anonymous":false,"inputs":[{"indexed":true,"internalType":"address","name":"previousOwner","type":"address"},{"indexed":true,"internalType":"address","name":"newOwner","type":"address"}],"name":"OwnershipTransferred","type":"event"},{"anonymous":false,"inputs":[{"indexed":true,"internalType":"address","name":"from","type":"address"},{"indexed":true,"internalType":"address","name":"to","type":"address"},{"indexed":false,"internalType":"uint256","name":"value","type":"uint256"}],"name":"Transfer","type":"event"},{"anonymous":false,"inputs":[{"indexed":true,"internalType":"address","name":"user","type":"address"},{"indexed":true,"internalType":"uint256","name":"nullifierHash","type":"uint256"},{"indexed":false,"internalType":"uint256","name":"amount","type":"uint256"}],"name":"Withdrawal","type":"event"},{"inputs":[],"name":"LOCK_PERIOD","outputs":[{"internalType":"uint256","name":"","type":"uint256"}],"stateMutability":"view","type":"function"},{"inputs":[],"name":"aavePool","outputs":[{"internalType":"contract IPool","name":"","type":"address"}],"stateMutability":"view","type":"function"},{"inputs":[{"internalType":"address","name":"owner","type":"address"},{"internalType":"address","name":"spender","type":"address"}],"name":"allowance","outputs":[{"internalType":"uint256","name":"","type":"uint256"}],"stateMutability":"view","type":"function"},{"inputs":[{"internalType":"address","name":"spender","type":"address"},{"internalType":"uint256","name":"value","type":"uint256"}],"name":"approve","outputs":[{"internalType":"bool","name":"","type":"bool"}],"stateMutability":"nonpayable","type":"function"},{"inputs":[{"internalType":"address","name":"account","type":"address"}],"name":"balanceOf","outputs":[{"internalType":"uint256","name":"","type":"uint256"}],"stateMutability":"view","type":"function"},{"inputs":[{"internalType":"uint256","name":"","type":"uint256"}],"name":"commitments","outputs":[{"internalType":"bool","name":"","type":"bool"}],"stateMutability":"view","type":"function"},{"inputs":[],"name":"decimals","outputs":[{"internalType":"uint8","name":"","type":"uint8"}],"stateMutability":"view","type":"function"},{"inputs":[{"internalType":"uint256","name":"amount","type":"uint256"},{"internalType":"uint256","name":"_commitment","type":"uint256"}],"name":"deposit","outputs":[],"stateMutability":"nonpayable","type":"function"},{"inputs":[],"name":"hasher","outputs":[{"internalType":"contract Hasher","name":"","type":"address"}],"stateMutability":"view","type":"function"},{"inputs":[{"internalType":"uint8","name":"","type":"uint8"}],"name":"lastLevelHash","outputs":[{"internalType":"uint256","name":"","type":"uint256"}],"stateMutability":"view","type":"function"},{"inputs":[],"name":"name","outputs":[{"internalType":"string","name":"","type":"string"}],"stateMutability":"view","type":"function"},{"inputs":[],"name":"nextLeafIdex","outputs":[{"internalType":"uint256","name":"","type":"uint256"}],"stateMutability":"view","type":"function"},{"inputs":[{"internalType":"uint256","name":"","type":"uint256"}],"name":"nullifierHashs","outputs":[{"internalType":"bool","name":"","type":"bool"}],"stateMutability":"view","type":"function"},{"inputs":[],"name":"owner","outputs":[{"internalType":"address","name":"","type":"address"}],"stateMutability":"view","type":"function"},{"inputs":[],"name":"renounceOwnership","outputs":[],"stateMutability":"nonpayable","type":"function"},{"inputs":[{"internalType":"uint256","name":"","type":"uint256"}],"name":"roots","outputs":[{"internalType":"bool","name":"","type":"bool"}],"stateMutability":"view","type":"function"},{"inputs":[],"name":"symbol","outputs":[{"internalType":"string","name":"","type":"string"}],"stateMutability":"view","type":"function"},{"inputs":[],"name":"timelockId","outputs":[{"internalType":"uint256","name":"","type":"uint256"}],"stateMutability":"view","type":"function"},{"inputs":[{"internalType":"uint256","name":"","type":"uint256"}],"name":"timelockToken","outputs":[{"internalType":"address","name":"owner","type":"address"},{"internalType":"uint256","name":"amount","type":"uint256"},{"internalType":"uint256","name":"timelockStart","type":"uint256"},{"internalType":"bool","name":"valid","type":"bool"}],"stateMutability":"view","type":"function"},{"inputs":[],"name":"totalStaked","outputs":[{"internalType":"uint256","name":"","type":"uint256"}],"stateMutability":"view","type":"function"},{"inputs":[],"name":"totalSupply","outputs":[{"internalType":"uint256","name":"","type":"uint256"}],"stateMutability":"view","type":"function"},{"inputs":[{"internalType":"address","name":"to","type":"address"},{"internalType":"uint256","name":"value","type":"uint256"}],"name":"transfer","outputs":[{"internalType":"bool","name":"","type":"bool"}],"stateMutability":"nonpayable","type":"function"},{"inputs":[{"internalType":"address","name":"from","type":"address"},{"internalType":"address","name":"to","type":"address"},{"internalType":"uint256","name":"value","type":"uint256"}],"name":"transferFrom","outputs":[{"internalType":"bool","name":"","type":"bool"}],"stateMutability":"nonpayable","type":"function"},{"inputs":[{"internalType":"address","name":"newOwner","type":"address"}],"name":"transferOwnership","outputs":[],"stateMutability":"nonpayable","type":"function"},{"inputs":[],"name":"treeLevel","outputs":[{"internalType":"uint8","name":"","type":"uint8"}],"stateMutability":"view","type":"function"},{"inputs":[],"name":"usdcToken","outputs":[{"internalType":"contract IERC20","name":"","type":"address"}],"stateMutability":"view","type":"function"},{"inputs":[],"name":"verifier","outputs":[{"internalType":"address","name":"","type":"address"}],"stateMutability":"view","type":"function"},{"inputs":[{"internalType":"uint256","name":"id","type":"uint256"},{"internalType":"uint256[2]","name":"_pA","type":"uint256[2]"},{"internalType":"uint256[2][2]","name":"_pB","type":"uint256[2][2]"},{"internalType":"uint256[2]","name":"_pC","type":"uint256[2]"},{"internalType":"uint256[2]","name":"_pubSignals","type":"uint256[2]"}],"name":"withdraw","outputs":[],"stateMutability":"nonpayable","type":"function"}],"evm":{"bytecode":{"linkReferences":{},"object":"6080604052600a600c60006101000a81548160ff021916908360ff1602179055506000600d556040518061014001604052807fd4b1397294ac371d7e6327985b84e513e1a67d7511cd9e97c8d863f475234ff381526020017f7a1950291d8f8d98ffa31fb48d4ade1f75579c189663a7ad6253e054eb3c6e0281526020017f9a5bd8dcbf46dd9d94aa5f453a88c30ea30078f4233b48b7e6a09c309efcaacf81526020017f10d25a62653575746e8c8d14d457cad6d4d84237f8c0469f2b6fc1d8eefdedcf81526020017fb8cca00d5457eeba20a4a2559e4b7b8474aa461fdcca193ab9c684f42548a79281526020017ff1fa21b6a1c7e39c31bc19188cd3492b0093f7a08b3a5452bcc90fd72e39169b81526020017fa7719a5fce76578cf8f2fe028aa33a8d8dafbb9d56d135d6bdbb98b588bfbe4d81526020017fd74b7e6e290c206af23fa785f7088f4646778a6f4e238bff11a81493b421da6b81526020017f43b04fd9e248d46a8e3c53786aaa06abcbc7152859d957393a7ed77f937b82df81526020017f4a6b78ef2b2e9ae43bb3c90c13058a03141de722292df4b889908ef2f19fd3e6815250601390600a620001bd929190620004dd565b50348015620001cb57600080fd5b5060405162004035380380620040358339818101604052810190620001f19190620005ab565b6040518060400160405280600681526020017f54726976696100000000000000000000000000000000000000000000000000008152506040518060400160405280600581526020017f547269766100000000000000000000000000000000000000000000000000000081525033600073ffffffffffffffffffffffffffffffffffffffff168173ffffffffffffffffffffffffffffffffffffffff1603620002d35760006040517f1e4fbdf7000000000000000000000000000000000000000000000000000000008152600401620002ca91906200062e565b60405180910390fd5b620002e4816200041960201b60201c565b508160049081620002f69190620008c5565b508060059081620003089190620008c5565b50505083600760006101000a81548173ffffffffffffffffffffffffffffffffffffffff021916908373ffffffffffffffffffffffffffffffffffffffff16021790555082600660006101000a81548173ffffffffffffffffffffffffffffffffffffffff021916908373ffffffffffffffffffffffffffffffffffffffff16021790555081600960006101000a81548173ffffffffffffffffffffffffffffffffffffffff021916908373ffffffffffffffffffffffffffffffffffffffff16021790555080600860006101000a81548173ffffffffffffffffffffffffffffffffffffffff021916908373ffffffffffffffffffffffffffffffffffffffff16021790555050505050620009ac565b60008060009054906101000a900473ffffffffffffffffffffffffffffffffffffffff169050816000806101000a81548173ffffffffffffffffffffffffffffffffffffffff021916908373ffffffffffffffffffffffffffffffffffffffff1602179055508173ffffffffffffffffffffffffffffffffffffffff168173ffffffffffffffffffffffffffffffffffffffff167f8be0079c531659141344cd1fd0a4f28419497f9722a3daafe3b4186f6b6457e060405160405180910390a35050565b82600a81019282156200050f579160200282015b828111156200050e578251825591602001919060010190620004f1565b5b5090506200051e919062000522565b5090565b5b808211156200053d57600081600090555060010162000523565b5090565b600080fd5b600073ffffffffffffffffffffffffffffffffffffffff82169050919050565b6000620005738262000546565b9050919050565b620005858162000566565b81146200059157600080fd5b50565b600081519050620005a5816200057a565b92915050565b60008060008060808587031215620005c857620005c762000541565b5b6000620005d88782880162000594565b9450506020620005eb8782880162000594565b9350506040620005fe8782880162000594565b9250506060620006118782880162000594565b91505092959194509250565b620006288162000566565b82525050565b60006020820190506200064560008301846200061d565b92915050565b600081519050919050565b7f4e487b7100000000000000000000000000000000000000000000000000000000600052604160045260246000fd5b7f4e487b7100000000000000000000000000000000000000000000000000000000600052602260045260246000fd5b60006002820490506001821680620006cd57607f821691505b602082108103620006e357620006e262000685565b5b50919050565b60008190508160005260206000209050919050565b60006020601f8301049050919050565b600082821b905092915050565b6000600883026200074d7fffffffffffffffffffffffffffffffffffffffffffffffffffffffffffffffff826200070e565b6200075986836200070e565b95508019841693508086168417925050509392505050565b6000819050919050565b6000819050919050565b6000620007a6620007a06200079a8462000771565b6200077b565b62000771565b9050919050565b6000819050919050565b620007c28362000785565b620007da620007d182620007ad565b8484546200071b565b825550505050565b600090565b620007f1620007e2565b620007fe818484620007b7565b505050565b5b8181101562000826576200081a600082620007e7565b60018101905062000804565b5050565b601f82111562000875576200083f81620006e9565b6200084a84620006fe565b810160208510156200085a578190505b620008726200086985620006fe565b83018262000803565b50505b505050565b600082821c905092915050565b60006200089a600019846008026200087a565b1980831691505092915050565b6000620008b5838362000887565b9150826002028217905092915050565b620008d0826200064b565b67ffffffffffffffff811115620008ec57620008eb62000656565b5b620008f88254620006b4565b620009058282856200082a565b600060209050601f8311600181146200093d576000841562000928578287015190505b620009348582620008a7565b865550620009a4565b601f1984166200094d86620006e9565b60005b82811015620009775784890151825560018201915060208501945060208101905062000950565b8683101562000997578489015162000993601f89168262000887565b8355505b6001600288020188555050505b505050505050565b61367980620009bc6000396000f3fe608060405234801561001057600080fd5b50600436106101c45760003560e01c80637b5758b1116100f9578063c2b40ae411610097578063dd62ed3e11610071578063dd62ed3e14610528578063e2bbb15814610558578063ed33639f14610574578063f2fde38b14610592576101c4565b8063c2b40ae414610495578063cee9e428146104c5578063d5400047146104f8576101c4565b806395d89b41116100d357806395d89b411461040b578063a03e4bc314610429578063a9059cbb14610447578063b8e7956414610477576101c4565b80637b5758b11461039f578063817b1cd2146103cf5780638da5cb5b146103ed576101c4565b80632b7ac3f31161016657806349ce89971161014057806349ce8997146103195780636fece60b1461034957806370a0823114610365578063715018a614610395576101c4565b80632b7ac3f3146102bf578063313ce567146102dd5780634056ff1b146102fb576101c4565b806311eac855116101a257806311eac8551461023557806318160ddd146102535780631820cabb1461027157806323b872dd1461028f576101c4565b806306683e4b146101c957806306fdde03146101e7578063095ea7b314610205575b600080fd5b6101d16105ae565b6040516101de9190612179565b60405180910390f35b6101ef6105b4565b6040516101fc9190612224565b60405180910390f35b61021f600480360381019061021a91906122d5565b610646565b60405161022c9190612330565b60405180910390f35b61023d610669565b60405161024a91906123aa565b60405180910390f35b61025b61068f565b6040516102689190612179565b60405180910390f35b610279610699565b6040516102869190612179565b60405180910390f35b6102a960048036038101906102a491906123c5565b6106a0565b6040516102b69190612330565b60405180910390f35b6102c76106cf565b6040516102d49190612427565b60405180910390f35b6102e56106f5565b6040516102f2919061245e565b60405180910390f35b6103036106fe565b6040516103109190612179565b60405180910390f35b610333600480360381019061032e9190612479565b610704565b6040516103409190612330565b60405180910390f35b610363600480360381019061035e91906124ef565b610724565b005b61037f600480360381019061037a919061256c565b610d53565b60405161038c9190612179565b60405180910390f35b61039d610d9c565b005b6103b960048036038101906103b49190612479565b610db0565b6040516103c69190612330565b60405180910390f35b6103d7610dd0565b6040516103e49190612179565b60405180910390f35b6103f5610dd6565b6040516104029190612427565b60405180910390f35b610413610dff565b6040516104209190612224565b60405180910390f35b610431610e91565b60405161043e91906125ba565b60405180910390f35b610461600480360381019061045c91906122d5565b610eb7565b60405161046e9190612330565b60405180910390f35b61047f610eda565b60405161048c919061245e565b60405180910390f35b6104af60048036038101906104aa9190612479565b610eed565b6040516104bc9190612330565b60405180910390f35b6104df60048036038101906104da9190612479565b610f0d565b6040516104ef94939291906125d5565b60405180910390f35b610512600480360381019061050d9190612646565b610f7a565b60405161051f9190612179565b60405180910390f35b610542600480360381019061053d9190612673565b610f92565b60405161054f9190612179565b60405180910390f35b610572600480360381019061056d91906126b3565b611019565b005b61057c611960565b6040516105899190612714565b60405180910390f35b6105ac60048036038101906105a7919061256c565b611986565b005b600d5481565b6060600480546105c39061275e565b80601f01602080910402602001604051908101604052809291908181526020018280546105ef9061275e565b801561063c5780601f106106115761010080835404028352916020019161063c565b820191906000526020600020905b81548152906001019060200180831161061f57829003601f168201915b5050505050905090565b600080610651611a0c565b905061065e818585611a14565b600191505092915050565b600960009054906101000a900473ffffffffffffffffffffffffffffffffffffffff1681565b6000600354905090565b6276a70081565b6000806106ab611a0c565b90506106b8858285611a26565b6106c3858585611aba565b60019150509392505050565b600660009054906101000a900473ffffffffffffffffffffffffffffffffffffffff1681565b60006012905090565b600b5481565b60126020528060005260406000206000915054906101000a900460ff1681565b600b548510610768576040517f08c379a000000000000000000000000000000000000000000000000000000000815260040161075f906127db565b60405180910390fd5b6000600e868154811061077e5761077d6127fb565b5b906000526020600020906004020190508060000160009054906101000a900473ffffffffffffffffffffffffffffffffffffffff1673ffffffffffffffffffffffffffffffffffffffff163373ffffffffffffffffffffffffffffffffffffffff1614610820576040517f08c379a000000000000000000000000000000000000000000000000000000000815260040161081790612876565b60405180910390fd5b6276a700816002015461083391906128c5565b421015610875576040517f08c379a000000000000000000000000000000000000000000000000000000000815260040161086c90612945565b60405180910390fd5b8060030160009054906101000a900460ff166108c6576040517f08c379a00000000000000000000000000000000000000000000000000000000081526004016108bd906129b1565b60405180910390fd5b6000826000600281106108dc576108db6127fb565b5b602002013590506000836001600281106108f9576108f86127fb565b5b602002013590506011600082815260200190815260200160002060009054906101000a900460ff1615610961576040517f08c379a000000000000000000000000000000000000000000000000000000000815260040161095890612a1d565b60405180910390fd5b600f600083815260200190815260200160002060009054906101000a900460ff166109c1576040517f08c379a00000000000000000000000000000000000000000000000000000000081526004016109b890612a89565b60405180910390fd5b60003373ffffffffffffffffffffffffffffffffffffffff1690506000600660009054906101000a900473ffffffffffffffffffffffffffffffffffffffff1673ffffffffffffffffffffffffffffffffffffffff16898989604051806060016040528089815260200188815260200187815250604051602401610a489493929190612c2c565b6040516020818303038152906040526311479fea60e01b6020820180517bffffffffffffffffffffffffffffffffffffffffffffffffffffffff8381831617835250505050604051610a9a9190612cba565b6000604051808303816000865af19150503d8060008114610ad7576040519150601f19603f3d011682016040523d82523d6000602084013e610adc565b606091505b5050905080610b20576040517f08c379a0000000000000000000000000000000000000000000000000000000008152600401610b1790612d1d565b60405180910390fd5b60016011600085815260200190815260200160002060006101000a81548160ff021916908315150217905550600860009054906101000a900473ffffffffffffffffffffffffffffffffffffffff1673ffffffffffffffffffffffffffffffffffffffff166369328dec600960009054906101000a900473ffffffffffffffffffffffffffffffffffffffff168760010154306040518463ffffffff1660e01b8152600401610bd193929190612d3d565b6020604051808303816000875af1158015610bf0573d6000803e3d6000fd5b505050506040513d601f19601f82011682018060405250810190610c149190612d89565b50600960009054906101000a900473ffffffffffffffffffffffffffffffffffffffff1673ffffffffffffffffffffffffffffffffffffffff1663a9059cbb3387600101546040518363ffffffff1660e01b8152600401610c76929190612db6565b6020604051808303816000875af1158015610c95573d6000803e3d6000fd5b505050506040513d601f19601f82011682018060405250810190610cb99190612e0b565b508460010154600a6000828254610cd09190612e38565b9250508190555060008560030160006101000a81548160ff021916908315150217905550823373ffffffffffffffffffffffffffffffffffffffff167fdf273cb619d95419a9cd0ec88123a0538c85064229baa6363788f743fff90deb8760010154604051610d3f9190612179565b60405180910390a350505050505050505050565b6000600160008373ffffffffffffffffffffffffffffffffffffffff1673ffffffffffffffffffffffffffffffffffffffff168152602001908152602001600020549050919050565b610da4611bae565b610dae6000611c35565b565b60116020528060005260406000206000915054906101000a900460ff1681565b600a5481565b60008060009054906101000a900473ffffffffffffffffffffffffffffffffffffffff16905090565b606060058054610e0e9061275e565b80601f0160208091040260200160405190810160405280929190818152602001828054610e3a9061275e565b8015610e875780601f10610e5c57610100808354040283529160200191610e87565b820191906000526020600020905b815481529060010190602001808311610e6a57829003601f168201915b5050505050905090565b600860009054906101000a900473ffffffffffffffffffffffffffffffffffffffff1681565b600080610ec2611a0c565b9050610ecf818585611aba565b600191505092915050565b600c60009054906101000a900460ff1681565b600f6020528060005260406000206000915054906101000a900460ff1681565b600e8181548110610f1d57600080fd5b90600052602060002090600402016000915090508060000160009054906101000a900473ffffffffffffffffffffffffffffffffffffffff16908060010154908060020154908060030160009054906101000a900460ff16905084565b60106020528060005260406000206000915090505481565b6000600260008473ffffffffffffffffffffffffffffffffffffffff1673ffffffffffffffffffffffffffffffffffffffff16815260200190815260200160002060008373ffffffffffffffffffffffffffffffffffffffff1673ffffffffffffffffffffffffffffffffffffffff16815260200190815260200160002054905092915050565b6000821161105c576040517f08c379a000000000000000000000000000000000000000000000000000000000815260040161105390612eb8565b60405180910390fd5b81600960009054906101000a900473ffffffffffffffffffffffffffffffffffffffff1673ffffffffffffffffffffffffffffffffffffffff166370a08231336040518263ffffffff1660e01b81526004016110b89190612427565b602060405180830381865afa1580156110d5573d6000803e3d6000fd5b505050506040513d601f19601f820116820180604052508101906110f99190612d89565b101561113a576040517f08c379a000000000000000000000000000000000000000000000000000000000815260040161113190612f24565b60405180910390fd5b81600960009054906101000a900473ffffffffffffffffffffffffffffffffffffffff1673ffffffffffffffffffffffffffffffffffffffff1663dd62ed3e33306040518363ffffffff1660e01b8152600401611198929190612f44565b602060405180830381865afa1580156111b5573d6000803e3d6000fd5b505050506040513d601f19601f820116820180604052508101906111d99190612d89565b101561121a576040517f08c379a000000000000000000000000000000000000000000000000000000000815260040161121190612fb9565b60405180910390fd5b6012600082815260200190815260200160002060009054906101000a900460ff161561127b576040517f08c379a000000000000000000000000000000000000000000000000000000000815260040161127290613025565b60405180910390fd5b600c60009054906101000a900460ff1660026112979190613178565b600d54106112da576040517f08c379a00000000000000000000000000000000000000000000000000000000081526004016112d19061320f565b60405180910390fd5b600960009054906101000a900473ffffffffffffffffffffffffffffffffffffffff1673ffffffffffffffffffffffffffffffffffffffff166323b872dd3330856040518463ffffffff1660e01b81526004016113399392919061322f565b6020604051808303816000875af1158015611358573d6000803e3d6000fd5b505050506040513d601f19601f8201168201806040525081019061137c9190612e0b565b50600960009054906101000a900473ffffffffffffffffffffffffffffffffffffffff1673ffffffffffffffffffffffffffffffffffffffff1663095ea7b3600860009054906101000a900473ffffffffffffffffffffffffffffffffffffffff16846040518363ffffffff1660e01b81526004016113fc929190612db6565b6020604051808303816000875af115801561141b573d6000803e3d6000fd5b505050506040513d601f19601f8201168201806040525081019061143f9190612e0b565b50600860009054906101000a900473ffffffffffffffffffffffffffffffffffffffff1673ffffffffffffffffffffffffffffffffffffffff1663617ba037600960009054906101000a900473ffffffffffffffffffffffffffffffffffffffff16843060006040518563ffffffff1660e01b81526004016114c494939291906132af565b600060405180830381600087803b1580156114de57600080fd5b505af11580156114f2573d6000803e3d6000fd5b50505050600e60405180608001604052803373ffffffffffffffffffffffffffffffffffffffff16815260200184815260200142815260200160011515815250908060018154018082558091505060019003906000526020600020906004020160009091909190915060008201518160000160006101000a81548173ffffffffffffffffffffffffffffffffffffffff021916908373ffffffffffffffffffffffffffffffffffffffff160217905550602082015181600101556040820151816002015560608201518160030160006101000a81548160ff021916908315150217905550505060006115e26120f8565b6115ea61211b565b6000600d549050600085905060008061160161213e565b60005b600c60009054906101000a900460ff1660ff168160ff161015611871578460106000600c60009054906101000a900460ff1660ff1660ff16815260200190815260200160002081905550600060028761165d9190613323565b036116e65784935060138160ff16600a811061167c5761167b6127fb565b5b0154925060138160ff16600a8110611697576116966127fb565b5b0154888260ff16600a81106116af576116ae6127fb565b5b6020020181815250506000878260ff16600a81106116d0576116cf6127fb565b5b602002019060ff16908160ff1681525050611768565b601060008260ff1660ff168152602001908152602001600020549350849250601060008260ff1660ff16815260200190815260200160002054888260ff16600a8110611735576117346127fb565b5b6020020181815250506001878260ff16600a8110611756576117556127fb565b5b602002019060ff16908160ff16815250505b838260006002811061177d5761177c6127fb565b5b602002018181525050828260016002811061179b5761179a6127fb565b5b6020020181815250506000600760009054906101000a900473ffffffffffffffffffffffffffffffffffffffff1673ffffffffffffffffffffffffffffffffffffffff1663d622e5a4620249f0858e6040518463ffffffff1660e01b81526004016118079291906133d8565b6020604051808303818786fa158015611824573d6000803e3d6000fd5b50505050506040513d601f19601f820116820180604052508101906118499190612d89565b905080955060028761185b9190613401565b965050808061186990613432565b915050611604565b508397506001600f60008a815260200190815260200160002060006101000a81548160ff0219169083151502179055506001600d60008282546118b491906128c5565b925050819055506001601260008b815260200190815260200160002060006101000a81548160ff02191690831515021790555089600a60008282546118f991906128c5565b92505081905550600b60008154809291906119139061345b565b9190505550877f839aef75338d2a3413d910305b67d28e181da1837c548c3a2b2ef147f33b008a88888d60405161194c939291906135d2565b60405180910390a250505050505050505050565b600760009054906101000a900473ffffffffffffffffffffffffffffffffffffffff1681565b61198e611bae565b600073ffffffffffffffffffffffffffffffffffffffff168173ffffffffffffffffffffffffffffffffffffffff1603611a005760006040517f1e4fbdf70000000000000000000000000000000000000000000000000000000081526004016119f79190612427565b60405180910390fd5b611a0981611c35565b50565b600033905090565b611a218383836001611cf9565b505050565b6000611a328484610f92565b90507fffffffffffffffffffffffffffffffffffffffffffffffffffffffffffffffff8114611ab45781811015611aa4578281836040517ffb8f41b2000000000000000000000000000000000000000000000000000000008152600401611a9b9392919061360c565b60405180910390fd5b611ab384848484036000611cf9565b5b50505050565b600073ffffffffffffffffffffffffffffffffffffffff168373ffffffffffffffffffffffffffffffffffffffff1603611b2c5760006040517f96c6fd1e000000000000000000000000000000000000000000000000000000008152600401611b239190612427565b60405180910390fd5b600073ffffffffffffffffffffffffffffffffffffffff168273ffffffffffffffffffffffffffffffffffffffff1603611b9e5760006040517fec442f05000000000000000000000000000000000000000000000000000000008152600401611b959190612427565b60405180910390fd5b611ba9838383611ed0565b505050565b611bb6611a0c565b73ffffffffffffffffffffffffffffffffffffffff16611bd4610dd6565b73ffffffffffffffffffffffffffffffffffffffff1614611c3357611bf7611a0c565b6040517f118cdaa7000000000000000000000000000000000000000000000000000000008152600401611c2a9190612427565b60405180910390fd5b565b60008060009054906101000a900473ffffffffffffffffffffffffffffffffffffffff169050816000806101000a81548173ffffffffffffffffffffffffffffffffffffffff021916908373ffffffffffffffffffffffffffffffffffffffff1602179055508173ffffffffffffffffffffffffffffffffffffffff168173ffffffffffffffffffffffffffffffffffffffff167f8be0079c531659141344cd1fd0a4f28419497f9722a3daafe3b4186f6b6457e060405160405180910390a35050565b600073ffffffffffffffffffffffffffffffffffffffff168473ffffffffffffffffffffffffffffffffffffffff1603611d6b5760006040517fe602df05000000000000000000000000000000000000000000000000000000008152600401611d629190612427565b60405180910390fd5b600073ffffffffffffffffffffffffffffffffffffffff168373ffffffffffffffffffffffffffffffffffffffff1603611ddd5760006040517f94280d62000000000000000000000000000000000000000000000000000000008152600401611dd49190612427565b60405180910390fd5b81600260008673ffffffffffffffffffffffffffffffffffffffff1673ffffffffffffffffffffffffffffffffffffffff16815260200190815260200160002060008573ffffffffffffffffffffffffffffffffffffffff1673ffffffffffffffffffffffffffffffffffffffff168152602001908152602001600020819055508015611eca578273ffffffffffffffffffffffffffffffffffffffff168473ffffffffffffffffffffffffffffffffffffffff167f8c5be1e5ebec7d5bd14f71427d1e84f3dd0314c0f7b2291e5b200ac8c7c3b92584604051611ec19190612179565b60405180910390a35b50505050565b600073ffffffffffffffffffffffffffffffffffffffff168373ffffffffffffffffffffffffffffffffffffffff1603611f22578060036000828254611f1691906128c5565b92505081905550611ff7565b6000600160008573ffffffffffffffffffffffffffffffffffffffff1673ffffffffffffffffffffffffffffffffffffffff16815260200190815260200160002054905081811015611faf578381836040517fe450d38c000000000000000000000000000000000000000000000000000000008152600401611fa69392919061360c565b60405180910390fd5b818103600160008673ffffffffffffffffffffffffffffffffffffffff1673ffffffffffffffffffffffffffffffffffffffff16815260200190815260200160002081905550505b600073ffffffffffffffffffffffffffffffffffffffff168273ffffffffffffffffffffffffffffffffffffffff1603612040578060036000828254039250508190555061208e565b80600160008473ffffffffffffffffffffffffffffffffffffffff1673ffffffffffffffffffffffffffffffffffffffff168152602001908152602001600020600082825401925050819055505b8173ffffffffffffffffffffffffffffffffffffffff168373ffffffffffffffffffffffffffffffffffffffff167fddf252ad1be2c89b69c2b068fc378daa952ba7f163c4a11628f55a4df523b3ef836040516120eb9190612179565b60405180910390a3505050565b604051806101400160405280600a90602082028036833780820191505090505090565b604051806101400160405280600a90602082028036833780820191505090505090565b6040518060400160405280600290602082028036833780820191505090505090565b6000819050919050565b61217381612160565b82525050565b600060208201905061218e600083018461216a565b92915050565b600081519050919050565b600082825260208201905092915050565b60005b838110156121ce5780820151818401526020810190506121b3565b60008484015250505050565b6000601f19601f8301169050919050565b60006121f682612194565b612200818561219f565b93506122108185602086016121b0565b612219816121da565b840191505092915050565b6000602082019050818103600083015261223e81846121eb565b905092915050565b600080fd5b600073ffffffffffffffffffffffffffffffffffffffff82169050919050565b60006122768261224b565b9050919050565b6122868161226b565b811461229157600080fd5b50565b6000813590506122a38161227d565b92915050565b6122b281612160565b81146122bd57600080fd5b50565b6000813590506122cf816122a9565b92915050565b600080604083850312156122ec576122eb612246565b5b60006122fa85828601612294565b925050602061230b858286016122c0565b9150509250929050565b60008115159050919050565b61232a81612315565b82525050565b60006020820190506123456000830184612321565b92915050565b6000819050919050565b600061237061236b6123668461224b565b61234b565b61224b565b9050919050565b600061238282612355565b9050919050565b600061239482612377565b9050919050565b6123a481612389565b82525050565b60006020820190506123bf600083018461239b565b92915050565b6000806000606084860312156123de576123dd612246565b5b60006123ec86828701612294565b93505060206123fd86828701612294565b925050604061240e868287016122c0565b9150509250925092565b6124218161226b565b82525050565b600060208201905061243c6000830184612418565b92915050565b600060ff82169050919050565b61245881612442565b82525050565b6000602082019050612473600083018461244f565b92915050565b60006020828403121561248f5761248e612246565b5b600061249d848285016122c0565b91505092915050565b600080fd5b6000819050826020600202820111156124c7576124c66124a6565b5b92915050565b6000819050826040600202820111156124e9576124e86124a6565b5b92915050565b6000806000806000610160868803121561250c5761250b612246565b5b600061251a888289016122c0565b955050602061252b888289016124ab565b945050606061253c888289016124cd565b93505060e061254d888289016124ab565b92505061012061255f888289016124ab565b9150509295509295909350565b60006020828403121561258257612581612246565b5b600061259084828501612294565b91505092915050565b60006125a482612377565b9050919050565b6125b481612599565b82525050565b60006020820190506125cf60008301846125ab565b92915050565b60006080820190506125ea6000830187612418565b6125f7602083018661216a565b612604604083018561216a565b6126116060830184612321565b95945050505050565b61262381612442565b811461262e57600080fd5b50565b6000813590506126408161261a565b92915050565b60006020828403121561265c5761265b612246565b5b600061266a84828501612631565b91505092915050565b6000806040838503121561268a57612689612246565b5b600061269885828601612294565b92505060206126a985828601612294565b9150509250929050565b600080604083850312156126ca576126c9612246565b5b60006126d8858286016122c0565b92505060206126e9858286016122c0565b9150509250929050565b60006126fe82612377565b9050919050565b61270e816126f3565b82525050565b60006020820190506127296000830184612705565b92915050565b7f4e487b7100000000000000000000000000000000000000000000000000000000600052602260045260246000fd5b6000600282049050600182168061277657607f821691505b6020821081036127895761278861272f565b5b50919050565b7f496e76616c696420696400000000000000000000000000000000000000000000600082015250565b60006127c5600a8361219f565b91506127d08261278f565b602082019050919050565b600060208201905081810360008301526127f4816127b8565b9050919050565b7f4e487b7100000000000000000000000000000000000000000000000000000000600052603260045260246000fd5b7f4f6e6c79206f776e65722063616e2072656465656d0000000000000000000000600082015250565b600061286060158361219f565b915061286b8261282a565b602082019050919050565b6000602082019050818103600083015261288f81612853565b9050919050565b7f4e487b7100000000000000000000000000000000000000000000000000000000600052601160045260246000fd5b60006128d082612160565b91506128db83612160565b92508282019050808211156128f3576128f2612896565b5b92915050565b7f5374696c6c20696e206c6f636b20706572696f64000000000000000000000000600082015250565b600061292f60148361219f565b915061293a826128f9565b602082019050919050565b6000602082019050818103600083015261295e81612922565b9050919050565b7f4e6f742076616c69640000000000000000000000000000000000000000000000600082015250565b600061299b60098361219f565b91506129a682612965565b602082019050919050565b600060208201905081810360008301526129ca8161298e565b9050919050565b7f616c7265616479207370656e7400000000000000000000000000000000000000600082015250565b6000612a07600d8361219f565b9150612a12826129d1565b602082019050919050565b60006020820190508181036000830152612a36816129fa565b9050919050565b7f6e6f7420726f6f74000000000000000000000000000000000000000000000000600082015250565b6000612a7360088361219f565b9150612a7e82612a3d565b602082019050919050565b60006020820190508181036000830152612aa281612a66565b9050919050565b82818337505050565b612abe60408383612aa9565b5050565b600060029050919050565b600081905092915050565b6000819050919050565b612aee60408383612aa9565b5050565b6000612afe8383612ae2565b60408301905092915050565b600082905092915050565b6000604082019050919050565b612b2b81612ac2565b612b358184612acd565b9250612b4082612ad8565b8060005b83811015612b7957612b568284612b0a565b612b608782612af2565b9650612b6b83612b15565b925050600181019050612b44565b505050505050565b600060039050919050565b600081905092915050565b6000819050919050565b612baa81612160565b82525050565b6000612bbc8383612ba1565b60208301905092915050565b6000602082019050919050565b612bde81612b81565b612be88184612b8c565b9250612bf382612b97565b8060005b83811015612c24578151612c0b8782612bb0565b9650612c1683612bc8565b925050600181019050612bf7565b505050505050565b600061016082019050612c426000830187612ab2565b612c4f6040830186612b22565b612c5c60c0830185612ab2565b612c6a610100830184612bd5565b95945050505050565b600081519050919050565b600081905092915050565b6000612c9482612c73565b612c9e8185612c7e565b9350612cae8185602086016121b0565b80840191505092915050565b6000612cc68284612c89565b915081905092915050565b7f696e76616c69642070726f6f6600000000000000000000000000000000000000600082015250565b6000612d07600d8361219f565b9150612d1282612cd1565b602082019050919050565b60006020820190508181036000830152612d3681612cfa565b9050919050565b6000606082019050612d526000830186612418565b612d5f602083018561216a565b612d6c6040830184612418565b949350505050565b600081519050612d83816122a9565b92915050565b600060208284031215612d9f57612d9e612246565b5b6000612dad84828501612d74565b91505092915050565b6000604082019050612dcb6000830185612418565b612dd8602083018461216a565b9392505050565b612de881612315565b8114612df357600080fd5b50565b600081519050612e0581612ddf565b92915050565b600060208284031215612e2157612e20612246565b5b6000612e2f84828501612df6565b91505092915050565b6000612e4382612160565b9150612e4e83612160565b9250828203905081811115612e6657612e65612896565b5b92915050565b7f43616e6e6f74206465706f736974207a65726f20746f6b656e73000000000000600082015250565b6000612ea2601a8361219f565b9150612ead82612e6c565b602082019050919050565b60006020820190508181036000830152612ed181612e95565b9050919050565b7f496e73756666696369656e742062616c616e6365000000000000000000000000600082015250565b6000612f0e60148361219f565b9150612f1982612ed8565b602082019050919050565b60006020820190508181036000830152612f3d81612f01565b9050919050565b6000604082019050612f596000830185612418565b612f666020830184612418565b9392505050565b7f496e73756666696369656e7420616c6c6f77616e636500000000000000000000600082015250565b6000612fa360168361219f565b9150612fae82612f6d565b602082019050919050565b60006020820190508181036000830152612fd281612f96565b9050919050565b7f6475706c696361746520636f6d6d69746d656e74206861736800000000000000600082015250565b600061300f60198361219f565b915061301a82612fd9565b602082019050919050565b6000602082019050818103600083015261303e81613002565b9050919050565b60008160011c9050919050565b6000808291508390505b600185111561309c5780860481111561307857613077612896565b5b60018516156130875780820291505b808102905061309585613045565b945061305c565b94509492505050565b6000826130b55760019050613171565b816130c35760009050613171565b81600181146130d957600281146130e357613112565b6001915050613171565b60ff8411156130f5576130f4612896565b5b8360020a91508482111561310c5761310b612896565b5b50613171565b5060208310610133831016604e8410600b84101617156131475782820a90508381111561314257613141612896565b5b613171565b6131548484846001613052565b9250905081840481111561316b5761316a612896565b5b81810290505b9392505050565b600061318382612160565b915061318e83612442565b92506131bb7fffffffffffffffffffffffffffffffffffffffffffffffffffffffffffffffff84846130a5565b905092915050565b7f747265652066756c6c0000000000000000000000000000000000000000000000600082015250565b60006131f960098361219f565b9150613204826131c3565b602082019050919050565b60006020820190508181036000830152613228816131ec565b9050919050565b60006060820190506132446000830186612418565b6132516020830185612418565b61325e604083018461216a565b949350505050565b6000819050919050565b600061ffff82169050919050565b600061329961329461328f84613266565b61234b565b613270565b9050919050565b6132a98161327e565b82525050565b60006080820190506132c46000830187612418565b6132d1602083018661216a565b6132de6040830185612418565b6132eb60608301846132a0565b95945050505050565b7f4e487b7100000000000000000000000000000000000000000000000000000000600052601260045260246000fd5b600061332e82612160565b915061333983612160565b925082613349576133486132f4565b5b828206905092915050565b600060029050919050565b600081905092915050565b6000819050919050565b6000602082019050919050565b61338a81613354565b613394818461335f565b925061339f8261336a565b8060005b838110156133d05781516133b78782612bb0565b96506133c283613374565b9250506001810190506133a3565b505050505050565b60006060820190506133ed6000830185613381565b6133fa604083018461216a565b9392505050565b600061340c82612160565b915061341783612160565b925082613427576134266132f4565b5b828204905092915050565b600061343d82612442565b915060ff82036134505761344f612896565b5b600182019050919050565b600061346682612160565b91507fffffffffffffffffffffffffffffffffffffffffffffffffffffffffffffffff820361349857613497612896565b5b600182019050919050565b6000600a9050919050565b600081905092915050565b6000819050919050565b6000602082019050919050565b6134d9816134a3565b6134e381846134ae565b92506134ee826134b9565b8060005b8381101561351f5781516135068782612bb0565b9650613511836134c3565b9250506001810190506134f2565b505050505050565b6000600a9050919050565b600081905092915050565b6000819050919050565b61355081612442565b82525050565b60006135628383613547565b60208301905092915050565b6000602082019050919050565b61358481613527565b61358e8184613532565b92506135998261353d565b8060005b838110156135ca5781516135b18782613556565b96506135bc8361356e565b92505060018101905061359d565b505050505050565b60006102a0820190506135e860008301866134d0565b6135f661014083018561357b565b61360461028083018461216a565b949350505050565b60006060820190506136216000830186612418565b61362e602083018561216a565b61363b604083018461216a565b94935050505056fea2646970667358221220ce641048cbbae55138459ecce00a149ba79b9ef4bdf8bcff7dbae98c597c76f164736f6c63430008140033","opcodes":"PUSH1 0x80 PUSH1 0x40 MSTORE PUSH1 0xA PUSH1 0xC PUSH1 0x0 PUSH2 0x100 EXP DUP2 SLOAD DUP2 PUSH1 0xFF MUL NOT AND SWAP1 DUP4 PUSH1 0xFF AND MUL OR SWAP1 SSTORE POP PUSH1 0x0 PUSH1 0xD SSTORE PUSH1 0x40 MLOAD DUP1 PUSH2 0x140 ADD PUSH1 0x40 MSTORE DUP1 PUSH32 0xD4B1397294AC371D7E6327985B84E513E1A67D7511CD9E97C8D863F475234FF3 DUP2 MSTORE PUSH1 0x20 ADD PUSH32 0x7A1950291D8F8D98FFA31FB48D4ADE1F75579C189663A7AD6253E054EB3C6E02 DUP2 MSTORE PUSH1 0x20 ADD PUSH32 0x9A5BD8DCBF46DD9D94AA5F453A88C30EA30078F4233B48B7E6A09C309EFCAACF DUP2 MSTORE PUSH1 0x20 ADD PUSH32 0x10D25A62653575746E8C8D14D457CAD6D4D84237F8C0469F2B6FC1D8EEFDEDCF DUP2 MSTORE PUSH1 0x20 ADD PUSH32 0xB8CCA00D5457EEBA20A4A2559E4B7B8474AA461FDCCA193AB9C684F42548A792 DUP2 MSTORE PUSH1 0x20 ADD PUSH32 0xF1FA21B6A1C7E39C31BC19188CD3492B0093F7A08B3A5452BCC90FD72E39169B DUP2 MSTORE PUSH1 0x20 ADD PUSH32 0xA7719A5FCE76578CF8F2FE028AA33A8D8DAFBB9D56D135D6BDBB98B588BFBE4D DUP2 MSTORE PUSH1 0x20 ADD PUSH32 0xD74B7E6E290C206AF23FA785F7088F4646778A6F4E238BFF11A81493B421DA6B DUP2 MSTORE PUSH1 0x20 ADD PUSH32 0x43B04FD9E248D46A8E3C53786AAA06ABCBC7152859D957393A7ED77F937B82DF DUP2 MSTORE PUSH1 0x20 ADD PUSH32 0x4A6B78EF2B2E9AE43BB3C90C13058A03141DE722292DF4B889908EF2F19FD3E6 DUP2 MSTORE POP PUSH1 0x13 SWAP1 PUSH1 0xA PUSH3 0x1BD SWAP3 SWAP2 SWAP1 PUSH3 0x4DD JUMP JUMPDEST POP CALLVALUE DUP1 ISZERO PUSH3 0x1CB JUMPI PUSH1 0x0 DUP1 REVERT JUMPDEST POP PUSH1 0x40 MLOAD PUSH3 0x4035 CODESIZE SUB DUP1 PUSH3 0x4035 DUP4 CODECOPY DUP2 DUP2 ADD PUSH1 0x40 MSTORE DUP2 ADD SWAP1 PUSH3 0x1F1 SWAP2 SWAP1 PUSH3 0x5AB JUMP JUMPDEST PUSH1 0x40 MLOAD DUP1 PUSH1 0x40 ADD PUSH1 0x40 MSTORE DUP1 PUSH1 0x6 DUP2 MSTORE PUSH1 0x20 ADD PUSH32 0x5472697669610000000000000000000000000000000000000000000000000000 DUP2 MSTORE POP PUSH1 0x40 MLOAD DUP1 PUSH1 0x40 ADD PUSH1 0x40 MSTORE DUP1 PUSH1 0x5 DUP2 MSTORE PUSH1 0x20 ADD PUSH32 0x5472697661000000000000000000000000000000000000000000000000000000 DUP2 MSTORE POP CALLER PUSH1 0x0 PUSH20 0xFFFFFFFFFFFFFFFFFFFFFFFFFFFFFFFFFFFFFFFF AND DUP2 PUSH20 0xFFFFFFFFFFFFFFFFFFFFFFFFFFFFFFFFFFFFFFFF AND SUB PUSH3 0x2D3 JUMPI PUSH1 0x0 PUSH1 0x40 MLOAD PUSH32 0x1E4FBDF700000000000000000000000000000000000000000000000000000000 DUP2 MSTORE PUSH1 0x4 ADD PUSH3 0x2CA SWAP2 SWAP1 PUSH3 0x62E JUMP JUMPDEST PUSH1 0x40 MLOAD DUP1 SWAP2 SUB SWAP1 REVERT JUMPDEST PUSH3 0x2E4 DUP2 PUSH3 0x419 PUSH1 0x20 SHL PUSH1 0x20 SHR JUMP JUMPDEST POP DUP2 PUSH1 0x4 SWAP1 DUP2 PUSH3 0x2F6 SWAP2 SWAP1 PUSH3 0x8C5 JUMP JUMPDEST POP DUP1 PUSH1 0x5 SWAP1 DUP2 PUSH3 0x308 SWAP2 SWAP1 PUSH3 0x8C5 JUMP JUMPDEST POP POP POP DUP4 PUSH1 0x7 PUSH1 0x0 PUSH2 0x100 EXP DUP2 SLOAD DUP2 PUSH20 0xFFFFFFFFFFFFFFFFFFFFFFFFFFFFFFFFFFFFFFFF MUL NOT AND SWAP1 DUP4 PUSH20 0xFFFFFFFFFFFFFFFFFFFFFFFFFFFFFFFFFFFFFFFF AND MUL OR SWAP1 SSTORE POP DUP3 PUSH1 0x6 PUSH1 0x0 PUSH2 0x100 EXP DUP2 SLOAD DUP2 PUSH20 0xFFFFFFFFFFFFFFFFFFFFFFFFFFFFFFFFFFFFFFFF MUL NOT AND SWAP1 DUP4 PUSH20 0xFFFFFFFFFFFFFFFFFFFFFFFFFFFFFFFFFFFFFFFF AND MUL OR SWAP1 SSTORE POP DUP2 PUSH1 0x9 PUSH1 0x0 PUSH2 0x100 EXP DUP2 SLOAD DUP2 PUSH20 0xFFFFFFFFFFFFFFFFFFFFFFFFFFFFFFFFFFFFFFFF MUL NOT AND SWAP1 DUP4 PUSH20 0xFFFFFFFFFFFFFFFFFFFFFFFFFFFFFFFFFFFFFFFF AND MUL OR SWAP1 SSTORE POP DUP1 PUSH1 0x8 PUSH1 0x0 PUSH2 0x100 EXP DUP2 SLOAD DUP2 PUSH20 0xFFFFFFFFFFFFFFFFFFFFFFFFFFFFFFFFFFFFFFFF MUL NOT AND SWAP1 DUP4 PUSH20 0xFFFFFFFFFFFFFFFFFFFFFFFFFFFFFFFFFFFFFFFF AND MUL OR SWAP1 SSTORE POP POP POP POP POP PUSH3 0x9AC JUMP JUMPDEST PUSH1 0x0 DUP1 PUSH1 0x0 SWAP1 SLOAD SWAP1 PUSH2 0x100 EXP SWAP1 DIV PUSH20 0xFFFFFFFFFFFFFFFFFFFFFFFFFFFFFFFFFFFFFFFF AND SWAP1 POP DUP2 PUSH1 0x0 DUP1 PUSH2 0x100 EXP DUP2 SLOAD DUP2 PUSH20 0xFFFFFFFFFFFFFFFFFFFFFFFFFFFFFFFFFFFFFFFF MUL NOT AND SWAP1 DUP4 PUSH20 0xFFFFFFFFFFFFFFFFFFFFFFFFFFFFFFFFFFFFFFFF AND MUL OR SWAP1 SSTORE POP DUP2 PUSH20 0xFFFFFFFFFFFFFFFFFFFFFFFFFFFFFFFFFFFFFFFF AND DUP2 PUSH20 0xFFFFFFFFFFFFFFFFFFFFFFFFFFFFFFFFFFFFFFFF AND PUSH32 0x8BE0079C531659141344CD1FD0A4F28419497F9722A3DAAFE3B4186F6B6457E0 PUSH1 0x40 MLOAD PUSH1 0x40 MLOAD DUP1 SWAP2 SUB SWAP1 LOG3 POP POP JUMP JUMPDEST DUP3 PUSH1 0xA DUP2 ADD SWAP3 DUP3 ISZERO PUSH3 0x50F JUMPI SWAP2 PUSH1 0x20 MUL DUP3 ADD JUMPDEST DUP3 DUP2 GT ISZERO PUSH3 0x50E JUMPI DUP3 MLOAD DUP3 SSTORE SWAP2 PUSH1 0x20 ADD SWAP2 SWAP1 PUSH1 0x1 ADD SWAP1 PUSH3 0x4F1 JUMP JUMPDEST JUMPDEST POP SWAP1 POP PUSH3 0x51E SWAP2 SWAP1 PUSH3 0x522 JUMP JUMPDEST POP SWAP1 JUMP JUMPDEST JUMPDEST DUP1 DUP3 GT ISZERO PUSH3 0x53D JUMPI PUSH1 0x0 DUP2 PUSH1 0x0 SWAP1 SSTORE POP PUSH1 0x1 ADD PUSH3 0x523 JUMP JUMPDEST POP SWAP1 JUMP JUMPDEST PUSH1 0x0 DUP1 REVERT JUMPDEST PUSH1 0x0 PUSH20 0xFFFFFFFFFFFFFFFFFFFFFFFFFFFFFFFFFFFFFFFF DUP3 AND SWAP1 POP SWAP2 SWAP1 POP JUMP JUMPDEST PUSH1 0x0 PUSH3 0x573 DUP3 PUSH3 0x546 JUMP JUMPDEST SWAP1 POP SWAP2 SWAP1 POP JUMP JUMPDEST PUSH3 0x585 DUP2 PUSH3 0x566 JUMP JUMPDEST DUP2 EQ PUSH3 0x591 JUMPI PUSH1 0x0 DUP1 REVERT JUMPDEST POP JUMP JUMPDEST PUSH1 0x0 DUP2 MLOAD SWAP1 POP PUSH3 0x5A5 DUP2 PUSH3 0x57A JUMP JUMPDEST SWAP3 SWAP2 POP POP JUMP JUMPDEST PUSH1 0x0 DUP1 PUSH1 0x0 DUP1 PUSH1 0x80 DUP6 DUP8 SUB SLT ISZERO PUSH3 0x5C8 JUMPI PUSH3 0x5C7 PUSH3 0x541 JUMP JUMPDEST JUMPDEST PUSH1 0x0 PUSH3 0x5D8 DUP8 DUP3 DUP9 ADD PUSH3 0x594 JUMP JUMPDEST SWAP5 POP POP PUSH1 0x20 PUSH3 0x5EB DUP8 DUP3 DUP9 ADD PUSH3 0x594 JUMP JUMPDEST SWAP4 POP POP PUSH1 0x40 PUSH3 0x5FE DUP8 DUP3 DUP9 ADD PUSH3 0x594 JUMP JUMPDEST SWAP3 POP POP PUSH1 0x60 PUSH3 0x611 DUP8 DUP3 DUP9 ADD PUSH3 0x594 JUMP JUMPDEST SWAP2 POP POP SWAP3 SWAP6 SWAP2 SWAP5 POP SWAP3 POP JUMP JUMPDEST PUSH3 0x628 DUP2 PUSH3 0x566 JUMP JUMPDEST DUP3 MSTORE POP POP JUMP JUMPDEST PUSH1 0x0 PUSH1 0x20 DUP3 ADD SWAP1 POP PUSH3 0x645 PUSH1 0x0 DUP4 ADD DUP5 PUSH3 0x61D JUMP JUMPDEST SWAP3 SWAP2 POP POP JUMP JUMPDEST PUSH1 0x0 DUP2 MLOAD SWAP1 POP SWAP2 SWAP1 POP JUMP JUMPDEST PUSH32 0x4E487B7100000000000000000000000000000000000000000000000000000000 PUSH1 0x0 MSTORE PUSH1 0x41 PUSH1 0x4 MSTORE PUSH1 0x24 PUSH1 0x0 REVERT JUMPDEST PUSH32 0x4E487B7100000000000000000000000000000000000000000000000000000000 PUSH1 0x0 MSTORE PUSH1 0x22 PUSH1 0x4 MSTORE PUSH1 0x24 PUSH1 0x0 REVERT JUMPDEST PUSH1 0x0 PUSH1 0x2 DUP3 DIV SWAP1 POP PUSH1 0x1 DUP3 AND DUP1 PUSH3 0x6CD JUMPI PUSH1 0x7F DUP3 AND SWAP2 POP JUMPDEST PUSH1 0x20 DUP3 LT DUP2 SUB PUSH3 0x6E3 JUMPI PUSH3 0x6E2 PUSH3 0x685 JUMP JUMPDEST JUMPDEST POP SWAP2 SWAP1 POP JUMP JUMPDEST PUSH1 0x0 DUP2 SWAP1 POP DUP2 PUSH1 0x0 MSTORE PUSH1 0x20 PUSH1 0x0 KECCAK256 SWAP1 POP SWAP2 SWAP1 POP JUMP JUMPDEST PUSH1 0x0 PUSH1 0x20 PUSH1 0x1F DUP4 ADD DIV SWAP1 POP SWAP2 SWAP1 POP JUMP JUMPDEST PUSH1 0x0 DUP3 DUP3 SHL SWAP1 POP SWAP3 SWAP2 POP POP JUMP JUMPDEST PUSH1 0x0 PUSH1 0x8 DUP4 MUL PUSH3 0x74D PUSH32 0xFFFFFFFFFFFFFFFFFFFFFFFFFFFFFFFFFFFFFFFFFFFFFFFFFFFFFFFFFFFFFFFF DUP3 PUSH3 0x70E JUMP JUMPDEST PUSH3 0x759 DUP7 DUP4 PUSH3 0x70E JUMP JUMPDEST SWAP6 POP DUP1 NOT DUP5 AND SWAP4 POP DUP1 DUP7 AND DUP5 OR SWAP3 POP POP POP SWAP4 SWAP3 POP POP POP JUMP JUMPDEST PUSH1 0x0 DUP2 SWAP1 POP SWAP2 SWAP1 POP JUMP JUMPDEST PUSH1 0x0 DUP2 SWAP1 POP SWAP2 SWAP1 POP JUMP JUMPDEST PUSH1 0x0 PUSH3 0x7A6 PUSH3 0x7A0 PUSH3 0x79A DUP5 PUSH3 0x771 JUMP JUMPDEST PUSH3 0x77B JUMP JUMPDEST PUSH3 0x771 JUMP JUMPDEST SWAP1 POP SWAP2 SWAP1 POP JUMP JUMPDEST PUSH1 0x0 DUP2 SWAP1 POP SWAP2 SWAP1 POP JUMP JUMPDEST PUSH3 0x7C2 DUP4 PUSH3 0x785 JUMP JUMPDEST PUSH3 0x7DA PUSH3 0x7D1 DUP3 PUSH3 0x7AD JUMP JUMPDEST DUP5 DUP5 SLOAD PUSH3 0x71B JUMP JUMPDEST DUP3 SSTORE POP POP POP POP JUMP JUMPDEST PUSH1 0x0 SWAP1 JUMP JUMPDEST PUSH3 0x7F1 PUSH3 0x7E2 JUMP JUMPDEST PUSH3 0x7FE DUP2 DUP5 DUP5 PUSH3 0x7B7 JUMP JUMPDEST POP POP POP JUMP JUMPDEST JUMPDEST DUP2 DUP2 LT ISZERO PUSH3 0x826 JUMPI PUSH3 0x81A PUSH1 0x0 DUP3 PUSH3 0x7E7 JUMP JUMPDEST PUSH1 0x1 DUP2 ADD SWAP1 POP PUSH3 0x804 JUMP JUMPDEST POP POP JUMP JUMPDEST PUSH1 0x1F DUP3 GT ISZERO PUSH3 0x875 JUMPI PUSH3 0x83F DUP2 PUSH3 0x6E9 JUMP JUMPDEST PUSH3 0x84A DUP5 PUSH3 0x6FE JUMP JUMPDEST DUP2 ADD PUSH1 0x20 DUP6 LT ISZERO PUSH3 0x85A JUMPI DUP2 SWAP1 POP JUMPDEST PUSH3 0x872 PUSH3 0x869 DUP6 PUSH3 0x6FE JUMP JUMPDEST DUP4 ADD DUP3 PUSH3 0x803 JUMP JUMPDEST POP POP JUMPDEST POP POP POP JUMP JUMPDEST PUSH1 0x0 DUP3 DUP3 SHR SWAP1 POP SWAP3 SWAP2 POP POP JUMP JUMPDEST PUSH1 0x0 PUSH3 0x89A PUSH1 0x0 NOT DUP5 PUSH1 0x8 MUL PUSH3 0x87A JUMP JUMPDEST NOT DUP1 DUP4 AND SWAP2 POP POP SWAP3 SWAP2 POP POP JUMP JUMPDEST PUSH1 0x0 PUSH3 0x8B5 DUP4 DUP4 PUSH3 0x887 JUMP JUMPDEST SWAP2 POP DUP3 PUSH1 0x2 MUL DUP3 OR SWAP1 POP SWAP3 SWAP2 POP POP JUMP JUMPDEST PUSH3 0x8D0 DUP3 PUSH3 0x64B JUMP JUMPDEST PUSH8 0xFFFFFFFFFFFFFFFF DUP2 GT ISZERO PUSH3 0x8EC JUMPI PUSH3 0x8EB PUSH3 0x656 JUMP JUMPDEST JUMPDEST PUSH3 0x8F8 DUP3 SLOAD PUSH3 0x6B4 JUMP JUMPDEST PUSH3 0x905 DUP3 DUP3 DUP6 PUSH3 0x82A JUMP JUMPDEST PUSH1 0x0 PUSH1 0x20 SWAP1 POP PUSH1 0x1F DUP4 GT PUSH1 0x1 DUP2 EQ PUSH3 0x93D JUMPI PUSH1 0x0 DUP5 ISZERO PUSH3 0x928 JUMPI DUP3 DUP8 ADD MLOAD SWAP1 POP JUMPDEST PUSH3 0x934 DUP6 DUP3 PUSH3 0x8A7 JUMP JUMPDEST DUP7 SSTORE POP PUSH3 0x9A4 JUMP JUMPDEST PUSH1 0x1F NOT DUP5 AND PUSH3 0x94D DUP7 PUSH3 0x6E9 JUMP JUMPDEST PUSH1 0x0 JUMPDEST DUP3 DUP2 LT ISZERO PUSH3 0x977 JUMPI DUP5 DUP10 ADD MLOAD DUP3 SSTORE PUSH1 0x1 DUP3 ADD SWAP2 POP PUSH1 0x20 DUP6 ADD SWAP5 POP PUSH1 0x20 DUP2 ADD SWAP1 POP PUSH3 0x950 JUMP JUMPDEST DUP7 DUP4 LT ISZERO PUSH3 0x997 JUMPI DUP5 DUP10 ADD MLOAD PUSH3 0x993 PUSH1 0x1F DUP10 AND DUP3 PUSH3 0x887 JUMP JUMPDEST DUP4 SSTORE POP JUMPDEST PUSH1 0x1 PUSH1 0x2 DUP9 MUL ADD DUP9 SSTORE POP POP POP JUMPDEST POP POP POP POP POP POP JUMP JUMPDEST PUSH2 0x3679 DUP1 PUSH3 0x9BC PUSH1 0x0 CODECOPY PUSH1 0x0 RETURN INVALID PUSH1 0x80 PUSH1 0x40 MSTORE CALLVALUE DUP1 ISZERO PUSH2 0x10 JUMPI PUSH1 0x0 DUP1 REVERT JUMPDEST POP PUSH1 0x4 CALLDATASIZE LT PUSH2 0x1C4 JUMPI PUSH1 0x0 CALLDATALOAD PUSH1 0xE0 SHR DUP1 PUSH4 0x7B5758B1 GT PUSH2 0xF9 JUMPI DUP1 PUSH4 0xC2B40AE4 GT PUSH2 0x97 JUMPI DUP1 PUSH4 0xDD62ED3E GT PUSH2 0x71 JUMPI DUP1 PUSH4 0xDD62ED3E EQ PUSH2 0x528 JUMPI DUP1 PUSH4 0xE2BBB158 EQ PUSH2 0x558 JUMPI DUP1 PUSH4 0xED33639F EQ PUSH2 0x574 JUMPI DUP1 PUSH4 0xF2FDE38B EQ PUSH2 0x592 JUMPI PUSH2 0x1C4 JUMP JUMPDEST DUP1 PUSH4 0xC2B40AE4 EQ PUSH2 0x495 JUMPI DUP1 PUSH4 0xCEE9E428 EQ PUSH2 0x4C5 JUMPI DUP1 PUSH4 0xD5400047 EQ PUSH2 0x4F8 JUMPI PUSH2 0x1C4 JUMP JUMPDEST DUP1 PUSH4 0x95D89B41 GT PUSH2 0xD3 JUMPI DUP1 PUSH4 0x95D89B41 EQ PUSH2 0x40B JUMPI DUP1 PUSH4 0xA03E4BC3 EQ PUSH2 0x429 JUMPI DUP1 PUSH4 0xA9059CBB EQ PUSH2 0x447 JUMPI DUP1 PUSH4 0xB8E79564 EQ PUSH2 0x477 JUMPI PUSH2 0x1C4 JUMP JUMPDEST DUP1 PUSH4 0x7B5758B1 EQ PUSH2 0x39F JUMPI DUP1 PUSH4 0x817B1CD2 EQ PUSH2 0x3CF JUMPI DUP1 PUSH4 0x8DA5CB5B EQ PUSH2 0x3ED JUMPI PUSH2 0x1C4 JUMP JUMPDEST DUP1 PUSH4 0x2B7AC3F3 GT PUSH2 0x166 JUMPI DUP1 PUSH4 0x49CE8997 GT PUSH2 0x140 JUMPI DUP1 PUSH4 0x49CE8997 EQ PUSH2 0x319 JUMPI DUP1 PUSH4 0x6FECE60B EQ PUSH2 0x349 JUMPI DUP1 PUSH4 0x70A08231 EQ PUSH2 0x365 JUMPI DUP1 PUSH4 0x715018A6 EQ PUSH2 0x395 JUMPI PUSH2 0x1C4 JUMP JUMPDEST DUP1 PUSH4 0x2B7AC3F3 EQ PUSH2 0x2BF JUMPI DUP1 PUSH4 0x313CE567 EQ PUSH2 0x2DD JUMPI DUP1 PUSH4 0x4056FF1B EQ PUSH2 0x2FB JUMPI PUSH2 0x1C4 JUMP JUMPDEST DUP1 PUSH4 0x11EAC855 GT PUSH2 0x1A2 JUMPI DUP1 PUSH4 0x11EAC855 EQ PUSH2 0x235 JUMPI DUP1 PUSH4 0x18160DDD EQ PUSH2 0x253 JUMPI DUP1 PUSH4 0x1820CABB EQ PUSH2 0x271 JUMPI DUP1 PUSH4 0x23B872DD EQ PUSH2 0x28F JUMPI PUSH2 0x1C4 JUMP JUMPDEST DUP1 PUSH4 0x6683E4B EQ PUSH2 0x1C9 JUMPI DUP1 PUSH4 0x6FDDE03 EQ PUSH2 0x1E7 JUMPI DUP1 PUSH4 0x95EA7B3 EQ PUSH2 0x205 JUMPI JUMPDEST PUSH1 0x0 DUP1 REVERT JUMPDEST PUSH2 0x1D1 PUSH2 0x5AE JUMP JUMPDEST PUSH1 0x40 MLOAD PUSH2 0x1DE SWAP2 SWAP1 PUSH2 0x2179 JUMP JUMPDEST PUSH1 0x40 MLOAD DUP1 SWAP2 SUB SWAP1 RETURN JUMPDEST PUSH2 0x1EF PUSH2 0x5B4 JUMP JUMPDEST PUSH1 0x40 MLOAD PUSH2 0x1FC SWAP2 SWAP1 PUSH2 0x2224 JUMP JUMPDEST PUSH1 0x40 MLOAD DUP1 SWAP2 SUB SWAP1 RETURN JUMPDEST PUSH2 0x21F PUSH1 0x4 DUP1 CALLDATASIZE SUB DUP2 ADD SWAP1 PUSH2 0x21A SWAP2 SWAP1 PUSH2 0x22D5 JUMP JUMPDEST PUSH2 0x646 JUMP JUMPDEST PUSH1 0x40 MLOAD PUSH2 0x22C SWAP2 SWAP1 PUSH2 0x2330 JUMP JUMPDEST PUSH1 0x40 MLOAD DUP1 SWAP2 SUB SWAP1 RETURN JUMPDEST PUSH2 0x23D PUSH2 0x669 JUMP JUMPDEST PUSH1 0x40 MLOAD PUSH2 0x24A SWAP2 SWAP1 PUSH2 0x23AA JUMP JUMPDEST PUSH1 0x40 MLOAD DUP1 SWAP2 SUB SWAP1 RETURN JUMPDEST PUSH2 0x25B PUSH2 0x68F JUMP JUMPDEST PUSH1 0x40 MLOAD PUSH2 0x268 SWAP2 SWAP1 PUSH2 0x2179 JUMP JUMPDEST PUSH1 0x40 MLOAD DUP1 SWAP2 SUB SWAP1 RETURN JUMPDEST PUSH2 0x279 PUSH2 0x699 JUMP JUMPDEST PUSH1 0x40 MLOAD PUSH2 0x286 SWAP2 SWAP1 PUSH2 0x2179 JUMP JUMPDEST PUSH1 0x40 MLOAD DUP1 SWAP2 SUB SWAP1 RETURN JUMPDEST PUSH2 0x2A9 PUSH1 0x4 DUP1 CALLDATASIZE SUB DUP2 ADD SWAP1 PUSH2 0x2A4 SWAP2 SWAP1 PUSH2 0x23C5 JUMP JUMPDEST PUSH2 0x6A0 JUMP JUMPDEST PUSH1 0x40 MLOAD PUSH2 0x2B6 SWAP2 SWAP1 PUSH2 0x2330 JUMP JUMPDEST PUSH1 0x40 MLOAD DUP1 SWAP2 SUB SWAP1 RETURN JUMPDEST PUSH2 0x2C7 PUSH2 0x6CF JUMP JUMPDEST PUSH1 0x40 MLOAD PUSH2 0x2D4 SWAP2 SWAP1 PUSH2 0x2427 JUMP JUMPDEST PUSH1 0x40 MLOAD DUP1 SWAP2 SUB SWAP1 RETURN JUMPDEST PUSH2 0x2E5 PUSH2 0x6F5 JUMP JUMPDEST PUSH1 0x40 MLOAD PUSH2 0x2F2 SWAP2 SWAP1 PUSH2 0x245E JUMP JUMPDEST PUSH1 0x40 MLOAD DUP1 SWAP2 SUB SWAP1 RETURN JUMPDEST PUSH2 0x303 PUSH2 0x6FE JUMP JUMPDEST PUSH1 0x40 MLOAD PUSH2 0x310 SWAP2 SWAP1 PUSH2 0x2179 JUMP JUMPDEST PUSH1 0x40 MLOAD DUP1 SWAP2 SUB SWAP1 RETURN JUMPDEST PUSH2 0x333 PUSH1 0x4 DUP1 CALLDATASIZE SUB DUP2 ADD SWAP1 PUSH2 0x32E SWAP2 SWAP1 PUSH2 0x2479 JUMP JUMPDEST PUSH2 0x704 JUMP JUMPDEST PUSH1 0x40 MLOAD PUSH2 0x340 SWAP2 SWAP1 PUSH2 0x2330 JUMP JUMPDEST PUSH1 0x40 MLOAD DUP1 SWAP2 SUB SWAP1 RETURN JUMPDEST PUSH2 0x363 PUSH1 0x4 DUP1 CALLDATASIZE SUB DUP2 ADD SWAP1 PUSH2 0x35E SWAP2 SWAP1 PUSH2 0x24EF JUMP JUMPDEST PUSH2 0x724 JUMP JUMPDEST STOP JUMPDEST PUSH2 0x37F PUSH1 0x4 DUP1 CALLDATASIZE SUB DUP2 ADD SWAP1 PUSH2 0x37A SWAP2 SWAP1 PUSH2 0x256C JUMP JUMPDEST PUSH2 0xD53 JUMP JUMPDEST PUSH1 0x40 MLOAD PUSH2 0x38C SWAP2 SWAP1 PUSH2 0x2179 JUMP JUMPDEST PUSH1 0x40 MLOAD DUP1 SWAP2 SUB SWAP1 RETURN JUMPDEST PUSH2 0x39D PUSH2 0xD9C JUMP JUMPDEST STOP JUMPDEST PUSH2 0x3B9 PUSH1 0x4 DUP1 CALLDATASIZE SUB DUP2 ADD SWAP1 PUSH2 0x3B4 SWAP2 SWAP1 PUSH2 0x2479 JUMP JUMPDEST PUSH2 0xDB0 JUMP JUMPDEST PUSH1 0x40 MLOAD PUSH2 0x3C6 SWAP2 SWAP1 PUSH2 0x2330 JUMP JUMPDEST PUSH1 0x40 MLOAD DUP1 SWAP2 SUB SWAP1 RETURN JUMPDEST PUSH2 0x3D7 PUSH2 0xDD0 JUMP JUMPDEST PUSH1 0x40 MLOAD PUSH2 0x3E4 SWAP2 SWAP1 PUSH2 0x2179 JUMP JUMPDEST PUSH1 0x40 MLOAD DUP1 SWAP2 SUB SWAP1 RETURN JUMPDEST PUSH2 0x3F5 PUSH2 0xDD6 JUMP JUMPDEST PUSH1 0x40 MLOAD PUSH2 0x402 SWAP2 SWAP1 PUSH2 0x2427 JUMP JUMPDEST PUSH1 0x40 MLOAD DUP1 SWAP2 SUB SWAP1 RETURN JUMPDEST PUSH2 0x413 PUSH2 0xDFF JUMP JUMPDEST PUSH1 0x40 MLOAD PUSH2 0x420 SWAP2 SWAP1 PUSH2 0x2224 JUMP JUMPDEST PUSH1 0x40 MLOAD DUP1 SWAP2 SUB SWAP1 RETURN JUMPDEST PUSH2 0x431 PUSH2 0xE91 JUMP JUMPDEST PUSH1 0x40 MLOAD PUSH2 0x43E SWAP2 SWAP1 PUSH2 0x25BA JUMP JUMPDEST PUSH1 0x40 MLOAD DUP1 SWAP2 SUB SWAP1 RETURN JUMPDEST PUSH2 0x461 PUSH1 0x4 DUP1 CALLDATASIZE SUB DUP2 ADD SWAP1 PUSH2 0x45C SWAP2 SWAP1 PUSH2 0x22D5 JUMP JUMPDEST PUSH2 0xEB7 JUMP JUMPDEST PUSH1 0x40 MLOAD PUSH2 0x46E SWAP2 SWAP1 PUSH2 0x2330 JUMP JUMPDEST PUSH1 0x40 MLOAD DUP1 SWAP2 SUB SWAP1 RETURN JUMPDEST PUSH2 0x47F PUSH2 0xEDA JUMP JUMPDEST PUSH1 0x40 MLOAD PUSH2 0x48C SWAP2 SWAP1 PUSH2 0x245E JUMP JUMPDEST PUSH1 0x40 MLOAD DUP1 SWAP2 SUB SWAP1 RETURN JUMPDEST PUSH2 0x4AF PUSH1 0x4 DUP1 CALLDATASIZE SUB DUP2 ADD SWAP1 PUSH2 0x4AA SWAP2 SWAP1 PUSH2 0x2479 JUMP JUMPDEST PUSH2 0xEED JUMP JUMPDEST PUSH1 0x40 MLOAD PUSH2 0x4BC SWAP2 SWAP1 PUSH2 0x2330 JUMP JUMPDEST PUSH1 0x40 MLOAD DUP1 SWAP2 SUB SWAP1 RETURN JUMPDEST PUSH2 0x4DF PUSH1 0x4 DUP1 CALLDATASIZE SUB DUP2 ADD SWAP1 PUSH2 0x4DA SWAP2 SWAP1 PUSH2 0x2479 JUMP JUMPDEST PUSH2 0xF0D JUMP JUMPDEST PUSH1 0x40 MLOAD PUSH2 0x4EF SWAP5 SWAP4 SWAP3 SWAP2 SWAP1 PUSH2 0x25D5 JUMP JUMPDEST PUSH1 0x40 MLOAD DUP1 SWAP2 SUB SWAP1 RETURN JUMPDEST PUSH2 0x512 PUSH1 0x4 DUP1 CALLDATASIZE SUB DUP2 ADD SWAP1 PUSH2 0x50D SWAP2 SWAP1 PUSH2 0x2646 JUMP JUMPDEST PUSH2 0xF7A JUMP JUMPDEST PUSH1 0x40 MLOAD PUSH2 0x51F SWAP2 SWAP1 PUSH2 0x2179 JUMP JUMPDEST PUSH1 0x40 MLOAD DUP1 SWAP2 SUB SWAP1 RETURN JUMPDEST PUSH2 0x542 PUSH1 0x4 DUP1 CALLDATASIZE SUB DUP2 ADD SWAP1 PUSH2 0x53D SWAP2 SWAP1 PUSH2 0x2673 JUMP JUMPDEST PUSH2 0xF92 JUMP JUMPDEST PUSH1 0x40 MLOAD PUSH2 0x54F SWAP2 SWAP1 PUSH2 0x2179 JUMP JUMPDEST PUSH1 0x40 MLOAD DUP1 SWAP2 SUB SWAP1 RETURN JUMPDEST PUSH2 0x572 PUSH1 0x4 DUP1 CALLDATASIZE SUB DUP2 ADD SWAP1 PUSH2 0x56D SWAP2 SWAP1 PUSH2 0x26B3 JUMP JUMPDEST PUSH2 0x1019 JUMP JUMPDEST STOP JUMPDEST PUSH2 0x57C PUSH2 0x1960 JUMP JUMPDEST PUSH1 0x40 MLOAD PUSH2 0x589 SWAP2 SWAP1 PUSH2 0x2714 JUMP JUMPDEST PUSH1 0x40 MLOAD DUP1 SWAP2 SUB SWAP1 RETURN JUMPDEST PUSH2 0x5AC PUSH1 0x4 DUP1 CALLDATASIZE SUB DUP2 ADD SWAP1 PUSH2 0x5A7 SWAP2 SWAP1 PUSH2 0x256C JUMP JUMPDEST PUSH2 0x1986 JUMP JUMPDEST STOP JUMPDEST PUSH1 0xD SLOAD DUP2 JUMP JUMPDEST PUSH1 0x60 PUSH1 0x4 DUP1 SLOAD PUSH2 0x5C3 SWAP1 PUSH2 0x275E JUMP JUMPDEST DUP1 PUSH1 0x1F ADD PUSH1 0x20 DUP1 SWAP2 DIV MUL PUSH1 0x20 ADD PUSH1 0x40 MLOAD SWAP1 DUP2 ADD PUSH1 0x40 MSTORE DUP1 SWAP3 SWAP2 SWAP1 DUP2 DUP2 MSTORE PUSH1 0x20 ADD DUP3 DUP1 SLOAD PUSH2 0x5EF SWAP1 PUSH2 0x275E JUMP JUMPDEST DUP1 ISZERO PUSH2 0x63C JUMPI DUP1 PUSH1 0x1F LT PUSH2 0x611 JUMPI PUSH2 0x100 DUP1 DUP4 SLOAD DIV MUL DUP4 MSTORE SWAP2 PUSH1 0x20 ADD SWAP2 PUSH2 0x63C JUMP JUMPDEST DUP3 ADD SWAP2 SWAP1 PUSH1 0x0 MSTORE PUSH1 0x20 PUSH1 0x0 KECCAK256 SWAP1 JUMPDEST DUP2 SLOAD DUP2 MSTORE SWAP1 PUSH1 0x1 ADD SWAP1 PUSH1 0x20 ADD DUP1 DUP4 GT PUSH2 0x61F JUMPI DUP3 SWAP1 SUB PUSH1 0x1F AND DUP3 ADD SWAP2 JUMPDEST POP POP POP POP POP SWAP1 POP SWAP1 JUMP JUMPDEST PUSH1 0x0 DUP1 PUSH2 0x651 PUSH2 0x1A0C JUMP JUMPDEST SWAP1 POP PUSH2 0x65E DUP2 DUP6 DUP6 PUSH2 0x1A14 JUMP JUMPDEST PUSH1 0x1 SWAP2 POP POP SWAP3 SWAP2 POP POP JUMP JUMPDEST PUSH1 0x9 PUSH1 0x0 SWAP1 SLOAD SWAP1 PUSH2 0x100 EXP SWAP1 DIV PUSH20 0xFFFFFFFFFFFFFFFFFFFFFFFFFFFFFFFFFFFFFFFF AND DUP2 JUMP JUMPDEST PUSH1 0x0 PUSH1 0x3 SLOAD SWAP1 POP SWAP1 JUMP JUMPDEST PUSH3 0x76A700 DUP2 JUMP JUMPDEST PUSH1 0x0 DUP1 PUSH2 0x6AB PUSH2 0x1A0C JUMP JUMPDEST SWAP1 POP PUSH2 0x6B8 DUP6 DUP3 DUP6 PUSH2 0x1A26 JUMP JUMPDEST PUSH2 0x6C3 DUP6 DUP6 DUP6 PUSH2 0x1ABA JUMP JUMPDEST PUSH1 0x1 SWAP2 POP POP SWAP4 SWAP3 POP POP POP JUMP JUMPDEST PUSH1 0x6 PUSH1 0x0 SWAP1 SLOAD SWAP1 PUSH2 0x100 EXP SWAP1 DIV PUSH20 0xFFFFFFFFFFFFFFFFFFFFFFFFFFFFFFFFFFFFFFFF AND DUP2 JUMP JUMPDEST PUSH1 0x0 PUSH1 0x12 SWAP1 POP SWAP1 JUMP JUMPDEST PUSH1 0xB SLOAD DUP2 JUMP JUMPDEST PUSH1 0x12 PUSH1 0x20 MSTORE DUP1 PUSH1 0x0 MSTORE PUSH1 0x40 PUSH1 0x0 KECCAK256 PUSH1 0x0 SWAP2 POP SLOAD SWAP1 PUSH2 0x100 EXP SWAP1 DIV PUSH1 0xFF AND DUP2 JUMP JUMPDEST PUSH1 0xB SLOAD DUP6 LT PUSH2 0x768 JUMPI PUSH1 0x40 MLOAD PUSH32 0x8C379A000000000000000000000000000000000000000000000000000000000 DUP2 MSTORE PUSH1 0x4 ADD PUSH2 0x75F SWAP1 PUSH2 0x27DB JUMP JUMPDEST PUSH1 0x40 MLOAD DUP1 SWAP2 SUB SWAP1 REVERT JUMPDEST PUSH1 0x0 PUSH1 0xE DUP7 DUP2 SLOAD DUP2 LT PUSH2 0x77E JUMPI PUSH2 0x77D PUSH2 0x27FB JUMP JUMPDEST JUMPDEST SWAP1 PUSH1 0x0 MSTORE PUSH1 0x20 PUSH1 0x0 KECCAK256 SWAP1 PUSH1 0x4 MUL ADD SWAP1 POP DUP1 PUSH1 0x0 ADD PUSH1 0x0 SWAP1 SLOAD SWAP1 PUSH2 0x100 EXP SWAP1 DIV PUSH20 0xFFFFFFFFFFFFFFFFFFFFFFFFFFFFFFFFFFFFFFFF AND PUSH20 0xFFFFFFFFFFFFFFFFFFFFFFFFFFFFFFFFFFFFFFFF AND CALLER PUSH20 0xFFFFFFFFFFFFFFFFFFFFFFFFFFFFFFFFFFFFFFFF AND EQ PUSH2 0x820 JUMPI PUSH1 0x40 MLOAD PUSH32 0x8C379A000000000000000000000000000000000000000000000000000000000 DUP2 MSTORE PUSH1 0x4 ADD PUSH2 0x817 SWAP1 PUSH2 0x2876 JUMP JUMPDEST PUSH1 0x40 MLOAD DUP1 SWAP2 SUB SWAP1 REVERT JUMPDEST PUSH3 0x76A700 DUP2 PUSH1 0x2 ADD SLOAD PUSH2 0x833 SWAP2 SWAP1 PUSH2 0x28C5 JUMP JUMPDEST TIMESTAMP LT ISZERO PUSH2 0x875 JUMPI PUSH1 0x40 MLOAD PUSH32 0x8C379A000000000000000000000000000000000000000000000000000000000 DUP2 MSTORE PUSH1 0x4 ADD PUSH2 0x86C SWAP1 PUSH2 0x2945 JUMP JUMPDEST PUSH1 0x40 MLOAD DUP1 SWAP2 SUB SWAP1 REVERT JUMPDEST DUP1 PUSH1 0x3 ADD PUSH1 0x0 SWAP1 SLOAD SWAP1 PUSH2 0x100 EXP SWAP1 DIV PUSH1 0xFF AND PUSH2 0x8C6 JUMPI PUSH1 0x40 MLOAD PUSH32 0x8C379A000000000000000000000000000000000000000000000000000000000 DUP2 MSTORE PUSH1 0x4 ADD PUSH2 0x8BD SWAP1 PUSH2 0x29B1 JUMP JUMPDEST PUSH1 0x40 MLOAD DUP1 SWAP2 SUB SWAP1 REVERT JUMPDEST PUSH1 0x0 DUP3 PUSH1 0x0 PUSH1 0x2 DUP2 LT PUSH2 0x8DC JUMPI PUSH2 0x8DB PUSH2 0x27FB JUMP JUMPDEST JUMPDEST PUSH1 0x20 MUL ADD CALLDATALOAD SWAP1 POP PUSH1 0x0 DUP4 PUSH1 0x1 PUSH1 0x2 DUP2 LT PUSH2 0x8F9 JUMPI PUSH2 0x8F8 PUSH2 0x27FB JUMP JUMPDEST JUMPDEST PUSH1 0x20 MUL ADD CALLDATALOAD SWAP1 POP PUSH1 0x11 PUSH1 0x0 DUP3 DUP2 MSTORE PUSH1 0x20 ADD SWAP1 DUP2 MSTORE PUSH1 0x20 ADD PUSH1 0x0 KECCAK256 PUSH1 0x0 SWAP1 SLOAD SWAP1 PUSH2 0x100 EXP SWAP1 DIV PUSH1 0xFF AND ISZERO PUSH2 0x961 JUMPI PUSH1 0x40 MLOAD PUSH32 0x8C379A000000000000000000000000000000000000000000000000000000000 DUP2 MSTORE PUSH1 0x4 ADD PUSH2 0x958 SWAP1 PUSH2 0x2A1D JUMP JUMPDEST PUSH1 0x40 MLOAD DUP1 SWAP2 SUB SWAP1 REVERT JUMPDEST PUSH1 0xF PUSH1 0x0 DUP4 DUP2 MSTORE PUSH1 0x20 ADD SWAP1 DUP2 MSTORE PUSH1 0x20 ADD PUSH1 0x0 KECCAK256 PUSH1 0x0 SWAP1 SLOAD SWAP1 PUSH2 0x100 EXP SWAP1 DIV PUSH1 0xFF AND PUSH2 0x9C1 JUMPI PUSH1 0x40 MLOAD PUSH32 0x8C379A000000000000000000000000000000000000000000000000000000000 DUP2 MSTORE PUSH1 0x4 ADD PUSH2 0x9B8 SWAP1 PUSH2 0x2A89 JUMP JUMPDEST PUSH1 0x40 MLOAD DUP1 SWAP2 SUB SWAP1 REVERT JUMPDEST PUSH1 0x0 CALLER PUSH20 0xFFFFFFFFFFFFFFFFFFFFFFFFFFFFFFFFFFFFFFFF AND SWAP1 POP PUSH1 0x0 PUSH1 0x6 PUSH1 0x0 SWAP1 SLOAD SWAP1 PUSH2 0x100 EXP SWAP1 DIV PUSH20 0xFFFFFFFFFFFFFFFFFFFFFFFFFFFFFFFFFFFFFFFF AND PUSH20 0xFFFFFFFFFFFFFFFFFFFFFFFFFFFFFFFFFFFFFFFF AND DUP10 DUP10 DUP10 PUSH1 0x40 MLOAD DUP1 PUSH1 0x60 ADD PUSH1 0x40 MSTORE DUP1 DUP10 DUP2 MSTORE PUSH1 0x20 ADD DUP9 DUP2 MSTORE PUSH1 0x20 ADD DUP8 DUP2 MSTORE POP PUSH1 0x40 MLOAD PUSH1 0x24 ADD PUSH2 0xA48 SWAP5 SWAP4 SWAP3 SWAP2 SWAP1 PUSH2 0x2C2C JUMP JUMPDEST PUSH1 0x40 MLOAD PUSH1 0x20 DUP2 DUP4 SUB SUB DUP2 MSTORE SWAP1 PUSH1 0x40 MSTORE PUSH4 0x11479FEA PUSH1 0xE0 SHL PUSH1 0x20 DUP3 ADD DUP1 MLOAD PUSH28 0xFFFFFFFFFFFFFFFFFFFFFFFFFFFFFFFFFFFFFFFFFFFFFFFFFFFFFFFF DUP4 DUP2 DUP4 AND OR DUP4 MSTORE POP POP POP POP PUSH1 0x40 MLOAD PUSH2 0xA9A SWAP2 SWAP1 PUSH2 0x2CBA JUMP JUMPDEST PUSH1 0x0 PUSH1 0x40 MLOAD DUP1 DUP4 SUB DUP2 PUSH1 0x0 DUP7 GAS CALL SWAP2 POP POP RETURNDATASIZE DUP1 PUSH1 0x0 DUP2 EQ PUSH2 0xAD7 JUMPI PUSH1 0x40 MLOAD SWAP2 POP PUSH1 0x1F NOT PUSH1 0x3F RETURNDATASIZE ADD AND DUP3 ADD PUSH1 0x40 MSTORE RETURNDATASIZE DUP3 MSTORE RETURNDATASIZE PUSH1 0x0 PUSH1 0x20 DUP5 ADD RETURNDATACOPY PUSH2 0xADC JUMP JUMPDEST PUSH1 0x60 SWAP2 POP JUMPDEST POP POP SWAP1 POP DUP1 PUSH2 0xB20 JUMPI PUSH1 0x40 MLOAD PUSH32 0x8C379A000000000000000000000000000000000000000000000000000000000 DUP2 MSTORE PUSH1 0x4 ADD PUSH2 0xB17 SWAP1 PUSH2 0x2D1D JUMP JUMPDEST PUSH1 0x40 MLOAD DUP1 SWAP2 SUB SWAP1 REVERT JUMPDEST PUSH1 0x1 PUSH1 0x11 PUSH1 0x0 DUP6 DUP2 MSTORE PUSH1 0x20 ADD SWAP1 DUP2 MSTORE PUSH1 0x20 ADD PUSH1 0x0 KECCAK256 PUSH1 0x0 PUSH2 0x100 EXP DUP2 SLOAD DUP2 PUSH1 0xFF MUL NOT AND SWAP1 DUP4 ISZERO ISZERO MUL OR SWAP1 SSTORE POP PUSH1 0x8 PUSH1 0x0 SWAP1 SLOAD SWAP1 PUSH2 0x100 EXP SWAP1 DIV PUSH20 0xFFFFFFFFFFFFFFFFFFFFFFFFFFFFFFFFFFFFFFFF AND PUSH20 0xFFFFFFFFFFFFFFFFFFFFFFFFFFFFFFFFFFFFFFFF AND PUSH4 0x69328DEC PUSH1 0x9 PUSH1 0x0 SWAP1 SLOAD SWAP1 PUSH2 0x100 EXP SWAP1 DIV PUSH20 0xFFFFFFFFFFFFFFFFFFFFFFFFFFFFFFFFFFFFFFFF AND DUP8 PUSH1 0x1 ADD SLOAD ADDRESS PUSH1 0x40 MLOAD DUP5 PUSH4 0xFFFFFFFF AND PUSH1 0xE0 SHL DUP2 MSTORE PUSH1 0x4 ADD PUSH2 0xBD1 SWAP4 SWAP3 SWAP2 SWAP1 PUSH2 0x2D3D JUMP JUMPDEST PUSH1 0x20 PUSH1 0x40 MLOAD DUP1 DUP4 SUB DUP2 PUSH1 0x0 DUP8 GAS CALL ISZERO DUP1 ISZERO PUSH2 0xBF0 JUMPI RETURNDATASIZE PUSH1 0x0 DUP1 RETURNDATACOPY RETURNDATASIZE PUSH1 0x0 REVERT JUMPDEST POP POP POP POP PUSH1 0x40 MLOAD RETURNDATASIZE PUSH1 0x1F NOT PUSH1 0x1F DUP3 ADD AND DUP3 ADD DUP1 PUSH1 0x40 MSTORE POP DUP2 ADD SWAP1 PUSH2 0xC14 SWAP2 SWAP1 PUSH2 0x2D89 JUMP JUMPDEST POP PUSH1 0x9 PUSH1 0x0 SWAP1 SLOAD SWAP1 PUSH2 0x100 EXP SWAP1 DIV PUSH20 0xFFFFFFFFFFFFFFFFFFFFFFFFFFFFFFFFFFFFFFFF AND PUSH20 0xFFFFFFFFFFFFFFFFFFFFFFFFFFFFFFFFFFFFFFFF AND PUSH4 0xA9059CBB CALLER DUP8 PUSH1 0x1 ADD SLOAD PUSH1 0x40 MLOAD DUP4 PUSH4 0xFFFFFFFF AND PUSH1 0xE0 SHL DUP2 MSTORE PUSH1 0x4 ADD PUSH2 0xC76 SWAP3 SWAP2 SWAP1 PUSH2 0x2DB6 JUMP JUMPDEST PUSH1 0x20 PUSH1 0x40 MLOAD DUP1 DUP4 SUB DUP2 PUSH1 0x0 DUP8 GAS CALL ISZERO DUP1 ISZERO PUSH2 0xC95 JUMPI RETURNDATASIZE PUSH1 0x0 DUP1 RETURNDATACOPY RETURNDATASIZE PUSH1 0x0 REVERT JUMPDEST POP POP POP POP PUSH1 0x40 MLOAD RETURNDATASIZE PUSH1 0x1F NOT PUSH1 0x1F DUP3 ADD AND DUP3 ADD DUP1 PUSH1 0x40 MSTORE POP DUP2 ADD SWAP1 PUSH2 0xCB9 SWAP2 SWAP1 PUSH2 0x2E0B JUMP JUMPDEST POP DUP5 PUSH1 0x1 ADD SLOAD PUSH1 0xA PUSH1 0x0 DUP3 DUP3 SLOAD PUSH2 0xCD0 SWAP2 SWAP1 PUSH2 0x2E38 JUMP JUMPDEST SWAP3 POP POP DUP2 SWAP1 SSTORE POP PUSH1 0x0 DUP6 PUSH1 0x3 ADD PUSH1 0x0 PUSH2 0x100 EXP DUP2 SLOAD DUP2 PUSH1 0xFF MUL NOT AND SWAP1 DUP4 ISZERO ISZERO MUL OR SWAP1 SSTORE POP DUP3 CALLER PUSH20 0xFFFFFFFFFFFFFFFFFFFFFFFFFFFFFFFFFFFFFFFF AND PUSH32 0xDF273CB619D95419A9CD0EC88123A0538C85064229BAA6363788F743FFF90DEB DUP8 PUSH1 0x1 ADD SLOAD PUSH1 0x40 MLOAD PUSH2 0xD3F SWAP2 SWAP1 PUSH2 0x2179 JUMP JUMPDEST PUSH1 0x40 MLOAD DUP1 SWAP2 SUB SWAP1 LOG3 POP POP POP POP POP POP POP POP POP POP JUMP JUMPDEST PUSH1 0x0 PUSH1 0x1 PUSH1 0x0 DUP4 PUSH20 0xFFFFFFFFFFFFFFFFFFFFFFFFFFFFFFFFFFFFFFFF AND PUSH20 0xFFFFFFFFFFFFFFFFFFFFFFFFFFFFFFFFFFFFFFFF AND DUP2 MSTORE PUSH1 0x20 ADD SWAP1 DUP2 MSTORE PUSH1 0x20 ADD PUSH1 0x0 KECCAK256 SLOAD SWAP1 POP SWAP2 SWAP1 POP JUMP JUMPDEST PUSH2 0xDA4 PUSH2 0x1BAE JUMP JUMPDEST PUSH2 0xDAE PUSH1 0x0 PUSH2 0x1C35 JUMP JUMPDEST JUMP JUMPDEST PUSH1 0x11 PUSH1 0x20 MSTORE DUP1 PUSH1 0x0 MSTORE PUSH1 0x40 PUSH1 0x0 KECCAK256 PUSH1 0x0 SWAP2 POP SLOAD SWAP1 PUSH2 0x100 EXP SWAP1 DIV PUSH1 0xFF AND DUP2 JUMP JUMPDEST PUSH1 0xA SLOAD DUP2 JUMP JUMPDEST PUSH1 0x0 DUP1 PUSH1 0x0 SWAP1 SLOAD SWAP1 PUSH2 0x100 EXP SWAP1 DIV PUSH20 0xFFFFFFFFFFFFFFFFFFFFFFFFFFFFFFFFFFFFFFFF AND SWAP1 POP SWAP1 JUMP JUMPDEST PUSH1 0x60 PUSH1 0x5 DUP1 SLOAD PUSH2 0xE0E SWAP1 PUSH2 0x275E JUMP JUMPDEST DUP1 PUSH1 0x1F ADD PUSH1 0x20 DUP1 SWAP2 DIV MUL PUSH1 0x20 ADD PUSH1 0x40 MLOAD SWAP1 DUP2 ADD PUSH1 0x40 MSTORE DUP1 SWAP3 SWAP2 SWAP1 DUP2 DUP2 MSTORE PUSH1 0x20 ADD DUP3 DUP1 SLOAD PUSH2 0xE3A SWAP1 PUSH2 0x275E JUMP JUMPDEST DUP1 ISZERO PUSH2 0xE87 JUMPI DUP1 PUSH1 0x1F LT PUSH2 0xE5C JUMPI PUSH2 0x100 DUP1 DUP4 SLOAD DIV MUL DUP4 MSTORE SWAP2 PUSH1 0x20 ADD SWAP2 PUSH2 0xE87 JUMP JUMPDEST DUP3 ADD SWAP2 SWAP1 PUSH1 0x0 MSTORE PUSH1 0x20 PUSH1 0x0 KECCAK256 SWAP1 JUMPDEST DUP2 SLOAD DUP2 MSTORE SWAP1 PUSH1 0x1 ADD SWAP1 PUSH1 0x20 ADD DUP1 DUP4 GT PUSH2 0xE6A JUMPI DUP3 SWAP1 SUB PUSH1 0x1F AND DUP3 ADD SWAP2 JUMPDEST POP POP POP POP POP SWAP1 POP SWAP1 JUMP JUMPDEST PUSH1 0x8 PUSH1 0x0 SWAP1 SLOAD SWAP1 PUSH2 0x100 EXP SWAP1 DIV PUSH20 0xFFFFFFFFFFFFFFFFFFFFFFFFFFFFFFFFFFFFFFFF AND DUP2 JUMP JUMPDEST PUSH1 0x0 DUP1 PUSH2 0xEC2 PUSH2 0x1A0C JUMP JUMPDEST SWAP1 POP PUSH2 0xECF DUP2 DUP6 DUP6 PUSH2 0x1ABA JUMP JUMPDEST PUSH1 0x1 SWAP2 POP POP SWAP3 SWAP2 POP POP JUMP JUMPDEST PUSH1 0xC PUSH1 0x0 SWAP1 SLOAD SWAP1 PUSH2 0x100 EXP SWAP1 DIV PUSH1 0xFF AND DUP2 JUMP JUMPDEST PUSH1 0xF PUSH1 0x20 MSTORE DUP1 PUSH1 0x0 MSTORE PUSH1 0x40 PUSH1 0x0 KECCAK256 PUSH1 0x0 SWAP2 POP SLOAD SWAP1 PUSH2 0x100 EXP SWAP1 DIV PUSH1 0xFF AND DUP2 JUMP JUMPDEST PUSH1 0xE DUP2 DUP2 SLOAD DUP2 LT PUSH2 0xF1D JUMPI PUSH1 0x0 DUP1 REVERT JUMPDEST SWAP1 PUSH1 0x0 MSTORE PUSH1 0x20 PUSH1 0x0 KECCAK256 SWAP1 PUSH1 0x4 MUL ADD PUSH1 0x0 SWAP2 POP SWAP1 POP DUP1 PUSH1 0x0 ADD PUSH1 0x0 SWAP1 SLOAD SWAP1 PUSH2 0x100 EXP SWAP1 DIV PUSH20 0xFFFFFFFFFFFFFFFFFFFFFFFFFFFFFFFFFFFFFFFF AND SWAP1 DUP1 PUSH1 0x1 ADD SLOAD SWAP1 DUP1 PUSH1 0x2 ADD SLOAD SWAP1 DUP1 PUSH1 0x3 ADD PUSH1 0x0 SWAP1 SLOAD SWAP1 PUSH2 0x100 EXP SWAP1 DIV PUSH1 0xFF AND SWAP1 POP DUP5 JUMP JUMPDEST PUSH1 0x10 PUSH1 0x20 MSTORE DUP1 PUSH1 0x0 MSTORE PUSH1 0x40 PUSH1 0x0 KECCAK256 PUSH1 0x0 SWAP2 POP SWAP1 POP SLOAD DUP2 JUMP JUMPDEST PUSH1 0x0 PUSH1 0x2 PUSH1 0x0 DUP5 PUSH20 0xFFFFFFFFFFFFFFFFFFFFFFFFFFFFFFFFFFFFFFFF AND PUSH20 0xFFFFFFFFFFFFFFFFFFFFFFFFFFFFFFFFFFFFFFFF AND DUP2 MSTORE PUSH1 0x20 ADD SWAP1 DUP2 MSTORE PUSH1 0x20 ADD PUSH1 0x0 KECCAK256 PUSH1 0x0 DUP4 PUSH20 0xFFFFFFFFFFFFFFFFFFFFFFFFFFFFFFFFFFFFFFFF AND PUSH20 0xFFFFFFFFFFFFFFFFFFFFFFFFFFFFFFFFFFFFFFFF AND DUP2 MSTORE PUSH1 0x20 ADD SWAP1 DUP2 MSTORE PUSH1 0x20 ADD PUSH1 0x0 KECCAK256 SLOAD SWAP1 POP SWAP3 SWAP2 POP POP JUMP JUMPDEST PUSH1 0x0 DUP3 GT PUSH2 0x105C JUMPI PUSH1 0x40 MLOAD PUSH32 0x8C379A000000000000000000000000000000000000000000000000000000000 DUP2 MSTORE PUSH1 0x4 ADD PUSH2 0x1053 SWAP1 PUSH2 0x2EB8 JUMP JUMPDEST PUSH1 0x40 MLOAD DUP1 SWAP2 SUB SWAP1 REVERT JUMPDEST DUP2 PUSH1 0x9 PUSH1 0x0 SWAP1 SLOAD SWAP1 PUSH2 0x100 EXP SWAP1 DIV PUSH20 0xFFFFFFFFFFFFFFFFFFFFFFFFFFFFFFFFFFFFFFFF AND PUSH20 0xFFFFFFFFFFFFFFFFFFFFFFFFFFFFFFFFFFFFFFFF AND PUSH4 0x70A08231 CALLER PUSH1 0x40 MLOAD DUP3 PUSH4 0xFFFFFFFF AND PUSH1 0xE0 SHL DUP2 MSTORE PUSH1 0x4 ADD PUSH2 0x10B8 SWAP2 SWAP1 PUSH2 0x2427 JUMP JUMPDEST PUSH1 0x20 PUSH1 0x40 MLOAD DUP1 DUP4 SUB DUP2 DUP7 GAS STATICCALL ISZERO DUP1 ISZERO PUSH2 0x10D5 JUMPI RETURNDATASIZE PUSH1 0x0 DUP1 RETURNDATACOPY RETURNDATASIZE PUSH1 0x0 REVERT JUMPDEST POP POP POP POP PUSH1 0x40 MLOAD RETURNDATASIZE PUSH1 0x1F NOT PUSH1 0x1F DUP3 ADD AND DUP3 ADD DUP1 PUSH1 0x40 MSTORE POP DUP2 ADD SWAP1 PUSH2 0x10F9 SWAP2 SWAP1 PUSH2 0x2D89 JUMP JUMPDEST LT ISZERO PUSH2 0x113A JUMPI PUSH1 0x40 MLOAD PUSH32 0x8C379A000000000000000000000000000000000000000000000000000000000 DUP2 MSTORE PUSH1 0x4 ADD PUSH2 0x1131 SWAP1 PUSH2 0x2F24 JUMP JUMPDEST PUSH1 0x40 MLOAD DUP1 SWAP2 SUB SWAP1 REVERT JUMPDEST DUP2 PUSH1 0x9 PUSH1 0x0 SWAP1 SLOAD SWAP1 PUSH2 0x100 EXP SWAP1 DIV PUSH20 0xFFFFFFFFFFFFFFFFFFFFFFFFFFFFFFFFFFFFFFFF AND PUSH20 0xFFFFFFFFFFFFFFFFFFFFFFFFFFFFFFFFFFFFFFFF AND PUSH4 0xDD62ED3E CALLER ADDRESS PUSH1 0x40 MLOAD DUP4 PUSH4 0xFFFFFFFF AND PUSH1 0xE0 SHL DUP2 MSTORE PUSH1 0x4 ADD PUSH2 0x1198 SWAP3 SWAP2 SWAP1 PUSH2 0x2F44 JUMP JUMPDEST PUSH1 0x20 PUSH1 0x40 MLOAD DUP1 DUP4 SUB DUP2 DUP7 GAS STATICCALL ISZERO DUP1 ISZERO PUSH2 0x11B5 JUMPI RETURNDATASIZE PUSH1 0x0 DUP1 RETURNDATACOPY RETURNDATASIZE PUSH1 0x0 REVERT JUMPDEST POP POP POP POP PUSH1 0x40 MLOAD RETURNDATASIZE PUSH1 0x1F NOT PUSH1 0x1F DUP3 ADD AND DUP3 ADD DUP1 PUSH1 0x40 MSTORE POP DUP2 ADD SWAP1 PUSH2 0x11D9 SWAP2 SWAP1 PUSH2 0x2D89 JUMP JUMPDEST LT ISZERO PUSH2 0x121A JUMPI PUSH1 0x40 MLOAD PUSH32 0x8C379A000000000000000000000000000000000000000000000000000000000 DUP2 MSTORE PUSH1 0x4 ADD PUSH2 0x1211 SWAP1 PUSH2 0x2FB9 JUMP JUMPDEST PUSH1 0x40 MLOAD DUP1 SWAP2 SUB SWAP1 REVERT JUMPDEST PUSH1 0x12 PUSH1 0x0 DUP3 DUP2 MSTORE PUSH1 0x20 ADD SWAP1 DUP2 MSTORE PUSH1 0x20 ADD PUSH1 0x0 KECCAK256 PUSH1 0x0 SWAP1 SLOAD SWAP1 PUSH2 0x100 EXP SWAP1 DIV PUSH1 0xFF AND ISZERO PUSH2 0x127B JUMPI PUSH1 0x40 MLOAD PUSH32 0x8C379A000000000000000000000000000000000000000000000000000000000 DUP2 MSTORE PUSH1 0x4 ADD PUSH2 0x1272 SWAP1 PUSH2 0x3025 JUMP JUMPDEST PUSH1 0x40 MLOAD DUP1 SWAP2 SUB SWAP1 REVERT JUMPDEST PUSH1 0xC PUSH1 0x0 SWAP1 SLOAD SWAP1 PUSH2 0x100 EXP SWAP1 DIV PUSH1 0xFF AND PUSH1 0x2 PUSH2 0x1297 SWAP2 SWAP1 PUSH2 0x3178 JUMP JUMPDEST PUSH1 0xD SLOAD LT PUSH2 0x12DA JUMPI PUSH1 0x40 MLOAD PUSH32 0x8C379A000000000000000000000000000000000000000000000000000000000 DUP2 MSTORE PUSH1 0x4 ADD PUSH2 0x12D1 SWAP1 PUSH2 0x320F JUMP JUMPDEST PUSH1 0x40 MLOAD DUP1 SWAP2 SUB SWAP1 REVERT JUMPDEST PUSH1 0x9 PUSH1 0x0 SWAP1 SLOAD SWAP1 PUSH2 0x100 EXP SWAP1 DIV PUSH20 0xFFFFFFFFFFFFFFFFFFFFFFFFFFFFFFFFFFFFFFFF AND PUSH20 0xFFFFFFFFFFFFFFFFFFFFFFFFFFFFFFFFFFFFFFFF AND PUSH4 0x23B872DD CALLER ADDRESS DUP6 PUSH1 0x40 MLOAD DUP5 PUSH4 0xFFFFFFFF AND PUSH1 0xE0 SHL DUP2 MSTORE PUSH1 0x4 ADD PUSH2 0x1339 SWAP4 SWAP3 SWAP2 SWAP1 PUSH2 0x322F JUMP JUMPDEST PUSH1 0x20 PUSH1 0x40 MLOAD DUP1 DUP4 SUB DUP2 PUSH1 0x0 DUP8 GAS CALL ISZERO DUP1 ISZERO PUSH2 0x1358 JUMPI RETURNDATASIZE PUSH1 0x0 DUP1 RETURNDATACOPY RETURNDATASIZE PUSH1 0x0 REVERT JUMPDEST POP POP POP POP PUSH1 0x40 MLOAD RETURNDATASIZE PUSH1 0x1F NOT PUSH1 0x1F DUP3 ADD AND DUP3 ADD DUP1 PUSH1 0x40 MSTORE POP DUP2 ADD SWAP1 PUSH2 0x137C SWAP2 SWAP1 PUSH2 0x2E0B JUMP JUMPDEST POP PUSH1 0x9 PUSH1 0x0 SWAP1 SLOAD SWAP1 PUSH2 0x100 EXP SWAP1 DIV PUSH20 0xFFFFFFFFFFFFFFFFFFFFFFFFFFFFFFFFFFFFFFFF AND PUSH20 0xFFFFFFFFFFFFFFFFFFFFFFFFFFFFFFFFFFFFFFFF AND PUSH4 0x95EA7B3 PUSH1 0x8 PUSH1 0x0 SWAP1 SLOAD SWAP1 PUSH2 0x100 EXP SWAP1 DIV PUSH20 0xFFFFFFFFFFFFFFFFFFFFFFFFFFFFFFFFFFFFFFFF AND DUP5 PUSH1 0x40 MLOAD DUP4 PUSH4 0xFFFFFFFF AND PUSH1 0xE0 SHL DUP2 MSTORE PUSH1 0x4 ADD PUSH2 0x13FC SWAP3 SWAP2 SWAP1 PUSH2 0x2DB6 JUMP JUMPDEST PUSH1 0x20 PUSH1 0x40 MLOAD DUP1 DUP4 SUB DUP2 PUSH1 0x0 DUP8 GAS CALL ISZERO DUP1 ISZERO PUSH2 0x141B JUMPI RETURNDATASIZE PUSH1 0x0 DUP1 RETURNDATACOPY RETURNDATASIZE PUSH1 0x0 REVERT JUMPDEST POP POP POP POP PUSH1 0x40 MLOAD RETURNDATASIZE PUSH1 0x1F NOT PUSH1 0x1F DUP3 ADD AND DUP3 ADD DUP1 PUSH1 0x40 MSTORE POP DUP2 ADD SWAP1 PUSH2 0x143F SWAP2 SWAP1 PUSH2 0x2E0B JUMP JUMPDEST POP PUSH1 0x8 PUSH1 0x0 SWAP1 SLOAD SWAP1 PUSH2 0x100 EXP SWAP1 DIV PUSH20 0xFFFFFFFFFFFFFFFFFFFFFFFFFFFFFFFFFFFFFFFF AND PUSH20 0xFFFFFFFFFFFFFFFFFFFFFFFFFFFFFFFFFFFFFFFF AND PUSH4 0x617BA037 PUSH1 0x9 PUSH1 0x0 SWAP1 SLOAD SWAP1 PUSH2 0x100 EXP SWAP1 DIV PUSH20 0xFFFFFFFFFFFFFFFFFFFFFFFFFFFFFFFFFFFFFFFF AND DUP5 ADDRESS PUSH1 0x0 PUSH1 0x40 MLOAD DUP6 PUSH4 0xFFFFFFFF AND PUSH1 0xE0 SHL DUP2 MSTORE PUSH1 0x4 ADD PUSH2 0x14C4 SWAP5 SWAP4 SWAP3 SWAP2 SWAP1 PUSH2 0x32AF JUMP JUMPDEST PUSH1 0x0 PUSH1 0x40 MLOAD DUP1 DUP4 SUB DUP2 PUSH1 0x0 DUP8 DUP1 EXTCODESIZE ISZERO DUP1 ISZERO PUSH2 0x14DE JUMPI PUSH1 0x0 DUP1 REVERT JUMPDEST POP GAS CALL ISZERO DUP1 ISZERO PUSH2 0x14F2 JUMPI RETURNDATASIZE PUSH1 0x0 DUP1 RETURNDATACOPY RETURNDATASIZE PUSH1 0x0 REVERT JUMPDEST POP POP POP POP PUSH1 0xE PUSH1 0x40 MLOAD DUP1 PUSH1 0x80 ADD PUSH1 0x40 MSTORE DUP1 CALLER PUSH20 0xFFFFFFFFFFFFFFFFFFFFFFFFFFFFFFFFFFFFFFFF AND DUP2 MSTORE PUSH1 0x20 ADD DUP5 DUP2 MSTORE PUSH1 0x20 ADD TIMESTAMP DUP2 MSTORE PUSH1 0x20 ADD PUSH1 0x1 ISZERO ISZERO DUP2 MSTORE POP SWAP1 DUP1 PUSH1 0x1 DUP2 SLOAD ADD DUP1 DUP3 SSTORE DUP1 SWAP2 POP POP PUSH1 0x1 SWAP1 SUB SWAP1 PUSH1 0x0 MSTORE PUSH1 0x20 PUSH1 0x0 KECCAK256 SWAP1 PUSH1 0x4 MUL ADD PUSH1 0x0 SWAP1 SWAP2 SWAP1 SWAP2 SWAP1 SWAP2 POP PUSH1 0x0 DUP3 ADD MLOAD DUP2 PUSH1 0x0 ADD PUSH1 0x0 PUSH2 0x100 EXP DUP2 SLOAD DUP2 PUSH20 0xFFFFFFFFFFFFFFFFFFFFFFFFFFFFFFFFFFFFFFFF MUL NOT AND SWAP1 DUP4 PUSH20 0xFFFFFFFFFFFFFFFFFFFFFFFFFFFFFFFFFFFFFFFF AND MUL OR SWAP1 SSTORE POP PUSH1 0x20 DUP3 ADD MLOAD DUP2 PUSH1 0x1 ADD SSTORE PUSH1 0x40 DUP3 ADD MLOAD DUP2 PUSH1 0x2 ADD SSTORE PUSH1 0x60 DUP3 ADD MLOAD DUP2 PUSH1 0x3 ADD PUSH1 0x0 PUSH2 0x100 EXP DUP2 SLOAD DUP2 PUSH1 0xFF MUL NOT AND SWAP1 DUP4 ISZERO ISZERO MUL OR SWAP1 SSTORE POP POP POP PUSH1 0x0 PUSH2 0x15E2 PUSH2 0x20F8 JUMP JUMPDEST PUSH2 0x15EA PUSH2 0x211B JUMP JUMPDEST PUSH1 0x0 PUSH1 0xD SLOAD SWAP1 POP PUSH1 0x0 DUP6 SWAP1 POP PUSH1 0x0 DUP1 PUSH2 0x1601 PUSH2 0x213E JUMP JUMPDEST PUSH1 0x0 JUMPDEST PUSH1 0xC PUSH1 0x0 SWAP1 SLOAD SWAP1 PUSH2 0x100 EXP SWAP1 DIV PUSH1 0xFF AND PUSH1 0xFF AND DUP2 PUSH1 0xFF AND LT ISZERO PUSH2 0x1871 JUMPI DUP5 PUSH1 0x10 PUSH1 0x0 PUSH1 0xC PUSH1 0x0 SWAP1 SLOAD SWAP1 PUSH2 0x100 EXP SWAP1 DIV PUSH1 0xFF AND PUSH1 0xFF AND PUSH1 0xFF AND DUP2 MSTORE PUSH1 0x20 ADD SWAP1 DUP2 MSTORE PUSH1 0x20 ADD PUSH1 0x0 KECCAK256 DUP2 SWAP1 SSTORE POP PUSH1 0x0 PUSH1 0x2 DUP8 PUSH2 0x165D SWAP2 SWAP1 PUSH2 0x3323 JUMP JUMPDEST SUB PUSH2 0x16E6 JUMPI DUP5 SWAP4 POP PUSH1 0x13 DUP2 PUSH1 0xFF AND PUSH1 0xA DUP2 LT PUSH2 0x167C JUMPI PUSH2 0x167B PUSH2 0x27FB JUMP JUMPDEST JUMPDEST ADD SLOAD SWAP3 POP PUSH1 0x13 DUP2 PUSH1 0xFF AND PUSH1 0xA DUP2 LT PUSH2 0x1697 JUMPI PUSH2 0x1696 PUSH2 0x27FB JUMP JUMPDEST JUMPDEST ADD SLOAD DUP9 DUP3 PUSH1 0xFF AND PUSH1 0xA DUP2 LT PUSH2 0x16AF JUMPI PUSH2 0x16AE PUSH2 0x27FB JUMP JUMPDEST JUMPDEST PUSH1 0x20 MUL ADD DUP2 DUP2 MSTORE POP POP PUSH1 0x0 DUP8 DUP3 PUSH1 0xFF AND PUSH1 0xA DUP2 LT PUSH2 0x16D0 JUMPI PUSH2 0x16CF PUSH2 0x27FB JUMP JUMPDEST JUMPDEST PUSH1 0x20 MUL ADD SWAP1 PUSH1 0xFF AND SWAP1 DUP2 PUSH1 0xFF AND DUP2 MSTORE POP POP PUSH2 0x1768 JUMP JUMPDEST PUSH1 0x10 PUSH1 0x0 DUP3 PUSH1 0xFF AND PUSH1 0xFF AND DUP2 MSTORE PUSH1 0x20 ADD SWAP1 DUP2 MSTORE PUSH1 0x20 ADD PUSH1 0x0 KECCAK256 SLOAD SWAP4 POP DUP5 SWAP3 POP PUSH1 0x10 PUSH1 0x0 DUP3 PUSH1 0xFF AND PUSH1 0xFF AND DUP2 MSTORE PUSH1 0x20 ADD SWAP1 DUP2 MSTORE PUSH1 0x20 ADD PUSH1 0x0 KECCAK256 SLOAD DUP9 DUP3 PUSH1 0xFF AND PUSH1 0xA DUP2 LT PUSH2 0x1735 JUMPI PUSH2 0x1734 PUSH2 0x27FB JUMP JUMPDEST JUMPDEST PUSH1 0x20 MUL ADD DUP2 DUP2 MSTORE POP POP PUSH1 0x1 DUP8 DUP3 PUSH1 0xFF AND PUSH1 0xA DUP2 LT PUSH2 0x1756 JUMPI PUSH2 0x1755 PUSH2 0x27FB JUMP JUMPDEST JUMPDEST PUSH1 0x20 MUL ADD SWAP1 PUSH1 0xFF AND SWAP1 DUP2 PUSH1 0xFF AND DUP2 MSTORE POP POP JUMPDEST DUP4 DUP3 PUSH1 0x0 PUSH1 0x2 DUP2 LT PUSH2 0x177D JUMPI PUSH2 0x177C PUSH2 0x27FB JUMP JUMPDEST JUMPDEST PUSH1 0x20 MUL ADD DUP2 DUP2 MSTORE POP POP DUP3 DUP3 PUSH1 0x1 PUSH1 0x2 DUP2 LT PUSH2 0x179B JUMPI PUSH2 0x179A PUSH2 0x27FB JUMP JUMPDEST JUMPDEST PUSH1 0x20 MUL ADD DUP2 DUP2 MSTORE POP POP PUSH1 0x0 PUSH1 0x7 PUSH1 0x0 SWAP1 SLOAD SWAP1 PUSH2 0x100 EXP SWAP1 DIV PUSH20 0xFFFFFFFFFFFFFFFFFFFFFFFFFFFFFFFFFFFFFFFF AND PUSH20 0xFFFFFFFFFFFFFFFFFFFFFFFFFFFFFFFFFFFFFFFF AND PUSH4 0xD622E5A4 PUSH3 0x249F0 DUP6 DUP15 PUSH1 0x40 MLOAD DUP5 PUSH4 0xFFFFFFFF AND PUSH1 0xE0 SHL DUP2 MSTORE PUSH1 0x4 ADD PUSH2 0x1807 SWAP3 SWAP2 SWAP1 PUSH2 0x33D8 JUMP JUMPDEST PUSH1 0x20 PUSH1 0x40 MLOAD DUP1 DUP4 SUB DUP2 DUP8 DUP7 STATICCALL ISZERO DUP1 ISZERO PUSH2 0x1824 JUMPI RETURNDATASIZE PUSH1 0x0 DUP1 RETURNDATACOPY RETURNDATASIZE PUSH1 0x0 REVERT JUMPDEST POP POP POP POP POP PUSH1 0x40 MLOAD RETURNDATASIZE PUSH1 0x1F NOT PUSH1 0x1F DUP3 ADD AND DUP3 ADD DUP1 PUSH1 0x40 MSTORE POP DUP2 ADD SWAP1 PUSH2 0x1849 SWAP2 SWAP1 PUSH2 0x2D89 JUMP JUMPDEST SWAP1 POP DUP1 SWAP6 POP PUSH1 0x2 DUP8 PUSH2 0x185B SWAP2 SWAP1 PUSH2 0x3401 JUMP JUMPDEST SWAP7 POP POP DUP1 DUP1 PUSH2 0x1869 SWAP1 PUSH2 0x3432 JUMP JUMPDEST SWAP2 POP POP PUSH2 0x1604 JUMP JUMPDEST POP DUP4 SWAP8 POP PUSH1 0x1 PUSH1 0xF PUSH1 0x0 DUP11 DUP2 MSTORE PUSH1 0x20 ADD SWAP1 DUP2 MSTORE PUSH1 0x20 ADD PUSH1 0x0 KECCAK256 PUSH1 0x0 PUSH2 0x100 EXP DUP2 SLOAD DUP2 PUSH1 0xFF MUL NOT AND SWAP1 DUP4 ISZERO ISZERO MUL OR SWAP1 SSTORE POP PUSH1 0x1 PUSH1 0xD PUSH1 0x0 DUP3 DUP3 SLOAD PUSH2 0x18B4 SWAP2 SWAP1 PUSH2 0x28C5 JUMP JUMPDEST SWAP3 POP POP DUP2 SWAP1 SSTORE POP PUSH1 0x1 PUSH1 0x12 PUSH1 0x0 DUP12 DUP2 MSTORE PUSH1 0x20 ADD SWAP1 DUP2 MSTORE PUSH1 0x20 ADD PUSH1 0x0 KECCAK256 PUSH1 0x0 PUSH2 0x100 EXP DUP2 SLOAD DUP2 PUSH1 0xFF MUL NOT AND SWAP1 DUP4 ISZERO ISZERO MUL OR SWAP1 SSTORE POP DUP10 PUSH1 0xA PUSH1 0x0 DUP3 DUP3 SLOAD PUSH2 0x18F9 SWAP2 SWAP1 PUSH2 0x28C5 JUMP JUMPDEST SWAP3 POP POP DUP2 SWAP1 SSTORE POP PUSH1 0xB PUSH1 0x0 DUP2 SLOAD DUP1 SWAP3 SWAP2 SWAP1 PUSH2 0x1913 SWAP1 PUSH2 0x345B JUMP JUMPDEST SWAP2 SWAP1 POP SSTORE POP DUP8 PUSH32 0x839AEF75338D2A3413D910305B67D28E181DA1837C548C3A2B2EF147F33B008A DUP9 DUP9 DUP14 PUSH1 0x40 MLOAD PUSH2 0x194C SWAP4 SWAP3 SWAP2 SWAP1 PUSH2 0x35D2 JUMP JUMPDEST PUSH1 0x40 MLOAD DUP1 SWAP2 SUB SWAP1 LOG2 POP POP POP POP POP POP POP POP POP POP JUMP JUMPDEST PUSH1 0x7 PUSH1 0x0 SWAP1 SLOAD SWAP1 PUSH2 0x100 EXP SWAP1 DIV PUSH20 0xFFFFFFFFFFFFFFFFFFFFFFFFFFFFFFFFFFFFFFFF AND DUP2 JUMP JUMPDEST PUSH2 0x198E PUSH2 0x1BAE JUMP JUMPDEST PUSH1 0x0 PUSH20 0xFFFFFFFFFFFFFFFFFFFFFFFFFFFFFFFFFFFFFFFF AND DUP2 PUSH20 0xFFFFFFFFFFFFFFFFFFFFFFFFFFFFFFFFFFFFFFFF AND SUB PUSH2 0x1A00 JUMPI PUSH1 0x0 PUSH1 0x40 MLOAD PUSH32 0x1E4FBDF700000000000000000000000000000000000000000000000000000000 DUP2 MSTORE PUSH1 0x4 ADD PUSH2 0x19F7 SWAP2 SWAP1 PUSH2 0x2427 JUMP JUMPDEST PUSH1 0x40 MLOAD DUP1 SWAP2 SUB SWAP1 REVERT JUMPDEST PUSH2 0x1A09 DUP2 PUSH2 0x1C35 JUMP JUMPDEST POP JUMP JUMPDEST PUSH1 0x0 CALLER SWAP1 POP SWAP1 JUMP JUMPDEST PUSH2 0x1A21 DUP4 DUP4 DUP4 PUSH1 0x1 PUSH2 0x1CF9 JUMP JUMPDEST POP POP POP JUMP JUMPDEST PUSH1 0x0 PUSH2 0x1A32 DUP5 DUP5 PUSH2 0xF92 JUMP JUMPDEST SWAP1 POP PUSH32 0xFFFFFFFFFFFFFFFFFFFFFFFFFFFFFFFFFFFFFFFFFFFFFFFFFFFFFFFFFFFFFFFF DUP2 EQ PUSH2 0x1AB4 JUMPI DUP2 DUP2 LT ISZERO PUSH2 0x1AA4 JUMPI DUP3 DUP2 DUP4 PUSH1 0x40 MLOAD PUSH32 0xFB8F41B200000000000000000000000000000000000000000000000000000000 DUP2 MSTORE PUSH1 0x4 ADD PUSH2 0x1A9B SWAP4 SWAP3 SWAP2 SWAP1 PUSH2 0x360C JUMP JUMPDEST PUSH1 0x40 MLOAD DUP1 SWAP2 SUB SWAP1 REVERT JUMPDEST PUSH2 0x1AB3 DUP5 DUP5 DUP5 DUP5 SUB PUSH1 0x0 PUSH2 0x1CF9 JUMP JUMPDEST JUMPDEST POP POP POP POP JUMP JUMPDEST PUSH1 0x0 PUSH20 0xFFFFFFFFFFFFFFFFFFFFFFFFFFFFFFFFFFFFFFFF AND DUP4 PUSH20 0xFFFFFFFFFFFFFFFFFFFFFFFFFFFFFFFFFFFFFFFF AND SUB PUSH2 0x1B2C JUMPI PUSH1 0x0 PUSH1 0x40 MLOAD PUSH32 0x96C6FD1E00000000000000000000000000000000000000000000000000000000 DUP2 MSTORE PUSH1 0x4 ADD PUSH2 0x1B23 SWAP2 SWAP1 PUSH2 0x2427 JUMP JUMPDEST PUSH1 0x40 MLOAD DUP1 SWAP2 SUB SWAP1 REVERT JUMPDEST PUSH1 0x0 PUSH20 0xFFFFFFFFFFFFFFFFFFFFFFFFFFFFFFFFFFFFFFFF AND DUP3 PUSH20 0xFFFFFFFFFFFFFFFFFFFFFFFFFFFFFFFFFFFFFFFF AND SUB PUSH2 0x1B9E JUMPI PUSH1 0x0 PUSH1 0x40 MLOAD PUSH32 0xEC442F0500000000000000000000000000000000000000000000000000000000 DUP2 MSTORE PUSH1 0x4 ADD PUSH2 0x1B95 SWAP2 SWAP1 PUSH2 0x2427 JUMP JUMPDEST PUSH1 0x40 MLOAD DUP1 SWAP2 SUB SWAP1 REVERT JUMPDEST PUSH2 0x1BA9 DUP4 DUP4 DUP4 PUSH2 0x1ED0 JUMP JUMPDEST POP POP POP JUMP JUMPDEST PUSH2 0x1BB6 PUSH2 0x1A0C JUMP JUMPDEST PUSH20 0xFFFFFFFFFFFFFFFFFFFFFFFFFFFFFFFFFFFFFFFF AND PUSH2 0x1BD4 PUSH2 0xDD6 JUMP JUMPDEST PUSH20 0xFFFFFFFFFFFFFFFFFFFFFFFFFFFFFFFFFFFFFFFF AND EQ PUSH2 0x1C33 JUMPI PUSH2 0x1BF7 PUSH2 0x1A0C JUMP JUMPDEST PUSH1 0x40 MLOAD PUSH32 0x118CDAA700000000000000000000000000000000000000000000000000000000 DUP2 MSTORE PUSH1 0x4 ADD PUSH2 0x1C2A SWAP2 SWAP1 PUSH2 0x2427 JUMP JUMPDEST PUSH1 0x40 MLOAD DUP1 SWAP2 SUB SWAP1 REVERT JUMPDEST JUMP JUMPDEST PUSH1 0x0 DUP1 PUSH1 0x0 SWAP1 SLOAD SWAP1 PUSH2 0x100 EXP SWAP1 DIV PUSH20 0xFFFFFFFFFFFFFFFFFFFFFFFFFFFFFFFFFFFFFFFF AND SWAP1 POP DUP2 PUSH1 0x0 DUP1 PUSH2 0x100 EXP DUP2 SLOAD DUP2 PUSH20 0xFFFFFFFFFFFFFFFFFFFFFFFFFFFFFFFFFFFFFFFF MUL NOT AND SWAP1 DUP4 PUSH20 0xFFFFFFFFFFFFFFFFFFFFFFFFFFFFFFFFFFFFFFFF AND MUL OR SWAP1 SSTORE POP DUP2 PUSH20 0xFFFFFFFFFFFFFFFFFFFFFFFFFFFFFFFFFFFFFFFF AND DUP2 PUSH20 0xFFFFFFFFFFFFFFFFFFFFFFFFFFFFFFFFFFFFFFFF AND PUSH32 0x8BE0079C531659141344CD1FD0A4F28419497F9722A3DAAFE3B4186F6B6457E0 PUSH1 0x40 MLOAD PUSH1 0x40 MLOAD DUP1 SWAP2 SUB SWAP1 LOG3 POP POP JUMP JUMPDEST PUSH1 0x0 PUSH20 0xFFFFFFFFFFFFFFFFFFFFFFFFFFFFFFFFFFFFFFFF AND DUP5 PUSH20 0xFFFFFFFFFFFFFFFFFFFFFFFFFFFFFFFFFFFFFFFF AND SUB PUSH2 0x1D6B JUMPI PUSH1 0x0 PUSH1 0x40 MLOAD PUSH32 0xE602DF0500000000000000000000000000000000000000000000000000000000 DUP2 MSTORE PUSH1 0x4 ADD PUSH2 0x1D62 SWAP2 SWAP1 PUSH2 0x2427 JUMP JUMPDEST PUSH1 0x40 MLOAD DUP1 SWAP2 SUB SWAP1 REVERT JUMPDEST PUSH1 0x0 PUSH20 0xFFFFFFFFFFFFFFFFFFFFFFFFFFFFFFFFFFFFFFFF AND DUP4 PUSH20 0xFFFFFFFFFFFFFFFFFFFFFFFFFFFFFFFFFFFFFFFF AND SUB PUSH2 0x1DDD JUMPI PUSH1 0x0 PUSH1 0x40 MLOAD PUSH32 0x94280D6200000000000000000000000000000000000000000000000000000000 DUP2 MSTORE PUSH1 0x4 ADD PUSH2 0x1DD4 SWAP2 SWAP1 PUSH2 0x2427 JUMP JUMPDEST PUSH1 0x40 MLOAD DUP1 SWAP2 SUB SWAP1 REVERT JUMPDEST DUP2 PUSH1 0x2 PUSH1 0x0 DUP7 PUSH20 0xFFFFFFFFFFFFFFFFFFFFFFFFFFFFFFFFFFFFFFFF AND PUSH20 0xFFFFFFFFFFFFFFFFFFFFFFFFFFFFFFFFFFFFFFFF AND DUP2 MSTORE PUSH1 0x20 ADD SWAP1 DUP2 MSTORE PUSH1 0x20 ADD PUSH1 0x0 KECCAK256 PUSH1 0x0 DUP6 PUSH20 0xFFFFFFFFFFFFFFFFFFFFFFFFFFFFFFFFFFFFFFFF AND PUSH20 0xFFFFFFFFFFFFFFFFFFFFFFFFFFFFFFFFFFFFFFFF AND DUP2 MSTORE PUSH1 0x20 ADD SWAP1 DUP2 MSTORE PUSH1 0x20 ADD PUSH1 0x0 KECCAK256 DUP2 SWAP1 SSTORE POP DUP1 ISZERO PUSH2 0x1ECA JUMPI DUP3 PUSH20 0xFFFFFFFFFFFFFFFFFFFFFFFFFFFFFFFFFFFFFFFF AND DUP5 PUSH20 0xFFFFFFFFFFFFFFFFFFFFFFFFFFFFFFFFFFFFFFFF AND PUSH32 0x8C5BE1E5EBEC7D5BD14F71427D1E84F3DD0314C0F7B2291E5B200AC8C7C3B925 DUP5 PUSH1 0x40 MLOAD PUSH2 0x1EC1 SWAP2 SWAP1 PUSH2 0x2179 JUMP JUMPDEST PUSH1 0x40 MLOAD DUP1 SWAP2 SUB SWAP1 LOG3 JUMPDEST POP POP POP POP JUMP JUMPDEST PUSH1 0x0 PUSH20 0xFFFFFFFFFFFFFFFFFFFFFFFFFFFFFFFFFFFFFFFF AND DUP4 PUSH20 0xFFFFFFFFFFFFFFFFFFFFFFFFFFFFFFFFFFFFFFFF AND SUB PUSH2 0x1F22 JUMPI DUP1 PUSH1 0x3 PUSH1 0x0 DUP3 DUP3 SLOAD PUSH2 0x1F16 SWAP2 SWAP1 PUSH2 0x28C5 JUMP JUMPDEST SWAP3 POP POP DUP2 SWAP1 SSTORE POP PUSH2 0x1FF7 JUMP JUMPDEST PUSH1 0x0 PUSH1 0x1 PUSH1 0x0 DUP6 PUSH20 0xFFFFFFFFFFFFFFFFFFFFFFFFFFFFFFFFFFFFFFFF AND PUSH20 0xFFFFFFFFFFFFFFFFFFFFFFFFFFFFFFFFFFFFFFFF AND DUP2 MSTORE PUSH1 0x20 ADD SWAP1 DUP2 MSTORE PUSH1 0x20 ADD PUSH1 0x0 KECCAK256 SLOAD SWAP1 POP DUP2 DUP2 LT ISZERO PUSH2 0x1FAF JUMPI DUP4 DUP2 DUP4 PUSH1 0x40 MLOAD PUSH32 0xE450D38C00000000000000000000000000000000000000000000000000000000 DUP2 MSTORE PUSH1 0x4 ADD PUSH2 0x1FA6 SWAP4 SWAP3 SWAP2 SWAP1 PUSH2 0x360C JUMP JUMPDEST PUSH1 0x40 MLOAD DUP1 SWAP2 SUB SWAP1 REVERT JUMPDEST DUP2 DUP2 SUB PUSH1 0x1 PUSH1 0x0 DUP7 PUSH20 0xFFFFFFFFFFFFFFFFFFFFFFFFFFFFFFFFFFFFFFFF AND PUSH20 0xFFFFFFFFFFFFFFFFFFFFFFFFFFFFFFFFFFFFFFFF AND DUP2 MSTORE PUSH1 0x20 ADD SWAP1 DUP2 MSTORE PUSH1 0x20 ADD PUSH1 0x0 KECCAK256 DUP2 SWAP1 SSTORE POP POP JUMPDEST PUSH1 0x0 PUSH20 0xFFFFFFFFFFFFFFFFFFFFFFFFFFFFFFFFFFFFFFFF AND DUP3 PUSH20 0xFFFFFFFFFFFFFFFFFFFFFFFFFFFFFFFFFFFFFFFF AND SUB PUSH2 0x2040 JUMPI DUP1 PUSH1 0x3 PUSH1 0x0 DUP3 DUP3 SLOAD SUB SWAP3 POP POP DUP2 SWAP1 SSTORE POP PUSH2 0x208E JUMP JUMPDEST DUP1 PUSH1 0x1 PUSH1 0x0 DUP5 PUSH20 0xFFFFFFFFFFFFFFFFFFFFFFFFFFFFFFFFFFFFFFFF AND PUSH20 0xFFFFFFFFFFFFFFFFFFFFFFFFFFFFFFFFFFFFFFFF AND DUP2 MSTORE PUSH1 0x20 ADD SWAP1 DUP2 MSTORE PUSH1 0x20 ADD PUSH1 0x0 KECCAK256 PUSH1 0x0 DUP3 DUP3 SLOAD ADD SWAP3 POP POP DUP2 SWAP1 SSTORE POP JUMPDEST DUP2 PUSH20 0xFFFFFFFFFFFFFFFFFFFFFFFFFFFFFFFFFFFFFFFF AND DUP4 PUSH20 0xFFFFFFFFFFFFFFFFFFFFFFFFFFFFFFFFFFFFFFFF AND PUSH32 0xDDF252AD1BE2C89B69C2B068FC378DAA952BA7F163C4A11628F55A4DF523B3EF DUP4 PUSH1 0x40 MLOAD PUSH2 0x20EB SWAP2 SWAP1 PUSH2 0x2179 JUMP JUMPDEST PUSH1 0x40 MLOAD DUP1 SWAP2 SUB SWAP1 LOG3 POP POP POP JUMP JUMPDEST PUSH1 0x40 MLOAD DUP1 PUSH2 0x140 ADD PUSH1 0x40 MSTORE DUP1 PUSH1 0xA SWAP1 PUSH1 0x20 DUP3 MUL DUP1 CALLDATASIZE DUP4 CALLDATACOPY DUP1 DUP3 ADD SWAP2 POP POP SWAP1 POP POP SWAP1 JUMP JUMPDEST PUSH1 0x40 MLOAD DUP1 PUSH2 0x140 ADD PUSH1 0x40 MSTORE DUP1 PUSH1 0xA SWAP1 PUSH1 0x20 DUP3 MUL DUP1 CALLDATASIZE DUP4 CALLDATACOPY DUP1 DUP3 ADD SWAP2 POP POP SWAP1 POP POP SWAP1 JUMP JUMPDEST PUSH1 0x40 MLOAD DUP1 PUSH1 0x40 ADD PUSH1 0x40 MSTORE DUP1 PUSH1 0x2 SWAP1 PUSH1 0x20 DUP3 MUL DUP1 CALLDATASIZE DUP4 CALLDATACOPY DUP1 DUP3 ADD SWAP2 POP POP SWAP1 POP POP SWAP1 JUMP JUMPDEST PUSH1 0x0 DUP2 SWAP1 POP SWAP2 SWAP1 POP JUMP JUMPDEST PUSH2 0x2173 DUP2 PUSH2 0x2160 JUMP JUMPDEST DUP3 MSTORE POP POP JUMP JUMPDEST PUSH1 0x0 PUSH1 0x20 DUP3 ADD SWAP1 POP PUSH2 0x218E PUSH1 0x0 DUP4 ADD DUP5 PUSH2 0x216A JUMP JUMPDEST SWAP3 SWAP2 POP POP JUMP JUMPDEST PUSH1 0x0 DUP2 MLOAD SWAP1 POP SWAP2 SWAP1 POP JUMP JUMPDEST PUSH1 0x0 DUP3 DUP3 MSTORE PUSH1 0x20 DUP3 ADD SWAP1 POP SWAP3 SWAP2 POP POP JUMP JUMPDEST PUSH1 0x0 JUMPDEST DUP4 DUP2 LT ISZERO PUSH2 0x21CE JUMPI DUP1 DUP3 ADD MLOAD DUP2 DUP5 ADD MSTORE PUSH1 0x20 DUP2 ADD SWAP1 POP PUSH2 0x21B3 JUMP JUMPDEST PUSH1 0x0 DUP5 DUP5 ADD MSTORE POP POP POP POP JUMP JUMPDEST PUSH1 0x0 PUSH1 0x1F NOT PUSH1 0x1F DUP4 ADD AND SWAP1 POP SWAP2 SWAP1 POP JUMP JUMPDEST PUSH1 0x0 PUSH2 0x21F6 DUP3 PUSH2 0x2194 JUMP JUMPDEST PUSH2 0x2200 DUP2 DUP6 PUSH2 0x219F JUMP JUMPDEST SWAP4 POP PUSH2 0x2210 DUP2 DUP6 PUSH1 0x20 DUP7 ADD PUSH2 0x21B0 JUMP JUMPDEST PUSH2 0x2219 DUP2 PUSH2 0x21DA JUMP JUMPDEST DUP5 ADD SWAP2 POP POP SWAP3 SWAP2 POP POP JUMP JUMPDEST PUSH1 0x0 PUSH1 0x20 DUP3 ADD SWAP1 POP DUP2 DUP2 SUB PUSH1 0x0 DUP4 ADD MSTORE PUSH2 0x223E DUP2 DUP5 PUSH2 0x21EB JUMP JUMPDEST SWAP1 POP SWAP3 SWAP2 POP POP JUMP JUMPDEST PUSH1 0x0 DUP1 REVERT JUMPDEST PUSH1 0x0 PUSH20 0xFFFFFFFFFFFFFFFFFFFFFFFFFFFFFFFFFFFFFFFF DUP3 AND SWAP1 POP SWAP2 SWAP1 POP JUMP JUMPDEST PUSH1 0x0 PUSH2 0x2276 DUP3 PUSH2 0x224B JUMP JUMPDEST SWAP1 POP SWAP2 SWAP1 POP JUMP JUMPDEST PUSH2 0x2286 DUP2 PUSH2 0x226B JUMP JUMPDEST DUP2 EQ PUSH2 0x2291 JUMPI PUSH1 0x0 DUP1 REVERT JUMPDEST POP JUMP JUMPDEST PUSH1 0x0 DUP2 CALLDATALOAD SWAP1 POP PUSH2 0x22A3 DUP2 PUSH2 0x227D JUMP JUMPDEST SWAP3 SWAP2 POP POP JUMP JUMPDEST PUSH2 0x22B2 DUP2 PUSH2 0x2160 JUMP JUMPDEST DUP2 EQ PUSH2 0x22BD JUMPI PUSH1 0x0 DUP1 REVERT JUMPDEST POP JUMP JUMPDEST PUSH1 0x0 DUP2 CALLDATALOAD SWAP1 POP PUSH2 0x22CF DUP2 PUSH2 0x22A9 JUMP JUMPDEST SWAP3 SWAP2 POP POP JUMP JUMPDEST PUSH1 0x0 DUP1 PUSH1 0x40 DUP4 DUP6 SUB SLT ISZERO PUSH2 0x22EC JUMPI PUSH2 0x22EB PUSH2 0x2246 JUMP JUMPDEST JUMPDEST PUSH1 0x0 PUSH2 0x22FA DUP6 DUP3 DUP7 ADD PUSH2 0x2294 JUMP JUMPDEST SWAP3 POP POP PUSH1 0x20 PUSH2 0x230B DUP6 DUP3 DUP7 ADD PUSH2 0x22C0 JUMP JUMPDEST SWAP2 POP POP SWAP3 POP SWAP3 SWAP1 POP JUMP JUMPDEST PUSH1 0x0 DUP2 ISZERO ISZERO SWAP1 POP SWAP2 SWAP1 POP JUMP JUMPDEST PUSH2 0x232A DUP2 PUSH2 0x2315 JUMP JUMPDEST DUP3 MSTORE POP POP JUMP JUMPDEST PUSH1 0x0 PUSH1 0x20 DUP3 ADD SWAP1 POP PUSH2 0x2345 PUSH1 0x0 DUP4 ADD DUP5 PUSH2 0x2321 JUMP JUMPDEST SWAP3 SWAP2 POP POP JUMP JUMPDEST PUSH1 0x0 DUP2 SWAP1 POP SWAP2 SWAP1 POP JUMP JUMPDEST PUSH1 0x0 PUSH2 0x2370 PUSH2 0x236B PUSH2 0x2366 DUP5 PUSH2 0x224B JUMP JUMPDEST PUSH2 0x234B JUMP JUMPDEST PUSH2 0x224B JUMP JUMPDEST SWAP1 POP SWAP2 SWAP1 POP JUMP JUMPDEST PUSH1 0x0 PUSH2 0x2382 DUP3 PUSH2 0x2355 JUMP JUMPDEST SWAP1 POP SWAP2 SWAP1 POP JUMP JUMPDEST PUSH1 0x0 PUSH2 0x2394 DUP3 PUSH2 0x2377 JUMP JUMPDEST SWAP1 POP SWAP2 SWAP1 POP JUMP JUMPDEST PUSH2 0x23A4 DUP2 PUSH2 0x2389 JUMP JUMPDEST DUP3 MSTORE POP POP JUMP JUMPDEST PUSH1 0x0 PUSH1 0x20 DUP3 ADD SWAP1 POP PUSH2 0x23BF PUSH1 0x0 DUP4 ADD DUP5 PUSH2 0x239B JUMP JUMPDEST SWAP3 SWAP2 POP POP JUMP JUMPDEST PUSH1 0x0 DUP1 PUSH1 0x0 PUSH1 0x60 DUP5 DUP7 SUB SLT ISZERO PUSH2 0x23DE JUMPI PUSH2 0x23DD PUSH2 0x2246 JUMP JUMPDEST JUMPDEST PUSH1 0x0 PUSH2 0x23EC DUP7 DUP3 DUP8 ADD PUSH2 0x2294 JUMP JUMPDEST SWAP4 POP POP PUSH1 0x20 PUSH2 0x23FD DUP7 DUP3 DUP8 ADD PUSH2 0x2294 JUMP JUMPDEST SWAP3 POP POP PUSH1 0x40 PUSH2 0x240E DUP7 DUP3 DUP8 ADD PUSH2 0x22C0 JUMP JUMPDEST SWAP2 POP POP SWAP3 POP SWAP3 POP SWAP3 JUMP JUMPDEST PUSH2 0x2421 DUP2 PUSH2 0x226B JUMP JUMPDEST DUP3 MSTORE POP POP JUMP JUMPDEST PUSH1 0x0 PUSH1 0x20 DUP3 ADD SWAP1 POP PUSH2 0x243C PUSH1 0x0 DUP4 ADD DUP5 PUSH2 0x2418 JUMP JUMPDEST SWAP3 SWAP2 POP POP JUMP JUMPDEST PUSH1 0x0 PUSH1 0xFF DUP3 AND SWAP1 POP SWAP2 SWAP1 POP JUMP JUMPDEST PUSH2 0x2458 DUP2 PUSH2 0x2442 JUMP JUMPDEST DUP3 MSTORE POP POP JUMP JUMPDEST PUSH1 0x0 PUSH1 0x20 DUP3 ADD SWAP1 POP PUSH2 0x2473 PUSH1 0x0 DUP4 ADD DUP5 PUSH2 0x244F JUMP JUMPDEST SWAP3 SWAP2 POP POP JUMP JUMPDEST PUSH1 0x0 PUSH1 0x20 DUP3 DUP5 SUB SLT ISZERO PUSH2 0x248F JUMPI PUSH2 0x248E PUSH2 0x2246 JUMP JUMPDEST JUMPDEST PUSH1 0x0 PUSH2 0x249D DUP5 DUP3 DUP6 ADD PUSH2 0x22C0 JUMP JUMPDEST SWAP2 POP POP SWAP3 SWAP2 POP POP JUMP JUMPDEST PUSH1 0x0 DUP1 REVERT JUMPDEST PUSH1 0x0 DUP2 SWAP1 POP DUP3 PUSH1 0x20 PUSH1 0x2 MUL DUP3 ADD GT ISZERO PUSH2 0x24C7 JUMPI PUSH2 0x24C6 PUSH2 0x24A6 JUMP JUMPDEST JUMPDEST SWAP3 SWAP2 POP POP JUMP JUMPDEST PUSH1 0x0 DUP2 SWAP1 POP DUP3 PUSH1 0x40 PUSH1 0x2 MUL DUP3 ADD GT ISZERO PUSH2 0x24E9 JUMPI PUSH2 0x24E8 PUSH2 0x24A6 JUMP JUMPDEST JUMPDEST SWAP3 SWAP2 POP POP JUMP JUMPDEST PUSH1 0x0 DUP1 PUSH1 0x0 DUP1 PUSH1 0x0 PUSH2 0x160 DUP7 DUP9 SUB SLT ISZERO PUSH2 0x250C JUMPI PUSH2 0x250B PUSH2 0x2246 JUMP JUMPDEST JUMPDEST PUSH1 0x0 PUSH2 0x251A DUP9 DUP3 DUP10 ADD PUSH2 0x22C0 JUMP JUMPDEST SWAP6 POP POP PUSH1 0x20 PUSH2 0x252B DUP9 DUP3 DUP10 ADD PUSH2 0x24AB JUMP JUMPDEST SWAP5 POP POP PUSH1 0x60 PUSH2 0x253C DUP9 DUP3 DUP10 ADD PUSH2 0x24CD JUMP JUMPDEST SWAP4 POP POP PUSH1 0xE0 PUSH2 0x254D DUP9 DUP3 DUP10 ADD PUSH2 0x24AB JUMP JUMPDEST SWAP3 POP POP PUSH2 0x120 PUSH2 0x255F DUP9 DUP3 DUP10 ADD PUSH2 0x24AB JUMP JUMPDEST SWAP2 POP POP SWAP3 SWAP6 POP SWAP3 SWAP6 SWAP1 SWAP4 POP JUMP JUMPDEST PUSH1 0x0 PUSH1 0x20 DUP3 DUP5 SUB SLT ISZERO PUSH2 0x2582 JUMPI PUSH2 0x2581 PUSH2 0x2246 JUMP JUMPDEST JUMPDEST PUSH1 0x0 PUSH2 0x2590 DUP5 DUP3 DUP6 ADD PUSH2 0x2294 JUMP JUMPDEST SWAP2 POP POP SWAP3 SWAP2 POP POP JUMP JUMPDEST PUSH1 0x0 PUSH2 0x25A4 DUP3 PUSH2 0x2377 JUMP JUMPDEST SWAP1 POP SWAP2 SWAP1 POP JUMP JUMPDEST PUSH2 0x25B4 DUP2 PUSH2 0x2599 JUMP JUMPDEST DUP3 MSTORE POP POP JUMP JUMPDEST PUSH1 0x0 PUSH1 0x20 DUP3 ADD SWAP1 POP PUSH2 0x25CF PUSH1 0x0 DUP4 ADD DUP5 PUSH2 0x25AB JUMP JUMPDEST SWAP3 SWAP2 POP POP JUMP JUMPDEST PUSH1 0x0 PUSH1 0x80 DUP3 ADD SWAP1 POP PUSH2 0x25EA PUSH1 0x0 DUP4 ADD DUP8 PUSH2 0x2418 JUMP JUMPDEST PUSH2 0x25F7 PUSH1 0x20 DUP4 ADD DUP7 PUSH2 0x216A JUMP JUMPDEST PUSH2 0x2604 PUSH1 0x40 DUP4 ADD DUP6 PUSH2 0x216A JUMP JUMPDEST PUSH2 0x2611 PUSH1 0x60 DUP4 ADD DUP5 PUSH2 0x2321 JUMP JUMPDEST SWAP6 SWAP5 POP POP POP POP POP JUMP JUMPDEST PUSH2 0x2623 DUP2 PUSH2 0x2442 JUMP JUMPDEST DUP2 EQ PUSH2 0x262E JUMPI PUSH1 0x0 DUP1 REVERT JUMPDEST POP JUMP JUMPDEST PUSH1 0x0 DUP2 CALLDATALOAD SWAP1 POP PUSH2 0x2640 DUP2 PUSH2 0x261A JUMP JUMPDEST SWAP3 SWAP2 POP POP JUMP JUMPDEST PUSH1 0x0 PUSH1 0x20 DUP3 DUP5 SUB SLT ISZERO PUSH2 0x265C JUMPI PUSH2 0x265B PUSH2 0x2246 JUMP JUMPDEST JUMPDEST PUSH1 0x0 PUSH2 0x266A DUP5 DUP3 DUP6 ADD PUSH2 0x2631 JUMP JUMPDEST SWAP2 POP POP SWAP3 SWAP2 POP POP JUMP JUMPDEST PUSH1 0x0 DUP1 PUSH1 0x40 DUP4 DUP6 SUB SLT ISZERO PUSH2 0x268A JUMPI PUSH2 0x2689 PUSH2 0x2246 JUMP JUMPDEST JUMPDEST PUSH1 0x0 PUSH2 0x2698 DUP6 DUP3 DUP7 ADD PUSH2 0x2294 JUMP JUMPDEST SWAP3 POP POP PUSH1 0x20 PUSH2 0x26A9 DUP6 DUP3 DUP7 ADD PUSH2 0x2294 JUMP JUMPDEST SWAP2 POP POP SWAP3 POP SWAP3 SWAP1 POP JUMP JUMPDEST PUSH1 0x0 DUP1 PUSH1 0x40 DUP4 DUP6 SUB SLT ISZERO PUSH2 0x26CA JUMPI PUSH2 0x26C9 PUSH2 0x2246 JUMP JUMPDEST JUMPDEST PUSH1 0x0 PUSH2 0x26D8 DUP6 DUP3 DUP7 ADD PUSH2 0x22C0 JUMP JUMPDEST SWAP3 POP POP PUSH1 0x20 PUSH2 0x26E9 DUP6 DUP3 DUP7 ADD PUSH2 0x22C0 JUMP JUMPDEST SWAP2 POP POP SWAP3 POP SWAP3 SWAP1 POP JUMP JUMPDEST PUSH1 0x0 PUSH2 0x26FE DUP3 PUSH2 0x2377 JUMP JUMPDEST SWAP1 POP SWAP2 SWAP1 POP JUMP JUMPDEST PUSH2 0x270E DUP2 PUSH2 0x26F3 JUMP JUMPDEST DUP3 MSTORE POP POP JUMP JUMPDEST PUSH1 0x0 PUSH1 0x20 DUP3 ADD SWAP1 POP PUSH2 0x2729 PUSH1 0x0 DUP4 ADD DUP5 PUSH2 0x2705 JUMP JUMPDEST SWAP3 SWAP2 POP POP JUMP JUMPDEST PUSH32 0x4E487B7100000000000000000000000000000000000000000000000000000000 PUSH1 0x0 MSTORE PUSH1 0x22 PUSH1 0x4 MSTORE PUSH1 0x24 PUSH1 0x0 REVERT JUMPDEST PUSH1 0x0 PUSH1 0x2 DUP3 DIV SWAP1 POP PUSH1 0x1 DUP3 AND DUP1 PUSH2 0x2776 JUMPI PUSH1 0x7F DUP3 AND SWAP2 POP JUMPDEST PUSH1 0x20 DUP3 LT DUP2 SUB PUSH2 0x2789 JUMPI PUSH2 0x2788 PUSH2 0x272F JUMP JUMPDEST JUMPDEST POP SWAP2 SWAP1 POP JUMP JUMPDEST PUSH32 0x496E76616C696420696400000000000000000000000000000000000000000000 PUSH1 0x0 DUP3 ADD MSTORE POP JUMP JUMPDEST PUSH1 0x0 PUSH2 0x27C5 PUSH1 0xA DUP4 PUSH2 0x219F JUMP JUMPDEST SWAP2 POP PUSH2 0x27D0 DUP3 PUSH2 0x278F JUMP JUMPDEST PUSH1 0x20 DUP3 ADD SWAP1 POP SWAP2 SWAP1 POP JUMP JUMPDEST PUSH1 0x0 PUSH1 0x20 DUP3 ADD SWAP1 POP DUP2 DUP2 SUB PUSH1 0x0 DUP4 ADD MSTORE PUSH2 0x27F4 DUP2 PUSH2 0x27B8 JUMP JUMPDEST SWAP1 POP SWAP2 SWAP1 POP JUMP JUMPDEST PUSH32 0x4E487B7100000000000000000000000000000000000000000000000000000000 PUSH1 0x0 MSTORE PUSH1 0x32 PUSH1 0x4 MSTORE PUSH1 0x24 PUSH1 0x0 REVERT JUMPDEST PUSH32 0x4F6E6C79206F776E65722063616E2072656465656D0000000000000000000000 PUSH1 0x0 DUP3 ADD MSTORE POP JUMP JUMPDEST PUSH1 0x0 PUSH2 0x2860 PUSH1 0x15 DUP4 PUSH2 0x219F JUMP JUMPDEST SWAP2 POP PUSH2 0x286B DUP3 PUSH2 0x282A JUMP JUMPDEST PUSH1 0x20 DUP3 ADD SWAP1 POP SWAP2 SWAP1 POP JUMP JUMPDEST PUSH1 0x0 PUSH1 0x20 DUP3 ADD SWAP1 POP DUP2 DUP2 SUB PUSH1 0x0 DUP4 ADD MSTORE PUSH2 0x288F DUP2 PUSH2 0x2853 JUMP JUMPDEST SWAP1 POP SWAP2 SWAP1 POP JUMP JUMPDEST PUSH32 0x4E487B7100000000000000000000000000000000000000000000000000000000 PUSH1 0x0 MSTORE PUSH1 0x11 PUSH1 0x4 MSTORE PUSH1 0x24 PUSH1 0x0 REVERT JUMPDEST PUSH1 0x0 PUSH2 0x28D0 DUP3 PUSH2 0x2160 JUMP JUMPDEST SWAP2 POP PUSH2 0x28DB DUP4 PUSH2 0x2160 JUMP JUMPDEST SWAP3 POP DUP3 DUP3 ADD SWAP1 POP DUP1 DUP3 GT ISZERO PUSH2 0x28F3 JUMPI PUSH2 0x28F2 PUSH2 0x2896 JUMP JUMPDEST JUMPDEST SWAP3 SWAP2 POP POP JUMP JUMPDEST PUSH32 0x5374696C6C20696E206C6F636B20706572696F64000000000000000000000000 PUSH1 0x0 DUP3 ADD MSTORE POP JUMP JUMPDEST PUSH1 0x0 PUSH2 0x292F PUSH1 0x14 DUP4 PUSH2 0x219F JUMP JUMPDEST SWAP2 POP PUSH2 0x293A DUP3 PUSH2 0x28F9 JUMP JUMPDEST PUSH1 0x20 DUP3 ADD SWAP1 POP SWAP2 SWAP1 POP JUMP JUMPDEST PUSH1 0x0 PUSH1 0x20 DUP3 ADD SWAP1 POP DUP2 DUP2 SUB PUSH1 0x0 DUP4 ADD MSTORE PUSH2 0x295E DUP2 PUSH2 0x2922 JUMP JUMPDEST SWAP1 POP SWAP2 SWAP1 POP JUMP JUMPDEST PUSH32 0x4E6F742076616C69640000000000000000000000000000000000000000000000 PUSH1 0x0 DUP3 ADD MSTORE POP JUMP JUMPDEST PUSH1 0x0 PUSH2 0x299B PUSH1 0x9 DUP4 PUSH2 0x219F JUMP JUMPDEST SWAP2 POP PUSH2 0x29A6 DUP3 PUSH2 0x2965 JUMP JUMPDEST PUSH1 0x20 DUP3 ADD SWAP1 POP SWAP2 SWAP1 POP JUMP JUMPDEST PUSH1 0x0 PUSH1 0x20 DUP3 ADD SWAP1 POP DUP2 DUP2 SUB PUSH1 0x0 DUP4 ADD MSTORE PUSH2 0x29CA DUP2 PUSH2 0x298E JUMP JUMPDEST SWAP1 POP SWAP2 SWAP1 POP JUMP JUMPDEST PUSH32 0x616C7265616479207370656E7400000000000000000000000000000000000000 PUSH1 0x0 DUP3 ADD MSTORE POP JUMP JUMPDEST PUSH1 0x0 PUSH2 0x2A07 PUSH1 0xD DUP4 PUSH2 0x219F JUMP JUMPDEST SWAP2 POP PUSH2 0x2A12 DUP3 PUSH2 0x29D1 JUMP JUMPDEST PUSH1 0x20 DUP3 ADD SWAP1 POP SWAP2 SWAP1 POP JUMP JUMPDEST PUSH1 0x0 PUSH1 0x20 DUP3 ADD SWAP1 POP DUP2 DUP2 SUB PUSH1 0x0 DUP4 ADD MSTORE PUSH2 0x2A36 DUP2 PUSH2 0x29FA JUMP JUMPDEST SWAP1 POP SWAP2 SWAP1 POP JUMP JUMPDEST PUSH32 0x6E6F7420726F6F74000000000000000000000000000000000000000000000000 PUSH1 0x0 DUP3 ADD MSTORE POP JUMP JUMPDEST PUSH1 0x0 PUSH2 0x2A73 PUSH1 0x8 DUP4 PUSH2 0x219F JUMP JUMPDEST SWAP2 POP PUSH2 0x2A7E DUP3 PUSH2 0x2A3D JUMP JUMPDEST PUSH1 0x20 DUP3 ADD SWAP1 POP SWAP2 SWAP1 POP JUMP JUMPDEST PUSH1 0x0 PUSH1 0x20 DUP3 ADD SWAP1 POP DUP2 DUP2 SUB PUSH1 0x0 DUP4 ADD MSTORE PUSH2 0x2AA2 DUP2 PUSH2 0x2A66 JUMP JUMPDEST SWAP1 POP SWAP2 SWAP1 POP JUMP JUMPDEST DUP3 DUP2 DUP4 CALLDATACOPY POP POP POP JUMP JUMPDEST PUSH2 0x2ABE PUSH1 0x40 DUP4 DUP4 PUSH2 0x2AA9 JUMP JUMPDEST POP POP JUMP JUMPDEST PUSH1 0x0 PUSH1 0x2 SWAP1 POP SWAP2 SWAP1 POP JUMP JUMPDEST PUSH1 0x0 DUP2 SWAP1 POP SWAP3 SWAP2 POP POP JUMP JUMPDEST PUSH1 0x0 DUP2 SWAP1 POP SWAP2 SWAP1 POP JUMP JUMPDEST PUSH2 0x2AEE PUSH1 0x40 DUP4 DUP4 PUSH2 0x2AA9 JUMP JUMPDEST POP POP JUMP JUMPDEST PUSH1 0x0 PUSH2 0x2AFE DUP4 DUP4 PUSH2 0x2AE2 JUMP JUMPDEST PUSH1 0x40 DUP4 ADD SWAP1 POP SWAP3 SWAP2 POP POP JUMP JUMPDEST PUSH1 0x0 DUP3 SWAP1 POP SWAP3 SWAP2 POP POP JUMP JUMPDEST PUSH1 0x0 PUSH1 0x40 DUP3 ADD SWAP1 POP SWAP2 SWAP1 POP JUMP JUMPDEST PUSH2 0x2B2B DUP2 PUSH2 0x2AC2 JUMP JUMPDEST PUSH2 0x2B35 DUP2 DUP5 PUSH2 0x2ACD JUMP JUMPDEST SWAP3 POP PUSH2 0x2B40 DUP3 PUSH2 0x2AD8 JUMP JUMPDEST DUP1 PUSH1 0x0 JUMPDEST DUP4 DUP2 LT ISZERO PUSH2 0x2B79 JUMPI PUSH2 0x2B56 DUP3 DUP5 PUSH2 0x2B0A JUMP JUMPDEST PUSH2 0x2B60 DUP8 DUP3 PUSH2 0x2AF2 JUMP JUMPDEST SWAP7 POP PUSH2 0x2B6B DUP4 PUSH2 0x2B15 JUMP JUMPDEST SWAP3 POP POP PUSH1 0x1 DUP2 ADD SWAP1 POP PUSH2 0x2B44 JUMP JUMPDEST POP POP POP POP POP POP JUMP JUMPDEST PUSH1 0x0 PUSH1 0x3 SWAP1 POP SWAP2 SWAP1 POP JUMP JUMPDEST PUSH1 0x0 DUP2 SWAP1 POP SWAP3 SWAP2 POP POP JUMP JUMPDEST PUSH1 0x0 DUP2 SWAP1 POP SWAP2 SWAP1 POP JUMP JUMPDEST PUSH2 0x2BAA DUP2 PUSH2 0x2160 JUMP JUMPDEST DUP3 MSTORE POP POP JUMP JUMPDEST PUSH1 0x0 PUSH2 0x2BBC DUP4 DUP4 PUSH2 0x2BA1 JUMP JUMPDEST PUSH1 0x20 DUP4 ADD SWAP1 POP SWAP3 SWAP2 POP POP JUMP JUMPDEST PUSH1 0x0 PUSH1 0x20 DUP3 ADD SWAP1 POP SWAP2 SWAP1 POP JUMP JUMPDEST PUSH2 0x2BDE DUP2 PUSH2 0x2B81 JUMP JUMPDEST PUSH2 0x2BE8 DUP2 DUP5 PUSH2 0x2B8C JUMP JUMPDEST SWAP3 POP PUSH2 0x2BF3 DUP3 PUSH2 0x2B97 JUMP JUMPDEST DUP1 PUSH1 0x0 JUMPDEST DUP4 DUP2 LT ISZERO PUSH2 0x2C24 JUMPI DUP2 MLOAD PUSH2 0x2C0B DUP8 DUP3 PUSH2 0x2BB0 JUMP JUMPDEST SWAP7 POP PUSH2 0x2C16 DUP4 PUSH2 0x2BC8 JUMP JUMPDEST SWAP3 POP POP PUSH1 0x1 DUP2 ADD SWAP1 POP PUSH2 0x2BF7 JUMP JUMPDEST POP POP POP POP POP POP JUMP JUMPDEST PUSH1 0x0 PUSH2 0x160 DUP3 ADD SWAP1 POP PUSH2 0x2C42 PUSH1 0x0 DUP4 ADD DUP8 PUSH2 0x2AB2 JUMP JUMPDEST PUSH2 0x2C4F PUSH1 0x40 DUP4 ADD DUP7 PUSH2 0x2B22 JUMP JUMPDEST PUSH2 0x2C5C PUSH1 0xC0 DUP4 ADD DUP6 PUSH2 0x2AB2 JUMP JUMPDEST PUSH2 0x2C6A PUSH2 0x100 DUP4 ADD DUP5 PUSH2 0x2BD5 JUMP JUMPDEST SWAP6 SWAP5 POP POP POP POP POP JUMP JUMPDEST PUSH1 0x0 DUP2 MLOAD SWAP1 POP SWAP2 SWAP1 POP JUMP JUMPDEST PUSH1 0x0 DUP2 SWAP1 POP SWAP3 SWAP2 POP POP JUMP JUMPDEST PUSH1 0x0 PUSH2 0x2C94 DUP3 PUSH2 0x2C73 JUMP JUMPDEST PUSH2 0x2C9E DUP2 DUP6 PUSH2 0x2C7E JUMP JUMPDEST SWAP4 POP PUSH2 0x2CAE DUP2 DUP6 PUSH1 0x20 DUP7 ADD PUSH2 0x21B0 JUMP JUMPDEST DUP1 DUP5 ADD SWAP2 POP POP SWAP3 SWAP2 POP POP JUMP JUMPDEST PUSH1 0x0 PUSH2 0x2CC6 DUP3 DUP5 PUSH2 0x2C89 JUMP JUMPDEST SWAP2 POP DUP2 SWAP1 POP SWAP3 SWAP2 POP POP JUMP JUMPDEST PUSH32 0x696E76616C69642070726F6F6600000000000000000000000000000000000000 PUSH1 0x0 DUP3 ADD MSTORE POP JUMP JUMPDEST PUSH1 0x0 PUSH2 0x2D07 PUSH1 0xD DUP4 PUSH2 0x219F JUMP JUMPDEST SWAP2 POP PUSH2 0x2D12 DUP3 PUSH2 0x2CD1 JUMP JUMPDEST PUSH1 0x20 DUP3 ADD SWAP1 POP SWAP2 SWAP1 POP JUMP JUMPDEST PUSH1 0x0 PUSH1 0x20 DUP3 ADD SWAP1 POP DUP2 DUP2 SUB PUSH1 0x0 DUP4 ADD MSTORE PUSH2 0x2D36 DUP2 PUSH2 0x2CFA JUMP JUMPDEST SWAP1 POP SWAP2 SWAP1 POP JUMP JUMPDEST PUSH1 0x0 PUSH1 0x60 DUP3 ADD SWAP1 POP PUSH2 0x2D52 PUSH1 0x0 DUP4 ADD DUP7 PUSH2 0x2418 JUMP JUMPDEST PUSH2 0x2D5F PUSH1 0x20 DUP4 ADD DUP6 PUSH2 0x216A JUMP JUMPDEST PUSH2 0x2D6C PUSH1 0x40 DUP4 ADD DUP5 PUSH2 0x2418 JUMP JUMPDEST SWAP5 SWAP4 POP POP POP POP JUMP JUMPDEST PUSH1 0x0 DUP2 MLOAD SWAP1 POP PUSH2 0x2D83 DUP2 PUSH2 0x22A9 JUMP JUMPDEST SWAP3 SWAP2 POP POP JUMP JUMPDEST PUSH1 0x0 PUSH1 0x20 DUP3 DUP5 SUB SLT ISZERO PUSH2 0x2D9F JUMPI PUSH2 0x2D9E PUSH2 0x2246 JUMP JUMPDEST JUMPDEST PUSH1 0x0 PUSH2 0x2DAD DUP5 DUP3 DUP6 ADD PUSH2 0x2D74 JUMP JUMPDEST SWAP2 POP POP SWAP3 SWAP2 POP POP JUMP JUMPDEST PUSH1 0x0 PUSH1 0x40 DUP3 ADD SWAP1 POP PUSH2 0x2DCB PUSH1 0x0 DUP4 ADD DUP6 PUSH2 0x2418 JUMP JUMPDEST PUSH2 0x2DD8 PUSH1 0x20 DUP4 ADD DUP5 PUSH2 0x216A JUMP JUMPDEST SWAP4 SWAP3 POP POP POP JUMP JUMPDEST PUSH2 0x2DE8 DUP2 PUSH2 0x2315 JUMP JUMPDEST DUP2 EQ PUSH2 0x2DF3 JUMPI PUSH1 0x0 DUP1 REVERT JUMPDEST POP JUMP JUMPDEST PUSH1 0x0 DUP2 MLOAD SWAP1 POP PUSH2 0x2E05 DUP2 PUSH2 0x2DDF JUMP JUMPDEST SWAP3 SWAP2 POP POP JUMP JUMPDEST PUSH1 0x0 PUSH1 0x20 DUP3 DUP5 SUB SLT ISZERO PUSH2 0x2E21 JUMPI PUSH2 0x2E20 PUSH2 0x2246 JUMP JUMPDEST JUMPDEST PUSH1 0x0 PUSH2 0x2E2F DUP5 DUP3 DUP6 ADD PUSH2 0x2DF6 JUMP JUMPDEST SWAP2 POP POP SWAP3 SWAP2 POP POP JUMP JUMPDEST PUSH1 0x0 PUSH2 0x2E43 DUP3 PUSH2 0x2160 JUMP JUMPDEST SWAP2 POP PUSH2 0x2E4E DUP4 PUSH2 0x2160 JUMP JUMPDEST SWAP3 POP DUP3 DUP3 SUB SWAP1 POP DUP2 DUP2 GT ISZERO PUSH2 0x2E66 JUMPI PUSH2 0x2E65 PUSH2 0x2896 JUMP JUMPDEST JUMPDEST SWAP3 SWAP2 POP POP JUMP JUMPDEST PUSH32 0x43616E6E6F74206465706F736974207A65726F20746F6B656E73000000000000 PUSH1 0x0 DUP3 ADD MSTORE POP JUMP JUMPDEST PUSH1 0x0 PUSH2 0x2EA2 PUSH1 0x1A DUP4 PUSH2 0x219F JUMP JUMPDEST SWAP2 POP PUSH2 0x2EAD DUP3 PUSH2 0x2E6C JUMP JUMPDEST PUSH1 0x20 DUP3 ADD SWAP1 POP SWAP2 SWAP1 POP JUMP JUMPDEST PUSH1 0x0 PUSH1 0x20 DUP3 ADD SWAP1 POP DUP2 DUP2 SUB PUSH1 0x0 DUP4 ADD MSTORE PUSH2 0x2ED1 DUP2 PUSH2 0x2E95 JUMP JUMPDEST SWAP1 POP SWAP2 SWAP1 POP JUMP JUMPDEST PUSH32 0x496E73756666696369656E742062616C616E6365000000000000000000000000 PUSH1 0x0 DUP3 ADD MSTORE POP JUMP JUMPDEST PUSH1 0x0 PUSH2 0x2F0E PUSH1 0x14 DUP4 PUSH2 0x219F JUMP JUMPDEST SWAP2 POP PUSH2 0x2F19 DUP3 PUSH2 0x2ED8 JUMP JUMPDEST PUSH1 0x20 DUP3 ADD SWAP1 POP SWAP2 SWAP1 POP JUMP JUMPDEST PUSH1 0x0 PUSH1 0x20 DUP3 ADD SWAP1 POP DUP2 DUP2 SUB PUSH1 0x0 DUP4 ADD MSTORE PUSH2 0x2F3D DUP2 PUSH2 0x2F01 JUMP JUMPDEST SWAP1 POP SWAP2 SWAP1 POP JUMP JUMPDEST PUSH1 0x0 PUSH1 0x40 DUP3 ADD SWAP1 POP PUSH2 0x2F59 PUSH1 0x0 DUP4 ADD DUP6 PUSH2 0x2418 JUMP JUMPDEST PUSH2 0x2F66 PUSH1 0x20 DUP4 ADD DUP5 PUSH2 0x2418 JUMP JUMPDEST SWAP4 SWAP3 POP POP POP JUMP JUMPDEST PUSH32 0x496E73756666696369656E7420616C6C6F77616E636500000000000000000000 PUSH1 0x0 DUP3 ADD MSTORE POP JUMP JUMPDEST PUSH1 0x0 PUSH2 0x2FA3 PUSH1 0x16 DUP4 PUSH2 0x219F JUMP JUMPDEST SWAP2 POP PUSH2 0x2FAE DUP3 PUSH2 0x2F6D JUMP JUMPDEST PUSH1 0x20 DUP3 ADD SWAP1 POP SWAP2 SWAP1 POP JUMP JUMPDEST PUSH1 0x0 PUSH1 0x20 DUP3 ADD SWAP1 POP DUP2 DUP2 SUB PUSH1 0x0 DUP4 ADD MSTORE PUSH2 0x2FD2 DUP2 PUSH2 0x2F96 JUMP JUMPDEST SWAP1 POP SWAP2 SWAP1 POP JUMP JUMPDEST PUSH32 0x6475706C696361746520636F6D6D69746D656E74206861736800000000000000 PUSH1 0x0 DUP3 ADD MSTORE POP JUMP JUMPDEST PUSH1 0x0 PUSH2 0x300F PUSH1 0x19 DUP4 PUSH2 0x219F JUMP JUMPDEST SWAP2 POP PUSH2 0x301A DUP3 PUSH2 0x2FD9 JUMP JUMPDEST PUSH1 0x20 DUP3 ADD SWAP1 POP SWAP2 SWAP1 POP JUMP JUMPDEST PUSH1 0x0 PUSH1 0x20 DUP3 ADD SWAP1 POP DUP2 DUP2 SUB PUSH1 0x0 DUP4 ADD MSTORE PUSH2 0x303E DUP2 PUSH2 0x3002 JUMP JUMPDEST SWAP1 POP SWAP2 SWAP1 POP JUMP JUMPDEST PUSH1 0x0 DUP2 PUSH1 0x1 SHR SWAP1 POP SWAP2 SWAP1 POP JUMP JUMPDEST PUSH1 0x0 DUP1 DUP3 SWAP2 POP DUP4 SWAP1 POP JUMPDEST PUSH1 0x1 DUP6 GT ISZERO PUSH2 0x309C JUMPI DUP1 DUP7 DIV DUP2 GT ISZERO PUSH2 0x3078 JUMPI PUSH2 0x3077 PUSH2 0x2896 JUMP JUMPDEST JUMPDEST PUSH1 0x1 DUP6 AND ISZERO PUSH2 0x3087 JUMPI DUP1 DUP3 MUL SWAP2 POP JUMPDEST DUP1 DUP2 MUL SWAP1 POP PUSH2 0x3095 DUP6 PUSH2 0x3045 JUMP JUMPDEST SWAP5 POP PUSH2 0x305C JUMP JUMPDEST SWAP5 POP SWAP5 SWAP3 POP POP POP JUMP JUMPDEST PUSH1 0x0 DUP3 PUSH2 0x30B5 JUMPI PUSH1 0x1 SWAP1 POP PUSH2 0x3171 JUMP JUMPDEST DUP2 PUSH2 0x30C3 JUMPI PUSH1 0x0 SWAP1 POP PUSH2 0x3171 JUMP JUMPDEST DUP2 PUSH1 0x1 DUP2 EQ PUSH2 0x30D9 JUMPI PUSH1 0x2 DUP2 EQ PUSH2 0x30E3 JUMPI PUSH2 0x3112 JUMP JUMPDEST PUSH1 0x1 SWAP2 POP POP PUSH2 0x3171 JUMP JUMPDEST PUSH1 0xFF DUP5 GT ISZERO PUSH2 0x30F5 JUMPI PUSH2 0x30F4 PUSH2 0x2896 JUMP JUMPDEST JUMPDEST DUP4 PUSH1 0x2 EXP SWAP2 POP DUP5 DUP3 GT ISZERO PUSH2 0x310C JUMPI PUSH2 0x310B PUSH2 0x2896 JUMP JUMPDEST JUMPDEST POP PUSH2 0x3171 JUMP JUMPDEST POP PUSH1 0x20 DUP4 LT PUSH2 0x133 DUP4 LT AND PUSH1 0x4E DUP5 LT PUSH1 0xB DUP5 LT AND OR ISZERO PUSH2 0x3147 JUMPI DUP3 DUP3 EXP SWAP1 POP DUP4 DUP2 GT ISZERO PUSH2 0x3142 JUMPI PUSH2 0x3141 PUSH2 0x2896 JUMP JUMPDEST JUMPDEST PUSH2 0x3171 JUMP JUMPDEST PUSH2 0x3154 DUP5 DUP5 DUP5 PUSH1 0x1 PUSH2 0x3052 JUMP JUMPDEST SWAP3 POP SWAP1 POP DUP2 DUP5 DIV DUP2 GT ISZERO PUSH2 0x316B JUMPI PUSH2 0x316A PUSH2 0x2896 JUMP JUMPDEST JUMPDEST DUP2 DUP2 MUL SWAP1 POP JUMPDEST SWAP4 SWAP3 POP POP POP JUMP JUMPDEST PUSH1 0x0 PUSH2 0x3183 DUP3 PUSH2 0x2160 JUMP JUMPDEST SWAP2 POP PUSH2 0x318E DUP4 PUSH2 0x2442 JUMP JUMPDEST SWAP3 POP PUSH2 0x31BB PUSH32 0xFFFFFFFFFFFFFFFFFFFFFFFFFFFFFFFFFFFFFFFFFFFFFFFFFFFFFFFFFFFFFFFF DUP5 DUP5 PUSH2 0x30A5 JUMP JUMPDEST SWAP1 POP SWAP3 SWAP2 POP POP JUMP JUMPDEST PUSH32 0x747265652066756C6C0000000000000000000000000000000000000000000000 PUSH1 0x0 DUP3 ADD MSTORE POP JUMP JUMPDEST PUSH1 0x0 PUSH2 0x31F9 PUSH1 0x9 DUP4 PUSH2 0x219F JUMP JUMPDEST SWAP2 POP PUSH2 0x3204 DUP3 PUSH2 0x31C3 JUMP JUMPDEST PUSH1 0x20 DUP3 ADD SWAP1 POP SWAP2 SWAP1 POP JUMP JUMPDEST PUSH1 0x0 PUSH1 0x20 DUP3 ADD SWAP1 POP DUP2 DUP2 SUB PUSH1 0x0 DUP4 ADD MSTORE PUSH2 0x3228 DUP2 PUSH2 0x31EC JUMP JUMPDEST SWAP1 POP SWAP2 SWAP1 POP JUMP JUMPDEST PUSH1 0x0 PUSH1 0x60 DUP3 ADD SWAP1 POP PUSH2 0x3244 PUSH1 0x0 DUP4 ADD DUP7 PUSH2 0x2418 JUMP JUMPDEST PUSH2 0x3251 PUSH1 0x20 DUP4 ADD DUP6 PUSH2 0x2418 JUMP JUMPDEST PUSH2 0x325E PUSH1 0x40 DUP4 ADD DUP5 PUSH2 0x216A JUMP JUMPDEST SWAP5 SWAP4 POP POP POP POP JUMP JUMPDEST PUSH1 0x0 DUP2 SWAP1 POP SWAP2 SWAP1 POP JUMP JUMPDEST PUSH1 0x0 PUSH2 0xFFFF DUP3 AND SWAP1 POP SWAP2 SWAP1 POP JUMP JUMPDEST PUSH1 0x0 PUSH2 0x3299 PUSH2 0x3294 PUSH2 0x328F DUP5 PUSH2 0x3266 JUMP JUMPDEST PUSH2 0x234B JUMP JUMPDEST PUSH2 0x3270 JUMP JUMPDEST SWAP1 POP SWAP2 SWAP1 POP JUMP JUMPDEST PUSH2 0x32A9 DUP2 PUSH2 0x327E JUMP JUMPDEST DUP3 MSTORE POP POP JUMP JUMPDEST PUSH1 0x0 PUSH1 0x80 DUP3 ADD SWAP1 POP PUSH2 0x32C4 PUSH1 0x0 DUP4 ADD DUP8 PUSH2 0x2418 JUMP JUMPDEST PUSH2 0x32D1 PUSH1 0x20 DUP4 ADD DUP7 PUSH2 0x216A JUMP JUMPDEST PUSH2 0x32DE PUSH1 0x40 DUP4 ADD DUP6 PUSH2 0x2418 JUMP JUMPDEST PUSH2 0x32EB PUSH1 0x60 DUP4 ADD DUP5 PUSH2 0x32A0 JUMP JUMPDEST SWAP6 SWAP5 POP POP POP POP POP JUMP JUMPDEST PUSH32 0x4E487B7100000000000000000000000000000000000000000000000000000000 PUSH1 0x0 MSTORE PUSH1 0x12 PUSH1 0x4 MSTORE PUSH1 0x24 PUSH1 0x0 REVERT JUMPDEST PUSH1 0x0 PUSH2 0x332E DUP3 PUSH2 0x2160 JUMP JUMPDEST SWAP2 POP PUSH2 0x3339 DUP4 PUSH2 0x2160 JUMP JUMPDEST SWAP3 POP DUP3 PUSH2 0x3349 JUMPI PUSH2 0x3348 PUSH2 0x32F4 JUMP JUMPDEST JUMPDEST DUP3 DUP3 MOD SWAP1 POP SWAP3 SWAP2 POP POP JUMP JUMPDEST PUSH1 0x0 PUSH1 0x2 SWAP1 POP SWAP2 SWAP1 POP JUMP JUMPDEST PUSH1 0x0 DUP2 SWAP1 POP SWAP3 SWAP2 POP POP JUMP JUMPDEST PUSH1 0x0 DUP2 SWAP1 POP SWAP2 SWAP1 POP JUMP JUMPDEST PUSH1 0x0 PUSH1 0x20 DUP3 ADD SWAP1 POP SWAP2 SWAP1 POP JUMP JUMPDEST PUSH2 0x338A DUP2 PUSH2 0x3354 JUMP JUMPDEST PUSH2 0x3394 DUP2 DUP5 PUSH2 0x335F JUMP JUMPDEST SWAP3 POP PUSH2 0x339F DUP3 PUSH2 0x336A JUMP JUMPDEST DUP1 PUSH1 0x0 JUMPDEST DUP4 DUP2 LT ISZERO PUSH2 0x33D0 JUMPI DUP2 MLOAD PUSH2 0x33B7 DUP8 DUP3 PUSH2 0x2BB0 JUMP JUMPDEST SWAP7 POP PUSH2 0x33C2 DUP4 PUSH2 0x3374 JUMP JUMPDEST SWAP3 POP POP PUSH1 0x1 DUP2 ADD SWAP1 POP PUSH2 0x33A3 JUMP JUMPDEST POP POP POP POP POP POP JUMP JUMPDEST PUSH1 0x0 PUSH1 0x60 DUP3 ADD SWAP1 POP PUSH2 0x33ED PUSH1 0x0 DUP4 ADD DUP6 PUSH2 0x3381 JUMP JUMPDEST PUSH2 0x33FA PUSH1 0x40 DUP4 ADD DUP5 PUSH2 0x216A JUMP JUMPDEST SWAP4 SWAP3 POP POP POP JUMP JUMPDEST PUSH1 0x0 PUSH2 0x340C DUP3 PUSH2 0x2160 JUMP JUMPDEST SWAP2 POP PUSH2 0x3417 DUP4 PUSH2 0x2160 JUMP JUMPDEST SWAP3 POP DUP3 PUSH2 0x3427 JUMPI PUSH2 0x3426 PUSH2 0x32F4 JUMP JUMPDEST JUMPDEST DUP3 DUP3 DIV SWAP1 POP SWAP3 SWAP2 POP POP JUMP JUMPDEST PUSH1 0x0 PUSH2 0x343D DUP3 PUSH2 0x2442 JUMP JUMPDEST SWAP2 POP PUSH1 0xFF DUP3 SUB PUSH2 0x3450 JUMPI PUSH2 0x344F PUSH2 0x2896 JUMP JUMPDEST JUMPDEST PUSH1 0x1 DUP3 ADD SWAP1 POP SWAP2 SWAP1 POP JUMP JUMPDEST PUSH1 0x0 PUSH2 0x3466 DUP3 PUSH2 0x2160 JUMP JUMPDEST SWAP2 POP PUSH32 0xFFFFFFFFFFFFFFFFFFFFFFFFFFFFFFFFFFFFFFFFFFFFFFFFFFFFFFFFFFFFFFFF DUP3 SUB PUSH2 0x3498 JUMPI PUSH2 0x3497 PUSH2 0x2896 JUMP JUMPDEST JUMPDEST PUSH1 0x1 DUP3 ADD SWAP1 POP SWAP2 SWAP1 POP JUMP JUMPDEST PUSH1 0x0 PUSH1 0xA SWAP1 POP SWAP2 SWAP1 POP JUMP JUMPDEST PUSH1 0x0 DUP2 SWAP1 POP SWAP3 SWAP2 POP POP JUMP JUMPDEST PUSH1 0x0 DUP2 SWAP1 POP SWAP2 SWAP1 POP JUMP JUMPDEST PUSH1 0x0 PUSH1 0x20 DUP3 ADD SWAP1 POP SWAP2 SWAP1 POP JUMP JUMPDEST PUSH2 0x34D9 DUP2 PUSH2 0x34A3 JUMP JUMPDEST PUSH2 0x34E3 DUP2 DUP5 PUSH2 0x34AE JUMP JUMPDEST SWAP3 POP PUSH2 0x34EE DUP3 PUSH2 0x34B9 JUMP JUMPDEST DUP1 PUSH1 0x0 JUMPDEST DUP4 DUP2 LT ISZERO PUSH2 0x351F JUMPI DUP2 MLOAD PUSH2 0x3506 DUP8 DUP3 PUSH2 0x2BB0 JUMP JUMPDEST SWAP7 POP PUSH2 0x3511 DUP4 PUSH2 0x34C3 JUMP JUMPDEST SWAP3 POP POP PUSH1 0x1 DUP2 ADD SWAP1 POP PUSH2 0x34F2 JUMP JUMPDEST POP POP POP POP POP POP JUMP JUMPDEST PUSH1 0x0 PUSH1 0xA SWAP1 POP SWAP2 SWAP1 POP JUMP JUMPDEST PUSH1 0x0 DUP2 SWAP1 POP SWAP3 SWAP2 POP POP JUMP JUMPDEST PUSH1 0x0 DUP2 SWAP1 POP SWAP2 SWAP1 POP JUMP JUMPDEST PUSH2 0x3550 DUP2 PUSH2 0x2442 JUMP JUMPDEST DUP3 MSTORE POP POP JUMP JUMPDEST PUSH1 0x0 PUSH2 0x3562 DUP4 DUP4 PUSH2 0x3547 JUMP JUMPDEST PUSH1 0x20 DUP4 ADD SWAP1 POP SWAP3 SWAP2 POP POP JUMP JUMPDEST PUSH1 0x0 PUSH1 0x20 DUP3 ADD SWAP1 POP SWAP2 SWAP1 POP JUMP JUMPDEST PUSH2 0x3584 DUP2 PUSH2 0x3527 JUMP JUMPDEST PUSH2 0x358E DUP2 DUP5 PUSH2 0x3532 JUMP JUMPDEST SWAP3 POP PUSH2 0x3599 DUP3 PUSH2 0x353D JUMP JUMPDEST DUP1 PUSH1 0x0 JUMPDEST DUP4 DUP2 LT ISZERO PUSH2 0x35CA JUMPI DUP2 MLOAD PUSH2 0x35B1 DUP8 DUP3 PUSH2 0x3556 JUMP JUMPDEST SWAP7 POP PUSH2 0x35BC DUP4 PUSH2 0x356E JUMP JUMPDEST SWAP3 POP POP PUSH1 0x1 DUP2 ADD SWAP1 POP PUSH2 0x359D JUMP JUMPDEST POP POP POP POP POP POP JUMP JUMPDEST PUSH1 0x0 PUSH2 0x2A0 DUP3 ADD SWAP1 POP PUSH2 0x35E8 PUSH1 0x0 DUP4 ADD DUP7 PUSH2 0x34D0 JUMP JUMPDEST PUSH2 0x35F6 PUSH2 0x140 DUP4 ADD DUP6 PUSH2 0x357B JUMP JUMPDEST PUSH2 0x3604 PUSH2 0x280 DUP4 ADD DUP5 PUSH2 0x216A JUMP JUMPDEST SWAP5 SWAP4 POP POP POP POP JUMP JUMPDEST PUSH1 0x0 PUSH1 0x60 DUP3 ADD SWAP1 POP PUSH2 0x3621 PUSH1 0x0 DUP4 ADD DUP7 PUSH2 0x2418 JUMP JUMPDEST PUSH2 0x362E PUSH1 0x20 DUP4 ADD DUP6 PUSH2 0x216A JUMP JUMPDEST PUSH2 0x363B PUSH1 0x40 DUP4 ADD DUP5 PUSH2 0x216A JUMP JUMPDEST SWAP5 SWAP4 POP POP POP POP JUMP INVALID LOG2 PUSH5 0x6970667358 0x22 SLT KECCAK256 0xCE PUSH5 0x1048CBBAE5 MLOAD CODESIZE GASLIMIT SWAP15 0xCC 0xE0 EXP EQ SWAP12 0xA7 SWAP12 SWAP15 DELEGATECALL 0xBD 0xF8 0xBC SELFDESTRUCT PUSH30 0xBAE98C597C76F164736F6C63430008140033000000000000000000000000 "},"methodIdentifiers":{"LOCK_PERIOD()":"1820cabb","aavePool()":"a03e4bc3","allowance(address,address)":"dd62ed3e","approve(address,uint256)":"095ea7b3","balanceOf(address)":"70a08231","commitments(uint256)":"49ce8997","decimals()":"313ce567","deposit(uint256,uint256)":"e2bbb158","hasher()":"ed33639f","lastLevelHash(uint8)":"d5400047","name()":"06fdde03","nextLeafIdex()":"06683e4b","nullifierHashs(uint256)":"7b5758b1","owner()":"8da5cb5b","renounceOwnership()":"715018a6","roots(uint256)":"c2b40ae4","symbol()":"95d89b41","timelockId()":"4056ff1b","timelockToken(uint256)":"cee9e428","totalStaked()":"817b1cd2","totalSupply()":"18160ddd","transfer(address,uint256)":"a9059cbb","transferFrom(address,address,uint256)":"23b872dd","transferOwnership(address)":"f2fde38b","treeLevel()":"b8e79564","usdcToken()":"11eac855","verifier()":"2b7ac3f3","withdraw(uint256,uint256[2],uint256[2][2],uint256[2],uint256[2])":"6fece60b"}}}}}