{"contracts/Trivia.sol":{"Trivia":{"abi":[{"inputs":[{"internalType":"address","name":"_hasher","type":"address"},{"internalType":"address","name":"_verifier","type":"address"},{"internalType":"address","name":"_usdcToken","type":"address"},{"internalType":"address","name":"_aavePool","type":"address"}],"stateMutability":"nonpayable","type":"constructor"},{"inputs":[{"internalType":"address","name":"target","type":"address"}],"name":"AddressEmptyCode","type":"error"},{"inputs":[{"internalType":"address","name":"account","type":"address"}],"name":"AddressInsufficientBalance","type":"error"},{"inputs":[{"internalType":"address","name":"spender","type":"address"},{"internalType":"uint256","name":"allowance","type":"uint256"},{"internalType":"uint256","name":"needed","type":"uint256"}],"name":"ERC20InsufficientAllowance","type":"error"},{"inputs":[{"internalType":"address","name":"sender","type":"address"},{"internalType":"uint256","name":"balance","type":"uint256"},{"internalType":"uint256","name":"needed","type":"uint256"}],"name":"ERC20InsufficientBalance","type":"error"},{"inputs":[{"internalType":"address","name":"approver","type":"address"}],"name":"ERC20InvalidApprover","type":"error"},{"inputs":[{"internalType":"address","name":"receiver","type":"address"}],"name":"ERC20InvalidReceiver","type":"error"},{"inputs":[{"internalType":"address","name":"sender","type":"address"}],"name":"ERC20InvalidSender","type":"error"},{"inputs":[{"internalType":"address","name":"spender","type":"address"}],"name":"ERC20InvalidSpender","type":"error"},{"inputs":[],"name":"FailedInnerCall","type":"error"},{"inputs":[],"name":"InvalidInitialization","type":"error"},{"inputs":[],"name":"NotInitializing","type":"error"},{"inputs":[{"internalType":"address","name":"token","type":"address"}],"name":"SafeERC20FailedOperation","type":"error"},{"anonymous":false,"inputs":[{"indexed":true,"internalType":"address","name":"owner","type":"address"},{"indexed":true,"internalType":"address","name":"spender","type":"address"},{"indexed":false,"internalType":"uint256","name":"value","type":"uint256"}],"name":"Approval","type":"event"},{"anonymous":false,"inputs":[{"indexed":true,"internalType":"uint256","name":"root","type":"uint256"},{"indexed":false,"internalType":"uint256[10]","name":"hashPairings","type":"uint256[10]"},{"indexed":false,"internalType":"uint8[10]","name":"pairDirection","type":"uint8[10]"},{"indexed":false,"internalType":"uint256","name":"amount","type":"uint256"}],"name":"Deposit","type":"event"},{"anonymous":false,"inputs":[{"indexed":false,"internalType":"uint64","name":"version","type":"uint64"}],"name":"Initialized","type":"event"},{"anonymous":false,"inputs":[{"indexed":true,"internalType":"address","name":"from","type":"address"},{"indexed":true,"internalType":"address","name":"to","type":"address"},{"indexed":false,"internalType":"uint256","name":"value","type":"uint256"}],"name":"Transfer","type":"event"},{"anonymous":false,"inputs":[{"indexed":true,"internalType":"address","name":"user","type":"address"},{"indexed":true,"internalType":"uint256","name":"nullifierHash","type":"uint256"}],"name":"Withdrawal","type":"event"},{"inputs":[],"name":"LOCK_PERIOD","outputs":[{"internalType":"uint256","name":"","type":"uint256"}],"stateMutability":"view","type":"function"},{"inputs":[],"name":"aavePool","outputs":[{"internalType":"contract IPool","name":"","type":"address"}],"stateMutability":"view","type":"function"},{"inputs":[{"internalType":"address","name":"owner","type":"address"},{"internalType":"address","name":"spender","type":"address"}],"name":"allowance","outputs":[{"internalType":"uint256","name":"","type":"uint256"}],"stateMutability":"view","type":"function"},{"inputs":[{"internalType":"address","name":"spender","type":"address"},{"internalType":"uint256","name":"value","type":"uint256"}],"name":"approve","outputs":[{"internalType":"bool","name":"","type":"bool"}],"stateMutability":"nonpayable","type":"function"},{"inputs":[{"internalType":"address","name":"account","type":"address"}],"name":"balanceOf","outputs":[{"internalType":"uint256","name":"","type":"uint256"}],"stateMutability":"view","type":"function"},{"inputs":[{"internalType":"uint256","name":"","type":"uint256"}],"name":"commitments","outputs":[{"internalType":"bool","name":"","type":"bool"}],"stateMutability":"view","type":"function"},{"inputs":[],"name":"decimals","outputs":[{"internalType":"uint8","name":"","type":"uint8"}],"stateMutability":"view","type":"function"},{"inputs":[{"internalType":"uint256","name":"amount","type":"uint256"},{"internalType":"uint256","name":"_commitment","type":"uint256"}],"name":"deposit","outputs":[],"stateMutability":"nonpayable","type":"function"},{"inputs":[],"name":"hasher","outputs":[{"internalType":"contract Hasher","name":"","type":"address"}],"stateMutability":"view","type":"function"},{"inputs":[{"internalType":"uint8","name":"","type":"uint8"}],"name":"lastLevelHash","outputs":[{"internalType":"uint256","name":"","type":"uint256"}],"stateMutability":"view","type":"function"},{"inputs":[],"name":"name","outputs":[{"internalType":"string","name":"","type":"string"}],"stateMutability":"view","type":"function"},{"inputs":[],"name":"nextLeafIdex","outputs":[{"internalType":"uint256","name":"","type":"uint256"}],"stateMutability":"view","type":"function"},{"inputs":[{"internalType":"uint256","name":"","type":"uint256"}],"name":"nullifierHashs","outputs":[{"internalType":"bool","name":"","type":"bool"}],"stateMutability":"view","type":"function"},{"inputs":[{"internalType":"uint256","name":"","type":"uint256"}],"name":"roots","outputs":[{"internalType":"bool","name":"","type":"bool"}],"stateMutability":"view","type":"function"},{"inputs":[],"name":"symbol","outputs":[{"internalType":"string","name":"","type":"string"}],"stateMutability":"view","type":"function"},{"inputs":[],"name":"timelockId","outputs":[{"internalType":"uint256","name":"","type":"uint256"}],"stateMutability":"view","type":"function"},{"inputs":[{"internalType":"uint256","name":"","type":"uint256"}],"name":"timelockToken","outputs":[{"internalType":"address","name":"owner","type":"address"},{"internalType":"uint256","name":"amount","type":"uint256"},{"internalType":"uint256","name":"timelockStart","type":"uint256"},{"internalType":"bool","name":"valid","type":"bool"}],"stateMutability":"view","type":"function"},{"inputs":[],"name":"totalStaked","outputs":[{"internalType":"uint256","name":"","type":"uint256"}],"stateMutability":"view","type":"function"},{"inputs":[],"name":"totalSupply","outputs":[{"internalType":"uint256","name":"","type":"uint256"}],"stateMutability":"view","type":"function"},{"inputs":[{"internalType":"address","name":"to","type":"address"},{"internalType":"uint256","name":"value","type":"uint256"}],"name":"transfer","outputs":[{"internalType":"bool","name":"","type":"bool"}],"stateMutability":"nonpayable","type":"function"},{"inputs":[{"internalType":"address","name":"from","type":"address"},{"internalType":"address","name":"to","type":"address"},{"internalType":"uint256","name":"value","type":"uint256"}],"name":"transferFrom","outputs":[{"internalType":"bool","name":"","type":"bool"}],"stateMutability":"nonpayable","type":"function"},{"inputs":[],"name":"treeLevel","outputs":[{"internalType":"uint8","name":"","type":"uint8"}],"stateMutability":"view","type":"function"},{"inputs":[],"name":"usdcToken","outputs":[{"internalType":"address","name":"","type":"address"}],"stateMutability":"view","type":"function"},{"inputs":[],"name":"verifier","outputs":[{"internalType":"address","name":"","type":"address"}],"stateMutability":"view","type":"function"},{"inputs":[{"internalType":"uint256","name":"id","type":"uint256"},{"internalType":"uint256[2]","name":"_pA","type":"uint256[2]"},{"internalType":"uint256[2][2]","name":"_pB","type":"uint256[2][2]"},{"internalType":"uint256[2]","name":"_pC","type":"uint256[2]"},{"internalType":"uint256[2]","name":"_pubSignals","type":"uint256[2]"}],"name":"withdraw","outputs":[],"stateMutability":"nonpayable","type":"function"}],"evm":{"bytecode":{"linkReferences":{},"object":"6080604052600a600660006101000a81548160ff021916908360ff16021790555060006007556040518061014001604052807fd4b1397294ac371d7e6327985b84e513e1a67d7511cd9e97c8d863f475234ff381526020017f7a1950291d8f8d98ffa31fb48d4ade1f75579c189663a7ad6253e054eb3c6e0281526020017f9a5bd8dcbf46dd9d94aa5f453a88c30ea30078f4233b48b7e6a09c309efcaacf81526020017f10d25a62653575746e8c8d14d457cad6d4d84237f8c0469f2b6fc1d8eefdedcf81526020017fb8cca00d5457eeba20a4a2559e4b7b8474aa461fdcca193ab9c684f42548a79281526020017ff1fa21b6a1c7e39c31bc19188cd3492b0093f7a08b3a5452bcc90fd72e39169b81526020017fa7719a5fce76578cf8f2fe028aa33a8d8dafbb9d56d135d6bdbb98b588bfbe4d81526020017fd74b7e6e290c206af23fa785f7088f4646778a6f4e238bff11a81493b421da6b81526020017f43b04fd9e248d46a8e3c53786aaa06abcbc7152859d957393a7ed77f937b82df81526020017f4a6b78ef2b2e9ae43bb3c90c13058a03141de722292df4b889908ef2f19fd3e6815250600d90600a620001bd929190620002fe565b50348015620001cb57600080fd5b5060405162003a1338038062003a138339818101604052810190620001f19190620003cc565b83600160006101000a81548173ffffffffffffffffffffffffffffffffffffffff021916908373ffffffffffffffffffffffffffffffffffffffff160217905550826000806101000a81548173ffffffffffffffffffffffffffffffffffffffff021916908373ffffffffffffffffffffffffffffffffffffffff16021790555081600360006101000a81548173ffffffffffffffffffffffffffffffffffffffff021916908373ffffffffffffffffffffffffffffffffffffffff16021790555080600260006101000a81548173ffffffffffffffffffffffffffffffffffffffff021916908373ffffffffffffffffffffffffffffffffffffffff160217905550505050506200043e565b82600a810192821562000330579160200282015b828111156200032f57825182559160200191906001019062000312565b5b5090506200033f919062000343565b5090565b5b808211156200035e57600081600090555060010162000344565b5090565b600080fd5b600073ffffffffffffffffffffffffffffffffffffffff82169050919050565b6000620003948262000367565b9050919050565b620003a68162000387565b8114620003b257600080fd5b50565b600081519050620003c6816200039b565b92915050565b60008060008060808587031215620003e957620003e862000362565b5b6000620003f987828801620003b5565b94505060206200040c87828801620003b5565b93505060406200041f87828801620003b5565b92505060606200043287828801620003b5565b91505092959194509250565b6135c5806200044e6000396000f3fe608060405234801561001057600080fd5b50600436106101735760003560e01c806370a08231116100de578063b8e7956411610097578063d540004711610071578063d54000471461047f578063dd62ed3e146104af578063e2bbb158146104df578063ed33639f146104fb57610173565b8063b8e79564146103fe578063c2b40ae41461041c578063cee9e4281461044c57610173565b806370a08231146103145780637b5758b114610344578063817b1cd21461037457806395d89b4114610392578063a03e4bc3146103b0578063a9059cbb146103ce57610173565b806323b872dd1161013057806323b872dd1461023e5780632b7ac3f31461026e578063313ce5671461028c5780634056ff1b146102aa57806349ce8997146102c85780636fece60b146102f857610173565b806306683e4b1461017857806306fdde0314610196578063095ea7b3146101b457806311eac855146101e457806318160ddd146102025780631820cabb14610220575b600080fd5b610180610519565b60405161018d9190612138565b60405180910390f35b61019e61051f565b6040516101ab91906121e3565b60405180910390f35b6101ce60048036038101906101c99190612294565b6105c0565b6040516101db91906122ef565b60405180910390f35b6101ec6105e3565b6040516101f99190612319565b60405180910390f35b61020a610609565b6040516102179190612138565b60405180910390f35b610228610621565b6040516102359190612138565b60405180910390f35b61025860048036038101906102539190612334565b610628565b60405161026591906122ef565b60405180910390f35b610276610657565b6040516102839190612319565b60405180910390f35b61029461067b565b6040516102a191906123a3565b60405180910390f35b6102b2610684565b6040516102bf9190612138565b60405180910390f35b6102e260048036038101906102dd91906123be565b61068a565b6040516102ef91906122ef565b60405180910390f35b610312600480360381019061030d9190612434565b6106aa565b005b61032e600480360381019061032991906124b1565b610bac565b60405161033b9190612138565b60405180910390f35b61035e600480360381019061035991906123be565b610c03565b60405161036b91906122ef565b60405180910390f35b61037c610c23565b6040516103899190612138565b60405180910390f35b61039a610c29565b6040516103a791906121e3565b60405180910390f35b6103b8610cca565b6040516103c5919061253d565b60405180910390f35b6103e860048036038101906103e39190612294565b610cf0565b6040516103f591906122ef565b60405180910390f35b610406610d13565b60405161041391906123a3565b60405180910390f35b610436600480360381019061043191906123be565b610d26565b60405161044391906122ef565b60405180910390f35b610466600480360381019061046191906123be565b610d46565b6040516104769493929190612558565b60405180910390f35b610499600480360381019061049491906125c9565b610db3565b6040516104a69190612138565b60405180910390f35b6104c960048036038101906104c491906125f6565b610dcb565b6040516104d69190612138565b60405180910390f35b6104f960048036038101906104f49190612636565b610e60565b005b610503611753565b6040516105109190612697565b60405180910390f35b60075481565b6060600061052b611779565b905080600301805461053c906126e1565b80601f0160208091040260200160405190810160405280929190818152602001828054610568906126e1565b80156105b55780601f1061058a576101008083540402835291602001916105b5565b820191906000526020600020905b81548152906001019060200180831161059857829003601f168201915b505050505091505090565b6000806105cb6117a1565b90506105d88185856117a9565b600191505092915050565b600360009054906101000a900473ffffffffffffffffffffffffffffffffffffffff1681565b600080610614611779565b9050806002015491505090565b6276a70081565b6000806106336117a1565b90506106408582856117bb565b61064b85858561184f565b60019150509392505050565b60008054906101000a900473ffffffffffffffffffffffffffffffffffffffff1681565b60006012905090565b60055481565b600c6020528060005260406000206000915054906101000a900460ff1681565b60055485106106ee576040517f08c379a00000000000000000000000000000000000000000000000000000000081526004016106e59061275e565b60405180910390fd5b6000600886815481106107045761070361277e565b5b906000526020600020906004020190508060000160009054906101000a900473ffffffffffffffffffffffffffffffffffffffff1673ffffffffffffffffffffffffffffffffffffffff163373ffffffffffffffffffffffffffffffffffffffff16146107a6576040517f08c379a000000000000000000000000000000000000000000000000000000000815260040161079d906127f9565b60405180910390fd5b6276a70081600201546107b99190612848565b4210156107fb576040517f08c379a00000000000000000000000000000000000000000000000000000000081526004016107f2906128c8565b60405180910390fd5b8060030160009054906101000a900460ff1661084c576040517f08c379a000000000000000000000000000000000000000000000000000000000815260040161084390612934565b60405180910390fd5b6000826000600281106108625761086161277e565b5b6020020135905060008360016002811061087f5761087e61277e565b5b60200201359050600b600082815260200190815260200160002060009054906101000a900460ff16156108e7576040517f08c379a00000000000000000000000000000000000000000000000000000000081526004016108de906129a0565b60405180910390fd5b6009600083815260200190815260200160002060009054906101000a900460ff16610947576040517f08c379a000000000000000000000000000000000000000000000000000000000815260040161093e90612a0c565b60405180910390fd5b60003373ffffffffffffffffffffffffffffffffffffffff16905060008060009054906101000a900473ffffffffffffffffffffffffffffffffffffffff1673ffffffffffffffffffffffffffffffffffffffff168989896040518060600160405280898152602001888152602001878152506040516024016109cd9493929190612baf565b6040516020818303038152906040526311479fea60e01b6020820180517bffffffffffffffffffffffffffffffffffffffffffffffffffffffff8381831617835250505050604051610a1f9190612c3d565b6000604051808303816000865af19150503d8060008114610a5c576040519150601f19603f3d011682016040523d82523d6000602084013e610a61565b606091505b5050905080610aa5576040517f08c379a0000000000000000000000000000000000000000000000000000000008152600401610a9c90612ca0565b60405180910390fd5b6001600b600085815260200190815260200160002060006101000a81548160ff021916908315150217905550610b22338660010154600360009054906101000a900473ffffffffffffffffffffffffffffffffffffffff1673ffffffffffffffffffffffffffffffffffffffff166119439092919063ffffffff16565b846001015460046000828254610b389190612cc0565b9250508190555060008560030160006101000a81548160ff021916908315150217905550823373ffffffffffffffffffffffffffffffffffffffff167f7fcf532c15f0a6db0bd6d0e038bea71d30d808c7d98cb3bf7268a95bf5081b6560405160405180910390a350505050505050505050565b600080610bb7611779565b90508060000160008473ffffffffffffffffffffffffffffffffffffffff1673ffffffffffffffffffffffffffffffffffffffff16815260200190815260200160002054915050919050565b600b6020528060005260406000206000915054906101000a900460ff1681565b60045481565b60606000610c35611779565b9050806004018054610c46906126e1565b80601f0160208091040260200160405190810160405280929190818152602001828054610c72906126e1565b8015610cbf5780601f10610c9457610100808354040283529160200191610cbf565b820191906000526020600020905b815481529060010190602001808311610ca257829003601f168201915b505050505091505090565b600260009054906101000a900473ffffffffffffffffffffffffffffffffffffffff1681565b600080610cfb6117a1565b9050610d0881858561184f565b600191505092915050565b600660009054906101000a900460ff1681565b60096020528060005260406000206000915054906101000a900460ff1681565b60088181548110610d5657600080fd5b90600052602060002090600402016000915090508060000160009054906101000a900473ffffffffffffffffffffffffffffffffffffffff16908060010154908060020154908060030160009054906101000a900460ff16905084565b600a6020528060005260406000206000915090505481565b600080610dd6611779565b90508060010160008573ffffffffffffffffffffffffffffffffffffffff1673ffffffffffffffffffffffffffffffffffffffff16815260200190815260200160002060008473ffffffffffffffffffffffffffffffffffffffff1673ffffffffffffffffffffffffffffffffffffffff1681526020019081526020016000205491505092915050565b60008211610ea3576040517f08c379a0000000000000000000000000000000000000000000000000000000008152600401610e9a90612d40565b60405180910390fd5b81600360009054906101000a900473ffffffffffffffffffffffffffffffffffffffff1673ffffffffffffffffffffffffffffffffffffffff166370a08231336040518263ffffffff1660e01b8152600401610eff9190612319565b602060405180830381865afa158015610f1c573d6000803e3d6000fd5b505050506040513d601f19601f82011682018060405250810190610f409190612d75565b1015610f81576040517f08c379a0000000000000000000000000000000000000000000000000000000008152600401610f7890612dee565b60405180910390fd5b81600360009054906101000a900473ffffffffffffffffffffffffffffffffffffffff1673ffffffffffffffffffffffffffffffffffffffff1663dd62ed3e33306040518363ffffffff1660e01b8152600401610fdf929190612e0e565b602060405180830381865afa158015610ffc573d6000803e3d6000fd5b505050506040513d601f19601f820116820180604052508101906110209190612d75565b1015611061576040517f08c379a000000000000000000000000000000000000000000000000000000000815260040161105890612e83565b60405180910390fd5b600c600082815260200190815260200160002060009054906101000a900460ff16156110c2576040517f08c379a00000000000000000000000000000000000000000000000000000000081526004016110b990612eef565b60405180910390fd5b600660009054906101000a900460ff1660026110de9190613042565b60075410611121576040517f08c379a0000000000000000000000000000000000000000000000000000000008152600401611118906130d9565b60405180910390fd5b611170333084600360009054906101000a900473ffffffffffffffffffffffffffffffffffffffff1673ffffffffffffffffffffffffffffffffffffffff166119c2909392919063ffffffff16565b600360009054906101000a900473ffffffffffffffffffffffffffffffffffffffff1673ffffffffffffffffffffffffffffffffffffffff1663095ea7b3600260009054906101000a900473ffffffffffffffffffffffffffffffffffffffff16846040518363ffffffff1660e01b81526004016111ef9291906130f9565b6020604051808303816000875af115801561120e573d6000803e3d6000fd5b505050506040513d601f19601f82011682018060405250810190611232919061314e565b50600260009054906101000a900473ffffffffffffffffffffffffffffffffffffffff1673ffffffffffffffffffffffffffffffffffffffff1663617ba037600360009054906101000a900473ffffffffffffffffffffffffffffffffffffffff16843060006040518563ffffffff1660e01b81526004016112b794939291906131c4565b600060405180830381600087803b1580156112d157600080fd5b505af11580156112e5573d6000803e3d6000fd5b50505050600860405180608001604052803373ffffffffffffffffffffffffffffffffffffffff16815260200184815260200142815260200160011515815250908060018154018082558091505060019003906000526020600020906004020160009091909190915060008201518160000160006101000a81548173ffffffffffffffffffffffffffffffffffffffff021916908373ffffffffffffffffffffffffffffffffffffffff160217905550602082015181600101556040820151816002015560608201518160030160006101000a81548160ff021916908315150217905550505060006113d56120b7565b6113dd6120da565b6000600754905060008590506000806113f46120fd565b60005b600660009054906101000a900460ff1660ff168160ff1610156116645784600a6000600660009054906101000a900460ff1660ff1660ff1681526020019081526020016000208190555060006002876114509190613238565b036114d957849350600d8160ff16600a811061146f5761146e61277e565b5b01549250600d8160ff16600a811061148a5761148961277e565b5b0154888260ff16600a81106114a2576114a161277e565b5b6020020181815250506000878260ff16600a81106114c3576114c261277e565b5b602002019060ff16908160ff168152505061155b565b600a60008260ff1660ff168152602001908152602001600020549350849250600a60008260ff1660ff16815260200190815260200160002054888260ff16600a81106115285761152761277e565b5b6020020181815250506001878260ff16600a81106115495761154861277e565b5b602002019060ff16908160ff16815250505b83826000600281106115705761156f61277e565b5b602002018181525050828260016002811061158e5761158d61277e565b5b6020020181815250506000600160009054906101000a900473ffffffffffffffffffffffffffffffffffffffff1673ffffffffffffffffffffffffffffffffffffffff1663d622e5a4620249f0858e6040518463ffffffff1660e01b81526004016115fa9291906132ed565b6020604051808303818786fa158015611617573d6000803e3d6000fd5b50505050506040513d601f19601f8201168201806040525081019061163c9190612d75565b905080955060028761164e9190613316565b965050808061165c90613347565b9150506113f7565b508397506001600960008a815260200190815260200160002060006101000a81548160ff0219169083151502179055506001600760008282546116a79190612848565b925050819055506001600c60008b815260200190815260200160002060006101000a81548160ff02191690831515021790555089600460008282546116ec9190612848565b925050819055506005600081548092919061170690613370565b9190505550877f839aef75338d2a3413d910305b67d28e181da1837c548c3a2b2ef147f33b008a88888d60405161173f939291906134e7565b60405180910390a250505050505050505050565b600160009054906101000a900473ffffffffffffffffffffffffffffffffffffffff1681565b60007f52c63247e1f47db19d5ce0460030c497f067ca4cebf71ba98eeadabe20bace00905090565b600033905090565b6117b68383836001611a44565b505050565b60006117c78484610dcb565b90507fffffffffffffffffffffffffffffffffffffffffffffffffffffffffffffffff81146118495781811015611839578281836040517ffb8f41b200000000000000000000000000000000000000000000000000000000815260040161183093929190613521565b60405180910390fd5b61184884848484036000611a44565b5b50505050565b600073ffffffffffffffffffffffffffffffffffffffff168373ffffffffffffffffffffffffffffffffffffffff16036118c15760006040517f96c6fd1e0000000000000000000000000000000000000000000000000000000081526004016118b89190612319565b60405180910390fd5b600073ffffffffffffffffffffffffffffffffffffffff168273ffffffffffffffffffffffffffffffffffffffff16036119335760006040517fec442f0500000000000000000000000000000000000000000000000000000000815260040161192a9190612319565b60405180910390fd5b61193e838383611c2a565b505050565b6119bd838473ffffffffffffffffffffffffffffffffffffffff1663a9059cbb85856040516024016119769291906130f9565b604051602081830303815290604052915060e01b6020820180517bffffffffffffffffffffffffffffffffffffffffffffffffffffffff8381831617835250505050611e69565b505050565b611a3e848573ffffffffffffffffffffffffffffffffffffffff166323b872dd8686866040516024016119f793929190613558565b604051602081830303815290604052915060e01b6020820180517bffffffffffffffffffffffffffffffffffffffffffffffffffffffff8381831617835250505050611e69565b50505050565b6000611a4e611779565b9050600073ffffffffffffffffffffffffffffffffffffffff168573ffffffffffffffffffffffffffffffffffffffff1603611ac25760006040517fe602df05000000000000000000000000000000000000000000000000000000008152600401611ab99190612319565b60405180910390fd5b600073ffffffffffffffffffffffffffffffffffffffff168473ffffffffffffffffffffffffffffffffffffffff1603611b345760006040517f94280d62000000000000000000000000000000000000000000000000000000008152600401611b2b9190612319565b60405180910390fd5b828160010160008773ffffffffffffffffffffffffffffffffffffffff1673ffffffffffffffffffffffffffffffffffffffff16815260200190815260200160002060008673ffffffffffffffffffffffffffffffffffffffff1673ffffffffffffffffffffffffffffffffffffffff168152602001908152602001600020819055508115611c23578373ffffffffffffffffffffffffffffffffffffffff168573ffffffffffffffffffffffffffffffffffffffff167f8c5be1e5ebec7d5bd14f71427d1e84f3dd0314c0f7b2291e5b200ac8c7c3b92585604051611c1a9190612138565b60405180910390a35b5050505050565b6000611c34611779565b9050600073ffffffffffffffffffffffffffffffffffffffff168473ffffffffffffffffffffffffffffffffffffffff1603611c8a5781816002016000828254611c7e9190612848565b92505081905550611d63565b60008160000160008673ffffffffffffffffffffffffffffffffffffffff1673ffffffffffffffffffffffffffffffffffffffff16815260200190815260200160002054905082811015611d19578481846040517fe450d38c000000000000000000000000000000000000000000000000000000008152600401611d1093929190613521565b60405180910390fd5b8281038260000160008773ffffffffffffffffffffffffffffffffffffffff1673ffffffffffffffffffffffffffffffffffffffff16815260200190815260200160002081905550505b600073ffffffffffffffffffffffffffffffffffffffff168373ffffffffffffffffffffffffffffffffffffffff1603611dae57818160020160008282540392505081905550611dfe565b818160000160008573ffffffffffffffffffffffffffffffffffffffff1673ffffffffffffffffffffffffffffffffffffffff168152602001908152602001600020600082825401925050819055505b8273ffffffffffffffffffffffffffffffffffffffff168473ffffffffffffffffffffffffffffffffffffffff167fddf252ad1be2c89b69c2b068fc378daa952ba7f163c4a11628f55a4df523b3ef84604051611e5b9190612138565b60405180910390a350505050565b6000611e94828473ffffffffffffffffffffffffffffffffffffffff16611f0090919063ffffffff16565b90506000815114158015611eb9575080806020019051810190611eb7919061314e565b155b15611efb57826040517f5274afe7000000000000000000000000000000000000000000000000000000008152600401611ef29190612319565b60405180910390fd5b505050565b6060611f0e83836000611f16565b905092915050565b606081471015611f5d57306040517fcd786059000000000000000000000000000000000000000000000000000000008152600401611f549190612319565b60405180910390fd5b6000808573ffffffffffffffffffffffffffffffffffffffff168486604051611f869190612c3d565b60006040518083038185875af1925050503d8060008114611fc3576040519150601f19603f3d011682016040523d82523d6000602084013e611fc8565b606091505b5091509150611fd8868383611fe3565b925050509392505050565b606082611ff857611ff382612072565b61206a565b60008251148015612020575060008473ffffffffffffffffffffffffffffffffffffffff163b145b1561206257836040517f9996b3150000000000000000000000000000000000000000000000000000000081526004016120599190612319565b60405180910390fd5b81905061206b565b5b9392505050565b6000815111156120855780518082602001fd5b6040517f1425ea4200000000000000000000000000000000000000000000000000000000815260040160405180910390fd5b604051806101400160405280600a90602082028036833780820191505090505090565b604051806101400160405280600a90602082028036833780820191505090505090565b6040518060400160405280600290602082028036833780820191505090505090565b6000819050919050565b6121328161211f565b82525050565b600060208201905061214d6000830184612129565b92915050565b600081519050919050565b600082825260208201905092915050565b60005b8381101561218d578082015181840152602081019050612172565b60008484015250505050565b6000601f19601f8301169050919050565b60006121b582612153565b6121bf818561215e565b93506121cf81856020860161216f565b6121d881612199565b840191505092915050565b600060208201905081810360008301526121fd81846121aa565b905092915050565b600080fd5b600073ffffffffffffffffffffffffffffffffffffffff82169050919050565b60006122358261220a565b9050919050565b6122458161222a565b811461225057600080fd5b50565b6000813590506122628161223c565b92915050565b6122718161211f565b811461227c57600080fd5b50565b60008135905061228e81612268565b92915050565b600080604083850312156122ab576122aa612205565b5b60006122b985828601612253565b92505060206122ca8582860161227f565b9150509250929050565b60008115159050919050565b6122e9816122d4565b82525050565b600060208201905061230460008301846122e0565b92915050565b6123138161222a565b82525050565b600060208201905061232e600083018461230a565b92915050565b60008060006060848603121561234d5761234c612205565b5b600061235b86828701612253565b935050602061236c86828701612253565b925050604061237d8682870161227f565b9150509250925092565b600060ff82169050919050565b61239d81612387565b82525050565b60006020820190506123b86000830184612394565b92915050565b6000602082840312156123d4576123d3612205565b5b60006123e28482850161227f565b91505092915050565b600080fd5b60008190508260206002028201111561240c5761240b6123eb565b5b92915050565b60008190508260406002028201111561242e5761242d6123eb565b5b92915050565b6000806000806000610160868803121561245157612450612205565b5b600061245f8882890161227f565b9550506020612470888289016123f0565b945050606061248188828901612412565b93505060e0612492888289016123f0565b9250506101206124a4888289016123f0565b9150509295509295909350565b6000602082840312156124c7576124c6612205565b5b60006124d584828501612253565b91505092915050565b6000819050919050565b60006125036124fe6124f98461220a565b6124de565b61220a565b9050919050565b6000612515826124e8565b9050919050565b60006125278261250a565b9050919050565b6125378161251c565b82525050565b6000602082019050612552600083018461252e565b92915050565b600060808201905061256d600083018761230a565b61257a6020830186612129565b6125876040830185612129565b61259460608301846122e0565b95945050505050565b6125a681612387565b81146125b157600080fd5b50565b6000813590506125c38161259d565b92915050565b6000602082840312156125df576125de612205565b5b60006125ed848285016125b4565b91505092915050565b6000806040838503121561260d5761260c612205565b5b600061261b85828601612253565b925050602061262c85828601612253565b9150509250929050565b6000806040838503121561264d5761264c612205565b5b600061265b8582860161227f565b925050602061266c8582860161227f565b9150509250929050565b60006126818261250a565b9050919050565b61269181612676565b82525050565b60006020820190506126ac6000830184612688565b92915050565b7f4e487b7100000000000000000000000000000000000000000000000000000000600052602260045260246000fd5b600060028204905060018216806126f957607f821691505b60208210810361270c5761270b6126b2565b5b50919050565b7f496e76616c696420696400000000000000000000000000000000000000000000600082015250565b6000612748600a8361215e565b915061275382612712565b602082019050919050565b600060208201905081810360008301526127778161273b565b9050919050565b7f4e487b7100000000000000000000000000000000000000000000000000000000600052603260045260246000fd5b7f4f6e6c79206f776e65722063616e2072656465656d0000000000000000000000600082015250565b60006127e360158361215e565b91506127ee826127ad565b602082019050919050565b60006020820190508181036000830152612812816127d6565b9050919050565b7f4e487b7100000000000000000000000000000000000000000000000000000000600052601160045260246000fd5b60006128538261211f565b915061285e8361211f565b925082820190508082111561287657612875612819565b5b92915050565b7f5374696c6c20696e206c6f636b20706572696f64000000000000000000000000600082015250565b60006128b260148361215e565b91506128bd8261287c565b602082019050919050565b600060208201905081810360008301526128e1816128a5565b9050919050565b7f4e6f742076616c69640000000000000000000000000000000000000000000000600082015250565b600061291e60098361215e565b9150612929826128e8565b602082019050919050565b6000602082019050818103600083015261294d81612911565b9050919050565b7f616c7265616479207370656e7400000000000000000000000000000000000000600082015250565b600061298a600d8361215e565b915061299582612954565b602082019050919050565b600060208201905081810360008301526129b98161297d565b9050919050565b7f6e6f7420726f6f74000000000000000000000000000000000000000000000000600082015250565b60006129f660088361215e565b9150612a01826129c0565b602082019050919050565b60006020820190508181036000830152612a25816129e9565b9050919050565b82818337505050565b612a4160408383612a2c565b5050565b600060029050919050565b600081905092915050565b6000819050919050565b612a7160408383612a2c565b5050565b6000612a818383612a65565b60408301905092915050565b600082905092915050565b6000604082019050919050565b612aae81612a45565b612ab88184612a50565b9250612ac382612a5b565b8060005b83811015612afc57612ad98284612a8d565b612ae38782612a75565b9650612aee83612a98565b925050600181019050612ac7565b505050505050565b600060039050919050565b600081905092915050565b6000819050919050565b612b2d8161211f565b82525050565b6000612b3f8383612b24565b60208301905092915050565b6000602082019050919050565b612b6181612b04565b612b6b8184612b0f565b9250612b7682612b1a565b8060005b83811015612ba7578151612b8e8782612b33565b9650612b9983612b4b565b925050600181019050612b7a565b505050505050565b600061016082019050612bc56000830187612a35565b612bd26040830186612aa5565b612bdf60c0830185612a35565b612bed610100830184612b58565b95945050505050565b600081519050919050565b600081905092915050565b6000612c1782612bf6565b612c218185612c01565b9350612c3181856020860161216f565b80840191505092915050565b6000612c498284612c0c565b915081905092915050565b7f696e76616c69642070726f6f6600000000000000000000000000000000000000600082015250565b6000612c8a600d8361215e565b9150612c9582612c54565b602082019050919050565b60006020820190508181036000830152612cb981612c7d565b9050919050565b6000612ccb8261211f565b9150612cd68361211f565b9250828203905081811115612cee57612ced612819565b5b92915050565b7f43616e6e6f74206465706f736974207a65726f20746f6b656e73000000000000600082015250565b6000612d2a601a8361215e565b9150612d3582612cf4565b602082019050919050565b60006020820190508181036000830152612d5981612d1d565b9050919050565b600081519050612d6f81612268565b92915050565b600060208284031215612d8b57612d8a612205565b5b6000612d9984828501612d60565b91505092915050565b7f496e73756666696369656e742062616c616e6365000000000000000000000000600082015250565b6000612dd860148361215e565b9150612de382612da2565b602082019050919050565b60006020820190508181036000830152612e0781612dcb565b9050919050565b6000604082019050612e23600083018561230a565b612e30602083018461230a565b9392505050565b7f496e73756666696369656e7420616c6c6f77616e636500000000000000000000600082015250565b6000612e6d60168361215e565b9150612e7882612e37565b602082019050919050565b60006020820190508181036000830152612e9c81612e60565b9050919050565b7f6475706c696361746520636f6d6d69746d656e74206861736800000000000000600082015250565b6000612ed960198361215e565b9150612ee482612ea3565b602082019050919050565b60006020820190508181036000830152612f0881612ecc565b9050919050565b60008160011c9050919050565b6000808291508390505b6001851115612f6657808604811115612f4257612f41612819565b5b6001851615612f515780820291505b8081029050612f5f85612f0f565b9450612f26565b94509492505050565b600082612f7f576001905061303b565b81612f8d576000905061303b565b8160018114612fa35760028114612fad57612fdc565b600191505061303b565b60ff841115612fbf57612fbe612819565b5b8360020a915084821115612fd657612fd5612819565b5b5061303b565b5060208310610133831016604e8410600b84101617156130115782820a90508381111561300c5761300b612819565b5b61303b565b61301e8484846001612f1c565b9250905081840481111561303557613034612819565b5b81810290505b9392505050565b600061304d8261211f565b915061305883612387565b92506130857fffffffffffffffffffffffffffffffffffffffffffffffffffffffffffffffff8484612f6f565b905092915050565b7f747265652066756c6c0000000000000000000000000000000000000000000000600082015250565b60006130c360098361215e565b91506130ce8261308d565b602082019050919050565b600060208201905081810360008301526130f2816130b6565b9050919050565b600060408201905061310e600083018561230a565b61311b6020830184612129565b9392505050565b61312b816122d4565b811461313657600080fd5b50565b60008151905061314881613122565b92915050565b60006020828403121561316457613163612205565b5b600061317284828501613139565b91505092915050565b6000819050919050565b600061ffff82169050919050565b60006131ae6131a96131a48461317b565b6124de565b613185565b9050919050565b6131be81613193565b82525050565b60006080820190506131d9600083018761230a565b6131e66020830186612129565b6131f3604083018561230a565b61320060608301846131b5565b95945050505050565b7f4e487b7100000000000000000000000000000000000000000000000000000000600052601260045260246000fd5b60006132438261211f565b915061324e8361211f565b92508261325e5761325d613209565b5b828206905092915050565b600060029050919050565b600081905092915050565b6000819050919050565b6000602082019050919050565b61329f81613269565b6132a98184613274565b92506132b48261327f565b8060005b838110156132e55781516132cc8782612b33565b96506132d783613289565b9250506001810190506132b8565b505050505050565b60006060820190506133026000830185613296565b61330f6040830184612129565b9392505050565b60006133218261211f565b915061332c8361211f565b92508261333c5761333b613209565b5b828204905092915050565b600061335282612387565b915060ff820361336557613364612819565b5b600182019050919050565b600061337b8261211f565b91507fffffffffffffffffffffffffffffffffffffffffffffffffffffffffffffffff82036133ad576133ac612819565b5b600182019050919050565b6000600a9050919050565b600081905092915050565b6000819050919050565b6000602082019050919050565b6133ee816133b8565b6133f881846133c3565b9250613403826133ce565b8060005b8381101561343457815161341b8782612b33565b9650613426836133d8565b925050600181019050613407565b505050505050565b6000600a9050919050565b600081905092915050565b6000819050919050565b61346581612387565b82525050565b6000613477838361345c565b60208301905092915050565b6000602082019050919050565b6134998161343c565b6134a38184613447565b92506134ae82613452565b8060005b838110156134df5781516134c6878261346b565b96506134d183613483565b9250506001810190506134b2565b505050505050565b60006102a0820190506134fd60008301866133e5565b61350b610140830185613490565b613519610280830184612129565b949350505050565b6000606082019050613536600083018661230a565b6135436020830185612129565b6135506040830184612129565b949350505050565b600060608201905061356d600083018661230a565b61357a602083018561230a565b6135876040830184612129565b94935050505056fea26469706673582212205f168eda73f6246730f28fb451b9f33a22ca4d62104c3885066f20b7471cdb3c64736f6c63430008140033","opcodes":"PUSH1 0x80 PUSH1 0x40 MSTORE PUSH1 0xA PUSH1 0x6 PUSH1 0x0 PUSH2 0x100 EXP DUP2 SLOAD DUP2 PUSH1 0xFF MUL NOT AND SWAP1 DUP4 PUSH1 0xFF AND MUL OR SWAP1 SSTORE POP PUSH1 0x0 PUSH1 0x7 SSTORE PUSH1 0x40 MLOAD DUP1 PUSH2 0x140 ADD PUSH1 0x40 MSTORE DUP1 PUSH32 0xD4B1397294AC371D7E6327985B84E513E1A67D7511CD9E97C8D863F475234FF3 DUP2 MSTORE PUSH1 0x20 ADD PUSH32 0x7A1950291D8F8D98FFA31FB48D4ADE1F75579C189663A7AD6253E054EB3C6E02 DUP2 MSTORE PUSH1 0x20 ADD PUSH32 0x9A5BD8DCBF46DD9D94AA5F453A88C30EA30078F4233B48B7E6A09C309EFCAACF DUP2 MSTORE PUSH1 0x20 ADD PUSH32 0x10D25A62653575746E8C8D14D457CAD6D4D84237F8C0469F2B6FC1D8EEFDEDCF DUP2 MSTORE PUSH1 0x20 ADD PUSH32 0xB8CCA00D5457EEBA20A4A2559E4B7B8474AA461FDCCA193AB9C684F42548A792 DUP2 MSTORE PUSH1 0x20 ADD PUSH32 0xF1FA21B6A1C7E39C31BC19188CD3492B0093F7A08B3A5452BCC90FD72E39169B DUP2 MSTORE PUSH1 0x20 ADD PUSH32 0xA7719A5FCE76578CF8F2FE028AA33A8D8DAFBB9D56D135D6BDBB98B588BFBE4D DUP2 MSTORE PUSH1 0x20 ADD PUSH32 0xD74B7E6E290C206AF23FA785F7088F4646778A6F4E238BFF11A81493B421DA6B DUP2 MSTORE PUSH1 0x20 ADD PUSH32 0x43B04FD9E248D46A8E3C53786AAA06ABCBC7152859D957393A7ED77F937B82DF DUP2 MSTORE PUSH1 0x20 ADD PUSH32 0x4A6B78EF2B2E9AE43BB3C90C13058A03141DE722292DF4B889908EF2F19FD3E6 DUP2 MSTORE POP PUSH1 0xD SWAP1 PUSH1 0xA PUSH3 0x1BD SWAP3 SWAP2 SWAP1 PUSH3 0x2FE JUMP JUMPDEST POP CALLVALUE DUP1 ISZERO PUSH3 0x1CB JUMPI PUSH1 0x0 DUP1 REVERT JUMPDEST POP PUSH1 0x40 MLOAD PUSH3 0x3A13 CODESIZE SUB DUP1 PUSH3 0x3A13 DUP4 CODECOPY DUP2 DUP2 ADD PUSH1 0x40 MSTORE DUP2 ADD SWAP1 PUSH3 0x1F1 SWAP2 SWAP1 PUSH3 0x3CC JUMP JUMPDEST DUP4 PUSH1 0x1 PUSH1 0x0 PUSH2 0x100 EXP DUP2 SLOAD DUP2 PUSH20 0xFFFFFFFFFFFFFFFFFFFFFFFFFFFFFFFFFFFFFFFF MUL NOT AND SWAP1 DUP4 PUSH20 0xFFFFFFFFFFFFFFFFFFFFFFFFFFFFFFFFFFFFFFFF AND MUL OR SWAP1 SSTORE POP DUP3 PUSH1 0x0 DUP1 PUSH2 0x100 EXP DUP2 SLOAD DUP2 PUSH20 0xFFFFFFFFFFFFFFFFFFFFFFFFFFFFFFFFFFFFFFFF MUL NOT AND SWAP1 DUP4 PUSH20 0xFFFFFFFFFFFFFFFFFFFFFFFFFFFFFFFFFFFFFFFF AND MUL OR SWAP1 SSTORE POP DUP2 PUSH1 0x3 PUSH1 0x0 PUSH2 0x100 EXP DUP2 SLOAD DUP2 PUSH20 0xFFFFFFFFFFFFFFFFFFFFFFFFFFFFFFFFFFFFFFFF MUL NOT AND SWAP1 DUP4 PUSH20 0xFFFFFFFFFFFFFFFFFFFFFFFFFFFFFFFFFFFFFFFF AND MUL OR SWAP1 SSTORE POP DUP1 PUSH1 0x2 PUSH1 0x0 PUSH2 0x100 EXP DUP2 SLOAD DUP2 PUSH20 0xFFFFFFFFFFFFFFFFFFFFFFFFFFFFFFFFFFFFFFFF MUL NOT AND SWAP1 DUP4 PUSH20 0xFFFFFFFFFFFFFFFFFFFFFFFFFFFFFFFFFFFFFFFF AND MUL OR SWAP1 SSTORE POP POP POP POP POP PUSH3 0x43E JUMP JUMPDEST DUP3 PUSH1 0xA DUP2 ADD SWAP3 DUP3 ISZERO PUSH3 0x330 JUMPI SWAP2 PUSH1 0x20 MUL DUP3 ADD JUMPDEST DUP3 DUP2 GT ISZERO PUSH3 0x32F JUMPI DUP3 MLOAD DUP3 SSTORE SWAP2 PUSH1 0x20 ADD SWAP2 SWAP1 PUSH1 0x1 ADD SWAP1 PUSH3 0x312 JUMP JUMPDEST JUMPDEST POP SWAP1 POP PUSH3 0x33F SWAP2 SWAP1 PUSH3 0x343 JUMP JUMPDEST POP SWAP1 JUMP JUMPDEST JUMPDEST DUP1 DUP3 GT ISZERO PUSH3 0x35E JUMPI PUSH1 0x0 DUP2 PUSH1 0x0 SWAP1 SSTORE POP PUSH1 0x1 ADD PUSH3 0x344 JUMP JUMPDEST POP SWAP1 JUMP JUMPDEST PUSH1 0x0 DUP1 REVERT JUMPDEST PUSH1 0x0 PUSH20 0xFFFFFFFFFFFFFFFFFFFFFFFFFFFFFFFFFFFFFFFF DUP3 AND SWAP1 POP SWAP2 SWAP1 POP JUMP JUMPDEST PUSH1 0x0 PUSH3 0x394 DUP3 PUSH3 0x367 JUMP JUMPDEST SWAP1 POP SWAP2 SWAP1 POP JUMP JUMPDEST PUSH3 0x3A6 DUP2 PUSH3 0x387 JUMP JUMPDEST DUP2 EQ PUSH3 0x3B2 JUMPI PUSH1 0x0 DUP1 REVERT JUMPDEST POP JUMP JUMPDEST PUSH1 0x0 DUP2 MLOAD SWAP1 POP PUSH3 0x3C6 DUP2 PUSH3 0x39B JUMP JUMPDEST SWAP3 SWAP2 POP POP JUMP JUMPDEST PUSH1 0x0 DUP1 PUSH1 0x0 DUP1 PUSH1 0x80 DUP6 DUP8 SUB SLT ISZERO PUSH3 0x3E9 JUMPI PUSH3 0x3E8 PUSH3 0x362 JUMP JUMPDEST JUMPDEST PUSH1 0x0 PUSH3 0x3F9 DUP8 DUP3 DUP9 ADD PUSH3 0x3B5 JUMP JUMPDEST SWAP5 POP POP PUSH1 0x20 PUSH3 0x40C DUP8 DUP3 DUP9 ADD PUSH3 0x3B5 JUMP JUMPDEST SWAP4 POP POP PUSH1 0x40 PUSH3 0x41F DUP8 DUP3 DUP9 ADD PUSH3 0x3B5 JUMP JUMPDEST SWAP3 POP POP PUSH1 0x60 PUSH3 0x432 DUP8 DUP3 DUP9 ADD PUSH3 0x3B5 JUMP JUMPDEST SWAP2 POP POP SWAP3 SWAP6 SWAP2 SWAP5 POP SWAP3 POP JUMP JUMPDEST PUSH2 0x35C5 DUP1 PUSH3 0x44E PUSH1 0x0 CODECOPY PUSH1 0x0 RETURN INVALID PUSH1 0x80 PUSH1 0x40 MSTORE CALLVALUE DUP1 ISZERO PUSH2 0x10 JUMPI PUSH1 0x0 DUP1 REVERT JUMPDEST POP PUSH1 0x4 CALLDATASIZE LT PUSH2 0x173 JUMPI PUSH1 0x0 CALLDATALOAD PUSH1 0xE0 SHR DUP1 PUSH4 0x70A08231 GT PUSH2 0xDE JUMPI DUP1 PUSH4 0xB8E79564 GT PUSH2 0x97 JUMPI DUP1 PUSH4 0xD5400047 GT PUSH2 0x71 JUMPI DUP1 PUSH4 0xD5400047 EQ PUSH2 0x47F JUMPI DUP1 PUSH4 0xDD62ED3E EQ PUSH2 0x4AF JUMPI DUP1 PUSH4 0xE2BBB158 EQ PUSH2 0x4DF JUMPI DUP1 PUSH4 0xED33639F EQ PUSH2 0x4FB JUMPI PUSH2 0x173 JUMP JUMPDEST DUP1 PUSH4 0xB8E79564 EQ PUSH2 0x3FE JUMPI DUP1 PUSH4 0xC2B40AE4 EQ PUSH2 0x41C JUMPI DUP1 PUSH4 0xCEE9E428 EQ PUSH2 0x44C JUMPI PUSH2 0x173 JUMP JUMPDEST DUP1 PUSH4 0x70A08231 EQ PUSH2 0x314 JUMPI DUP1 PUSH4 0x7B5758B1 EQ PUSH2 0x344 JUMPI DUP1 PUSH4 0x817B1CD2 EQ PUSH2 0x374 JUMPI DUP1 PUSH4 0x95D89B41 EQ PUSH2 0x392 JUMPI DUP1 PUSH4 0xA03E4BC3 EQ PUSH2 0x3B0 JUMPI DUP1 PUSH4 0xA9059CBB EQ PUSH2 0x3CE JUMPI PUSH2 0x173 JUMP JUMPDEST DUP1 PUSH4 0x23B872DD GT PUSH2 0x130 JUMPI DUP1 PUSH4 0x23B872DD EQ PUSH2 0x23E JUMPI DUP1 PUSH4 0x2B7AC3F3 EQ PUSH2 0x26E JUMPI DUP1 PUSH4 0x313CE567 EQ PUSH2 0x28C JUMPI DUP1 PUSH4 0x4056FF1B EQ PUSH2 0x2AA JUMPI DUP1 PUSH4 0x49CE8997 EQ PUSH2 0x2C8 JUMPI DUP1 PUSH4 0x6FECE60B EQ PUSH2 0x2F8 JUMPI PUSH2 0x173 JUMP JUMPDEST DUP1 PUSH4 0x6683E4B EQ PUSH2 0x178 JUMPI DUP1 PUSH4 0x6FDDE03 EQ PUSH2 0x196 JUMPI DUP1 PUSH4 0x95EA7B3 EQ PUSH2 0x1B4 JUMPI DUP1 PUSH4 0x11EAC855 EQ PUSH2 0x1E4 JUMPI DUP1 PUSH4 0x18160DDD EQ PUSH2 0x202 JUMPI DUP1 PUSH4 0x1820CABB EQ PUSH2 0x220 JUMPI JUMPDEST PUSH1 0x0 DUP1 REVERT JUMPDEST PUSH2 0x180 PUSH2 0x519 JUMP JUMPDEST PUSH1 0x40 MLOAD PUSH2 0x18D SWAP2 SWAP1 PUSH2 0x2138 JUMP JUMPDEST PUSH1 0x40 MLOAD DUP1 SWAP2 SUB SWAP1 RETURN JUMPDEST PUSH2 0x19E PUSH2 0x51F JUMP JUMPDEST PUSH1 0x40 MLOAD PUSH2 0x1AB SWAP2 SWAP1 PUSH2 0x21E3 JUMP JUMPDEST PUSH1 0x40 MLOAD DUP1 SWAP2 SUB SWAP1 RETURN JUMPDEST PUSH2 0x1CE PUSH1 0x4 DUP1 CALLDATASIZE SUB DUP2 ADD SWAP1 PUSH2 0x1C9 SWAP2 SWAP1 PUSH2 0x2294 JUMP JUMPDEST PUSH2 0x5C0 JUMP JUMPDEST PUSH1 0x40 MLOAD PUSH2 0x1DB SWAP2 SWAP1 PUSH2 0x22EF JUMP JUMPDEST PUSH1 0x40 MLOAD DUP1 SWAP2 SUB SWAP1 RETURN JUMPDEST PUSH2 0x1EC PUSH2 0x5E3 JUMP JUMPDEST PUSH1 0x40 MLOAD PUSH2 0x1F9 SWAP2 SWAP1 PUSH2 0x2319 JUMP JUMPDEST PUSH1 0x40 MLOAD DUP1 SWAP2 SUB SWAP1 RETURN JUMPDEST PUSH2 0x20A PUSH2 0x609 JUMP JUMPDEST PUSH1 0x40 MLOAD PUSH2 0x217 SWAP2 SWAP1 PUSH2 0x2138 JUMP JUMPDEST PUSH1 0x40 MLOAD DUP1 SWAP2 SUB SWAP1 RETURN JUMPDEST PUSH2 0x228 PUSH2 0x621 JUMP JUMPDEST PUSH1 0x40 MLOAD PUSH2 0x235 SWAP2 SWAP1 PUSH2 0x2138 JUMP JUMPDEST PUSH1 0x40 MLOAD DUP1 SWAP2 SUB SWAP1 RETURN JUMPDEST PUSH2 0x258 PUSH1 0x4 DUP1 CALLDATASIZE SUB DUP2 ADD SWAP1 PUSH2 0x253 SWAP2 SWAP1 PUSH2 0x2334 JUMP JUMPDEST PUSH2 0x628 JUMP JUMPDEST PUSH1 0x40 MLOAD PUSH2 0x265 SWAP2 SWAP1 PUSH2 0x22EF JUMP JUMPDEST PUSH1 0x40 MLOAD DUP1 SWAP2 SUB SWAP1 RETURN JUMPDEST PUSH2 0x276 PUSH2 0x657 JUMP JUMPDEST PUSH1 0x40 MLOAD PUSH2 0x283 SWAP2 SWAP1 PUSH2 0x2319 JUMP JUMPDEST PUSH1 0x40 MLOAD DUP1 SWAP2 SUB SWAP1 RETURN JUMPDEST PUSH2 0x294 PUSH2 0x67B JUMP JUMPDEST PUSH1 0x40 MLOAD PUSH2 0x2A1 SWAP2 SWAP1 PUSH2 0x23A3 JUMP JUMPDEST PUSH1 0x40 MLOAD DUP1 SWAP2 SUB SWAP1 RETURN JUMPDEST PUSH2 0x2B2 PUSH2 0x684 JUMP JUMPDEST PUSH1 0x40 MLOAD PUSH2 0x2BF SWAP2 SWAP1 PUSH2 0x2138 JUMP JUMPDEST PUSH1 0x40 MLOAD DUP1 SWAP2 SUB SWAP1 RETURN JUMPDEST PUSH2 0x2E2 PUSH1 0x4 DUP1 CALLDATASIZE SUB DUP2 ADD SWAP1 PUSH2 0x2DD SWAP2 SWAP1 PUSH2 0x23BE JUMP JUMPDEST PUSH2 0x68A JUMP JUMPDEST PUSH1 0x40 MLOAD PUSH2 0x2EF SWAP2 SWAP1 PUSH2 0x22EF JUMP JUMPDEST PUSH1 0x40 MLOAD DUP1 SWAP2 SUB SWAP1 RETURN JUMPDEST PUSH2 0x312 PUSH1 0x4 DUP1 CALLDATASIZE SUB DUP2 ADD SWAP1 PUSH2 0x30D SWAP2 SWAP1 PUSH2 0x2434 JUMP JUMPDEST PUSH2 0x6AA JUMP JUMPDEST STOP JUMPDEST PUSH2 0x32E PUSH1 0x4 DUP1 CALLDATASIZE SUB DUP2 ADD SWAP1 PUSH2 0x329 SWAP2 SWAP1 PUSH2 0x24B1 JUMP JUMPDEST PUSH2 0xBAC JUMP JUMPDEST PUSH1 0x40 MLOAD PUSH2 0x33B SWAP2 SWAP1 PUSH2 0x2138 JUMP JUMPDEST PUSH1 0x40 MLOAD DUP1 SWAP2 SUB SWAP1 RETURN JUMPDEST PUSH2 0x35E PUSH1 0x4 DUP1 CALLDATASIZE SUB DUP2 ADD SWAP1 PUSH2 0x359 SWAP2 SWAP1 PUSH2 0x23BE JUMP JUMPDEST PUSH2 0xC03 JUMP JUMPDEST PUSH1 0x40 MLOAD PUSH2 0x36B SWAP2 SWAP1 PUSH2 0x22EF JUMP JUMPDEST PUSH1 0x40 MLOAD DUP1 SWAP2 SUB SWAP1 RETURN JUMPDEST PUSH2 0x37C PUSH2 0xC23 JUMP JUMPDEST PUSH1 0x40 MLOAD PUSH2 0x389 SWAP2 SWAP1 PUSH2 0x2138 JUMP JUMPDEST PUSH1 0x40 MLOAD DUP1 SWAP2 SUB SWAP1 RETURN JUMPDEST PUSH2 0x39A PUSH2 0xC29 JUMP JUMPDEST PUSH1 0x40 MLOAD PUSH2 0x3A7 SWAP2 SWAP1 PUSH2 0x21E3 JUMP JUMPDEST PUSH1 0x40 MLOAD DUP1 SWAP2 SUB SWAP1 RETURN JUMPDEST PUSH2 0x3B8 PUSH2 0xCCA JUMP JUMPDEST PUSH1 0x40 MLOAD PUSH2 0x3C5 SWAP2 SWAP1 PUSH2 0x253D JUMP JUMPDEST PUSH1 0x40 MLOAD DUP1 SWAP2 SUB SWAP1 RETURN JUMPDEST PUSH2 0x3E8 PUSH1 0x4 DUP1 CALLDATASIZE SUB DUP2 ADD SWAP1 PUSH2 0x3E3 SWAP2 SWAP1 PUSH2 0x2294 JUMP JUMPDEST PUSH2 0xCF0 JUMP JUMPDEST PUSH1 0x40 MLOAD PUSH2 0x3F5 SWAP2 SWAP1 PUSH2 0x22EF JUMP JUMPDEST PUSH1 0x40 MLOAD DUP1 SWAP2 SUB SWAP1 RETURN JUMPDEST PUSH2 0x406 PUSH2 0xD13 JUMP JUMPDEST PUSH1 0x40 MLOAD PUSH2 0x413 SWAP2 SWAP1 PUSH2 0x23A3 JUMP JUMPDEST PUSH1 0x40 MLOAD DUP1 SWAP2 SUB SWAP1 RETURN JUMPDEST PUSH2 0x436 PUSH1 0x4 DUP1 CALLDATASIZE SUB DUP2 ADD SWAP1 PUSH2 0x431 SWAP2 SWAP1 PUSH2 0x23BE JUMP JUMPDEST PUSH2 0xD26 JUMP JUMPDEST PUSH1 0x40 MLOAD PUSH2 0x443 SWAP2 SWAP1 PUSH2 0x22EF JUMP JUMPDEST PUSH1 0x40 MLOAD DUP1 SWAP2 SUB SWAP1 RETURN JUMPDEST PUSH2 0x466 PUSH1 0x4 DUP1 CALLDATASIZE SUB DUP2 ADD SWAP1 PUSH2 0x461 SWAP2 SWAP1 PUSH2 0x23BE JUMP JUMPDEST PUSH2 0xD46 JUMP JUMPDEST PUSH1 0x40 MLOAD PUSH2 0x476 SWAP5 SWAP4 SWAP3 SWAP2 SWAP1 PUSH2 0x2558 JUMP JUMPDEST PUSH1 0x40 MLOAD DUP1 SWAP2 SUB SWAP1 RETURN JUMPDEST PUSH2 0x499 PUSH1 0x4 DUP1 CALLDATASIZE SUB DUP2 ADD SWAP1 PUSH2 0x494 SWAP2 SWAP1 PUSH2 0x25C9 JUMP JUMPDEST PUSH2 0xDB3 JUMP JUMPDEST PUSH1 0x40 MLOAD PUSH2 0x4A6 SWAP2 SWAP1 PUSH2 0x2138 JUMP JUMPDEST PUSH1 0x40 MLOAD DUP1 SWAP2 SUB SWAP1 RETURN JUMPDEST PUSH2 0x4C9 PUSH1 0x4 DUP1 CALLDATASIZE SUB DUP2 ADD SWAP1 PUSH2 0x4C4 SWAP2 SWAP1 PUSH2 0x25F6 JUMP JUMPDEST PUSH2 0xDCB JUMP JUMPDEST PUSH1 0x40 MLOAD PUSH2 0x4D6 SWAP2 SWAP1 PUSH2 0x2138 JUMP JUMPDEST PUSH1 0x40 MLOAD DUP1 SWAP2 SUB SWAP1 RETURN JUMPDEST PUSH2 0x4F9 PUSH1 0x4 DUP1 CALLDATASIZE SUB DUP2 ADD SWAP1 PUSH2 0x4F4 SWAP2 SWAP1 PUSH2 0x2636 JUMP JUMPDEST PUSH2 0xE60 JUMP JUMPDEST STOP JUMPDEST PUSH2 0x503 PUSH2 0x1753 JUMP JUMPDEST PUSH1 0x40 MLOAD PUSH2 0x510 SWAP2 SWAP1 PUSH2 0x2697 JUMP JUMPDEST PUSH1 0x40 MLOAD DUP1 SWAP2 SUB SWAP1 RETURN JUMPDEST PUSH1 0x7 SLOAD DUP2 JUMP JUMPDEST PUSH1 0x60 PUSH1 0x0 PUSH2 0x52B PUSH2 0x1779 JUMP JUMPDEST SWAP1 POP DUP1 PUSH1 0x3 ADD DUP1 SLOAD PUSH2 0x53C SWAP1 PUSH2 0x26E1 JUMP JUMPDEST DUP1 PUSH1 0x1F ADD PUSH1 0x20 DUP1 SWAP2 DIV MUL PUSH1 0x20 ADD PUSH1 0x40 MLOAD SWAP1 DUP2 ADD PUSH1 0x40 MSTORE DUP1 SWAP3 SWAP2 SWAP1 DUP2 DUP2 MSTORE PUSH1 0x20 ADD DUP3 DUP1 SLOAD PUSH2 0x568 SWAP1 PUSH2 0x26E1 JUMP JUMPDEST DUP1 ISZERO PUSH2 0x5B5 JUMPI DUP1 PUSH1 0x1F LT PUSH2 0x58A JUMPI PUSH2 0x100 DUP1 DUP4 SLOAD DIV MUL DUP4 MSTORE SWAP2 PUSH1 0x20 ADD SWAP2 PUSH2 0x5B5 JUMP JUMPDEST DUP3 ADD SWAP2 SWAP1 PUSH1 0x0 MSTORE PUSH1 0x20 PUSH1 0x0 KECCAK256 SWAP1 JUMPDEST DUP2 SLOAD DUP2 MSTORE SWAP1 PUSH1 0x1 ADD SWAP1 PUSH1 0x20 ADD DUP1 DUP4 GT PUSH2 0x598 JUMPI DUP3 SWAP1 SUB PUSH1 0x1F AND DUP3 ADD SWAP2 JUMPDEST POP POP POP POP POP SWAP2 POP POP SWAP1 JUMP JUMPDEST PUSH1 0x0 DUP1 PUSH2 0x5CB PUSH2 0x17A1 JUMP JUMPDEST SWAP1 POP PUSH2 0x5D8 DUP2 DUP6 DUP6 PUSH2 0x17A9 JUMP JUMPDEST PUSH1 0x1 SWAP2 POP POP SWAP3 SWAP2 POP POP JUMP JUMPDEST PUSH1 0x3 PUSH1 0x0 SWAP1 SLOAD SWAP1 PUSH2 0x100 EXP SWAP1 DIV PUSH20 0xFFFFFFFFFFFFFFFFFFFFFFFFFFFFFFFFFFFFFFFF AND DUP2 JUMP JUMPDEST PUSH1 0x0 DUP1 PUSH2 0x614 PUSH2 0x1779 JUMP JUMPDEST SWAP1 POP DUP1 PUSH1 0x2 ADD SLOAD SWAP2 POP POP SWAP1 JUMP JUMPDEST PUSH3 0x76A700 DUP2 JUMP JUMPDEST PUSH1 0x0 DUP1 PUSH2 0x633 PUSH2 0x17A1 JUMP JUMPDEST SWAP1 POP PUSH2 0x640 DUP6 DUP3 DUP6 PUSH2 0x17BB JUMP JUMPDEST PUSH2 0x64B DUP6 DUP6 DUP6 PUSH2 0x184F JUMP JUMPDEST PUSH1 0x1 SWAP2 POP POP SWAP4 SWAP3 POP POP POP JUMP JUMPDEST PUSH1 0x0 DUP1 SLOAD SWAP1 PUSH2 0x100 EXP SWAP1 DIV PUSH20 0xFFFFFFFFFFFFFFFFFFFFFFFFFFFFFFFFFFFFFFFF AND DUP2 JUMP JUMPDEST PUSH1 0x0 PUSH1 0x12 SWAP1 POP SWAP1 JUMP JUMPDEST PUSH1 0x5 SLOAD DUP2 JUMP JUMPDEST PUSH1 0xC PUSH1 0x20 MSTORE DUP1 PUSH1 0x0 MSTORE PUSH1 0x40 PUSH1 0x0 KECCAK256 PUSH1 0x0 SWAP2 POP SLOAD SWAP1 PUSH2 0x100 EXP SWAP1 DIV PUSH1 0xFF AND DUP2 JUMP JUMPDEST PUSH1 0x5 SLOAD DUP6 LT PUSH2 0x6EE JUMPI PUSH1 0x40 MLOAD PUSH32 0x8C379A000000000000000000000000000000000000000000000000000000000 DUP2 MSTORE PUSH1 0x4 ADD PUSH2 0x6E5 SWAP1 PUSH2 0x275E JUMP JUMPDEST PUSH1 0x40 MLOAD DUP1 SWAP2 SUB SWAP1 REVERT JUMPDEST PUSH1 0x0 PUSH1 0x8 DUP7 DUP2 SLOAD DUP2 LT PUSH2 0x704 JUMPI PUSH2 0x703 PUSH2 0x277E JUMP JUMPDEST JUMPDEST SWAP1 PUSH1 0x0 MSTORE PUSH1 0x20 PUSH1 0x0 KECCAK256 SWAP1 PUSH1 0x4 MUL ADD SWAP1 POP DUP1 PUSH1 0x0 ADD PUSH1 0x0 SWAP1 SLOAD SWAP1 PUSH2 0x100 EXP SWAP1 DIV PUSH20 0xFFFFFFFFFFFFFFFFFFFFFFFFFFFFFFFFFFFFFFFF AND PUSH20 0xFFFFFFFFFFFFFFFFFFFFFFFFFFFFFFFFFFFFFFFF AND CALLER PUSH20 0xFFFFFFFFFFFFFFFFFFFFFFFFFFFFFFFFFFFFFFFF AND EQ PUSH2 0x7A6 JUMPI PUSH1 0x40 MLOAD PUSH32 0x8C379A000000000000000000000000000000000000000000000000000000000 DUP2 MSTORE PUSH1 0x4 ADD PUSH2 0x79D SWAP1 PUSH2 0x27F9 JUMP JUMPDEST PUSH1 0x40 MLOAD DUP1 SWAP2 SUB SWAP1 REVERT JUMPDEST PUSH3 0x76A700 DUP2 PUSH1 0x2 ADD SLOAD PUSH2 0x7B9 SWAP2 SWAP1 PUSH2 0x2848 JUMP JUMPDEST TIMESTAMP LT ISZERO PUSH2 0x7FB JUMPI PUSH1 0x40 MLOAD PUSH32 0x8C379A000000000000000000000000000000000000000000000000000000000 DUP2 MSTORE PUSH1 0x4 ADD PUSH2 0x7F2 SWAP1 PUSH2 0x28C8 JUMP JUMPDEST PUSH1 0x40 MLOAD DUP1 SWAP2 SUB SWAP1 REVERT JUMPDEST DUP1 PUSH1 0x3 ADD PUSH1 0x0 SWAP1 SLOAD SWAP1 PUSH2 0x100 EXP SWAP1 DIV PUSH1 0xFF AND PUSH2 0x84C JUMPI PUSH1 0x40 MLOAD PUSH32 0x8C379A000000000000000000000000000000000000000000000000000000000 DUP2 MSTORE PUSH1 0x4 ADD PUSH2 0x843 SWAP1 PUSH2 0x2934 JUMP JUMPDEST PUSH1 0x40 MLOAD DUP1 SWAP2 SUB SWAP1 REVERT JUMPDEST PUSH1 0x0 DUP3 PUSH1 0x0 PUSH1 0x2 DUP2 LT PUSH2 0x862 JUMPI PUSH2 0x861 PUSH2 0x277E JUMP JUMPDEST JUMPDEST PUSH1 0x20 MUL ADD CALLDATALOAD SWAP1 POP PUSH1 0x0 DUP4 PUSH1 0x1 PUSH1 0x2 DUP2 LT PUSH2 0x87F JUMPI PUSH2 0x87E PUSH2 0x277E JUMP JUMPDEST JUMPDEST PUSH1 0x20 MUL ADD CALLDATALOAD SWAP1 POP PUSH1 0xB PUSH1 0x0 DUP3 DUP2 MSTORE PUSH1 0x20 ADD SWAP1 DUP2 MSTORE PUSH1 0x20 ADD PUSH1 0x0 KECCAK256 PUSH1 0x0 SWAP1 SLOAD SWAP1 PUSH2 0x100 EXP SWAP1 DIV PUSH1 0xFF AND ISZERO PUSH2 0x8E7 JUMPI PUSH1 0x40 MLOAD PUSH32 0x8C379A000000000000000000000000000000000000000000000000000000000 DUP2 MSTORE PUSH1 0x4 ADD PUSH2 0x8DE SWAP1 PUSH2 0x29A0 JUMP JUMPDEST PUSH1 0x40 MLOAD DUP1 SWAP2 SUB SWAP1 REVERT JUMPDEST PUSH1 0x9 PUSH1 0x0 DUP4 DUP2 MSTORE PUSH1 0x20 ADD SWAP1 DUP2 MSTORE PUSH1 0x20 ADD PUSH1 0x0 KECCAK256 PUSH1 0x0 SWAP1 SLOAD SWAP1 PUSH2 0x100 EXP SWAP1 DIV PUSH1 0xFF AND PUSH2 0x947 JUMPI PUSH1 0x40 MLOAD PUSH32 0x8C379A000000000000000000000000000000000000000000000000000000000 DUP2 MSTORE PUSH1 0x4 ADD PUSH2 0x93E SWAP1 PUSH2 0x2A0C JUMP JUMPDEST PUSH1 0x40 MLOAD DUP1 SWAP2 SUB SWAP1 REVERT JUMPDEST PUSH1 0x0 CALLER PUSH20 0xFFFFFFFFFFFFFFFFFFFFFFFFFFFFFFFFFFFFFFFF AND SWAP1 POP PUSH1 0x0 DUP1 PUSH1 0x0 SWAP1 SLOAD SWAP1 PUSH2 0x100 EXP SWAP1 DIV PUSH20 0xFFFFFFFFFFFFFFFFFFFFFFFFFFFFFFFFFFFFFFFF AND PUSH20 0xFFFFFFFFFFFFFFFFFFFFFFFFFFFFFFFFFFFFFFFF AND DUP10 DUP10 DUP10 PUSH1 0x40 MLOAD DUP1 PUSH1 0x60 ADD PUSH1 0x40 MSTORE DUP1 DUP10 DUP2 MSTORE PUSH1 0x20 ADD DUP9 DUP2 MSTORE PUSH1 0x20 ADD DUP8 DUP2 MSTORE POP PUSH1 0x40 MLOAD PUSH1 0x24 ADD PUSH2 0x9CD SWAP5 SWAP4 SWAP3 SWAP2 SWAP1 PUSH2 0x2BAF JUMP JUMPDEST PUSH1 0x40 MLOAD PUSH1 0x20 DUP2 DUP4 SUB SUB DUP2 MSTORE SWAP1 PUSH1 0x40 MSTORE PUSH4 0x11479FEA PUSH1 0xE0 SHL PUSH1 0x20 DUP3 ADD DUP1 MLOAD PUSH28 0xFFFFFFFFFFFFFFFFFFFFFFFFFFFFFFFFFFFFFFFFFFFFFFFFFFFFFFFF DUP4 DUP2 DUP4 AND OR DUP4 MSTORE POP POP POP POP PUSH1 0x40 MLOAD PUSH2 0xA1F SWAP2 SWAP1 PUSH2 0x2C3D JUMP JUMPDEST PUSH1 0x0 PUSH1 0x40 MLOAD DUP1 DUP4 SUB DUP2 PUSH1 0x0 DUP7 GAS CALL SWAP2 POP POP RETURNDATASIZE DUP1 PUSH1 0x0 DUP2 EQ PUSH2 0xA5C JUMPI PUSH1 0x40 MLOAD SWAP2 POP PUSH1 0x1F NOT PUSH1 0x3F RETURNDATASIZE ADD AND DUP3 ADD PUSH1 0x40 MSTORE RETURNDATASIZE DUP3 MSTORE RETURNDATASIZE PUSH1 0x0 PUSH1 0x20 DUP5 ADD RETURNDATACOPY PUSH2 0xA61 JUMP JUMPDEST PUSH1 0x60 SWAP2 POP JUMPDEST POP POP SWAP1 POP DUP1 PUSH2 0xAA5 JUMPI PUSH1 0x40 MLOAD PUSH32 0x8C379A000000000000000000000000000000000000000000000000000000000 DUP2 MSTORE PUSH1 0x4 ADD PUSH2 0xA9C SWAP1 PUSH2 0x2CA0 JUMP JUMPDEST PUSH1 0x40 MLOAD DUP1 SWAP2 SUB SWAP1 REVERT JUMPDEST PUSH1 0x1 PUSH1 0xB PUSH1 0x0 DUP6 DUP2 MSTORE PUSH1 0x20 ADD SWAP1 DUP2 MSTORE PUSH1 0x20 ADD PUSH1 0x0 KECCAK256 PUSH1 0x0 PUSH2 0x100 EXP DUP2 SLOAD DUP2 PUSH1 0xFF MUL NOT AND SWAP1 DUP4 ISZERO ISZERO MUL OR SWAP1 SSTORE POP PUSH2 0xB22 CALLER DUP7 PUSH1 0x1 ADD SLOAD PUSH1 0x3 PUSH1 0x0 SWAP1 SLOAD SWAP1 PUSH2 0x100 EXP SWAP1 DIV PUSH20 0xFFFFFFFFFFFFFFFFFFFFFFFFFFFFFFFFFFFFFFFF AND PUSH20 0xFFFFFFFFFFFFFFFFFFFFFFFFFFFFFFFFFFFFFFFF AND PUSH2 0x1943 SWAP1 SWAP3 SWAP2 SWAP1 PUSH4 0xFFFFFFFF AND JUMP JUMPDEST DUP5 PUSH1 0x1 ADD SLOAD PUSH1 0x4 PUSH1 0x0 DUP3 DUP3 SLOAD PUSH2 0xB38 SWAP2 SWAP1 PUSH2 0x2CC0 JUMP JUMPDEST SWAP3 POP POP DUP2 SWAP1 SSTORE POP PUSH1 0x0 DUP6 PUSH1 0x3 ADD PUSH1 0x0 PUSH2 0x100 EXP DUP2 SLOAD DUP2 PUSH1 0xFF MUL NOT AND SWAP1 DUP4 ISZERO ISZERO MUL OR SWAP1 SSTORE POP DUP3 CALLER PUSH20 0xFFFFFFFFFFFFFFFFFFFFFFFFFFFFFFFFFFFFFFFF AND PUSH32 0x7FCF532C15F0A6DB0BD6D0E038BEA71D30D808C7D98CB3BF7268A95BF5081B65 PUSH1 0x40 MLOAD PUSH1 0x40 MLOAD DUP1 SWAP2 SUB SWAP1 LOG3 POP POP POP POP POP POP POP POP POP POP JUMP JUMPDEST PUSH1 0x0 DUP1 PUSH2 0xBB7 PUSH2 0x1779 JUMP JUMPDEST SWAP1 POP DUP1 PUSH1 0x0 ADD PUSH1 0x0 DUP5 PUSH20 0xFFFFFFFFFFFFFFFFFFFFFFFFFFFFFFFFFFFFFFFF AND PUSH20 0xFFFFFFFFFFFFFFFFFFFFFFFFFFFFFFFFFFFFFFFF AND DUP2 MSTORE PUSH1 0x20 ADD SWAP1 DUP2 MSTORE PUSH1 0x20 ADD PUSH1 0x0 KECCAK256 SLOAD SWAP2 POP POP SWAP2 SWAP1 POP JUMP JUMPDEST PUSH1 0xB PUSH1 0x20 MSTORE DUP1 PUSH1 0x0 MSTORE PUSH1 0x40 PUSH1 0x0 KECCAK256 PUSH1 0x0 SWAP2 POP SLOAD SWAP1 PUSH2 0x100 EXP SWAP1 DIV PUSH1 0xFF AND DUP2 JUMP JUMPDEST PUSH1 0x4 SLOAD DUP2 JUMP JUMPDEST PUSH1 0x60 PUSH1 0x0 PUSH2 0xC35 PUSH2 0x1779 JUMP JUMPDEST SWAP1 POP DUP1 PUSH1 0x4 ADD DUP1 SLOAD PUSH2 0xC46 SWAP1 PUSH2 0x26E1 JUMP JUMPDEST DUP1 PUSH1 0x1F ADD PUSH1 0x20 DUP1 SWAP2 DIV MUL PUSH1 0x20 ADD PUSH1 0x40 MLOAD SWAP1 DUP2 ADD PUSH1 0x40 MSTORE DUP1 SWAP3 SWAP2 SWAP1 DUP2 DUP2 MSTORE PUSH1 0x20 ADD DUP3 DUP1 SLOAD PUSH2 0xC72 SWAP1 PUSH2 0x26E1 JUMP JUMPDEST DUP1 ISZERO PUSH2 0xCBF JUMPI DUP1 PUSH1 0x1F LT PUSH2 0xC94 JUMPI PUSH2 0x100 DUP1 DUP4 SLOAD DIV MUL DUP4 MSTORE SWAP2 PUSH1 0x20 ADD SWAP2 PUSH2 0xCBF JUMP JUMPDEST DUP3 ADD SWAP2 SWAP1 PUSH1 0x0 MSTORE PUSH1 0x20 PUSH1 0x0 KECCAK256 SWAP1 JUMPDEST DUP2 SLOAD DUP2 MSTORE SWAP1 PUSH1 0x1 ADD SWAP1 PUSH1 0x20 ADD DUP1 DUP4 GT PUSH2 0xCA2 JUMPI DUP3 SWAP1 SUB PUSH1 0x1F AND DUP3 ADD SWAP2 JUMPDEST POP POP POP POP POP SWAP2 POP POP SWAP1 JUMP JUMPDEST PUSH1 0x2 PUSH1 0x0 SWAP1 SLOAD SWAP1 PUSH2 0x100 EXP SWAP1 DIV PUSH20 0xFFFFFFFFFFFFFFFFFFFFFFFFFFFFFFFFFFFFFFFF AND DUP2 JUMP JUMPDEST PUSH1 0x0 DUP1 PUSH2 0xCFB PUSH2 0x17A1 JUMP JUMPDEST SWAP1 POP PUSH2 0xD08 DUP2 DUP6 DUP6 PUSH2 0x184F JUMP JUMPDEST PUSH1 0x1 SWAP2 POP POP SWAP3 SWAP2 POP POP JUMP JUMPDEST PUSH1 0x6 PUSH1 0x0 SWAP1 SLOAD SWAP1 PUSH2 0x100 EXP SWAP1 DIV PUSH1 0xFF AND DUP2 JUMP JUMPDEST PUSH1 0x9 PUSH1 0x20 MSTORE DUP1 PUSH1 0x0 MSTORE PUSH1 0x40 PUSH1 0x0 KECCAK256 PUSH1 0x0 SWAP2 POP SLOAD SWAP1 PUSH2 0x100 EXP SWAP1 DIV PUSH1 0xFF AND DUP2 JUMP JUMPDEST PUSH1 0x8 DUP2 DUP2 SLOAD DUP2 LT PUSH2 0xD56 JUMPI PUSH1 0x0 DUP1 REVERT JUMPDEST SWAP1 PUSH1 0x0 MSTORE PUSH1 0x20 PUSH1 0x0 KECCAK256 SWAP1 PUSH1 0x4 MUL ADD PUSH1 0x0 SWAP2 POP SWAP1 POP DUP1 PUSH1 0x0 ADD PUSH1 0x0 SWAP1 SLOAD SWAP1 PUSH2 0x100 EXP SWAP1 DIV PUSH20 0xFFFFFFFFFFFFFFFFFFFFFFFFFFFFFFFFFFFFFFFF AND SWAP1 DUP1 PUSH1 0x1 ADD SLOAD SWAP1 DUP1 PUSH1 0x2 ADD SLOAD SWAP1 DUP1 PUSH1 0x3 ADD PUSH1 0x0 SWAP1 SLOAD SWAP1 PUSH2 0x100 EXP SWAP1 DIV PUSH1 0xFF AND SWAP1 POP DUP5 JUMP JUMPDEST PUSH1 0xA PUSH1 0x20 MSTORE DUP1 PUSH1 0x0 MSTORE PUSH1 0x40 PUSH1 0x0 KECCAK256 PUSH1 0x0 SWAP2 POP SWAP1 POP SLOAD DUP2 JUMP JUMPDEST PUSH1 0x0 DUP1 PUSH2 0xDD6 PUSH2 0x1779 JUMP JUMPDEST SWAP1 POP DUP1 PUSH1 0x1 ADD PUSH1 0x0 DUP6 PUSH20 0xFFFFFFFFFFFFFFFFFFFFFFFFFFFFFFFFFFFFFFFF AND PUSH20 0xFFFFFFFFFFFFFFFFFFFFFFFFFFFFFFFFFFFFFFFF AND DUP2 MSTORE PUSH1 0x20 ADD SWAP1 DUP2 MSTORE PUSH1 0x20 ADD PUSH1 0x0 KECCAK256 PUSH1 0x0 DUP5 PUSH20 0xFFFFFFFFFFFFFFFFFFFFFFFFFFFFFFFFFFFFFFFF AND PUSH20 0xFFFFFFFFFFFFFFFFFFFFFFFFFFFFFFFFFFFFFFFF AND DUP2 MSTORE PUSH1 0x20 ADD SWAP1 DUP2 MSTORE PUSH1 0x20 ADD PUSH1 0x0 KECCAK256 SLOAD SWAP2 POP POP SWAP3 SWAP2 POP POP JUMP JUMPDEST PUSH1 0x0 DUP3 GT PUSH2 0xEA3 JUMPI PUSH1 0x40 MLOAD PUSH32 0x8C379A000000000000000000000000000000000000000000000000000000000 DUP2 MSTORE PUSH1 0x4 ADD PUSH2 0xE9A SWAP1 PUSH2 0x2D40 JUMP JUMPDEST PUSH1 0x40 MLOAD DUP1 SWAP2 SUB SWAP1 REVERT JUMPDEST DUP2 PUSH1 0x3 PUSH1 0x0 SWAP1 SLOAD SWAP1 PUSH2 0x100 EXP SWAP1 DIV PUSH20 0xFFFFFFFFFFFFFFFFFFFFFFFFFFFFFFFFFFFFFFFF AND PUSH20 0xFFFFFFFFFFFFFFFFFFFFFFFFFFFFFFFFFFFFFFFF AND PUSH4 0x70A08231 CALLER PUSH1 0x40 MLOAD DUP3 PUSH4 0xFFFFFFFF AND PUSH1 0xE0 SHL DUP2 MSTORE PUSH1 0x4 ADD PUSH2 0xEFF SWAP2 SWAP1 PUSH2 0x2319 JUMP JUMPDEST PUSH1 0x20 PUSH1 0x40 MLOAD DUP1 DUP4 SUB DUP2 DUP7 GAS STATICCALL ISZERO DUP1 ISZERO PUSH2 0xF1C JUMPI RETURNDATASIZE PUSH1 0x0 DUP1 RETURNDATACOPY RETURNDATASIZE PUSH1 0x0 REVERT JUMPDEST POP POP POP POP PUSH1 0x40 MLOAD RETURNDATASIZE PUSH1 0x1F NOT PUSH1 0x1F DUP3 ADD AND DUP3 ADD DUP1 PUSH1 0x40 MSTORE POP DUP2 ADD SWAP1 PUSH2 0xF40 SWAP2 SWAP1 PUSH2 0x2D75 JUMP JUMPDEST LT ISZERO PUSH2 0xF81 JUMPI PUSH1 0x40 MLOAD PUSH32 0x8C379A000000000000000000000000000000000000000000000000000000000 DUP2 MSTORE PUSH1 0x4 ADD PUSH2 0xF78 SWAP1 PUSH2 0x2DEE JUMP JUMPDEST PUSH1 0x40 MLOAD DUP1 SWAP2 SUB SWAP1 REVERT JUMPDEST DUP2 PUSH1 0x3 PUSH1 0x0 SWAP1 SLOAD SWAP1 PUSH2 0x100 EXP SWAP1 DIV PUSH20 0xFFFFFFFFFFFFFFFFFFFFFFFFFFFFFFFFFFFFFFFF AND PUSH20 0xFFFFFFFFFFFFFFFFFFFFFFFFFFFFFFFFFFFFFFFF AND PUSH4 0xDD62ED3E CALLER ADDRESS PUSH1 0x40 MLOAD DUP4 PUSH4 0xFFFFFFFF AND PUSH1 0xE0 SHL DUP2 MSTORE PUSH1 0x4 ADD PUSH2 0xFDF SWAP3 SWAP2 SWAP1 PUSH2 0x2E0E JUMP JUMPDEST PUSH1 0x20 PUSH1 0x40 MLOAD DUP1 DUP4 SUB DUP2 DUP7 GAS STATICCALL ISZERO DUP1 ISZERO PUSH2 0xFFC JUMPI RETURNDATASIZE PUSH1 0x0 DUP1 RETURNDATACOPY RETURNDATASIZE PUSH1 0x0 REVERT JUMPDEST POP POP POP POP PUSH1 0x40 MLOAD RETURNDATASIZE PUSH1 0x1F NOT PUSH1 0x1F DUP3 ADD AND DUP3 ADD DUP1 PUSH1 0x40 MSTORE POP DUP2 ADD SWAP1 PUSH2 0x1020 SWAP2 SWAP1 PUSH2 0x2D75 JUMP JUMPDEST LT ISZERO PUSH2 0x1061 JUMPI PUSH1 0x40 MLOAD PUSH32 0x8C379A000000000000000000000000000000000000000000000000000000000 DUP2 MSTORE PUSH1 0x4 ADD PUSH2 0x1058 SWAP1 PUSH2 0x2E83 JUMP JUMPDEST PUSH1 0x40 MLOAD DUP1 SWAP2 SUB SWAP1 REVERT JUMPDEST PUSH1 0xC PUSH1 0x0 DUP3 DUP2 MSTORE PUSH1 0x20 ADD SWAP1 DUP2 MSTORE PUSH1 0x20 ADD PUSH1 0x0 KECCAK256 PUSH1 0x0 SWAP1 SLOAD SWAP1 PUSH2 0x100 EXP SWAP1 DIV PUSH1 0xFF AND ISZERO PUSH2 0x10C2 JUMPI PUSH1 0x40 MLOAD PUSH32 0x8C379A000000000000000000000000000000000000000000000000000000000 DUP2 MSTORE PUSH1 0x4 ADD PUSH2 0x10B9 SWAP1 PUSH2 0x2EEF JUMP JUMPDEST PUSH1 0x40 MLOAD DUP1 SWAP2 SUB SWAP1 REVERT JUMPDEST PUSH1 0x6 PUSH1 0x0 SWAP1 SLOAD SWAP1 PUSH2 0x100 EXP SWAP1 DIV PUSH1 0xFF AND PUSH1 0x2 PUSH2 0x10DE SWAP2 SWAP1 PUSH2 0x3042 JUMP JUMPDEST PUSH1 0x7 SLOAD LT PUSH2 0x1121 JUMPI PUSH1 0x40 MLOAD PUSH32 0x8C379A000000000000000000000000000000000000000000000000000000000 DUP2 MSTORE PUSH1 0x4 ADD PUSH2 0x1118 SWAP1 PUSH2 0x30D9 JUMP JUMPDEST PUSH1 0x40 MLOAD DUP1 SWAP2 SUB SWAP1 REVERT JUMPDEST PUSH2 0x1170 CALLER ADDRESS DUP5 PUSH1 0x3 PUSH1 0x0 SWAP1 SLOAD SWAP1 PUSH2 0x100 EXP SWAP1 DIV PUSH20 0xFFFFFFFFFFFFFFFFFFFFFFFFFFFFFFFFFFFFFFFF AND PUSH20 0xFFFFFFFFFFFFFFFFFFFFFFFFFFFFFFFFFFFFFFFF AND PUSH2 0x19C2 SWAP1 SWAP4 SWAP3 SWAP2 SWAP1 PUSH4 0xFFFFFFFF AND JUMP JUMPDEST PUSH1 0x3 PUSH1 0x0 SWAP1 SLOAD SWAP1 PUSH2 0x100 EXP SWAP1 DIV PUSH20 0xFFFFFFFFFFFFFFFFFFFFFFFFFFFFFFFFFFFFFFFF AND PUSH20 0xFFFFFFFFFFFFFFFFFFFFFFFFFFFFFFFFFFFFFFFF AND PUSH4 0x95EA7B3 PUSH1 0x2 PUSH1 0x0 SWAP1 SLOAD SWAP1 PUSH2 0x100 EXP SWAP1 DIV PUSH20 0xFFFFFFFFFFFFFFFFFFFFFFFFFFFFFFFFFFFFFFFF AND DUP5 PUSH1 0x40 MLOAD DUP4 PUSH4 0xFFFFFFFF AND PUSH1 0xE0 SHL DUP2 MSTORE PUSH1 0x4 ADD PUSH2 0x11EF SWAP3 SWAP2 SWAP1 PUSH2 0x30F9 JUMP JUMPDEST PUSH1 0x20 PUSH1 0x40 MLOAD DUP1 DUP4 SUB DUP2 PUSH1 0x0 DUP8 GAS CALL ISZERO DUP1 ISZERO PUSH2 0x120E JUMPI RETURNDATASIZE PUSH1 0x0 DUP1 RETURNDATACOPY RETURNDATASIZE PUSH1 0x0 REVERT JUMPDEST POP POP POP POP PUSH1 0x40 MLOAD RETURNDATASIZE PUSH1 0x1F NOT PUSH1 0x1F DUP3 ADD AND DUP3 ADD DUP1 PUSH1 0x40 MSTORE POP DUP2 ADD SWAP1 PUSH2 0x1232 SWAP2 SWAP1 PUSH2 0x314E JUMP JUMPDEST POP PUSH1 0x2 PUSH1 0x0 SWAP1 SLOAD SWAP1 PUSH2 0x100 EXP SWAP1 DIV PUSH20 0xFFFFFFFFFFFFFFFFFFFFFFFFFFFFFFFFFFFFFFFF AND PUSH20 0xFFFFFFFFFFFFFFFFFFFFFFFFFFFFFFFFFFFFFFFF AND PUSH4 0x617BA037 PUSH1 0x3 PUSH1 0x0 SWAP1 SLOAD SWAP1 PUSH2 0x100 EXP SWAP1 DIV PUSH20 0xFFFFFFFFFFFFFFFFFFFFFFFFFFFFFFFFFFFFFFFF AND DUP5 ADDRESS PUSH1 0x0 PUSH1 0x40 MLOAD DUP6 PUSH4 0xFFFFFFFF AND PUSH1 0xE0 SHL DUP2 MSTORE PUSH1 0x4 ADD PUSH2 0x12B7 SWAP5 SWAP4 SWAP3 SWAP2 SWAP1 PUSH2 0x31C4 JUMP JUMPDEST PUSH1 0x0 PUSH1 0x40 MLOAD DUP1 DUP4 SUB DUP2 PUSH1 0x0 DUP8 DUP1 EXTCODESIZE ISZERO DUP1 ISZERO PUSH2 0x12D1 JUMPI PUSH1 0x0 DUP1 REVERT JUMPDEST POP GAS CALL ISZERO DUP1 ISZERO PUSH2 0x12E5 JUMPI RETURNDATASIZE PUSH1 0x0 DUP1 RETURNDATACOPY RETURNDATASIZE PUSH1 0x0 REVERT JUMPDEST POP POP POP POP PUSH1 0x8 PUSH1 0x40 MLOAD DUP1 PUSH1 0x80 ADD PUSH1 0x40 MSTORE DUP1 CALLER PUSH20 0xFFFFFFFFFFFFFFFFFFFFFFFFFFFFFFFFFFFFFFFF AND DUP2 MSTORE PUSH1 0x20 ADD DUP5 DUP2 MSTORE PUSH1 0x20 ADD TIMESTAMP DUP2 MSTORE PUSH1 0x20 ADD PUSH1 0x1 ISZERO ISZERO DUP2 MSTORE POP SWAP1 DUP1 PUSH1 0x1 DUP2 SLOAD ADD DUP1 DUP3 SSTORE DUP1 SWAP2 POP POP PUSH1 0x1 SWAP1 SUB SWAP1 PUSH1 0x0 MSTORE PUSH1 0x20 PUSH1 0x0 KECCAK256 SWAP1 PUSH1 0x4 MUL ADD PUSH1 0x0 SWAP1 SWAP2 SWAP1 SWAP2 SWAP1 SWAP2 POP PUSH1 0x0 DUP3 ADD MLOAD DUP2 PUSH1 0x0 ADD PUSH1 0x0 PUSH2 0x100 EXP DUP2 SLOAD DUP2 PUSH20 0xFFFFFFFFFFFFFFFFFFFFFFFFFFFFFFFFFFFFFFFF MUL NOT AND SWAP1 DUP4 PUSH20 0xFFFFFFFFFFFFFFFFFFFFFFFFFFFFFFFFFFFFFFFF AND MUL OR SWAP1 SSTORE POP PUSH1 0x20 DUP3 ADD MLOAD DUP2 PUSH1 0x1 ADD SSTORE PUSH1 0x40 DUP3 ADD MLOAD DUP2 PUSH1 0x2 ADD SSTORE PUSH1 0x60 DUP3 ADD MLOAD DUP2 PUSH1 0x3 ADD PUSH1 0x0 PUSH2 0x100 EXP DUP2 SLOAD DUP2 PUSH1 0xFF MUL NOT AND SWAP1 DUP4 ISZERO ISZERO MUL OR SWAP1 SSTORE POP POP POP PUSH1 0x0 PUSH2 0x13D5 PUSH2 0x20B7 JUMP JUMPDEST PUSH2 0x13DD PUSH2 0x20DA JUMP JUMPDEST PUSH1 0x0 PUSH1 0x7 SLOAD SWAP1 POP PUSH1 0x0 DUP6 SWAP1 POP PUSH1 0x0 DUP1 PUSH2 0x13F4 PUSH2 0x20FD JUMP JUMPDEST PUSH1 0x0 JUMPDEST PUSH1 0x6 PUSH1 0x0 SWAP1 SLOAD SWAP1 PUSH2 0x100 EXP SWAP1 DIV PUSH1 0xFF AND PUSH1 0xFF AND DUP2 PUSH1 0xFF AND LT ISZERO PUSH2 0x1664 JUMPI DUP5 PUSH1 0xA PUSH1 0x0 PUSH1 0x6 PUSH1 0x0 SWAP1 SLOAD SWAP1 PUSH2 0x100 EXP SWAP1 DIV PUSH1 0xFF AND PUSH1 0xFF AND PUSH1 0xFF AND DUP2 MSTORE PUSH1 0x20 ADD SWAP1 DUP2 MSTORE PUSH1 0x20 ADD PUSH1 0x0 KECCAK256 DUP2 SWAP1 SSTORE POP PUSH1 0x0 PUSH1 0x2 DUP8 PUSH2 0x1450 SWAP2 SWAP1 PUSH2 0x3238 JUMP JUMPDEST SUB PUSH2 0x14D9 JUMPI DUP5 SWAP4 POP PUSH1 0xD DUP2 PUSH1 0xFF AND PUSH1 0xA DUP2 LT PUSH2 0x146F JUMPI PUSH2 0x146E PUSH2 0x277E JUMP JUMPDEST JUMPDEST ADD SLOAD SWAP3 POP PUSH1 0xD DUP2 PUSH1 0xFF AND PUSH1 0xA DUP2 LT PUSH2 0x148A JUMPI PUSH2 0x1489 PUSH2 0x277E JUMP JUMPDEST JUMPDEST ADD SLOAD DUP9 DUP3 PUSH1 0xFF AND PUSH1 0xA DUP2 LT PUSH2 0x14A2 JUMPI PUSH2 0x14A1 PUSH2 0x277E JUMP JUMPDEST JUMPDEST PUSH1 0x20 MUL ADD DUP2 DUP2 MSTORE POP POP PUSH1 0x0 DUP8 DUP3 PUSH1 0xFF AND PUSH1 0xA DUP2 LT PUSH2 0x14C3 JUMPI PUSH2 0x14C2 PUSH2 0x277E JUMP JUMPDEST JUMPDEST PUSH1 0x20 MUL ADD SWAP1 PUSH1 0xFF AND SWAP1 DUP2 PUSH1 0xFF AND DUP2 MSTORE POP POP PUSH2 0x155B JUMP JUMPDEST PUSH1 0xA PUSH1 0x0 DUP3 PUSH1 0xFF AND PUSH1 0xFF AND DUP2 MSTORE PUSH1 0x20 ADD SWAP1 DUP2 MSTORE PUSH1 0x20 ADD PUSH1 0x0 KECCAK256 SLOAD SWAP4 POP DUP5 SWAP3 POP PUSH1 0xA PUSH1 0x0 DUP3 PUSH1 0xFF AND PUSH1 0xFF AND DUP2 MSTORE PUSH1 0x20 ADD SWAP1 DUP2 MSTORE PUSH1 0x20 ADD PUSH1 0x0 KECCAK256 SLOAD DUP9 DUP3 PUSH1 0xFF AND PUSH1 0xA DUP2 LT PUSH2 0x1528 JUMPI PUSH2 0x1527 PUSH2 0x277E JUMP JUMPDEST JUMPDEST PUSH1 0x20 MUL ADD DUP2 DUP2 MSTORE POP POP PUSH1 0x1 DUP8 DUP3 PUSH1 0xFF AND PUSH1 0xA DUP2 LT PUSH2 0x1549 JUMPI PUSH2 0x1548 PUSH2 0x277E JUMP JUMPDEST JUMPDEST PUSH1 0x20 MUL ADD SWAP1 PUSH1 0xFF AND SWAP1 DUP2 PUSH1 0xFF AND DUP2 MSTORE POP POP JUMPDEST DUP4 DUP3 PUSH1 0x0 PUSH1 0x2 DUP2 LT PUSH2 0x1570 JUMPI PUSH2 0x156F PUSH2 0x277E JUMP JUMPDEST JUMPDEST PUSH1 0x20 MUL ADD DUP2 DUP2 MSTORE POP POP DUP3 DUP3 PUSH1 0x1 PUSH1 0x2 DUP2 LT PUSH2 0x158E JUMPI PUSH2 0x158D PUSH2 0x277E JUMP JUMPDEST JUMPDEST PUSH1 0x20 MUL ADD DUP2 DUP2 MSTORE POP POP PUSH1 0x0 PUSH1 0x1 PUSH1 0x0 SWAP1 SLOAD SWAP1 PUSH2 0x100 EXP SWAP1 DIV PUSH20 0xFFFFFFFFFFFFFFFFFFFFFFFFFFFFFFFFFFFFFFFF AND PUSH20 0xFFFFFFFFFFFFFFFFFFFFFFFFFFFFFFFFFFFFFFFF AND PUSH4 0xD622E5A4 PUSH3 0x249F0 DUP6 DUP15 PUSH1 0x40 MLOAD DUP5 PUSH4 0xFFFFFFFF AND PUSH1 0xE0 SHL DUP2 MSTORE PUSH1 0x4 ADD PUSH2 0x15FA SWAP3 SWAP2 SWAP1 PUSH2 0x32ED JUMP JUMPDEST PUSH1 0x20 PUSH1 0x40 MLOAD DUP1 DUP4 SUB DUP2 DUP8 DUP7 STATICCALL ISZERO DUP1 ISZERO PUSH2 0x1617 JUMPI RETURNDATASIZE PUSH1 0x0 DUP1 RETURNDATACOPY RETURNDATASIZE PUSH1 0x0 REVERT JUMPDEST POP POP POP POP POP PUSH1 0x40 MLOAD RETURNDATASIZE PUSH1 0x1F NOT PUSH1 0x1F DUP3 ADD AND DUP3 ADD DUP1 PUSH1 0x40 MSTORE POP DUP2 ADD SWAP1 PUSH2 0x163C SWAP2 SWAP1 PUSH2 0x2D75 JUMP JUMPDEST SWAP1 POP DUP1 SWAP6 POP PUSH1 0x2 DUP8 PUSH2 0x164E SWAP2 SWAP1 PUSH2 0x3316 JUMP JUMPDEST SWAP7 POP POP DUP1 DUP1 PUSH2 0x165C SWAP1 PUSH2 0x3347 JUMP JUMPDEST SWAP2 POP POP PUSH2 0x13F7 JUMP JUMPDEST POP DUP4 SWAP8 POP PUSH1 0x1 PUSH1 0x9 PUSH1 0x0 DUP11 DUP2 MSTORE PUSH1 0x20 ADD SWAP1 DUP2 MSTORE PUSH1 0x20 ADD PUSH1 0x0 KECCAK256 PUSH1 0x0 PUSH2 0x100 EXP DUP2 SLOAD DUP2 PUSH1 0xFF MUL NOT AND SWAP1 DUP4 ISZERO ISZERO MUL OR SWAP1 SSTORE POP PUSH1 0x1 PUSH1 0x7 PUSH1 0x0 DUP3 DUP3 SLOAD PUSH2 0x16A7 SWAP2 SWAP1 PUSH2 0x2848 JUMP JUMPDEST SWAP3 POP POP DUP2 SWAP1 SSTORE POP PUSH1 0x1 PUSH1 0xC PUSH1 0x0 DUP12 DUP2 MSTORE PUSH1 0x20 ADD SWAP1 DUP2 MSTORE PUSH1 0x20 ADD PUSH1 0x0 KECCAK256 PUSH1 0x0 PUSH2 0x100 EXP DUP2 SLOAD DUP2 PUSH1 0xFF MUL NOT AND SWAP1 DUP4 ISZERO ISZERO MUL OR SWAP1 SSTORE POP DUP10 PUSH1 0x4 PUSH1 0x0 DUP3 DUP3 SLOAD PUSH2 0x16EC SWAP2 SWAP1 PUSH2 0x2848 JUMP JUMPDEST SWAP3 POP POP DUP2 SWAP1 SSTORE POP PUSH1 0x5 PUSH1 0x0 DUP2 SLOAD DUP1 SWAP3 SWAP2 SWAP1 PUSH2 0x1706 SWAP1 PUSH2 0x3370 JUMP JUMPDEST SWAP2 SWAP1 POP SSTORE POP DUP8 PUSH32 0x839AEF75338D2A3413D910305B67D28E181DA1837C548C3A2B2EF147F33B008A DUP9 DUP9 DUP14 PUSH1 0x40 MLOAD PUSH2 0x173F SWAP4 SWAP3 SWAP2 SWAP1 PUSH2 0x34E7 JUMP JUMPDEST PUSH1 0x40 MLOAD DUP1 SWAP2 SUB SWAP1 LOG2 POP POP POP POP POP POP POP POP POP POP JUMP JUMPDEST PUSH1 0x1 PUSH1 0x0 SWAP1 SLOAD SWAP1 PUSH2 0x100 EXP SWAP1 DIV PUSH20 0xFFFFFFFFFFFFFFFFFFFFFFFFFFFFFFFFFFFFFFFF AND DUP2 JUMP JUMPDEST PUSH1 0x0 PUSH32 0x52C63247E1F47DB19D5CE0460030C497F067CA4CEBF71BA98EEADABE20BACE00 SWAP1 POP SWAP1 JUMP JUMPDEST PUSH1 0x0 CALLER SWAP1 POP SWAP1 JUMP JUMPDEST PUSH2 0x17B6 DUP4 DUP4 DUP4 PUSH1 0x1 PUSH2 0x1A44 JUMP JUMPDEST POP POP POP JUMP JUMPDEST PUSH1 0x0 PUSH2 0x17C7 DUP5 DUP5 PUSH2 0xDCB JUMP JUMPDEST SWAP1 POP PUSH32 0xFFFFFFFFFFFFFFFFFFFFFFFFFFFFFFFFFFFFFFFFFFFFFFFFFFFFFFFFFFFFFFFF DUP2 EQ PUSH2 0x1849 JUMPI DUP2 DUP2 LT ISZERO PUSH2 0x1839 JUMPI DUP3 DUP2 DUP4 PUSH1 0x40 MLOAD PUSH32 0xFB8F41B200000000000000000000000000000000000000000000000000000000 DUP2 MSTORE PUSH1 0x4 ADD PUSH2 0x1830 SWAP4 SWAP3 SWAP2 SWAP1 PUSH2 0x3521 JUMP JUMPDEST PUSH1 0x40 MLOAD DUP1 SWAP2 SUB SWAP1 REVERT JUMPDEST PUSH2 0x1848 DUP5 DUP5 DUP5 DUP5 SUB PUSH1 0x0 PUSH2 0x1A44 JUMP JUMPDEST JUMPDEST POP POP POP POP JUMP JUMPDEST PUSH1 0x0 PUSH20 0xFFFFFFFFFFFFFFFFFFFFFFFFFFFFFFFFFFFFFFFF AND DUP4 PUSH20 0xFFFFFFFFFFFFFFFFFFFFFFFFFFFFFFFFFFFFFFFF AND SUB PUSH2 0x18C1 JUMPI PUSH1 0x0 PUSH1 0x40 MLOAD PUSH32 0x96C6FD1E00000000000000000000000000000000000000000000000000000000 DUP2 MSTORE PUSH1 0x4 ADD PUSH2 0x18B8 SWAP2 SWAP1 PUSH2 0x2319 JUMP JUMPDEST PUSH1 0x40 MLOAD DUP1 SWAP2 SUB SWAP1 REVERT JUMPDEST PUSH1 0x0 PUSH20 0xFFFFFFFFFFFFFFFFFFFFFFFFFFFFFFFFFFFFFFFF AND DUP3 PUSH20 0xFFFFFFFFFFFFFFFFFFFFFFFFFFFFFFFFFFFFFFFF AND SUB PUSH2 0x1933 JUMPI PUSH1 0x0 PUSH1 0x40 MLOAD PUSH32 0xEC442F0500000000000000000000000000000000000000000000000000000000 DUP2 MSTORE PUSH1 0x4 ADD PUSH2 0x192A SWAP2 SWAP1 PUSH2 0x2319 JUMP JUMPDEST PUSH1 0x40 MLOAD DUP1 SWAP2 SUB SWAP1 REVERT JUMPDEST PUSH2 0x193E DUP4 DUP4 DUP4 PUSH2 0x1C2A JUMP JUMPDEST POP POP POP JUMP JUMPDEST PUSH2 0x19BD DUP4 DUP5 PUSH20 0xFFFFFFFFFFFFFFFFFFFFFFFFFFFFFFFFFFFFFFFF AND PUSH4 0xA9059CBB DUP6 DUP6 PUSH1 0x40 MLOAD PUSH1 0x24 ADD PUSH2 0x1976 SWAP3 SWAP2 SWAP1 PUSH2 0x30F9 JUMP JUMPDEST PUSH1 0x40 MLOAD PUSH1 0x20 DUP2 DUP4 SUB SUB DUP2 MSTORE SWAP1 PUSH1 0x40 MSTORE SWAP2 POP PUSH1 0xE0 SHL PUSH1 0x20 DUP3 ADD DUP1 MLOAD PUSH28 0xFFFFFFFFFFFFFFFFFFFFFFFFFFFFFFFFFFFFFFFFFFFFFFFFFFFFFFFF DUP4 DUP2 DUP4 AND OR DUP4 MSTORE POP POP POP POP PUSH2 0x1E69 JUMP JUMPDEST POP POP POP JUMP JUMPDEST PUSH2 0x1A3E DUP5 DUP6 PUSH20 0xFFFFFFFFFFFFFFFFFFFFFFFFFFFFFFFFFFFFFFFF AND PUSH4 0x23B872DD DUP7 DUP7 DUP7 PUSH1 0x40 MLOAD PUSH1 0x24 ADD PUSH2 0x19F7 SWAP4 SWAP3 SWAP2 SWAP1 PUSH2 0x3558 JUMP JUMPDEST PUSH1 0x40 MLOAD PUSH1 0x20 DUP2 DUP4 SUB SUB DUP2 MSTORE SWAP1 PUSH1 0x40 MSTORE SWAP2 POP PUSH1 0xE0 SHL PUSH1 0x20 DUP3 ADD DUP1 MLOAD PUSH28 0xFFFFFFFFFFFFFFFFFFFFFFFFFFFFFFFFFFFFFFFFFFFFFFFFFFFFFFFF DUP4 DUP2 DUP4 AND OR DUP4 MSTORE POP POP POP POP PUSH2 0x1E69 JUMP JUMPDEST POP POP POP POP JUMP JUMPDEST PUSH1 0x0 PUSH2 0x1A4E PUSH2 0x1779 JUMP JUMPDEST SWAP1 POP PUSH1 0x0 PUSH20 0xFFFFFFFFFFFFFFFFFFFFFFFFFFFFFFFFFFFFFFFF AND DUP6 PUSH20 0xFFFFFFFFFFFFFFFFFFFFFFFFFFFFFFFFFFFFFFFF AND SUB PUSH2 0x1AC2 JUMPI PUSH1 0x0 PUSH1 0x40 MLOAD PUSH32 0xE602DF0500000000000000000000000000000000000000000000000000000000 DUP2 MSTORE PUSH1 0x4 ADD PUSH2 0x1AB9 SWAP2 SWAP1 PUSH2 0x2319 JUMP JUMPDEST PUSH1 0x40 MLOAD DUP1 SWAP2 SUB SWAP1 REVERT JUMPDEST PUSH1 0x0 PUSH20 0xFFFFFFFFFFFFFFFFFFFFFFFFFFFFFFFFFFFFFFFF AND DUP5 PUSH20 0xFFFFFFFFFFFFFFFFFFFFFFFFFFFFFFFFFFFFFFFF AND SUB PUSH2 0x1B34 JUMPI PUSH1 0x0 PUSH1 0x40 MLOAD PUSH32 0x94280D6200000000000000000000000000000000000000000000000000000000 DUP2 MSTORE PUSH1 0x4 ADD PUSH2 0x1B2B SWAP2 SWAP1 PUSH2 0x2319 JUMP JUMPDEST PUSH1 0x40 MLOAD DUP1 SWAP2 SUB SWAP1 REVERT JUMPDEST DUP3 DUP2 PUSH1 0x1 ADD PUSH1 0x0 DUP8 PUSH20 0xFFFFFFFFFFFFFFFFFFFFFFFFFFFFFFFFFFFFFFFF AND PUSH20 0xFFFFFFFFFFFFFFFFFFFFFFFFFFFFFFFFFFFFFFFF AND DUP2 MSTORE PUSH1 0x20 ADD SWAP1 DUP2 MSTORE PUSH1 0x20 ADD PUSH1 0x0 KECCAK256 PUSH1 0x0 DUP7 PUSH20 0xFFFFFFFFFFFFFFFFFFFFFFFFFFFFFFFFFFFFFFFF AND PUSH20 0xFFFFFFFFFFFFFFFFFFFFFFFFFFFFFFFFFFFFFFFF AND DUP2 MSTORE PUSH1 0x20 ADD SWAP1 DUP2 MSTORE PUSH1 0x20 ADD PUSH1 0x0 KECCAK256 DUP2 SWAP1 SSTORE POP DUP2 ISZERO PUSH2 0x1C23 JUMPI DUP4 PUSH20 0xFFFFFFFFFFFFFFFFFFFFFFFFFFFFFFFFFFFFFFFF AND DUP6 PUSH20 0xFFFFFFFFFFFFFFFFFFFFFFFFFFFFFFFFFFFFFFFF AND PUSH32 0x8C5BE1E5EBEC7D5BD14F71427D1E84F3DD0314C0F7B2291E5B200AC8C7C3B925 DUP6 PUSH1 0x40 MLOAD PUSH2 0x1C1A SWAP2 SWAP1 PUSH2 0x2138 JUMP JUMPDEST PUSH1 0x40 MLOAD DUP1 SWAP2 SUB SWAP1 LOG3 JUMPDEST POP POP POP POP POP JUMP JUMPDEST PUSH1 0x0 PUSH2 0x1C34 PUSH2 0x1779 JUMP JUMPDEST SWAP1 POP PUSH1 0x0 PUSH20 0xFFFFFFFFFFFFFFFFFFFFFFFFFFFFFFFFFFFFFFFF AND DUP5 PUSH20 0xFFFFFFFFFFFFFFFFFFFFFFFFFFFFFFFFFFFFFFFF AND SUB PUSH2 0x1C8A JUMPI DUP2 DUP2 PUSH1 0x2 ADD PUSH1 0x0 DUP3 DUP3 SLOAD PUSH2 0x1C7E SWAP2 SWAP1 PUSH2 0x2848 JUMP JUMPDEST SWAP3 POP POP DUP2 SWAP1 SSTORE POP PUSH2 0x1D63 JUMP JUMPDEST PUSH1 0x0 DUP2 PUSH1 0x0 ADD PUSH1 0x0 DUP7 PUSH20 0xFFFFFFFFFFFFFFFFFFFFFFFFFFFFFFFFFFFFFFFF AND PUSH20 0xFFFFFFFFFFFFFFFFFFFFFFFFFFFFFFFFFFFFFFFF AND DUP2 MSTORE PUSH1 0x20 ADD SWAP1 DUP2 MSTORE PUSH1 0x20 ADD PUSH1 0x0 KECCAK256 SLOAD SWAP1 POP DUP3 DUP2 LT ISZERO PUSH2 0x1D19 JUMPI DUP5 DUP2 DUP5 PUSH1 0x40 MLOAD PUSH32 0xE450D38C00000000000000000000000000000000000000000000000000000000 DUP2 MSTORE PUSH1 0x4 ADD PUSH2 0x1D10 SWAP4 SWAP3 SWAP2 SWAP1 PUSH2 0x3521 JUMP JUMPDEST PUSH1 0x40 MLOAD DUP1 SWAP2 SUB SWAP1 REVERT JUMPDEST DUP3 DUP2 SUB DUP3 PUSH1 0x0 ADD PUSH1 0x0 DUP8 PUSH20 0xFFFFFFFFFFFFFFFFFFFFFFFFFFFFFFFFFFFFFFFF AND PUSH20 0xFFFFFFFFFFFFFFFFFFFFFFFFFFFFFFFFFFFFFFFF AND DUP2 MSTORE PUSH1 0x20 ADD SWAP1 DUP2 MSTORE PUSH1 0x20 ADD PUSH1 0x0 KECCAK256 DUP2 SWAP1 SSTORE POP POP JUMPDEST PUSH1 0x0 PUSH20 0xFFFFFFFFFFFFFFFFFFFFFFFFFFFFFFFFFFFFFFFF AND DUP4 PUSH20 0xFFFFFFFFFFFFFFFFFFFFFFFFFFFFFFFFFFFFFFFF AND SUB PUSH2 0x1DAE JUMPI DUP2 DUP2 PUSH1 0x2 ADD PUSH1 0x0 DUP3 DUP3 SLOAD SUB SWAP3 POP POP DUP2 SWAP1 SSTORE POP PUSH2 0x1DFE JUMP JUMPDEST DUP2 DUP2 PUSH1 0x0 ADD PUSH1 0x0 DUP6 PUSH20 0xFFFFFFFFFFFFFFFFFFFFFFFFFFFFFFFFFFFFFFFF AND PUSH20 0xFFFFFFFFFFFFFFFFFFFFFFFFFFFFFFFFFFFFFFFF AND DUP2 MSTORE PUSH1 0x20 ADD SWAP1 DUP2 MSTORE PUSH1 0x20 ADD PUSH1 0x0 KECCAK256 PUSH1 0x0 DUP3 DUP3 SLOAD ADD SWAP3 POP POP DUP2 SWAP1 SSTORE POP JUMPDEST DUP3 PUSH20 0xFFFFFFFFFFFFFFFFFFFFFFFFFFFFFFFFFFFFFFFF AND DUP5 PUSH20 0xFFFFFFFFFFFFFFFFFFFFFFFFFFFFFFFFFFFFFFFF AND PUSH32 0xDDF252AD1BE2C89B69C2B068FC378DAA952BA7F163C4A11628F55A4DF523B3EF DUP5 PUSH1 0x40 MLOAD PUSH2 0x1E5B SWAP2 SWAP1 PUSH2 0x2138 JUMP JUMPDEST PUSH1 0x40 MLOAD DUP1 SWAP2 SUB SWAP1 LOG3 POP POP POP POP JUMP JUMPDEST PUSH1 0x0 PUSH2 0x1E94 DUP3 DUP5 PUSH20 0xFFFFFFFFFFFFFFFFFFFFFFFFFFFFFFFFFFFFFFFF AND PUSH2 0x1F00 SWAP1 SWAP2 SWAP1 PUSH4 0xFFFFFFFF AND JUMP JUMPDEST SWAP1 POP PUSH1 0x0 DUP2 MLOAD EQ ISZERO DUP1 ISZERO PUSH2 0x1EB9 JUMPI POP DUP1 DUP1 PUSH1 0x20 ADD SWAP1 MLOAD DUP2 ADD SWAP1 PUSH2 0x1EB7 SWAP2 SWAP1 PUSH2 0x314E JUMP JUMPDEST ISZERO JUMPDEST ISZERO PUSH2 0x1EFB JUMPI DUP3 PUSH1 0x40 MLOAD PUSH32 0x5274AFE700000000000000000000000000000000000000000000000000000000 DUP2 MSTORE PUSH1 0x4 ADD PUSH2 0x1EF2 SWAP2 SWAP1 PUSH2 0x2319 JUMP JUMPDEST PUSH1 0x40 MLOAD DUP1 SWAP2 SUB SWAP1 REVERT JUMPDEST POP POP POP JUMP JUMPDEST PUSH1 0x60 PUSH2 0x1F0E DUP4 DUP4 PUSH1 0x0 PUSH2 0x1F16 JUMP JUMPDEST SWAP1 POP SWAP3 SWAP2 POP POP JUMP JUMPDEST PUSH1 0x60 DUP2 SELFBALANCE LT ISZERO PUSH2 0x1F5D JUMPI ADDRESS PUSH1 0x40 MLOAD PUSH32 0xCD78605900000000000000000000000000000000000000000000000000000000 DUP2 MSTORE PUSH1 0x4 ADD PUSH2 0x1F54 SWAP2 SWAP1 PUSH2 0x2319 JUMP JUMPDEST PUSH1 0x40 MLOAD DUP1 SWAP2 SUB SWAP1 REVERT JUMPDEST PUSH1 0x0 DUP1 DUP6 PUSH20 0xFFFFFFFFFFFFFFFFFFFFFFFFFFFFFFFFFFFFFFFF AND DUP5 DUP7 PUSH1 0x40 MLOAD PUSH2 0x1F86 SWAP2 SWAP1 PUSH2 0x2C3D JUMP JUMPDEST PUSH1 0x0 PUSH1 0x40 MLOAD DUP1 DUP4 SUB DUP2 DUP6 DUP8 GAS CALL SWAP3 POP POP POP RETURNDATASIZE DUP1 PUSH1 0x0 DUP2 EQ PUSH2 0x1FC3 JUMPI PUSH1 0x40 MLOAD SWAP2 POP PUSH1 0x1F NOT PUSH1 0x3F RETURNDATASIZE ADD AND DUP3 ADD PUSH1 0x40 MSTORE RETURNDATASIZE DUP3 MSTORE RETURNDATASIZE PUSH1 0x0 PUSH1 0x20 DUP5 ADD RETURNDATACOPY PUSH2 0x1FC8 JUMP JUMPDEST PUSH1 0x60 SWAP2 POP JUMPDEST POP SWAP2 POP SWAP2 POP PUSH2 0x1FD8 DUP7 DUP4 DUP4 PUSH2 0x1FE3 JUMP JUMPDEST SWAP3 POP POP POP SWAP4 SWAP3 POP POP POP JUMP JUMPDEST PUSH1 0x60 DUP3 PUSH2 0x1FF8 JUMPI PUSH2 0x1FF3 DUP3 PUSH2 0x2072 JUMP JUMPDEST PUSH2 0x206A JUMP JUMPDEST PUSH1 0x0 DUP3 MLOAD EQ DUP1 ISZERO PUSH2 0x2020 JUMPI POP PUSH1 0x0 DUP5 PUSH20 0xFFFFFFFFFFFFFFFFFFFFFFFFFFFFFFFFFFFFFFFF AND EXTCODESIZE EQ JUMPDEST ISZERO PUSH2 0x2062 JUMPI DUP4 PUSH1 0x40 MLOAD PUSH32 0x9996B31500000000000000000000000000000000000000000000000000000000 DUP2 MSTORE PUSH1 0x4 ADD PUSH2 0x2059 SWAP2 SWAP1 PUSH2 0x2319 JUMP JUMPDEST PUSH1 0x40 MLOAD DUP1 SWAP2 SUB SWAP1 REVERT JUMPDEST DUP2 SWAP1 POP PUSH2 0x206B JUMP JUMPDEST JUMPDEST SWAP4 SWAP3 POP POP POP JUMP JUMPDEST PUSH1 0x0 DUP2 MLOAD GT ISZERO PUSH2 0x2085 JUMPI DUP1 MLOAD DUP1 DUP3 PUSH1 0x20 ADD REVERT JUMPDEST PUSH1 0x40 MLOAD PUSH32 0x1425EA4200000000000000000000000000000000000000000000000000000000 DUP2 MSTORE PUSH1 0x4 ADD PUSH1 0x40 MLOAD DUP1 SWAP2 SUB SWAP1 REVERT JUMPDEST PUSH1 0x40 MLOAD DUP1 PUSH2 0x140 ADD PUSH1 0x40 MSTORE DUP1 PUSH1 0xA SWAP1 PUSH1 0x20 DUP3 MUL DUP1 CALLDATASIZE DUP4 CALLDATACOPY DUP1 DUP3 ADD SWAP2 POP POP SWAP1 POP POP SWAP1 JUMP JUMPDEST PUSH1 0x40 MLOAD DUP1 PUSH2 0x140 ADD PUSH1 0x40 MSTORE DUP1 PUSH1 0xA SWAP1 PUSH1 0x20 DUP3 MUL DUP1 CALLDATASIZE DUP4 CALLDATACOPY DUP1 DUP3 ADD SWAP2 POP POP SWAP1 POP POP SWAP1 JUMP JUMPDEST PUSH1 0x40 MLOAD DUP1 PUSH1 0x40 ADD PUSH1 0x40 MSTORE DUP1 PUSH1 0x2 SWAP1 PUSH1 0x20 DUP3 MUL DUP1 CALLDATASIZE DUP4 CALLDATACOPY DUP1 DUP3 ADD SWAP2 POP POP SWAP1 POP POP SWAP1 JUMP JUMPDEST PUSH1 0x0 DUP2 SWAP1 POP SWAP2 SWAP1 POP JUMP JUMPDEST PUSH2 0x2132 DUP2 PUSH2 0x211F JUMP JUMPDEST DUP3 MSTORE POP POP JUMP JUMPDEST PUSH1 0x0 PUSH1 0x20 DUP3 ADD SWAP1 POP PUSH2 0x214D PUSH1 0x0 DUP4 ADD DUP5 PUSH2 0x2129 JUMP JUMPDEST SWAP3 SWAP2 POP POP JUMP JUMPDEST PUSH1 0x0 DUP2 MLOAD SWAP1 POP SWAP2 SWAP1 POP JUMP JUMPDEST PUSH1 0x0 DUP3 DUP3 MSTORE PUSH1 0x20 DUP3 ADD SWAP1 POP SWAP3 SWAP2 POP POP JUMP JUMPDEST PUSH1 0x0 JUMPDEST DUP4 DUP2 LT ISZERO PUSH2 0x218D JUMPI DUP1 DUP3 ADD MLOAD DUP2 DUP5 ADD MSTORE PUSH1 0x20 DUP2 ADD SWAP1 POP PUSH2 0x2172 JUMP JUMPDEST PUSH1 0x0 DUP5 DUP5 ADD MSTORE POP POP POP POP JUMP JUMPDEST PUSH1 0x0 PUSH1 0x1F NOT PUSH1 0x1F DUP4 ADD AND SWAP1 POP SWAP2 SWAP1 POP JUMP JUMPDEST PUSH1 0x0 PUSH2 0x21B5 DUP3 PUSH2 0x2153 JUMP JUMPDEST PUSH2 0x21BF DUP2 DUP6 PUSH2 0x215E JUMP JUMPDEST SWAP4 POP PUSH2 0x21CF DUP2 DUP6 PUSH1 0x20 DUP7 ADD PUSH2 0x216F JUMP JUMPDEST PUSH2 0x21D8 DUP2 PUSH2 0x2199 JUMP JUMPDEST DUP5 ADD SWAP2 POP POP SWAP3 SWAP2 POP POP JUMP JUMPDEST PUSH1 0x0 PUSH1 0x20 DUP3 ADD SWAP1 POP DUP2 DUP2 SUB PUSH1 0x0 DUP4 ADD MSTORE PUSH2 0x21FD DUP2 DUP5 PUSH2 0x21AA JUMP JUMPDEST SWAP1 POP SWAP3 SWAP2 POP POP JUMP JUMPDEST PUSH1 0x0 DUP1 REVERT JUMPDEST PUSH1 0x0 PUSH20 0xFFFFFFFFFFFFFFFFFFFFFFFFFFFFFFFFFFFFFFFF DUP3 AND SWAP1 POP SWAP2 SWAP1 POP JUMP JUMPDEST PUSH1 0x0 PUSH2 0x2235 DUP3 PUSH2 0x220A JUMP JUMPDEST SWAP1 POP SWAP2 SWAP1 POP JUMP JUMPDEST PUSH2 0x2245 DUP2 PUSH2 0x222A JUMP JUMPDEST DUP2 EQ PUSH2 0x2250 JUMPI PUSH1 0x0 DUP1 REVERT JUMPDEST POP JUMP JUMPDEST PUSH1 0x0 DUP2 CALLDATALOAD SWAP1 POP PUSH2 0x2262 DUP2 PUSH2 0x223C JUMP JUMPDEST SWAP3 SWAP2 POP POP JUMP JUMPDEST PUSH2 0x2271 DUP2 PUSH2 0x211F JUMP JUMPDEST DUP2 EQ PUSH2 0x227C JUMPI PUSH1 0x0 DUP1 REVERT JUMPDEST POP JUMP JUMPDEST PUSH1 0x0 DUP2 CALLDATALOAD SWAP1 POP PUSH2 0x228E DUP2 PUSH2 0x2268 JUMP JUMPDEST SWAP3 SWAP2 POP POP JUMP JUMPDEST PUSH1 0x0 DUP1 PUSH1 0x40 DUP4 DUP6 SUB SLT ISZERO PUSH2 0x22AB JUMPI PUSH2 0x22AA PUSH2 0x2205 JUMP JUMPDEST JUMPDEST PUSH1 0x0 PUSH2 0x22B9 DUP6 DUP3 DUP7 ADD PUSH2 0x2253 JUMP JUMPDEST SWAP3 POP POP PUSH1 0x20 PUSH2 0x22CA DUP6 DUP3 DUP7 ADD PUSH2 0x227F JUMP JUMPDEST SWAP2 POP POP SWAP3 POP SWAP3 SWAP1 POP JUMP JUMPDEST PUSH1 0x0 DUP2 ISZERO ISZERO SWAP1 POP SWAP2 SWAP1 POP JUMP JUMPDEST PUSH2 0x22E9 DUP2 PUSH2 0x22D4 JUMP JUMPDEST DUP3 MSTORE POP POP JUMP JUMPDEST PUSH1 0x0 PUSH1 0x20 DUP3 ADD SWAP1 POP PUSH2 0x2304 PUSH1 0x0 DUP4 ADD DUP5 PUSH2 0x22E0 JUMP JUMPDEST SWAP3 SWAP2 POP POP JUMP JUMPDEST PUSH2 0x2313 DUP2 PUSH2 0x222A JUMP JUMPDEST DUP3 MSTORE POP POP JUMP JUMPDEST PUSH1 0x0 PUSH1 0x20 DUP3 ADD SWAP1 POP PUSH2 0x232E PUSH1 0x0 DUP4 ADD DUP5 PUSH2 0x230A JUMP JUMPDEST SWAP3 SWAP2 POP POP JUMP JUMPDEST PUSH1 0x0 DUP1 PUSH1 0x0 PUSH1 0x60 DUP5 DUP7 SUB SLT ISZERO PUSH2 0x234D JUMPI PUSH2 0x234C PUSH2 0x2205 JUMP JUMPDEST JUMPDEST PUSH1 0x0 PUSH2 0x235B DUP7 DUP3 DUP8 ADD PUSH2 0x2253 JUMP JUMPDEST SWAP4 POP POP PUSH1 0x20 PUSH2 0x236C DUP7 DUP3 DUP8 ADD PUSH2 0x2253 JUMP JUMPDEST SWAP3 POP POP PUSH1 0x40 PUSH2 0x237D DUP7 DUP3 DUP8 ADD PUSH2 0x227F JUMP JUMPDEST SWAP2 POP POP SWAP3 POP SWAP3 POP SWAP3 JUMP JUMPDEST PUSH1 0x0 PUSH1 0xFF DUP3 AND SWAP1 POP SWAP2 SWAP1 POP JUMP JUMPDEST PUSH2 0x239D DUP2 PUSH2 0x2387 JUMP JUMPDEST DUP3 MSTORE POP POP JUMP JUMPDEST PUSH1 0x0 PUSH1 0x20 DUP3 ADD SWAP1 POP PUSH2 0x23B8 PUSH1 0x0 DUP4 ADD DUP5 PUSH2 0x2394 JUMP JUMPDEST SWAP3 SWAP2 POP POP JUMP JUMPDEST PUSH1 0x0 PUSH1 0x20 DUP3 DUP5 SUB SLT ISZERO PUSH2 0x23D4 JUMPI PUSH2 0x23D3 PUSH2 0x2205 JUMP JUMPDEST JUMPDEST PUSH1 0x0 PUSH2 0x23E2 DUP5 DUP3 DUP6 ADD PUSH2 0x227F JUMP JUMPDEST SWAP2 POP POP SWAP3 SWAP2 POP POP JUMP JUMPDEST PUSH1 0x0 DUP1 REVERT JUMPDEST PUSH1 0x0 DUP2 SWAP1 POP DUP3 PUSH1 0x20 PUSH1 0x2 MUL DUP3 ADD GT ISZERO PUSH2 0x240C JUMPI PUSH2 0x240B PUSH2 0x23EB JUMP JUMPDEST JUMPDEST SWAP3 SWAP2 POP POP JUMP JUMPDEST PUSH1 0x0 DUP2 SWAP1 POP DUP3 PUSH1 0x40 PUSH1 0x2 MUL DUP3 ADD GT ISZERO PUSH2 0x242E JUMPI PUSH2 0x242D PUSH2 0x23EB JUMP JUMPDEST JUMPDEST SWAP3 SWAP2 POP POP JUMP JUMPDEST PUSH1 0x0 DUP1 PUSH1 0x0 DUP1 PUSH1 0x0 PUSH2 0x160 DUP7 DUP9 SUB SLT ISZERO PUSH2 0x2451 JUMPI PUSH2 0x2450 PUSH2 0x2205 JUMP JUMPDEST JUMPDEST PUSH1 0x0 PUSH2 0x245F DUP9 DUP3 DUP10 ADD PUSH2 0x227F JUMP JUMPDEST SWAP6 POP POP PUSH1 0x20 PUSH2 0x2470 DUP9 DUP3 DUP10 ADD PUSH2 0x23F0 JUMP JUMPDEST SWAP5 POP POP PUSH1 0x60 PUSH2 0x2481 DUP9 DUP3 DUP10 ADD PUSH2 0x2412 JUMP JUMPDEST SWAP4 POP POP PUSH1 0xE0 PUSH2 0x2492 DUP9 DUP3 DUP10 ADD PUSH2 0x23F0 JUMP JUMPDEST SWAP3 POP POP PUSH2 0x120 PUSH2 0x24A4 DUP9 DUP3 DUP10 ADD PUSH2 0x23F0 JUMP JUMPDEST SWAP2 POP POP SWAP3 SWAP6 POP SWAP3 SWAP6 SWAP1 SWAP4 POP JUMP JUMPDEST PUSH1 0x0 PUSH1 0x20 DUP3 DUP5 SUB SLT ISZERO PUSH2 0x24C7 JUMPI PUSH2 0x24C6 PUSH2 0x2205 JUMP JUMPDEST JUMPDEST PUSH1 0x0 PUSH2 0x24D5 DUP5 DUP3 DUP6 ADD PUSH2 0x2253 JUMP JUMPDEST SWAP2 POP POP SWAP3 SWAP2 POP POP JUMP JUMPDEST PUSH1 0x0 DUP2 SWAP1 POP SWAP2 SWAP1 POP JUMP JUMPDEST PUSH1 0x0 PUSH2 0x2503 PUSH2 0x24FE PUSH2 0x24F9 DUP5 PUSH2 0x220A JUMP JUMPDEST PUSH2 0x24DE JUMP JUMPDEST PUSH2 0x220A JUMP JUMPDEST SWAP1 POP SWAP2 SWAP1 POP JUMP JUMPDEST PUSH1 0x0 PUSH2 0x2515 DUP3 PUSH2 0x24E8 JUMP JUMPDEST SWAP1 POP SWAP2 SWAP1 POP JUMP JUMPDEST PUSH1 0x0 PUSH2 0x2527 DUP3 PUSH2 0x250A JUMP JUMPDEST SWAP1 POP SWAP2 SWAP1 POP JUMP JUMPDEST PUSH2 0x2537 DUP2 PUSH2 0x251C JUMP JUMPDEST DUP3 MSTORE POP POP JUMP JUMPDEST PUSH1 0x0 PUSH1 0x20 DUP3 ADD SWAP1 POP PUSH2 0x2552 PUSH1 0x0 DUP4 ADD DUP5 PUSH2 0x252E JUMP JUMPDEST SWAP3 SWAP2 POP POP JUMP JUMPDEST PUSH1 0x0 PUSH1 0x80 DUP3 ADD SWAP1 POP PUSH2 0x256D PUSH1 0x0 DUP4 ADD DUP8 PUSH2 0x230A JUMP JUMPDEST PUSH2 0x257A PUSH1 0x20 DUP4 ADD DUP7 PUSH2 0x2129 JUMP JUMPDEST PUSH2 0x2587 PUSH1 0x40 DUP4 ADD DUP6 PUSH2 0x2129 JUMP JUMPDEST PUSH2 0x2594 PUSH1 0x60 DUP4 ADD DUP5 PUSH2 0x22E0 JUMP JUMPDEST SWAP6 SWAP5 POP POP POP POP POP JUMP JUMPDEST PUSH2 0x25A6 DUP2 PUSH2 0x2387 JUMP JUMPDEST DUP2 EQ PUSH2 0x25B1 JUMPI PUSH1 0x0 DUP1 REVERT JUMPDEST POP JUMP JUMPDEST PUSH1 0x0 DUP2 CALLDATALOAD SWAP1 POP PUSH2 0x25C3 DUP2 PUSH2 0x259D JUMP JUMPDEST SWAP3 SWAP2 POP POP JUMP JUMPDEST PUSH1 0x0 PUSH1 0x20 DUP3 DUP5 SUB SLT ISZERO PUSH2 0x25DF JUMPI PUSH2 0x25DE PUSH2 0x2205 JUMP JUMPDEST JUMPDEST PUSH1 0x0 PUSH2 0x25ED DUP5 DUP3 DUP6 ADD PUSH2 0x25B4 JUMP JUMPDEST SWAP2 POP POP SWAP3 SWAP2 POP POP JUMP JUMPDEST PUSH1 0x0 DUP1 PUSH1 0x40 DUP4 DUP6 SUB SLT ISZERO PUSH2 0x260D JUMPI PUSH2 0x260C PUSH2 0x2205 JUMP JUMPDEST JUMPDEST PUSH1 0x0 PUSH2 0x261B DUP6 DUP3 DUP7 ADD PUSH2 0x2253 JUMP JUMPDEST SWAP3 POP POP PUSH1 0x20 PUSH2 0x262C DUP6 DUP3 DUP7 ADD PUSH2 0x2253 JUMP JUMPDEST SWAP2 POP POP SWAP3 POP SWAP3 SWAP1 POP JUMP JUMPDEST PUSH1 0x0 DUP1 PUSH1 0x40 DUP4 DUP6 SUB SLT ISZERO PUSH2 0x264D JUMPI PUSH2 0x264C PUSH2 0x2205 JUMP JUMPDEST JUMPDEST PUSH1 0x0 PUSH2 0x265B DUP6 DUP3 DUP7 ADD PUSH2 0x227F JUMP JUMPDEST SWAP3 POP POP PUSH1 0x20 PUSH2 0x266C DUP6 DUP3 DUP7 ADD PUSH2 0x227F JUMP JUMPDEST SWAP2 POP POP SWAP3 POP SWAP3 SWAP1 POP JUMP JUMPDEST PUSH1 0x0 PUSH2 0x2681 DUP3 PUSH2 0x250A JUMP JUMPDEST SWAP1 POP SWAP2 SWAP1 POP JUMP JUMPDEST PUSH2 0x2691 DUP2 PUSH2 0x2676 JUMP JUMPDEST DUP3 MSTORE POP POP JUMP JUMPDEST PUSH1 0x0 PUSH1 0x20 DUP3 ADD SWAP1 POP PUSH2 0x26AC PUSH1 0x0 DUP4 ADD DUP5 PUSH2 0x2688 JUMP JUMPDEST SWAP3 SWAP2 POP POP JUMP JUMPDEST PUSH32 0x4E487B7100000000000000000000000000000000000000000000000000000000 PUSH1 0x0 MSTORE PUSH1 0x22 PUSH1 0x4 MSTORE PUSH1 0x24 PUSH1 0x0 REVERT JUMPDEST PUSH1 0x0 PUSH1 0x2 DUP3 DIV SWAP1 POP PUSH1 0x1 DUP3 AND DUP1 PUSH2 0x26F9 JUMPI PUSH1 0x7F DUP3 AND SWAP2 POP JUMPDEST PUSH1 0x20 DUP3 LT DUP2 SUB PUSH2 0x270C JUMPI PUSH2 0x270B PUSH2 0x26B2 JUMP JUMPDEST JUMPDEST POP SWAP2 SWAP1 POP JUMP JUMPDEST PUSH32 0x496E76616C696420696400000000000000000000000000000000000000000000 PUSH1 0x0 DUP3 ADD MSTORE POP JUMP JUMPDEST PUSH1 0x0 PUSH2 0x2748 PUSH1 0xA DUP4 PUSH2 0x215E JUMP JUMPDEST SWAP2 POP PUSH2 0x2753 DUP3 PUSH2 0x2712 JUMP JUMPDEST PUSH1 0x20 DUP3 ADD SWAP1 POP SWAP2 SWAP1 POP JUMP JUMPDEST PUSH1 0x0 PUSH1 0x20 DUP3 ADD SWAP1 POP DUP2 DUP2 SUB PUSH1 0x0 DUP4 ADD MSTORE PUSH2 0x2777 DUP2 PUSH2 0x273B JUMP JUMPDEST SWAP1 POP SWAP2 SWAP1 POP JUMP JUMPDEST PUSH32 0x4E487B7100000000000000000000000000000000000000000000000000000000 PUSH1 0x0 MSTORE PUSH1 0x32 PUSH1 0x4 MSTORE PUSH1 0x24 PUSH1 0x0 REVERT JUMPDEST PUSH32 0x4F6E6C79206F776E65722063616E2072656465656D0000000000000000000000 PUSH1 0x0 DUP3 ADD MSTORE POP JUMP JUMPDEST PUSH1 0x0 PUSH2 0x27E3 PUSH1 0x15 DUP4 PUSH2 0x215E JUMP JUMPDEST SWAP2 POP PUSH2 0x27EE DUP3 PUSH2 0x27AD JUMP JUMPDEST PUSH1 0x20 DUP3 ADD SWAP1 POP SWAP2 SWAP1 POP JUMP JUMPDEST PUSH1 0x0 PUSH1 0x20 DUP3 ADD SWAP1 POP DUP2 DUP2 SUB PUSH1 0x0 DUP4 ADD MSTORE PUSH2 0x2812 DUP2 PUSH2 0x27D6 JUMP JUMPDEST SWAP1 POP SWAP2 SWAP1 POP JUMP JUMPDEST PUSH32 0x4E487B7100000000000000000000000000000000000000000000000000000000 PUSH1 0x0 MSTORE PUSH1 0x11 PUSH1 0x4 MSTORE PUSH1 0x24 PUSH1 0x0 REVERT JUMPDEST PUSH1 0x0 PUSH2 0x2853 DUP3 PUSH2 0x211F JUMP JUMPDEST SWAP2 POP PUSH2 0x285E DUP4 PUSH2 0x211F JUMP JUMPDEST SWAP3 POP DUP3 DUP3 ADD SWAP1 POP DUP1 DUP3 GT ISZERO PUSH2 0x2876 JUMPI PUSH2 0x2875 PUSH2 0x2819 JUMP JUMPDEST JUMPDEST SWAP3 SWAP2 POP POP JUMP JUMPDEST PUSH32 0x5374696C6C20696E206C6F636B20706572696F64000000000000000000000000 PUSH1 0x0 DUP3 ADD MSTORE POP JUMP JUMPDEST PUSH1 0x0 PUSH2 0x28B2 PUSH1 0x14 DUP4 PUSH2 0x215E JUMP JUMPDEST SWAP2 POP PUSH2 0x28BD DUP3 PUSH2 0x287C JUMP JUMPDEST PUSH1 0x20 DUP3 ADD SWAP1 POP SWAP2 SWAP1 POP JUMP JUMPDEST PUSH1 0x0 PUSH1 0x20 DUP3 ADD SWAP1 POP DUP2 DUP2 SUB PUSH1 0x0 DUP4 ADD MSTORE PUSH2 0x28E1 DUP2 PUSH2 0x28A5 JUMP JUMPDEST SWAP1 POP SWAP2 SWAP1 POP JUMP JUMPDEST PUSH32 0x4E6F742076616C69640000000000000000000000000000000000000000000000 PUSH1 0x0 DUP3 ADD MSTORE POP JUMP JUMPDEST PUSH1 0x0 PUSH2 0x291E PUSH1 0x9 DUP4 PUSH2 0x215E JUMP JUMPDEST SWAP2 POP PUSH2 0x2929 DUP3 PUSH2 0x28E8 JUMP JUMPDEST PUSH1 0x20 DUP3 ADD SWAP1 POP SWAP2 SWAP1 POP JUMP JUMPDEST PUSH1 0x0 PUSH1 0x20 DUP3 ADD SWAP1 POP DUP2 DUP2 SUB PUSH1 0x0 DUP4 ADD MSTORE PUSH2 0x294D DUP2 PUSH2 0x2911 JUMP JUMPDEST SWAP1 POP SWAP2 SWAP1 POP JUMP JUMPDEST PUSH32 0x616C7265616479207370656E7400000000000000000000000000000000000000 PUSH1 0x0 DUP3 ADD MSTORE POP JUMP JUMPDEST PUSH1 0x0 PUSH2 0x298A PUSH1 0xD DUP4 PUSH2 0x215E JUMP JUMPDEST SWAP2 POP PUSH2 0x2995 DUP3 PUSH2 0x2954 JUMP JUMPDEST PUSH1 0x20 DUP3 ADD SWAP1 POP SWAP2 SWAP1 POP JUMP JUMPDEST PUSH1 0x0 PUSH1 0x20 DUP3 ADD SWAP1 POP DUP2 DUP2 SUB PUSH1 0x0 DUP4 ADD MSTORE PUSH2 0x29B9 DUP2 PUSH2 0x297D JUMP JUMPDEST SWAP1 POP SWAP2 SWAP1 POP JUMP JUMPDEST PUSH32 0x6E6F7420726F6F74000000000000000000000000000000000000000000000000 PUSH1 0x0 DUP3 ADD MSTORE POP JUMP JUMPDEST PUSH1 0x0 PUSH2 0x29F6 PUSH1 0x8 DUP4 PUSH2 0x215E JUMP JUMPDEST SWAP2 POP PUSH2 0x2A01 DUP3 PUSH2 0x29C0 JUMP JUMPDEST PUSH1 0x20 DUP3 ADD SWAP1 POP SWAP2 SWAP1 POP JUMP JUMPDEST PUSH1 0x0 PUSH1 0x20 DUP3 ADD SWAP1 POP DUP2 DUP2 SUB PUSH1 0x0 DUP4 ADD MSTORE PUSH2 0x2A25 DUP2 PUSH2 0x29E9 JUMP JUMPDEST SWAP1 POP SWAP2 SWAP1 POP JUMP JUMPDEST DUP3 DUP2 DUP4 CALLDATACOPY POP POP POP JUMP JUMPDEST PUSH2 0x2A41 PUSH1 0x40 DUP4 DUP4 PUSH2 0x2A2C JUMP JUMPDEST POP POP JUMP JUMPDEST PUSH1 0x0 PUSH1 0x2 SWAP1 POP SWAP2 SWAP1 POP JUMP JUMPDEST PUSH1 0x0 DUP2 SWAP1 POP SWAP3 SWAP2 POP POP JUMP JUMPDEST PUSH1 0x0 DUP2 SWAP1 POP SWAP2 SWAP1 POP JUMP JUMPDEST PUSH2 0x2A71 PUSH1 0x40 DUP4 DUP4 PUSH2 0x2A2C JUMP JUMPDEST POP POP JUMP JUMPDEST PUSH1 0x0 PUSH2 0x2A81 DUP4 DUP4 PUSH2 0x2A65 JUMP JUMPDEST PUSH1 0x40 DUP4 ADD SWAP1 POP SWAP3 SWAP2 POP POP JUMP JUMPDEST PUSH1 0x0 DUP3 SWAP1 POP SWAP3 SWAP2 POP POP JUMP JUMPDEST PUSH1 0x0 PUSH1 0x40 DUP3 ADD SWAP1 POP SWAP2 SWAP1 POP JUMP JUMPDEST PUSH2 0x2AAE DUP2 PUSH2 0x2A45 JUMP JUMPDEST PUSH2 0x2AB8 DUP2 DUP5 PUSH2 0x2A50 JUMP JUMPDEST SWAP3 POP PUSH2 0x2AC3 DUP3 PUSH2 0x2A5B JUMP JUMPDEST DUP1 PUSH1 0x0 JUMPDEST DUP4 DUP2 LT ISZERO PUSH2 0x2AFC JUMPI PUSH2 0x2AD9 DUP3 DUP5 PUSH2 0x2A8D JUMP JUMPDEST PUSH2 0x2AE3 DUP8 DUP3 PUSH2 0x2A75 JUMP JUMPDEST SWAP7 POP PUSH2 0x2AEE DUP4 PUSH2 0x2A98 JUMP JUMPDEST SWAP3 POP POP PUSH1 0x1 DUP2 ADD SWAP1 POP PUSH2 0x2AC7 JUMP JUMPDEST POP POP POP POP POP POP JUMP JUMPDEST PUSH1 0x0 PUSH1 0x3 SWAP1 POP SWAP2 SWAP1 POP JUMP JUMPDEST PUSH1 0x0 DUP2 SWAP1 POP SWAP3 SWAP2 POP POP JUMP JUMPDEST PUSH1 0x0 DUP2 SWAP1 POP SWAP2 SWAP1 POP JUMP JUMPDEST PUSH2 0x2B2D DUP2 PUSH2 0x211F JUMP JUMPDEST DUP3 MSTORE POP POP JUMP JUMPDEST PUSH1 0x0 PUSH2 0x2B3F DUP4 DUP4 PUSH2 0x2B24 JUMP JUMPDEST PUSH1 0x20 DUP4 ADD SWAP1 POP SWAP3 SWAP2 POP POP JUMP JUMPDEST PUSH1 0x0 PUSH1 0x20 DUP3 ADD SWAP1 POP SWAP2 SWAP1 POP JUMP JUMPDEST PUSH2 0x2B61 DUP2 PUSH2 0x2B04 JUMP JUMPDEST PUSH2 0x2B6B DUP2 DUP5 PUSH2 0x2B0F JUMP JUMPDEST SWAP3 POP PUSH2 0x2B76 DUP3 PUSH2 0x2B1A JUMP JUMPDEST DUP1 PUSH1 0x0 JUMPDEST DUP4 DUP2 LT ISZERO PUSH2 0x2BA7 JUMPI DUP2 MLOAD PUSH2 0x2B8E DUP8 DUP3 PUSH2 0x2B33 JUMP JUMPDEST SWAP7 POP PUSH2 0x2B99 DUP4 PUSH2 0x2B4B JUMP JUMPDEST SWAP3 POP POP PUSH1 0x1 DUP2 ADD SWAP1 POP PUSH2 0x2B7A JUMP JUMPDEST POP POP POP POP POP POP JUMP JUMPDEST PUSH1 0x0 PUSH2 0x160 DUP3 ADD SWAP1 POP PUSH2 0x2BC5 PUSH1 0x0 DUP4 ADD DUP8 PUSH2 0x2A35 JUMP JUMPDEST PUSH2 0x2BD2 PUSH1 0x40 DUP4 ADD DUP7 PUSH2 0x2AA5 JUMP JUMPDEST PUSH2 0x2BDF PUSH1 0xC0 DUP4 ADD DUP6 PUSH2 0x2A35 JUMP JUMPDEST PUSH2 0x2BED PUSH2 0x100 DUP4 ADD DUP5 PUSH2 0x2B58 JUMP JUMPDEST SWAP6 SWAP5 POP POP POP POP POP JUMP JUMPDEST PUSH1 0x0 DUP2 MLOAD SWAP1 POP SWAP2 SWAP1 POP JUMP JUMPDEST PUSH1 0x0 DUP2 SWAP1 POP SWAP3 SWAP2 POP POP JUMP JUMPDEST PUSH1 0x0 PUSH2 0x2C17 DUP3 PUSH2 0x2BF6 JUMP JUMPDEST PUSH2 0x2C21 DUP2 DUP6 PUSH2 0x2C01 JUMP JUMPDEST SWAP4 POP PUSH2 0x2C31 DUP2 DUP6 PUSH1 0x20 DUP7 ADD PUSH2 0x216F JUMP JUMPDEST DUP1 DUP5 ADD SWAP2 POP POP SWAP3 SWAP2 POP POP JUMP JUMPDEST PUSH1 0x0 PUSH2 0x2C49 DUP3 DUP5 PUSH2 0x2C0C JUMP JUMPDEST SWAP2 POP DUP2 SWAP1 POP SWAP3 SWAP2 POP POP JUMP JUMPDEST PUSH32 0x696E76616C69642070726F6F6600000000000000000000000000000000000000 PUSH1 0x0 DUP3 ADD MSTORE POP JUMP JUMPDEST PUSH1 0x0 PUSH2 0x2C8A PUSH1 0xD DUP4 PUSH2 0x215E JUMP JUMPDEST SWAP2 POP PUSH2 0x2C95 DUP3 PUSH2 0x2C54 JUMP JUMPDEST PUSH1 0x20 DUP3 ADD SWAP1 POP SWAP2 SWAP1 POP JUMP JUMPDEST PUSH1 0x0 PUSH1 0x20 DUP3 ADD SWAP1 POP DUP2 DUP2 SUB PUSH1 0x0 DUP4 ADD MSTORE PUSH2 0x2CB9 DUP2 PUSH2 0x2C7D JUMP JUMPDEST SWAP1 POP SWAP2 SWAP1 POP JUMP JUMPDEST PUSH1 0x0 PUSH2 0x2CCB DUP3 PUSH2 0x211F JUMP JUMPDEST SWAP2 POP PUSH2 0x2CD6 DUP4 PUSH2 0x211F JUMP JUMPDEST SWAP3 POP DUP3 DUP3 SUB SWAP1 POP DUP2 DUP2 GT ISZERO PUSH2 0x2CEE JUMPI PUSH2 0x2CED PUSH2 0x2819 JUMP JUMPDEST JUMPDEST SWAP3 SWAP2 POP POP JUMP JUMPDEST PUSH32 0x43616E6E6F74206465706F736974207A65726F20746F6B656E73000000000000 PUSH1 0x0 DUP3 ADD MSTORE POP JUMP JUMPDEST PUSH1 0x0 PUSH2 0x2D2A PUSH1 0x1A DUP4 PUSH2 0x215E JUMP JUMPDEST SWAP2 POP PUSH2 0x2D35 DUP3 PUSH2 0x2CF4 JUMP JUMPDEST PUSH1 0x20 DUP3 ADD SWAP1 POP SWAP2 SWAP1 POP JUMP JUMPDEST PUSH1 0x0 PUSH1 0x20 DUP3 ADD SWAP1 POP DUP2 DUP2 SUB PUSH1 0x0 DUP4 ADD MSTORE PUSH2 0x2D59 DUP2 PUSH2 0x2D1D JUMP JUMPDEST SWAP1 POP SWAP2 SWAP1 POP JUMP JUMPDEST PUSH1 0x0 DUP2 MLOAD SWAP1 POP PUSH2 0x2D6F DUP2 PUSH2 0x2268 JUMP JUMPDEST SWAP3 SWAP2 POP POP JUMP JUMPDEST PUSH1 0x0 PUSH1 0x20 DUP3 DUP5 SUB SLT ISZERO PUSH2 0x2D8B JUMPI PUSH2 0x2D8A PUSH2 0x2205 JUMP JUMPDEST JUMPDEST PUSH1 0x0 PUSH2 0x2D99 DUP5 DUP3 DUP6 ADD PUSH2 0x2D60 JUMP JUMPDEST SWAP2 POP POP SWAP3 SWAP2 POP POP JUMP JUMPDEST PUSH32 0x496E73756666696369656E742062616C616E6365000000000000000000000000 PUSH1 0x0 DUP3 ADD MSTORE POP JUMP JUMPDEST PUSH1 0x0 PUSH2 0x2DD8 PUSH1 0x14 DUP4 PUSH2 0x215E JUMP JUMPDEST SWAP2 POP PUSH2 0x2DE3 DUP3 PUSH2 0x2DA2 JUMP JUMPDEST PUSH1 0x20 DUP3 ADD SWAP1 POP SWAP2 SWAP1 POP JUMP JUMPDEST PUSH1 0x0 PUSH1 0x20 DUP3 ADD SWAP1 POP DUP2 DUP2 SUB PUSH1 0x0 DUP4 ADD MSTORE PUSH2 0x2E07 DUP2 PUSH2 0x2DCB JUMP JUMPDEST SWAP1 POP SWAP2 SWAP1 POP JUMP JUMPDEST PUSH1 0x0 PUSH1 0x40 DUP3 ADD SWAP1 POP PUSH2 0x2E23 PUSH1 0x0 DUP4 ADD DUP6 PUSH2 0x230A JUMP JUMPDEST PUSH2 0x2E30 PUSH1 0x20 DUP4 ADD DUP5 PUSH2 0x230A JUMP JUMPDEST SWAP4 SWAP3 POP POP POP JUMP JUMPDEST PUSH32 0x496E73756666696369656E7420616C6C6F77616E636500000000000000000000 PUSH1 0x0 DUP3 ADD MSTORE POP JUMP JUMPDEST PUSH1 0x0 PUSH2 0x2E6D PUSH1 0x16 DUP4 PUSH2 0x215E JUMP JUMPDEST SWAP2 POP PUSH2 0x2E78 DUP3 PUSH2 0x2E37 JUMP JUMPDEST PUSH1 0x20 DUP3 ADD SWAP1 POP SWAP2 SWAP1 POP JUMP JUMPDEST PUSH1 0x0 PUSH1 0x20 DUP3 ADD SWAP1 POP DUP2 DUP2 SUB PUSH1 0x0 DUP4 ADD MSTORE PUSH2 0x2E9C DUP2 PUSH2 0x2E60 JUMP JUMPDEST SWAP1 POP SWAP2 SWAP1 POP JUMP JUMPDEST PUSH32 0x6475706C696361746520636F6D6D69746D656E74206861736800000000000000 PUSH1 0x0 DUP3 ADD MSTORE POP JUMP JUMPDEST PUSH1 0x0 PUSH2 0x2ED9 PUSH1 0x19 DUP4 PUSH2 0x215E JUMP JUMPDEST SWAP2 POP PUSH2 0x2EE4 DUP3 PUSH2 0x2EA3 JUMP JUMPDEST PUSH1 0x20 DUP3 ADD SWAP1 POP SWAP2 SWAP1 POP JUMP JUMPDEST PUSH1 0x0 PUSH1 0x20 DUP3 ADD SWAP1 POP DUP2 DUP2 SUB PUSH1 0x0 DUP4 ADD MSTORE PUSH2 0x2F08 DUP2 PUSH2 0x2ECC JUMP JUMPDEST SWAP1 POP SWAP2 SWAP1 POP JUMP JUMPDEST PUSH1 0x0 DUP2 PUSH1 0x1 SHR SWAP1 POP SWAP2 SWAP1 POP JUMP JUMPDEST PUSH1 0x0 DUP1 DUP3 SWAP2 POP DUP4 SWAP1 POP JUMPDEST PUSH1 0x1 DUP6 GT ISZERO PUSH2 0x2F66 JUMPI DUP1 DUP7 DIV DUP2 GT ISZERO PUSH2 0x2F42 JUMPI PUSH2 0x2F41 PUSH2 0x2819 JUMP JUMPDEST JUMPDEST PUSH1 0x1 DUP6 AND ISZERO PUSH2 0x2F51 JUMPI DUP1 DUP3 MUL SWAP2 POP JUMPDEST DUP1 DUP2 MUL SWAP1 POP PUSH2 0x2F5F DUP6 PUSH2 0x2F0F JUMP JUMPDEST SWAP5 POP PUSH2 0x2F26 JUMP JUMPDEST SWAP5 POP SWAP5 SWAP3 POP POP POP JUMP JUMPDEST PUSH1 0x0 DUP3 PUSH2 0x2F7F JUMPI PUSH1 0x1 SWAP1 POP PUSH2 0x303B JUMP JUMPDEST DUP2 PUSH2 0x2F8D JUMPI PUSH1 0x0 SWAP1 POP PUSH2 0x303B JUMP JUMPDEST DUP2 PUSH1 0x1 DUP2 EQ PUSH2 0x2FA3 JUMPI PUSH1 0x2 DUP2 EQ PUSH2 0x2FAD JUMPI PUSH2 0x2FDC JUMP JUMPDEST PUSH1 0x1 SWAP2 POP POP PUSH2 0x303B JUMP JUMPDEST PUSH1 0xFF DUP5 GT ISZERO PUSH2 0x2FBF JUMPI PUSH2 0x2FBE PUSH2 0x2819 JUMP JUMPDEST JUMPDEST DUP4 PUSH1 0x2 EXP SWAP2 POP DUP5 DUP3 GT ISZERO PUSH2 0x2FD6 JUMPI PUSH2 0x2FD5 PUSH2 0x2819 JUMP JUMPDEST JUMPDEST POP PUSH2 0x303B JUMP JUMPDEST POP PUSH1 0x20 DUP4 LT PUSH2 0x133 DUP4 LT AND PUSH1 0x4E DUP5 LT PUSH1 0xB DUP5 LT AND OR ISZERO PUSH2 0x3011 JUMPI DUP3 DUP3 EXP SWAP1 POP DUP4 DUP2 GT ISZERO PUSH2 0x300C JUMPI PUSH2 0x300B PUSH2 0x2819 JUMP JUMPDEST JUMPDEST PUSH2 0x303B JUMP JUMPDEST PUSH2 0x301E DUP5 DUP5 DUP5 PUSH1 0x1 PUSH2 0x2F1C JUMP JUMPDEST SWAP3 POP SWAP1 POP DUP2 DUP5 DIV DUP2 GT ISZERO PUSH2 0x3035 JUMPI PUSH2 0x3034 PUSH2 0x2819 JUMP JUMPDEST JUMPDEST DUP2 DUP2 MUL SWAP1 POP JUMPDEST SWAP4 SWAP3 POP POP POP JUMP JUMPDEST PUSH1 0x0 PUSH2 0x304D DUP3 PUSH2 0x211F JUMP JUMPDEST SWAP2 POP PUSH2 0x3058 DUP4 PUSH2 0x2387 JUMP JUMPDEST SWAP3 POP PUSH2 0x3085 PUSH32 0xFFFFFFFFFFFFFFFFFFFFFFFFFFFFFFFFFFFFFFFFFFFFFFFFFFFFFFFFFFFFFFFF DUP5 DUP5 PUSH2 0x2F6F JUMP JUMPDEST SWAP1 POP SWAP3 SWAP2 POP POP JUMP JUMPDEST PUSH32 0x747265652066756C6C0000000000000000000000000000000000000000000000 PUSH1 0x0 DUP3 ADD MSTORE POP JUMP JUMPDEST PUSH1 0x0 PUSH2 0x30C3 PUSH1 0x9 DUP4 PUSH2 0x215E JUMP JUMPDEST SWAP2 POP PUSH2 0x30CE DUP3 PUSH2 0x308D JUMP JUMPDEST PUSH1 0x20 DUP3 ADD SWAP1 POP SWAP2 SWAP1 POP JUMP JUMPDEST PUSH1 0x0 PUSH1 0x20 DUP3 ADD SWAP1 POP DUP2 DUP2 SUB PUSH1 0x0 DUP4 ADD MSTORE PUSH2 0x30F2 DUP2 PUSH2 0x30B6 JUMP JUMPDEST SWAP1 POP SWAP2 SWAP1 POP JUMP JUMPDEST PUSH1 0x0 PUSH1 0x40 DUP3 ADD SWAP1 POP PUSH2 0x310E PUSH1 0x0 DUP4 ADD DUP6 PUSH2 0x230A JUMP JUMPDEST PUSH2 0x311B PUSH1 0x20 DUP4 ADD DUP5 PUSH2 0x2129 JUMP JUMPDEST SWAP4 SWAP3 POP POP POP JUMP JUMPDEST PUSH2 0x312B DUP2 PUSH2 0x22D4 JUMP JUMPDEST DUP2 EQ PUSH2 0x3136 JUMPI PUSH1 0x0 DUP1 REVERT JUMPDEST POP JUMP JUMPDEST PUSH1 0x0 DUP2 MLOAD SWAP1 POP PUSH2 0x3148 DUP2 PUSH2 0x3122 JUMP JUMPDEST SWAP3 SWAP2 POP POP JUMP JUMPDEST PUSH1 0x0 PUSH1 0x20 DUP3 DUP5 SUB SLT ISZERO PUSH2 0x3164 JUMPI PUSH2 0x3163 PUSH2 0x2205 JUMP JUMPDEST JUMPDEST PUSH1 0x0 PUSH2 0x3172 DUP5 DUP3 DUP6 ADD PUSH2 0x3139 JUMP JUMPDEST SWAP2 POP POP SWAP3 SWAP2 POP POP JUMP JUMPDEST PUSH1 0x0 DUP2 SWAP1 POP SWAP2 SWAP1 POP JUMP JUMPDEST PUSH1 0x0 PUSH2 0xFFFF DUP3 AND SWAP1 POP SWAP2 SWAP1 POP JUMP JUMPDEST PUSH1 0x0 PUSH2 0x31AE PUSH2 0x31A9 PUSH2 0x31A4 DUP5 PUSH2 0x317B JUMP JUMPDEST PUSH2 0x24DE JUMP JUMPDEST PUSH2 0x3185 JUMP JUMPDEST SWAP1 POP SWAP2 SWAP1 POP JUMP JUMPDEST PUSH2 0x31BE DUP2 PUSH2 0x3193 JUMP JUMPDEST DUP3 MSTORE POP POP JUMP JUMPDEST PUSH1 0x0 PUSH1 0x80 DUP3 ADD SWAP1 POP PUSH2 0x31D9 PUSH1 0x0 DUP4 ADD DUP8 PUSH2 0x230A JUMP JUMPDEST PUSH2 0x31E6 PUSH1 0x20 DUP4 ADD DUP7 PUSH2 0x2129 JUMP JUMPDEST PUSH2 0x31F3 PUSH1 0x40 DUP4 ADD DUP6 PUSH2 0x230A JUMP JUMPDEST PUSH2 0x3200 PUSH1 0x60 DUP4 ADD DUP5 PUSH2 0x31B5 JUMP JUMPDEST SWAP6 SWAP5 POP POP POP POP POP JUMP JUMPDEST PUSH32 0x4E487B7100000000000000000000000000000000000000000000000000000000 PUSH1 0x0 MSTORE PUSH1 0x12 PUSH1 0x4 MSTORE PUSH1 0x24 PUSH1 0x0 REVERT JUMPDEST PUSH1 0x0 PUSH2 0x3243 DUP3 PUSH2 0x211F JUMP JUMPDEST SWAP2 POP PUSH2 0x324E DUP4 PUSH2 0x211F JUMP JUMPDEST SWAP3 POP DUP3 PUSH2 0x325E JUMPI PUSH2 0x325D PUSH2 0x3209 JUMP JUMPDEST JUMPDEST DUP3 DUP3 MOD SWAP1 POP SWAP3 SWAP2 POP POP JUMP JUMPDEST PUSH1 0x0 PUSH1 0x2 SWAP1 POP SWAP2 SWAP1 POP JUMP JUMPDEST PUSH1 0x0 DUP2 SWAP1 POP SWAP3 SWAP2 POP POP JUMP JUMPDEST PUSH1 0x0 DUP2 SWAP1 POP SWAP2 SWAP1 POP JUMP JUMPDEST PUSH1 0x0 PUSH1 0x20 DUP3 ADD SWAP1 POP SWAP2 SWAP1 POP JUMP JUMPDEST PUSH2 0x329F DUP2 PUSH2 0x3269 JUMP JUMPDEST PUSH2 0x32A9 DUP2 DUP5 PUSH2 0x3274 JUMP JUMPDEST SWAP3 POP PUSH2 0x32B4 DUP3 PUSH2 0x327F JUMP JUMPDEST DUP1 PUSH1 0x0 JUMPDEST DUP4 DUP2 LT ISZERO PUSH2 0x32E5 JUMPI DUP2 MLOAD PUSH2 0x32CC DUP8 DUP3 PUSH2 0x2B33 JUMP JUMPDEST SWAP7 POP PUSH2 0x32D7 DUP4 PUSH2 0x3289 JUMP JUMPDEST SWAP3 POP POP PUSH1 0x1 DUP2 ADD SWAP1 POP PUSH2 0x32B8 JUMP JUMPDEST POP POP POP POP POP POP JUMP JUMPDEST PUSH1 0x0 PUSH1 0x60 DUP3 ADD SWAP1 POP PUSH2 0x3302 PUSH1 0x0 DUP4 ADD DUP6 PUSH2 0x3296 JUMP JUMPDEST PUSH2 0x330F PUSH1 0x40 DUP4 ADD DUP5 PUSH2 0x2129 JUMP JUMPDEST SWAP4 SWAP3 POP POP POP JUMP JUMPDEST PUSH1 0x0 PUSH2 0x3321 DUP3 PUSH2 0x211F JUMP JUMPDEST SWAP2 POP PUSH2 0x332C DUP4 PUSH2 0x211F JUMP JUMPDEST SWAP3 POP DUP3 PUSH2 0x333C JUMPI PUSH2 0x333B PUSH2 0x3209 JUMP JUMPDEST JUMPDEST DUP3 DUP3 DIV SWAP1 POP SWAP3 SWAP2 POP POP JUMP JUMPDEST PUSH1 0x0 PUSH2 0x3352 DUP3 PUSH2 0x2387 JUMP JUMPDEST SWAP2 POP PUSH1 0xFF DUP3 SUB PUSH2 0x3365 JUMPI PUSH2 0x3364 PUSH2 0x2819 JUMP JUMPDEST JUMPDEST PUSH1 0x1 DUP3 ADD SWAP1 POP SWAP2 SWAP1 POP JUMP JUMPDEST PUSH1 0x0 PUSH2 0x337B DUP3 PUSH2 0x211F JUMP JUMPDEST SWAP2 POP PUSH32 0xFFFFFFFFFFFFFFFFFFFFFFFFFFFFFFFFFFFFFFFFFFFFFFFFFFFFFFFFFFFFFFFF DUP3 SUB PUSH2 0x33AD JUMPI PUSH2 0x33AC PUSH2 0x2819 JUMP JUMPDEST JUMPDEST PUSH1 0x1 DUP3 ADD SWAP1 POP SWAP2 SWAP1 POP JUMP JUMPDEST PUSH1 0x0 PUSH1 0xA SWAP1 POP SWAP2 SWAP1 POP JUMP JUMPDEST PUSH1 0x0 DUP2 SWAP1 POP SWAP3 SWAP2 POP POP JUMP JUMPDEST PUSH1 0x0 DUP2 SWAP1 POP SWAP2 SWAP1 POP JUMP JUMPDEST PUSH1 0x0 PUSH1 0x20 DUP3 ADD SWAP1 POP SWAP2 SWAP1 POP JUMP JUMPDEST PUSH2 0x33EE DUP2 PUSH2 0x33B8 JUMP JUMPDEST PUSH2 0x33F8 DUP2 DUP5 PUSH2 0x33C3 JUMP JUMPDEST SWAP3 POP PUSH2 0x3403 DUP3 PUSH2 0x33CE JUMP JUMPDEST DUP1 PUSH1 0x0 JUMPDEST DUP4 DUP2 LT ISZERO PUSH2 0x3434 JUMPI DUP2 MLOAD PUSH2 0x341B DUP8 DUP3 PUSH2 0x2B33 JUMP JUMPDEST SWAP7 POP PUSH2 0x3426 DUP4 PUSH2 0x33D8 JUMP JUMPDEST SWAP3 POP POP PUSH1 0x1 DUP2 ADD SWAP1 POP PUSH2 0x3407 JUMP JUMPDEST POP POP POP POP POP POP JUMP JUMPDEST PUSH1 0x0 PUSH1 0xA SWAP1 POP SWAP2 SWAP1 POP JUMP JUMPDEST PUSH1 0x0 DUP2 SWAP1 POP SWAP3 SWAP2 POP POP JUMP JUMPDEST PUSH1 0x0 DUP2 SWAP1 POP SWAP2 SWAP1 POP JUMP JUMPDEST PUSH2 0x3465 DUP2 PUSH2 0x2387 JUMP JUMPDEST DUP3 MSTORE POP POP JUMP JUMPDEST PUSH1 0x0 PUSH2 0x3477 DUP4 DUP4 PUSH2 0x345C JUMP JUMPDEST PUSH1 0x20 DUP4 ADD SWAP1 POP SWAP3 SWAP2 POP POP JUMP JUMPDEST PUSH1 0x0 PUSH1 0x20 DUP3 ADD SWAP1 POP SWAP2 SWAP1 POP JUMP JUMPDEST PUSH2 0x3499 DUP2 PUSH2 0x343C JUMP JUMPDEST PUSH2 0x34A3 DUP2 DUP5 PUSH2 0x3447 JUMP JUMPDEST SWAP3 POP PUSH2 0x34AE DUP3 PUSH2 0x3452 JUMP JUMPDEST DUP1 PUSH1 0x0 JUMPDEST DUP4 DUP2 LT ISZERO PUSH2 0x34DF JUMPI DUP2 MLOAD PUSH2 0x34C6 DUP8 DUP3 PUSH2 0x346B JUMP JUMPDEST SWAP7 POP PUSH2 0x34D1 DUP4 PUSH2 0x3483 JUMP JUMPDEST SWAP3 POP POP PUSH1 0x1 DUP2 ADD SWAP1 POP PUSH2 0x34B2 JUMP JUMPDEST POP POP POP POP POP POP JUMP JUMPDEST PUSH1 0x0 PUSH2 0x2A0 DUP3 ADD SWAP1 POP PUSH2 0x34FD PUSH1 0x0 DUP4 ADD DUP7 PUSH2 0x33E5 JUMP JUMPDEST PUSH2 0x350B PUSH2 0x140 DUP4 ADD DUP6 PUSH2 0x3490 JUMP JUMPDEST PUSH2 0x3519 PUSH2 0x280 DUP4 ADD DUP5 PUSH2 0x2129 JUMP JUMPDEST SWAP5 SWAP4 POP POP POP POP JUMP JUMPDEST PUSH1 0x0 PUSH1 0x60 DUP3 ADD SWAP1 POP PUSH2 0x3536 PUSH1 0x0 DUP4 ADD DUP7 PUSH2 0x230A JUMP JUMPDEST PUSH2 0x3543 PUSH1 0x20 DUP4 ADD DUP6 PUSH2 0x2129 JUMP JUMPDEST PUSH2 0x3550 PUSH1 0x40 DUP4 ADD DUP5 PUSH2 0x2129 JUMP JUMPDEST SWAP5 SWAP4 POP POP POP POP JUMP JUMPDEST PUSH1 0x0 PUSH1 0x60 DUP3 ADD SWAP1 POP PUSH2 0x356D PUSH1 0x0 DUP4 ADD DUP7 PUSH2 0x230A JUMP JUMPDEST PUSH2 0x357A PUSH1 0x20 DUP4 ADD DUP6 PUSH2 0x230A JUMP JUMPDEST PUSH2 0x3587 PUSH1 0x40 DUP4 ADD DUP5 PUSH2 0x2129 JUMP JUMPDEST SWAP5 SWAP4 POP POP POP POP JUMP INVALID LOG2 PUSH5 0x6970667358 0x22 SLT KECCAK256 PUSH0 AND DUP15 0xDA PUSH20 0xF6246730F28FB451B9F33A22CA4D62104C388506 PUSH16 0x20B7471CDB3C64736F6C634300081400 CALLER "},"methodIdentifiers":{"LOCK_PERIOD()":"1820cabb","aavePool()":"a03e4bc3","allowance(address,address)":"dd62ed3e","approve(address,uint256)":"095ea7b3","balanceOf(address)":"70a08231","commitments(uint256)":"49ce8997","decimals()":"313ce567","deposit(uint256,uint256)":"e2bbb158","hasher()":"ed33639f","lastLevelHash(uint8)":"d5400047","name()":"06fdde03","nextLeafIdex()":"06683e4b","nullifierHashs(uint256)":"7b5758b1","roots(uint256)":"c2b40ae4","symbol()":"95d89b41","timelockId()":"4056ff1b","timelockToken(uint256)":"cee9e428","totalStaked()":"817b1cd2","totalSupply()":"18160ddd","transfer(address,uint256)":"a9059cbb","transferFrom(address,address,uint256)":"23b872dd","treeLevel()":"b8e79564","usdcToken()":"11eac855","verifier()":"2b7ac3f3","withdraw(uint256,uint256[2],uint256[2][2],uint256[2],uint256[2])":"6fece60b"}}}}}