{"contracts/Verifier.sol":{"Groth16Verifier":{"abi":[{"inputs":[{"internalType":"uint256[2]","name":"_pA","type":"uint256[2]"},{"internalType":"uint256[2][2]","name":"_pB","type":"uint256[2][2]"},{"internalType":"uint256[2]","name":"_pC","type":"uint256[2]"},{"internalType":"uint256[3]","name":"_pubSignals","type":"uint256[3]"}],"name":"verifyProof","outputs":[{"internalType":"bool","name":"","type":"bool"}],"stateMutability":"view","type":"function"}],"evm":{"bytecode":{"linkReferences":{},"object":"608060405234801561001057600080fd5b506106c8806100206000396000f3fe608060405234801561001057600080fd5b506004361061002b5760003560e01c806311479fea14610030575b600080fd5b61004a600480360381019061004591906105f3565b610060565b6040516100579190610677565b60405180910390f35b600061052d565b7f30644e72e131a029b85045b68181585d97816a916871ca8d3c208c16d87cfd478110610098576000805260206000f35b50565b600060405183815284602082015285604082015260408160608360076107d05a03fa9150816100ce576000805260206000f35b825160408201526020830151606082015260408360808360066107d05a03fa9150816100fe576000805260206000f35b505050505050565b600060808601600087017f0a73129894707446a27ef90f1ef4a0b6d701faa129e5c73c38cd2d912b76344881527f198bd93f27d10745fbfdcfbe01f7cf58fa01dd90d2424cb2dac99bd361f992e660208201526101a960008801357f17c48d170055c2297ae238b1f16b256db0e951c22471962a62c3811130cfdf7d7f1ab26eb83056c4e18a8e161874dc86a35c53b95e285a2e60a13224424164d0918461009b565b6101f960208801357f14a2f9138eed6bd93c2bdedd7371568938aa23cd0022ff44d0c1a8939036d4de7f27b60053a673446e16c58a1dba8d75ede502f46961b5d924bdfeaf1f254949408461009b565b61024960408801357f151295e8a34612f4810d4877af9ca66793ddc7e8cc936d32ec79f0db852167277f073cbeeb484ba643849b839c35834d696ee173936968e58bbdf44233fc3f536e8461009b565b833582527f30644e72e131a029b85045b68181585d97816a916871ca8d3c208c16d87cfd4760208501357f30644e72e131a029b85045b68181585d97816a916871ca8d3c208c16d87cfd4703066020830152843560408301526020850135606083015260408501356080830152606085013560a08301527f0e9367e5bfbc14c1cb115130368fd37c51ab49bf7694b33807d009315b6df49c60c08301527f20fb3b7bf78a9b8212f5bdbd49bcb0cd4347b4519fa37082244064b048d5cd9860e08301527f3031822b1b92f57343122d483a7faa87733eae00bd24c9aab98b57547a8f2af86101008301527f24ff63be2c20133e4011e4794bdfcff9fc8a2aad260e4b011e3abf7c9f853c456101208301527f2d01b7c359866f7ddaeb9157676b0019e75b9dd8d92a0569c87a40ab4bc1fc226101408301527f098c63bf01898960da6b18779fcb624da6fc9e3295ea71e5cd39f3949e3ea9e9610160830152600088015161018083015260206000018801516101a08301527f198e9393920d483a7260bfb731fb5d25f1aa493335a9e71297e485b7aef312c26101c08301527f1800deef121f1e76426a00665e5c4479674322d4f75edadd46debd5cd992f6ed6101e08301527f090689d0585ff075ec9e99ad690c3395bc4b313370b38ef355acdadcd122975b6102008301527f12c85ea5db8c6deb4aab71808dcb408fe3d1e7690c43d37b4ce6cc0166fa7daa610220830152853561024083015260208601356102608301527f15f53ec2de5e092a659c1f93ee02f65ce80b1a68b104dac279cb807f2896685f6102808301527f03f0951374c3af6c60c931892bb6b6fad79bd35ca260b742b2d845131df75fa96102a08301527f3015bc013d4b611881a0499338f3b04685fdedcd6a390dfc2ce7cb0a3835c0cd6102c08301527f1833b463d13ede4e5dc84e194af2c7e4c363d474f1b3809a559a68a2113f2cdb6102e08301526020826103008460086107d05a03fa82518116935050505095945050505050565b60405161038081016040526105456000840135610067565b6105526020840135610067565b61055f6040840135610067565b61056c6060840135610067565b610579818486888a610106565b8060005260206000f35b600080fd5b600080fd5b6000819050826020600202820111156105a9576105a8610588565b5b92915050565b6000819050826040600202820111156105cb576105ca610588565b5b92915050565b6000819050826020600302820111156105ed576105ec610588565b5b92915050565b600080600080610160858703121561060e5761060d610583565b5b600061061c8782880161058d565b945050604061062d878288016105af565b93505060c061063e8782880161058d565b925050610100610650878288016105d1565b91505092959194509250565b60008115159050919050565b6106718161065c565b82525050565b600060208201905061068c6000830184610668565b9291505056fea2646970667358221220bea3e92ec50ac8c796da45d4db2d183857addb662d3267e228353e5c57daa1c564736f6c63430008140033","opcodes":"PUSH1 0x80 PUSH1 0x40 MSTORE CALLVALUE DUP1 ISZERO PUSH2 0x10 JUMPI PUSH1 0x0 DUP1 REVERT JUMPDEST POP PUSH2 0x6C8 DUP1 PUSH2 0x20 PUSH1 0x0 CODECOPY PUSH1 0x0 RETURN INVALID PUSH1 0x80 PUSH1 0x40 MSTORE CALLVALUE DUP1 ISZERO PUSH2 0x10 JUMPI PUSH1 0x0 DUP1 REVERT JUMPDEST POP PUSH1 0x4 CALLDATASIZE LT PUSH2 0x2B JUMPI PUSH1 0x0 CALLDATALOAD PUSH1 0xE0 SHR DUP1 PUSH4 0x11479FEA EQ PUSH2 0x30 JUMPI JUMPDEST PUSH1 0x0 DUP1 REVERT JUMPDEST PUSH2 0x4A PUSH1 0x4 DUP1 CALLDATASIZE SUB DUP2 ADD SWAP1 PUSH2 0x45 SWAP2 SWAP1 PUSH2 0x5F3 JUMP JUMPDEST PUSH2 0x60 JUMP JUMPDEST PUSH1 0x40 MLOAD PUSH2 0x57 SWAP2 SWAP1 PUSH2 0x677 JUMP JUMPDEST PUSH1 0x40 MLOAD DUP1 SWAP2 SUB SWAP1 RETURN JUMPDEST PUSH1 0x0 PUSH2 0x52D JUMP JUMPDEST PUSH32 0x30644E72E131A029B85045B68181585D97816A916871CA8D3C208C16D87CFD47 DUP2 LT PUSH2 0x98 JUMPI PUSH1 0x0 DUP1 MSTORE PUSH1 0x20 PUSH1 0x0 RETURN JUMPDEST POP JUMP JUMPDEST PUSH1 0x0 PUSH1 0x40 MLOAD DUP4 DUP2 MSTORE DUP5 PUSH1 0x20 DUP3 ADD MSTORE DUP6 PUSH1 0x40 DUP3 ADD MSTORE PUSH1 0x40 DUP2 PUSH1 0x60 DUP4 PUSH1 0x7 PUSH2 0x7D0 GAS SUB STATICCALL SWAP2 POP DUP2 PUSH2 0xCE JUMPI PUSH1 0x0 DUP1 MSTORE PUSH1 0x20 PUSH1 0x0 RETURN JUMPDEST DUP3 MLOAD PUSH1 0x40 DUP3 ADD MSTORE PUSH1 0x20 DUP4 ADD MLOAD PUSH1 0x60 DUP3 ADD MSTORE PUSH1 0x40 DUP4 PUSH1 0x80 DUP4 PUSH1 0x6 PUSH2 0x7D0 GAS SUB STATICCALL SWAP2 POP DUP2 PUSH2 0xFE JUMPI PUSH1 0x0 DUP1 MSTORE PUSH1 0x20 PUSH1 0x0 RETURN JUMPDEST POP POP POP POP POP POP JUMP JUMPDEST PUSH1 0x0 PUSH1 0x80 DUP7 ADD PUSH1 0x0 DUP8 ADD PUSH32 0xA73129894707446A27EF90F1EF4A0B6D701FAA129E5C73C38CD2D912B763448 DUP2 MSTORE PUSH32 0x198BD93F27D10745FBFDCFBE01F7CF58FA01DD90D2424CB2DAC99BD361F992E6 PUSH1 0x20 DUP3 ADD MSTORE PUSH2 0x1A9 PUSH1 0x0 DUP9 ADD CALLDATALOAD PUSH32 0x17C48D170055C2297AE238B1F16B256DB0E951C22471962A62C3811130CFDF7D PUSH32 0x1AB26EB83056C4E18A8E161874DC86A35C53B95E285A2E60A13224424164D091 DUP5 PUSH2 0x9B JUMP JUMPDEST PUSH2 0x1F9 PUSH1 0x20 DUP9 ADD CALLDATALOAD PUSH32 0x14A2F9138EED6BD93C2BDEDD7371568938AA23CD0022FF44D0C1A8939036D4DE PUSH32 0x27B60053A673446E16C58A1DBA8D75EDE502F46961B5D924BDFEAF1F25494940 DUP5 PUSH2 0x9B JUMP JUMPDEST PUSH2 0x249 PUSH1 0x40 DUP9 ADD CALLDATALOAD PUSH32 0x151295E8A34612F4810D4877AF9CA66793DDC7E8CC936D32EC79F0DB85216727 PUSH32 0x73CBEEB484BA643849B839C35834D696EE173936968E58BBDF44233FC3F536E DUP5 PUSH2 0x9B JUMP JUMPDEST DUP4 CALLDATALOAD DUP3 MSTORE PUSH32 0x30644E72E131A029B85045B68181585D97816A916871CA8D3C208C16D87CFD47 PUSH1 0x20 DUP6 ADD CALLDATALOAD PUSH32 0x30644E72E131A029B85045B68181585D97816A916871CA8D3C208C16D87CFD47 SUB MOD PUSH1 0x20 DUP4 ADD MSTORE DUP5 CALLDATALOAD PUSH1 0x40 DUP4 ADD MSTORE PUSH1 0x20 DUP6 ADD CALLDATALOAD PUSH1 0x60 DUP4 ADD MSTORE PUSH1 0x40 DUP6 ADD CALLDATALOAD PUSH1 0x80 DUP4 ADD MSTORE PUSH1 0x60 DUP6 ADD CALLDATALOAD PUSH1 0xA0 DUP4 ADD MSTORE PUSH32 0xE9367E5BFBC14C1CB115130368FD37C51AB49BF7694B33807D009315B6DF49C PUSH1 0xC0 DUP4 ADD MSTORE PUSH32 0x20FB3B7BF78A9B8212F5BDBD49BCB0CD4347B4519FA37082244064B048D5CD98 PUSH1 0xE0 DUP4 ADD MSTORE PUSH32 0x3031822B1B92F57343122D483A7FAA87733EAE00BD24C9AAB98B57547A8F2AF8 PUSH2 0x100 DUP4 ADD MSTORE PUSH32 0x24FF63BE2C20133E4011E4794BDFCFF9FC8A2AAD260E4B011E3ABF7C9F853C45 PUSH2 0x120 DUP4 ADD MSTORE PUSH32 0x2D01B7C359866F7DDAEB9157676B0019E75B9DD8D92A0569C87A40AB4BC1FC22 PUSH2 0x140 DUP4 ADD MSTORE PUSH32 0x98C63BF01898960DA6B18779FCB624DA6FC9E3295EA71E5CD39F3949E3EA9E9 PUSH2 0x160 DUP4 ADD MSTORE PUSH1 0x0 DUP9 ADD MLOAD PUSH2 0x180 DUP4 ADD MSTORE PUSH1 0x20 PUSH1 0x0 ADD DUP9 ADD MLOAD PUSH2 0x1A0 DUP4 ADD MSTORE PUSH32 0x198E9393920D483A7260BFB731FB5D25F1AA493335A9E71297E485B7AEF312C2 PUSH2 0x1C0 DUP4 ADD MSTORE PUSH32 0x1800DEEF121F1E76426A00665E5C4479674322D4F75EDADD46DEBD5CD992F6ED PUSH2 0x1E0 DUP4 ADD MSTORE PUSH32 0x90689D0585FF075EC9E99AD690C3395BC4B313370B38EF355ACDADCD122975B PUSH2 0x200 DUP4 ADD MSTORE PUSH32 0x12C85EA5DB8C6DEB4AAB71808DCB408FE3D1E7690C43D37B4CE6CC0166FA7DAA PUSH2 0x220 DUP4 ADD MSTORE DUP6 CALLDATALOAD PUSH2 0x240 DUP4 ADD MSTORE PUSH1 0x20 DUP7 ADD CALLDATALOAD PUSH2 0x260 DUP4 ADD MSTORE PUSH32 0x15F53EC2DE5E092A659C1F93EE02F65CE80B1A68B104DAC279CB807F2896685F PUSH2 0x280 DUP4 ADD MSTORE PUSH32 0x3F0951374C3AF6C60C931892BB6B6FAD79BD35CA260B742B2D845131DF75FA9 PUSH2 0x2A0 DUP4 ADD MSTORE PUSH32 0x3015BC013D4B611881A0499338F3B04685FDEDCD6A390DFC2CE7CB0A3835C0CD PUSH2 0x2C0 DUP4 ADD MSTORE PUSH32 0x1833B463D13EDE4E5DC84E194AF2C7E4C363D474F1B3809A559A68A2113F2CDB PUSH2 0x2E0 DUP4 ADD MSTORE PUSH1 0x20 DUP3 PUSH2 0x300 DUP5 PUSH1 0x8 PUSH2 0x7D0 GAS SUB STATICCALL DUP3 MLOAD DUP2 AND SWAP4 POP POP POP POP SWAP6 SWAP5 POP POP POP POP POP JUMP JUMPDEST PUSH1 0x40 MLOAD PUSH2 0x380 DUP2 ADD PUSH1 0x40 MSTORE PUSH2 0x545 PUSH1 0x0 DUP5 ADD CALLDATALOAD PUSH2 0x67 JUMP JUMPDEST PUSH2 0x552 PUSH1 0x20 DUP5 ADD CALLDATALOAD PUSH2 0x67 JUMP JUMPDEST PUSH2 0x55F PUSH1 0x40 DUP5 ADD CALLDATALOAD PUSH2 0x67 JUMP JUMPDEST PUSH2 0x56C PUSH1 0x60 DUP5 ADD CALLDATALOAD PUSH2 0x67 JUMP JUMPDEST PUSH2 0x579 DUP2 DUP5 DUP7 DUP9 DUP11 PUSH2 0x106 JUMP JUMPDEST DUP1 PUSH1 0x0 MSTORE PUSH1 0x20 PUSH1 0x0 RETURN JUMPDEST PUSH1 0x0 DUP1 REVERT JUMPDEST PUSH1 0x0 DUP1 REVERT JUMPDEST PUSH1 0x0 DUP2 SWAP1 POP DUP3 PUSH1 0x20 PUSH1 0x2 MUL DUP3 ADD GT ISZERO PUSH2 0x5A9 JUMPI PUSH2 0x5A8 PUSH2 0x588 JUMP JUMPDEST JUMPDEST SWAP3 SWAP2 POP POP JUMP JUMPDEST PUSH1 0x0 DUP2 SWAP1 POP DUP3 PUSH1 0x40 PUSH1 0x2 MUL DUP3 ADD GT ISZERO PUSH2 0x5CB JUMPI PUSH2 0x5CA PUSH2 0x588 JUMP JUMPDEST JUMPDEST SWAP3 SWAP2 POP POP JUMP JUMPDEST PUSH1 0x0 DUP2 SWAP1 POP DUP3 PUSH1 0x20 PUSH1 0x3 MUL DUP3 ADD GT ISZERO PUSH2 0x5ED JUMPI PUSH2 0x5EC PUSH2 0x588 JUMP JUMPDEST JUMPDEST SWAP3 SWAP2 POP POP JUMP JUMPDEST PUSH1 0x0 DUP1 PUSH1 0x0 DUP1 PUSH2 0x160 DUP6 DUP8 SUB SLT ISZERO PUSH2 0x60E JUMPI PUSH2 0x60D PUSH2 0x583 JUMP JUMPDEST JUMPDEST PUSH1 0x0 PUSH2 0x61C DUP8 DUP3 DUP9 ADD PUSH2 0x58D JUMP JUMPDEST SWAP5 POP POP PUSH1 0x40 PUSH2 0x62D DUP8 DUP3 DUP9 ADD PUSH2 0x5AF JUMP JUMPDEST SWAP4 POP POP PUSH1 0xC0 PUSH2 0x63E DUP8 DUP3 DUP9 ADD PUSH2 0x58D JUMP JUMPDEST SWAP3 POP POP PUSH2 0x100 PUSH2 0x650 DUP8 DUP3 DUP9 ADD PUSH2 0x5D1 JUMP JUMPDEST SWAP2 POP POP SWAP3 SWAP6 SWAP2 SWAP5 POP SWAP3 POP JUMP JUMPDEST PUSH1 0x0 DUP2 ISZERO ISZERO SWAP1 POP SWAP2 SWAP1 POP JUMP JUMPDEST PUSH2 0x671 DUP2 PUSH2 0x65C JUMP JUMPDEST DUP3 MSTORE POP POP JUMP JUMPDEST PUSH1 0x0 PUSH1 0x20 DUP3 ADD SWAP1 POP PUSH2 0x68C PUSH1 0x0 DUP4 ADD DUP5 PUSH2 0x668 JUMP JUMPDEST SWAP3 SWAP2 POP POP JUMP INVALID LOG2 PUSH5 0x6970667358 0x22 SLT KECCAK256 0xBE LOG3 0xE9 0x2E 0xC5 EXP 0xC8 0xC7 SWAP7 0xDA GASLIMIT 0xD4 0xDB 0x2D XOR CODESIZE JUMPI 0xAD 0xDB PUSH7 0x2D3267E228353E 0x5C JUMPI 0xDA LOG1 0xC5 PUSH5 0x736F6C6343 STOP ADDMOD EQ STOP CALLER "},"methodIdentifiers":{"verifyProof(uint256[2],uint256[2][2],uint256[2],uint256[3])":"11479fea"}}}}}