{
  "_format": "hh-sol-artifact-1",
  "contractName": "Trivia",
  "sourceName": "contracts/Trivia.sol",
  "abi": [
    {
      "inputs": [
        {
          "internalType": "address",
          "name": "_hasher",
          "type": "address"
        },
        {
          "internalType": "address",
          "name": "_verifier",
          "type": "address"
        },
        {
          "internalType": "address",
          "name": "_usdcToken",
          "type": "address"
        },
        {
          "internalType": "address",
          "name": "_aavePool",
          "type": "address"
        }
      ],
      "stateMutability": "nonpayable",
      "type": "constructor"
    },
    {
      "inputs": [
        {
          "internalType": "address",
          "name": "spender",
          "type": "address"
        },
        {
          "internalType": "uint256",
          "name": "allowance",
          "type": "uint256"
        },
        {
          "internalType": "uint256",
          "name": "needed",
          "type": "uint256"
        }
      ],
      "name": "ERC20InsufficientAllowance",
      "type": "error"
    },
    {
      "inputs": [
        {
          "internalType": "address",
          "name": "sender",
          "type": "address"
        },
        {
          "internalType": "uint256",
          "name": "balance",
          "type": "uint256"
        },
        {
          "internalType": "uint256",
          "name": "needed",
          "type": "uint256"
        }
      ],
      "name": "ERC20InsufficientBalance",
      "type": "error"
    },
    {
      "inputs": [
        {
          "internalType": "address",
          "name": "approver",
          "type": "address"
        }
      ],
      "name": "ERC20InvalidApprover",
      "type": "error"
    },
    {
      "inputs": [
        {
          "internalType": "address",
          "name": "receiver",
          "type": "address"
        }
      ],
      "name": "ERC20InvalidReceiver",
      "type": "error"
    },
    {
      "inputs": [
        {
          "internalType": "address",
          "name": "sender",
          "type": "address"
        }
      ],
      "name": "ERC20InvalidSender",
      "type": "error"
    },
    {
      "inputs": [
        {
          "internalType": "address",
          "name": "spender",
          "type": "address"
        }
      ],
      "name": "ERC20InvalidSpender",
      "type": "error"
    },
    {
      "inputs": [
        {
          "internalType": "address",
          "name": "owner",
          "type": "address"
        }
      ],
      "name": "OwnableInvalidOwner",
      "type": "error"
    },
    {
      "inputs": [
        {
          "internalType": "address",
          "name": "account",
          "type": "address"
        }
      ],
      "name": "OwnableUnauthorizedAccount",
      "type": "error"
    },
    {
      "anonymous": false,
      "inputs": [
        {
          "indexed": true,
          "internalType": "address",
          "name": "owner",
          "type": "address"
        },
        {
          "indexed": true,
          "internalType": "address",
          "name": "spender",
          "type": "address"
        },
        {
          "indexed": false,
          "internalType": "uint256",
          "name": "value",
          "type": "uint256"
        }
      ],
      "name": "Approval",
      "type": "event"
    },
    {
      "anonymous": false,
      "inputs": [
        {
          "indexed": true,
          "internalType": "uint256",
          "name": "root",
          "type": "uint256"
        },
        {
          "indexed": false,
          "internalType": "uint256[10]",
          "name": "hashPairings",
          "type": "uint256[10]"
        },
        {
          "indexed": false,
          "internalType": "uint8[10]",
          "name": "pairDirection",
          "type": "uint8[10]"
        },
        {
          "indexed": false,
          "internalType": "uint256",
          "name": "amount",
          "type": "uint256"
        }
      ],
      "name": "Deposit",
      "type": "event"
    },
    {
      "anonymous": false,
      "inputs": [
        {
          "indexed": true,
          "internalType": "address",
          "name": "previousOwner",
          "type": "address"
        },
        {
          "indexed": true,
          "internalType": "address",
          "name": "newOwner",
          "type": "address"
        }
      ],
      "name": "OwnershipTransferred",
      "type": "event"
    },
    {
      "anonymous": false,
      "inputs": [
        {
          "indexed": true,
          "internalType": "address",
          "name": "from",
          "type": "address"
        },
        {
          "indexed": true,
          "internalType": "address",
          "name": "to",
          "type": "address"
        },
        {
          "indexed": false,
          "internalType": "uint256",
          "name": "value",
          "type": "uint256"
        }
      ],
      "name": "Transfer",
      "type": "event"
    },
    {
      "anonymous": false,
      "inputs": [
        {
          "indexed": true,
          "internalType": "address",
          "name": "user",
          "type": "address"
        },
        {
          "indexed": true,
          "internalType": "uint256",
          "name": "nullifierHash",
          "type": "uint256"
        },
        {
          "indexed": false,
          "internalType": "uint256",
          "name": "amount",
          "type": "uint256"
        }
      ],
      "name": "Withdrawal",
      "type": "event"
    },
    {
      "inputs": [],
      "name": "LOCK_PERIOD",
      "outputs": [
        {
          "internalType": "uint256",
          "name": "",
          "type": "uint256"
        }
      ],
      "stateMutability": "view",
      "type": "function"
    },
    {
      "inputs": [],
      "name": "aavePool",
      "outputs": [
        {
          "internalType": "contract IPool",
          "name": "",
          "type": "address"
        }
      ],
      "stateMutability": "view",
      "type": "function"
    },
    {
      "inputs": [
        {
          "internalType": "address",
          "name": "owner",
          "type": "address"
        },
        {
          "internalType": "address",
          "name": "spender",
          "type": "address"
        }
      ],
      "name": "allowance",
      "outputs": [
        {
          "internalType": "uint256",
          "name": "",
          "type": "uint256"
        }
      ],
      "stateMutability": "view",
      "type": "function"
    },
    {
      "inputs": [
        {
          "internalType": "address",
          "name": "spender",
          "type": "address"
        },
        {
          "internalType": "uint256",
          "name": "value",
          "type": "uint256"
        }
      ],
      "name": "approve",
      "outputs": [
        {
          "internalType": "bool",
          "name": "",
          "type": "bool"
        }
      ],
      "stateMutability": "nonpayable",
      "type": "function"
    },
    {
      "inputs": [
        {
          "internalType": "address",
          "name": "account",
          "type": "address"
        }
      ],
      "name": "balanceOf",
      "outputs": [
        {
          "internalType": "uint256",
          "name": "",
          "type": "uint256"
        }
      ],
      "stateMutability": "view",
      "type": "function"
    },
    {
      "inputs": [
        {
          "internalType": "uint256",
          "name": "",
          "type": "uint256"
        }
      ],
      "name": "commitments",
      "outputs": [
        {
          "internalType": "bool",
          "name": "",
          "type": "bool"
        }
      ],
      "stateMutability": "view",
      "type": "function"
    },
    {
      "inputs": [],
      "name": "decimals",
      "outputs": [
        {
          "internalType": "uint8",
          "name": "",
          "type": "uint8"
        }
      ],
      "stateMutability": "view",
      "type": "function"
    },
    {
      "inputs": [
        {
          "internalType": "uint256",
          "name": "amount",
          "type": "uint256"
        },
        {
          "internalType": "uint256",
          "name": "_commitment",
          "type": "uint256"
        }
      ],
      "name": "deposit",
      "outputs": [],
      "stateMutability": "nonpayable",
      "type": "function"
    },
    {
      "inputs": [],
      "name": "hasher",
      "outputs": [
        {
          "internalType": "contract Hasher",
          "name": "",
          "type": "address"
        }
      ],
      "stateMutability": "view",
      "type": "function"
    },
    {
      "inputs": [
        {
          "internalType": "uint8",
          "name": "",
          "type": "uint8"
        }
      ],
      "name": "lastLevelHash",
      "outputs": [
        {
          "internalType": "uint256",
          "name": "",
          "type": "uint256"
        }
      ],
      "stateMutability": "view",
      "type": "function"
    },
    {
      "inputs": [],
      "name": "name",
      "outputs": [
        {
          "internalType": "string",
          "name": "",
          "type": "string"
        }
      ],
      "stateMutability": "view",
      "type": "function"
    },
    {
      "inputs": [],
      "name": "nextLeafIdex",
      "outputs": [
        {
          "internalType": "uint256",
          "name": "",
          "type": "uint256"
        }
      ],
      "stateMutability": "view",
      "type": "function"
    },
    {
      "inputs": [
        {
          "internalType": "uint256",
          "name": "",
          "type": "uint256"
        }
      ],
      "name": "nullifierHashs",
      "outputs": [
        {
          "internalType": "bool",
          "name": "",
          "type": "bool"
        }
      ],
      "stateMutability": "view",
      "type": "function"
    },
    {
      "inputs": [],
      "name": "owner",
      "outputs": [
        {
          "internalType": "address",
          "name": "",
          "type": "address"
        }
      ],
      "stateMutability": "view",
      "type": "function"
    },
    {
      "inputs": [],
      "name": "renounceOwnership",
      "outputs": [],
      "stateMutability": "nonpayable",
      "type": "function"
    },
    {
      "inputs": [
        {
          "internalType": "uint256",
          "name": "",
          "type": "uint256"
        }
      ],
      "name": "roots",
      "outputs": [
        {
          "internalType": "bool",
          "name": "",
          "type": "bool"
        }
      ],
      "stateMutability": "view",
      "type": "function"
    },
    {
      "inputs": [],
      "name": "symbol",
      "outputs": [
        {
          "internalType": "string",
          "name": "",
          "type": "string"
        }
      ],
      "stateMutability": "view",
      "type": "function"
    },
    {
      "inputs": [],
      "name": "timelockId",
      "outputs": [
        {
          "internalType": "uint256",
          "name": "",
          "type": "uint256"
        }
      ],
      "stateMutability": "view",
      "type": "function"
    },
    {
      "inputs": [
        {
          "internalType": "uint256",
          "name": "",
          "type": "uint256"
        }
      ],
      "name": "timelockToken",
      "outputs": [
        {
          "internalType": "address",
          "name": "owner",
          "type": "address"
        },
        {
          "internalType": "uint256",
          "name": "amount",
          "type": "uint256"
        },
        {
          "internalType": "uint256",
          "name": "timelockStart",
          "type": "uint256"
        },
        {
          "internalType": "bool",
          "name": "valid",
          "type": "bool"
        }
      ],
      "stateMutability": "view",
      "type": "function"
    },
    {
      "inputs": [],
      "name": "totalStaked",
      "outputs": [
        {
          "internalType": "uint256",
          "name": "",
          "type": "uint256"
        }
      ],
      "stateMutability": "view",
      "type": "function"
    },
    {
      "inputs": [],
      "name": "totalSupply",
      "outputs": [
        {
          "internalType": "uint256",
          "name": "",
          "type": "uint256"
        }
      ],
      "stateMutability": "view",
      "type": "function"
    },
    {
      "inputs": [
        {
          "internalType": "address",
          "name": "to",
          "type": "address"
        },
        {
          "internalType": "uint256",
          "name": "value",
          "type": "uint256"
        }
      ],
      "name": "transfer",
      "outputs": [
        {
          "internalType": "bool",
          "name": "",
          "type": "bool"
        }
      ],
      "stateMutability": "nonpayable",
      "type": "function"
    },
    {
      "inputs": [
        {
          "internalType": "address",
          "name": "from",
          "type": "address"
        },
        {
          "internalType": "address",
          "name": "to",
          "type": "address"
        },
        {
          "internalType": "uint256",
          "name": "value",
          "type": "uint256"
        }
      ],
      "name": "transferFrom",
      "outputs": [
        {
          "internalType": "bool",
          "name": "",
          "type": "bool"
        }
      ],
      "stateMutability": "nonpayable",
      "type": "function"
    },
    {
      "inputs": [
        {
          "internalType": "address",
          "name": "newOwner",
          "type": "address"
        }
      ],
      "name": "transferOwnership",
      "outputs": [],
      "stateMutability": "nonpayable",
      "type": "function"
    },
    {
      "inputs": [],
      "name": "treeLevel",
      "outputs": [
        {
          "internalType": "uint8",
          "name": "",
          "type": "uint8"
        }
      ],
      "stateMutability": "view",
      "type": "function"
    },
    {
      "inputs": [],
      "name": "usdcToken",
      "outputs": [
        {
          "internalType": "contract IERC20",
          "name": "",
          "type": "address"
        }
      ],
      "stateMutability": "view",
      "type": "function"
    },
    {
      "inputs": [],
      "name": "verifier",
      "outputs": [
        {
          "internalType": "address",
          "name": "",
          "type": "address"
        }
      ],
      "stateMutability": "view",
      "type": "function"
    },
    {
      "inputs": [
        {
          "internalType": "uint256",
          "name": "id",
          "type": "uint256"
        },
        {
          "internalType": "uint256[2]",
          "name": "_pA",
          "type": "uint256[2]"
        },
        {
          "internalType": "uint256[2][2]",
          "name": "_pB",
          "type": "uint256[2][2]"
        },
        {
          "internalType": "uint256[2]",
          "name": "_pC",
          "type": "uint256[2]"
        },
        {
          "internalType": "uint256[2]",
          "name": "_pubSignals",
          "type": "uint256[2]"
        }
      ],
      "name": "withdraw",
      "outputs": [],
      "stateMutability": "nonpayable",
      "type": "function"
    }
  ],
  "bytecode": "0x6080604052600a600c60006101000a81548160ff021916908360ff1602179055506000600d556040518061014001604052807fd4b1397294ac371d7e6327985b84e513e1a67d7511cd9e97c8d863f475234ff381526020017f7a1950291d8f8d98ffa31fb48d4ade1f75579c189663a7ad6253e054eb3c6e0281526020017f9a5bd8dcbf46dd9d94aa5f453a88c30ea30078f4233b48b7e6a09c309efcaacf81526020017f10d25a62653575746e8c8d14d457cad6d4d84237f8c0469f2b6fc1d8eefdedcf81526020017fb8cca00d5457eeba20a4a2559e4b7b8474aa461fdcca193ab9c684f42548a79281526020017ff1fa21b6a1c7e39c31bc19188cd3492b0093f7a08b3a5452bcc90fd72e39169b81526020017fa7719a5fce76578cf8f2fe028aa33a8d8dafbb9d56d135d6bdbb98b588bfbe4d81526020017fd74b7e6e290c206af23fa785f7088f4646778a6f4e238bff11a81493b421da6b81526020017f43b04fd9e248d46a8e3c53786aaa06abcbc7152859d957393a7ed77f937b82df81526020017f4a6b78ef2b2e9ae43bb3c90c13058a03141de722292df4b889908ef2f19fd3e6815250601390600a620001bd929190620004dd565b50348015620001cb57600080fd5b5060405162004035380380620040358339818101604052810190620001f19190620005ab565b6040518060400160405280600681526020017f54726976696100000000000000000000000000000000000000000000000000008152506040518060400160405280600581526020017f547269766100000000000000000000000000000000000000000000000000000081525033600073ffffffffffffffffffffffffffffffffffffffff168173ffffffffffffffffffffffffffffffffffffffff1603620002d35760006040517f1e4fbdf7000000000000000000000000000000000000000000000000000000008152600401620002ca91906200062e565b60405180910390fd5b620002e4816200041960201b60201c565b508160049081620002f69190620008c5565b508060059081620003089190620008c5565b50505083600760006101000a81548173ffffffffffffffffffffffffffffffffffffffff021916908373ffffffffffffffffffffffffffffffffffffffff16021790555082600660006101000a81548173ffffffffffffffffffffffffffffffffffffffff021916908373ffffffffffffffffffffffffffffffffffffffff16021790555081600960006101000a81548173ffffffffffffffffffffffffffffffffffffffff021916908373ffffffffffffffffffffffffffffffffffffffff16021790555080600860006101000a81548173ffffffffffffffffffffffffffffffffffffffff021916908373ffffffffffffffffffffffffffffffffffffffff16021790555050505050620009ac565b60008060009054906101000a900473ffffffffffffffffffffffffffffffffffffffff169050816000806101000a81548173ffffffffffffffffffffffffffffffffffffffff021916908373ffffffffffffffffffffffffffffffffffffffff1602179055508173ffffffffffffffffffffffffffffffffffffffff168173ffffffffffffffffffffffffffffffffffffffff167f8be0079c531659141344cd1fd0a4f28419497f9722a3daafe3b4186f6b6457e060405160405180910390a35050565b82600a81019282156200050f579160200282015b828111156200050e578251825591602001919060010190620004f1565b5b5090506200051e919062000522565b5090565b5b808211156200053d57600081600090555060010162000523565b5090565b600080fd5b600073ffffffffffffffffffffffffffffffffffffffff82169050919050565b6000620005738262000546565b9050919050565b620005858162000566565b81146200059157600080fd5b50565b600081519050620005a5816200057a565b92915050565b60008060008060808587031215620005c857620005c762000541565b5b6000620005d88782880162000594565b9450506020620005eb8782880162000594565b9350506040620005fe8782880162000594565b9250506060620006118782880162000594565b91505092959194509250565b620006288162000566565b82525050565b60006020820190506200064560008301846200061d565b92915050565b600081519050919050565b7f4e487b7100000000000000000000000000000000000000000000000000000000600052604160045260246000fd5b7f4e487b7100000000000000000000000000000000000000000000000000000000600052602260045260246000fd5b60006002820490506001821680620006cd57607f821691505b602082108103620006e357620006e262000685565b5b50919050565b60008190508160005260206000209050919050565b60006020601f8301049050919050565b600082821b905092915050565b6000600883026200074d7fffffffffffffffffffffffffffffffffffffffffffffffffffffffffffffffff826200070e565b6200075986836200070e565b95508019841693508086168417925050509392505050565b6000819050919050565b6000819050919050565b6000620007a6620007a06200079a8462000771565b6200077b565b62000771565b9050919050565b6000819050919050565b620007c28362000785565b620007da620007d182620007ad565b8484546200071b565b825550505050565b600090565b620007f1620007e2565b620007fe818484620007b7565b505050565b5b8181101562000826576200081a600082620007e7565b60018101905062000804565b5050565b601f82111562000875576200083f81620006e9565b6200084a84620006fe565b810160208510156200085a578190505b620008726200086985620006fe565b83018262000803565b50505b505050565b600082821c905092915050565b60006200089a600019846008026200087a565b1980831691505092915050565b6000620008b5838362000887565b9150826002028217905092915050565b620008d0826200064b565b67ffffffffffffffff811115620008ec57620008eb62000656565b5b620008f88254620006b4565b620009058282856200082a565b600060209050601f8311600181146200093d576000841562000928578287015190505b620009348582620008a7565b865550620009a4565b601f1984166200094d86620006e9565b60005b82811015620009775784890151825560018201915060208501945060208101905062000950565b8683101562000997578489015162000993601f89168262000887565b8355505b6001600288020188555050505b505050505050565b61367980620009bc6000396000f3fe608060405234801561001057600080fd5b50600436106101c45760003560e01c80637b5758b1116100f9578063c2b40ae411610097578063dd62ed3e11610071578063dd62ed3e14610528578063e2bbb15814610558578063ed33639f14610574578063f2fde38b14610592576101c4565b8063c2b40ae414610495578063cee9e428146104c5578063d5400047146104f8576101c4565b806395d89b41116100d357806395d89b411461040b578063a03e4bc314610429578063a9059cbb14610447578063b8e7956414610477576101c4565b80637b5758b11461039f578063817b1cd2146103cf5780638da5cb5b146103ed576101c4565b80632b7ac3f31161016657806349ce89971161014057806349ce8997146103195780636fece60b1461034957806370a0823114610365578063715018a614610395576101c4565b80632b7ac3f3146102bf578063313ce567146102dd5780634056ff1b146102fb576101c4565b806311eac855116101a257806311eac8551461023557806318160ddd146102535780631820cabb1461027157806323b872dd1461028f576101c4565b806306683e4b146101c957806306fdde03146101e7578063095ea7b314610205575b600080fd5b6101d16105ae565b6040516101de9190612179565b60405180910390f35b6101ef6105b4565b6040516101fc9190612224565b60405180910390f35b61021f600480360381019061021a91906122d5565b610646565b60405161022c9190612330565b60405180910390f35b61023d610669565b60405161024a91906123aa565b60405180910390f35b61025b61068f565b6040516102689190612179565b60405180910390f35b610279610699565b6040516102869190612179565b60405180910390f35b6102a960048036038101906102a491906123c5565b6106a0565b6040516102b69190612330565b60405180910390f35b6102c76106cf565b6040516102d49190612427565b60405180910390f35b6102e56106f5565b6040516102f2919061245e565b60405180910390f35b6103036106fe565b6040516103109190612179565b60405180910390f35b610333600480360381019061032e9190612479565b610704565b6040516103409190612330565b60405180910390f35b610363600480360381019061035e91906124ef565b610724565b005b61037f600480360381019061037a919061256c565b610d53565b60405161038c9190612179565b60405180910390f35b61039d610d9c565b005b6103b960048036038101906103b49190612479565b610db0565b6040516103c69190612330565b60405180910390f35b6103d7610dd0565b6040516103e49190612179565b60405180910390f35b6103f5610dd6565b6040516104029190612427565b60405180910390f35b610413610dff565b6040516104209190612224565b60405180910390f35b610431610e91565b60405161043e91906125ba565b60405180910390f35b610461600480360381019061045c91906122d5565b610eb7565b60405161046e9190612330565b60405180910390f35b61047f610eda565b60405161048c919061245e565b60405180910390f35b6104af60048036038101906104aa9190612479565b610eed565b6040516104bc9190612330565b60405180910390f35b6104df60048036038101906104da9190612479565b610f0d565b6040516104ef94939291906125d5565b60405180910390f35b610512600480360381019061050d9190612646565b610f7a565b60405161051f9190612179565b60405180910390f35b610542600480360381019061053d9190612673565b610f92565b60405161054f9190612179565b60405180910390f35b610572600480360381019061056d91906126b3565b611019565b005b61057c611960565b6040516105899190612714565b60405180910390f35b6105ac60048036038101906105a7919061256c565b611986565b005b600d5481565b6060600480546105c39061275e565b80601f01602080910402602001604051908101604052809291908181526020018280546105ef9061275e565b801561063c5780601f106106115761010080835404028352916020019161063c565b820191906000526020600020905b81548152906001019060200180831161061f57829003601f168201915b5050505050905090565b600080610651611a0c565b905061065e818585611a14565b600191505092915050565b600960009054906101000a900473ffffffffffffffffffffffffffffffffffffffff1681565b6000600354905090565b6276a70081565b6000806106ab611a0c565b90506106b8858285611a26565b6106c3858585611aba565b60019150509392505050565b600660009054906101000a900473ffffffffffffffffffffffffffffffffffffffff1681565b60006012905090565b600b5481565b60126020528060005260406000206000915054906101000a900460ff1681565b600b548510610768576040517f08c379a000000000000000000000000000000000000000000000000000000000815260040161075f906127db565b60405180910390fd5b6000600e868154811061077e5761077d6127fb565b5b906000526020600020906004020190508060000160009054906101000a900473ffffffffffffffffffffffffffffffffffffffff1673ffffffffffffffffffffffffffffffffffffffff163373ffffffffffffffffffffffffffffffffffffffff1614610820576040517f08c379a000000000000000000000000000000000000000000000000000000000815260040161081790612876565b60405180910390fd5b6276a700816002015461083391906128c5565b421015610875576040517f08c379a000000000000000000000000000000000000000000000000000000000815260040161086c90612945565b60405180910390fd5b8060030160009054906101000a900460ff166108c6576040517f08c379a00000000000000000000000000000000000000000000000000000000081526004016108bd906129b1565b60405180910390fd5b6000826000600281106108dc576108db6127fb565b5b602002013590506000836001600281106108f9576108f86127fb565b5b602002013590506011600082815260200190815260200160002060009054906101000a900460ff1615610961576040517f08c379a000000000000000000000000000000000000000000000000000000000815260040161095890612a1d565b60405180910390fd5b600f600083815260200190815260200160002060009054906101000a900460ff166109c1576040517f08c379a00000000000000000000000000000000000000000000000000000000081526004016109b890612a89565b60405180910390fd5b60003373ffffffffffffffffffffffffffffffffffffffff1690506000600660009054906101000a900473ffffffffffffffffffffffffffffffffffffffff1673ffffffffffffffffffffffffffffffffffffffff16898989604051806060016040528089815260200188815260200187815250604051602401610a489493929190612c2c565b6040516020818303038152906040526311479fea60e01b6020820180517bffffffffffffffffffffffffffffffffffffffffffffffffffffffff8381831617835250505050604051610a9a9190612cba565b6000604051808303816000865af19150503d8060008114610ad7576040519150601f19603f3d011682016040523d82523d6000602084013e610adc565b606091505b5050905080610b20576040517f08c379a0000000000000000000000000000000000000000000000000000000008152600401610b1790612d1d565b60405180910390fd5b60016011600085815260200190815260200160002060006101000a81548160ff021916908315150217905550600860009054906101000a900473ffffffffffffffffffffffffffffffffffffffff1673ffffffffffffffffffffffffffffffffffffffff166369328dec600960009054906101000a900473ffffffffffffffffffffffffffffffffffffffff168760010154306040518463ffffffff1660e01b8152600401610bd193929190612d3d565b6020604051808303816000875af1158015610bf0573d6000803e3d6000fd5b505050506040513d601f19601f82011682018060405250810190610c149190612d89565b50600960009054906101000a900473ffffffffffffffffffffffffffffffffffffffff1673ffffffffffffffffffffffffffffffffffffffff1663a9059cbb3387600101546040518363ffffffff1660e01b8152600401610c76929190612db6565b6020604051808303816000875af1158015610c95573d6000803e3d6000fd5b505050506040513d601f19601f82011682018060405250810190610cb99190612e0b565b508460010154600a6000828254610cd09190612e38565b9250508190555060008560030160006101000a81548160ff021916908315150217905550823373ffffffffffffffffffffffffffffffffffffffff167fdf273cb619d95419a9cd0ec88123a0538c85064229baa6363788f743fff90deb8760010154604051610d3f9190612179565b60405180910390a350505050505050505050565b6000600160008373ffffffffffffffffffffffffffffffffffffffff1673ffffffffffffffffffffffffffffffffffffffff168152602001908152602001600020549050919050565b610da4611bae565b610dae6000611c35565b565b60116020528060005260406000206000915054906101000a900460ff1681565b600a5481565b60008060009054906101000a900473ffffffffffffffffffffffffffffffffffffffff16905090565b606060058054610e0e9061275e565b80601f0160208091040260200160405190810160405280929190818152602001828054610e3a9061275e565b8015610e875780601f10610e5c57610100808354040283529160200191610e87565b820191906000526020600020905b815481529060010190602001808311610e6a57829003601f168201915b5050505050905090565b600860009054906101000a900473ffffffffffffffffffffffffffffffffffffffff1681565b600080610ec2611a0c565b9050610ecf818585611aba565b600191505092915050565b600c60009054906101000a900460ff1681565b600f6020528060005260406000206000915054906101000a900460ff1681565b600e8181548110610f1d57600080fd5b90600052602060002090600402016000915090508060000160009054906101000a900473ffffffffffffffffffffffffffffffffffffffff16908060010154908060020154908060030160009054906101000a900460ff16905084565b60106020528060005260406000206000915090505481565b6000600260008473ffffffffffffffffffffffffffffffffffffffff1673ffffffffffffffffffffffffffffffffffffffff16815260200190815260200160002060008373ffffffffffffffffffffffffffffffffffffffff1673ffffffffffffffffffffffffffffffffffffffff16815260200190815260200160002054905092915050565b6000821161105c576040517f08c379a000000000000000000000000000000000000000000000000000000000815260040161105390612eb8565b60405180910390fd5b81600960009054906101000a900473ffffffffffffffffffffffffffffffffffffffff1673ffffffffffffffffffffffffffffffffffffffff166370a08231336040518263ffffffff1660e01b81526004016110b89190612427565b602060405180830381865afa1580156110d5573d6000803e3d6000fd5b505050506040513d601f19601f820116820180604052508101906110f99190612d89565b101561113a576040517f08c379a000000000000000000000000000000000000000000000000000000000815260040161113190612f24565b60405180910390fd5b81600960009054906101000a900473ffffffffffffffffffffffffffffffffffffffff1673ffffffffffffffffffffffffffffffffffffffff1663dd62ed3e33306040518363ffffffff1660e01b8152600401611198929190612f44565b602060405180830381865afa1580156111b5573d6000803e3d6000fd5b505050506040513d601f19601f820116820180604052508101906111d99190612d89565b101561121a576040517f08c379a000000000000000000000000000000000000000000000000000000000815260040161121190612fb9565b60405180910390fd5b6012600082815260200190815260200160002060009054906101000a900460ff161561127b576040517f08c379a000000000000000000000000000000000000000000000000000000000815260040161127290613025565b60405180910390fd5b600c60009054906101000a900460ff1660026112979190613178565b600d54106112da576040517f08c379a00000000000000000000000000000000000000000000000000000000081526004016112d19061320f565b60405180910390fd5b600960009054906101000a900473ffffffffffffffffffffffffffffffffffffffff1673ffffffffffffffffffffffffffffffffffffffff166323b872dd3330856040518463ffffffff1660e01b81526004016113399392919061322f565b6020604051808303816000875af1158015611358573d6000803e3d6000fd5b505050506040513d601f19601f8201168201806040525081019061137c9190612e0b565b50600960009054906101000a900473ffffffffffffffffffffffffffffffffffffffff1673ffffffffffffffffffffffffffffffffffffffff1663095ea7b3600860009054906101000a900473ffffffffffffffffffffffffffffffffffffffff16846040518363ffffffff1660e01b81526004016113fc929190612db6565b6020604051808303816000875af115801561141b573d6000803e3d6000fd5b505050506040513d601f19601f8201168201806040525081019061143f9190612e0b565b50600860009054906101000a900473ffffffffffffffffffffffffffffffffffffffff1673ffffffffffffffffffffffffffffffffffffffff1663617ba037600960009054906101000a900473ffffffffffffffffffffffffffffffffffffffff16843060006040518563ffffffff1660e01b81526004016114c494939291906132af565b600060405180830381600087803b1580156114de57600080fd5b505af11580156114f2573d6000803e3d6000fd5b50505050600e60405180608001604052803373ffffffffffffffffffffffffffffffffffffffff16815260200184815260200142815260200160011515815250908060018154018082558091505060019003906000526020600020906004020160009091909190915060008201518160000160006101000a81548173ffffffffffffffffffffffffffffffffffffffff021916908373ffffffffffffffffffffffffffffffffffffffff160217905550602082015181600101556040820151816002015560608201518160030160006101000a81548160ff021916908315150217905550505060006115e26120f8565b6115ea61211b565b6000600d549050600085905060008061160161213e565b60005b600c60009054906101000a900460ff1660ff168160ff161015611871578460106000600c60009054906101000a900460ff1660ff1660ff16815260200190815260200160002081905550600060028761165d9190613323565b036116e65784935060138160ff16600a811061167c5761167b6127fb565b5b0154925060138160ff16600a8110611697576116966127fb565b5b0154888260ff16600a81106116af576116ae6127fb565b5b6020020181815250506000878260ff16600a81106116d0576116cf6127fb565b5b602002019060ff16908160ff1681525050611768565b601060008260ff1660ff168152602001908152602001600020549350849250601060008260ff1660ff16815260200190815260200160002054888260ff16600a8110611735576117346127fb565b5b6020020181815250506001878260ff16600a8110611756576117556127fb565b5b602002019060ff16908160ff16815250505b838260006002811061177d5761177c6127fb565b5b602002018181525050828260016002811061179b5761179a6127fb565b5b6020020181815250506000600760009054906101000a900473ffffffffffffffffffffffffffffffffffffffff1673ffffffffffffffffffffffffffffffffffffffff1663d622e5a4620249f0858e6040518463ffffffff1660e01b81526004016118079291906133d8565b6020604051808303818786fa158015611824573d6000803e3d6000fd5b50505050506040513d601f19601f820116820180604052508101906118499190612d89565b905080955060028761185b9190613401565b965050808061186990613432565b915050611604565b508397506001600f60008a815260200190815260200160002060006101000a81548160ff0219169083151502179055506001600d60008282546118b491906128c5565b925050819055506001601260008b815260200190815260200160002060006101000a81548160ff02191690831515021790555089600a60008282546118f991906128c5565b92505081905550600b60008154809291906119139061345b565b9190505550877f839aef75338d2a3413d910305b67d28e181da1837c548c3a2b2ef147f33b008a88888d60405161194c939291906135d2565b60405180910390a250505050505050505050565b600760009054906101000a900473ffffffffffffffffffffffffffffffffffffffff1681565b61198e611bae565b600073ffffffffffffffffffffffffffffffffffffffff168173ffffffffffffffffffffffffffffffffffffffff1603611a005760006040517f1e4fbdf70000000000000000000000000000000000000000000000000000000081526004016119f79190612427565b60405180910390fd5b611a0981611c35565b50565b600033905090565b611a218383836001611cf9565b505050565b6000611a328484610f92565b90507fffffffffffffffffffffffffffffffffffffffffffffffffffffffffffffffff8114611ab45781811015611aa4578281836040517ffb8f41b2000000000000000000000000000000000000000000000000000000008152600401611a9b9392919061360c565b60405180910390fd5b611ab384848484036000611cf9565b5b50505050565b600073ffffffffffffffffffffffffffffffffffffffff168373ffffffffffffffffffffffffffffffffffffffff1603611b2c5760006040517f96c6fd1e000000000000000000000000000000000000000000000000000000008152600401611b239190612427565b60405180910390fd5b600073ffffffffffffffffffffffffffffffffffffffff168273ffffffffffffffffffffffffffffffffffffffff1603611b9e5760006040517fec442f05000000000000000000000000000000000000000000000000000000008152600401611b959190612427565b60405180910390fd5b611ba9838383611ed0565b505050565b611bb6611a0c565b73ffffffffffffffffffffffffffffffffffffffff16611bd4610dd6565b73ffffffffffffffffffffffffffffffffffffffff1614611c3357611bf7611a0c565b6040517f118cdaa7000000000000000000000000000000000000000000000000000000008152600401611c2a9190612427565b60405180910390fd5b565b60008060009054906101000a900473ffffffffffffffffffffffffffffffffffffffff169050816000806101000a81548173ffffffffffffffffffffffffffffffffffffffff021916908373ffffffffffffffffffffffffffffffffffffffff1602179055508173ffffffffffffffffffffffffffffffffffffffff168173ffffffffffffffffffffffffffffffffffffffff167f8be0079c531659141344cd1fd0a4f28419497f9722a3daafe3b4186f6b6457e060405160405180910390a35050565b600073ffffffffffffffffffffffffffffffffffffffff168473ffffffffffffffffffffffffffffffffffffffff1603611d6b5760006040517fe602df05000000000000000000000000000000000000000000000000000000008152600401611d629190612427565b60405180910390fd5b600073ffffffffffffffffffffffffffffffffffffffff168373ffffffffffffffffffffffffffffffffffffffff1603611ddd5760006040517f94280d62000000000000000000000000000000000000000000000000000000008152600401611dd49190612427565b60405180910390fd5b81600260008673ffffffffffffffffffffffffffffffffffffffff1673ffffffffffffffffffffffffffffffffffffffff16815260200190815260200160002060008573ffffffffffffffffffffffffffffffffffffffff1673ffffffffffffffffffffffffffffffffffffffff168152602001908152602001600020819055508015611eca578273ffffffffffffffffffffffffffffffffffffffff168473ffffffffffffffffffffffffffffffffffffffff167f8c5be1e5ebec7d5bd14f71427d1e84f3dd0314c0f7b2291e5b200ac8c7c3b92584604051611ec19190612179565b60405180910390a35b50505050565b600073ffffffffffffffffffffffffffffffffffffffff168373ffffffffffffffffffffffffffffffffffffffff1603611f22578060036000828254611f1691906128c5565b92505081905550611ff7565b6000600160008573ffffffffffffffffffffffffffffffffffffffff1673ffffffffffffffffffffffffffffffffffffffff16815260200190815260200160002054905081811015611faf578381836040517fe450d38c000000000000000000000000000000000000000000000000000000008152600401611fa69392919061360c565b60405180910390fd5b818103600160008673ffffffffffffffffffffffffffffffffffffffff1673ffffffffffffffffffffffffffffffffffffffff16815260200190815260200160002081905550505b600073ffffffffffffffffffffffffffffffffffffffff168273ffffffffffffffffffffffffffffffffffffffff1603612040578060036000828254039250508190555061208e565b80600160008473ffffffffffffffffffffffffffffffffffffffff1673ffffffffffffffffffffffffffffffffffffffff168152602001908152602001600020600082825401925050819055505b8173ffffffffffffffffffffffffffffffffffffffff168373ffffffffffffffffffffffffffffffffffffffff167fddf252ad1be2c89b69c2b068fc378daa952ba7f163c4a11628f55a4df523b3ef836040516120eb9190612179565b60405180910390a3505050565b604051806101400160405280600a90602082028036833780820191505090505090565b604051806101400160405280600a90602082028036833780820191505090505090565b6040518060400160405280600290602082028036833780820191505090505090565b6000819050919050565b61217381612160565b82525050565b600060208201905061218e600083018461216a565b92915050565b600081519050919050565b600082825260208201905092915050565b60005b838110156121ce5780820151818401526020810190506121b3565b60008484015250505050565b6000601f19601f8301169050919050565b60006121f682612194565b612200818561219f565b93506122108185602086016121b0565b612219816121da565b840191505092915050565b6000602082019050818103600083015261223e81846121eb565b905092915050565b600080fd5b600073ffffffffffffffffffffffffffffffffffffffff82169050919050565b60006122768261224b565b9050919050565b6122868161226b565b811461229157600080fd5b50565b6000813590506122a38161227d565b92915050565b6122b281612160565b81146122bd57600080fd5b50565b6000813590506122cf816122a9565b92915050565b600080604083850312156122ec576122eb612246565b5b60006122fa85828601612294565b925050602061230b858286016122c0565b9150509250929050565b60008115159050919050565b61232a81612315565b82525050565b60006020820190506123456000830184612321565b92915050565b6000819050919050565b600061237061236b6123668461224b565b61234b565b61224b565b9050919050565b600061238282612355565b9050919050565b600061239482612377565b9050919050565b6123a481612389565b82525050565b60006020820190506123bf600083018461239b565b92915050565b6000806000606084860312156123de576123dd612246565b5b60006123ec86828701612294565b93505060206123fd86828701612294565b925050604061240e868287016122c0565b9150509250925092565b6124218161226b565b82525050565b600060208201905061243c6000830184612418565b92915050565b600060ff82169050919050565b61245881612442565b82525050565b6000602082019050612473600083018461244f565b92915050565b60006020828403121561248f5761248e612246565b5b600061249d848285016122c0565b91505092915050565b600080fd5b6000819050826020600202820111156124c7576124c66124a6565b5b92915050565b6000819050826040600202820111156124e9576124e86124a6565b5b92915050565b6000806000806000610160868803121561250c5761250b612246565b5b600061251a888289016122c0565b955050602061252b888289016124ab565b945050606061253c888289016124cd565b93505060e061254d888289016124ab565b92505061012061255f888289016124ab565b9150509295509295909350565b60006020828403121561258257612581612246565b5b600061259084828501612294565b91505092915050565b60006125a482612377565b9050919050565b6125b481612599565b82525050565b60006020820190506125cf60008301846125ab565b92915050565b60006080820190506125ea6000830187612418565b6125f7602083018661216a565b612604604083018561216a565b6126116060830184612321565b95945050505050565b61262381612442565b811461262e57600080fd5b50565b6000813590506126408161261a565b92915050565b60006020828403121561265c5761265b612246565b5b600061266a84828501612631565b91505092915050565b6000806040838503121561268a57612689612246565b5b600061269885828601612294565b92505060206126a985828601612294565b9150509250929050565b600080604083850312156126ca576126c9612246565b5b60006126d8858286016122c0565b92505060206126e9858286016122c0565b9150509250929050565b60006126fe82612377565b9050919050565b61270e816126f3565b82525050565b60006020820190506127296000830184612705565b92915050565b7f4e487b7100000000000000000000000000000000000000000000000000000000600052602260045260246000fd5b6000600282049050600182168061277657607f821691505b6020821081036127895761278861272f565b5b50919050565b7f496e76616c696420696400000000000000000000000000000000000000000000600082015250565b60006127c5600a8361219f565b91506127d08261278f565b602082019050919050565b600060208201905081810360008301526127f4816127b8565b9050919050565b7f4e487b7100000000000000000000000000000000000000000000000000000000600052603260045260246000fd5b7f4f6e6c79206f776e65722063616e2072656465656d0000000000000000000000600082015250565b600061286060158361219f565b915061286b8261282a565b602082019050919050565b6000602082019050818103600083015261288f81612853565b9050919050565b7f4e487b7100000000000000000000000000000000000000000000000000000000600052601160045260246000fd5b60006128d082612160565b91506128db83612160565b92508282019050808211156128f3576128f2612896565b5b92915050565b7f5374696c6c20696e206c6f636b20706572696f64000000000000000000000000600082015250565b600061292f60148361219f565b915061293a826128f9565b602082019050919050565b6000602082019050818103600083015261295e81612922565b9050919050565b7f4e6f742076616c69640000000000000000000000000000000000000000000000600082015250565b600061299b60098361219f565b91506129a682612965565b602082019050919050565b600060208201905081810360008301526129ca8161298e565b9050919050565b7f616c7265616479207370656e7400000000000000000000000000000000000000600082015250565b6000612a07600d8361219f565b9150612a12826129d1565b602082019050919050565b60006020820190508181036000830152612a36816129fa565b9050919050565b7f6e6f7420726f6f74000000000000000000000000000000000000000000000000600082015250565b6000612a7360088361219f565b9150612a7e82612a3d565b602082019050919050565b60006020820190508181036000830152612aa281612a66565b9050919050565b82818337505050565b612abe60408383612aa9565b5050565b600060029050919050565b600081905092915050565b6000819050919050565b612aee60408383612aa9565b5050565b6000612afe8383612ae2565b60408301905092915050565b600082905092915050565b6000604082019050919050565b612b2b81612ac2565b612b358184612acd565b9250612b4082612ad8565b8060005b83811015612b7957612b568284612b0a565b612b608782612af2565b9650612b6b83612b15565b925050600181019050612b44565b505050505050565b600060039050919050565b600081905092915050565b6000819050919050565b612baa81612160565b82525050565b6000612bbc8383612ba1565b60208301905092915050565b6000602082019050919050565b612bde81612b81565b612be88184612b8c565b9250612bf382612b97565b8060005b83811015612c24578151612c0b8782612bb0565b9650612c1683612bc8565b925050600181019050612bf7565b505050505050565b600061016082019050612c426000830187612ab2565b612c4f6040830186612b22565b612c5c60c0830185612ab2565b612c6a610100830184612bd5565b95945050505050565b600081519050919050565b600081905092915050565b6000612c9482612c73565b612c9e8185612c7e565b9350612cae8185602086016121b0565b80840191505092915050565b6000612cc68284612c89565b915081905092915050565b7f696e76616c69642070726f6f6600000000000000000000000000000000000000600082015250565b6000612d07600d8361219f565b9150612d1282612cd1565b602082019050919050565b60006020820190508181036000830152612d3681612cfa565b9050919050565b6000606082019050612d526000830186612418565b612d5f602083018561216a565b612d6c6040830184612418565b949350505050565b600081519050612d83816122a9565b92915050565b600060208284031215612d9f57612d9e612246565b5b6000612dad84828501612d74565b91505092915050565b6000604082019050612dcb6000830185612418565b612dd8602083018461216a565b9392505050565b612de881612315565b8114612df357600080fd5b50565b600081519050612e0581612ddf565b92915050565b600060208284031215612e2157612e20612246565b5b6000612e2f84828501612df6565b91505092915050565b6000612e4382612160565b9150612e4e83612160565b9250828203905081811115612e6657612e65612896565b5b92915050565b7f43616e6e6f74206465706f736974207a65726f20746f6b656e73000000000000600082015250565b6000612ea2601a8361219f565b9150612ead82612e6c565b602082019050919050565b60006020820190508181036000830152612ed181612e95565b9050919050565b7f496e73756666696369656e742062616c616e6365000000000000000000000000600082015250565b6000612f0e60148361219f565b9150612f1982612ed8565b602082019050919050565b60006020820190508181036000830152612f3d81612f01565b9050919050565b6000604082019050612f596000830185612418565b612f666020830184612418565b9392505050565b7f496e73756666696369656e7420616c6c6f77616e636500000000000000000000600082015250565b6000612fa360168361219f565b9150612fae82612f6d565b602082019050919050565b60006020820190508181036000830152612fd281612f96565b9050919050565b7f6475706c696361746520636f6d6d69746d656e74206861736800000000000000600082015250565b600061300f60198361219f565b915061301a82612fd9565b602082019050919050565b6000602082019050818103600083015261303e81613002565b9050919050565b60008160011c9050919050565b6000808291508390505b600185111561309c5780860481111561307857613077612896565b5b60018516156130875780820291505b808102905061309585613045565b945061305c565b94509492505050565b6000826130b55760019050613171565b816130c35760009050613171565b81600181146130d957600281146130e357613112565b6001915050613171565b60ff8411156130f5576130f4612896565b5b8360020a91508482111561310c5761310b612896565b5b50613171565b5060208310610133831016604e8410600b84101617156131475782820a90508381111561314257613141612896565b5b613171565b6131548484846001613052565b9250905081840481111561316b5761316a612896565b5b81810290505b9392505050565b600061318382612160565b915061318e83612442565b92506131bb7fffffffffffffffffffffffffffffffffffffffffffffffffffffffffffffffff84846130a5565b905092915050565b7f747265652066756c6c0000000000000000000000000000000000000000000000600082015250565b60006131f960098361219f565b9150613204826131c3565b602082019050919050565b60006020820190508181036000830152613228816131ec565b9050919050565b60006060820190506132446000830186612418565b6132516020830185612418565b61325e604083018461216a565b949350505050565b6000819050919050565b600061ffff82169050919050565b600061329961329461328f84613266565b61234b565b613270565b9050919050565b6132a98161327e565b82525050565b60006080820190506132c46000830187612418565b6132d1602083018661216a565b6132de6040830185612418565b6132eb60608301846132a0565b95945050505050565b7f4e487b7100000000000000000000000000000000000000000000000000000000600052601260045260246000fd5b600061332e82612160565b915061333983612160565b925082613349576133486132f4565b5b828206905092915050565b600060029050919050565b600081905092915050565b6000819050919050565b6000602082019050919050565b61338a81613354565b613394818461335f565b925061339f8261336a565b8060005b838110156133d05781516133b78782612bb0565b96506133c283613374565b9250506001810190506133a3565b505050505050565b60006060820190506133ed6000830185613381565b6133fa604083018461216a565b9392505050565b600061340c82612160565b915061341783612160565b925082613427576134266132f4565b5b828204905092915050565b600061343d82612442565b915060ff82036134505761344f612896565b5b600182019050919050565b600061346682612160565b91507fffffffffffffffffffffffffffffffffffffffffffffffffffffffffffffffff820361349857613497612896565b5b600182019050919050565b6000600a9050919050565b600081905092915050565b6000819050919050565b6000602082019050919050565b6134d9816134a3565b6134e381846134ae565b92506134ee826134b9565b8060005b8381101561351f5781516135068782612bb0565b9650613511836134c3565b9250506001810190506134f2565b505050505050565b6000600a9050919050565b600081905092915050565b6000819050919050565b61355081612442565b82525050565b60006135628383613547565b60208301905092915050565b6000602082019050919050565b61358481613527565b61358e8184613532565b92506135998261353d565b8060005b838110156135ca5781516135b18782613556565b96506135bc8361356e565b92505060018101905061359d565b505050505050565b60006102a0820190506135e860008301866134d0565b6135f661014083018561357b565b61360461028083018461216a565b949350505050565b60006060820190506136216000830186612418565b61362e602083018561216a565b61363b604083018461216a565b94935050505056fea2646970667358221220ce641048cbbae55138459ecce00a149ba79b9ef4bdf8bcff7dbae98c597c76f164736f6c63430008140033",
  "linkReferences": {},
  "deployedLinkReferences": {}
}