{
  "_format": "hh-sol-artifact-1",
  "contractName": "Trivia",
  "sourceName": "contracts/Trivia.sol",
  "abi": [
    {
      "inputs": [
        {
          "internalType": "address",
          "name": "_hasher",
          "type": "address"
        },
        {
          "internalType": "address",
          "name": "_verifier",
          "type": "address"
        },
        {
          "internalType": "address",
          "name": "_usdcToken",
          "type": "address"
        },
        {
          "internalType": "address",
          "name": "_aavePool",
          "type": "address"
        }
      ],
      "stateMutability": "nonpayable",
      "type": "constructor"
    },
    {
      "inputs": [
        {
          "internalType": "address",
          "name": "target",
          "type": "address"
        }
      ],
      "name": "AddressEmptyCode",
      "type": "error"
    },
    {
      "inputs": [
        {
          "internalType": "address",
          "name": "account",
          "type": "address"
        }
      ],
      "name": "AddressInsufficientBalance",
      "type": "error"
    },
    {
      "inputs": [
        {
          "internalType": "address",
          "name": "spender",
          "type": "address"
        },
        {
          "internalType": "uint256",
          "name": "allowance",
          "type": "uint256"
        },
        {
          "internalType": "uint256",
          "name": "needed",
          "type": "uint256"
        }
      ],
      "name": "ERC20InsufficientAllowance",
      "type": "error"
    },
    {
      "inputs": [
        {
          "internalType": "address",
          "name": "sender",
          "type": "address"
        },
        {
          "internalType": "uint256",
          "name": "balance",
          "type": "uint256"
        },
        {
          "internalType": "uint256",
          "name": "needed",
          "type": "uint256"
        }
      ],
      "name": "ERC20InsufficientBalance",
      "type": "error"
    },
    {
      "inputs": [
        {
          "internalType": "address",
          "name": "approver",
          "type": "address"
        }
      ],
      "name": "ERC20InvalidApprover",
      "type": "error"
    },
    {
      "inputs": [
        {
          "internalType": "address",
          "name": "receiver",
          "type": "address"
        }
      ],
      "name": "ERC20InvalidReceiver",
      "type": "error"
    },
    {
      "inputs": [
        {
          "internalType": "address",
          "name": "sender",
          "type": "address"
        }
      ],
      "name": "ERC20InvalidSender",
      "type": "error"
    },
    {
      "inputs": [
        {
          "internalType": "address",
          "name": "spender",
          "type": "address"
        }
      ],
      "name": "ERC20InvalidSpender",
      "type": "error"
    },
    {
      "inputs": [],
      "name": "FailedInnerCall",
      "type": "error"
    },
    {
      "inputs": [],
      "name": "InvalidInitialization",
      "type": "error"
    },
    {
      "inputs": [],
      "name": "NotInitializing",
      "type": "error"
    },
    {
      "inputs": [
        {
          "internalType": "address",
          "name": "owner",
          "type": "address"
        }
      ],
      "name": "OwnableInvalidOwner",
      "type": "error"
    },
    {
      "inputs": [
        {
          "internalType": "address",
          "name": "account",
          "type": "address"
        }
      ],
      "name": "OwnableUnauthorizedAccount",
      "type": "error"
    },
    {
      "inputs": [
        {
          "internalType": "address",
          "name": "token",
          "type": "address"
        }
      ],
      "name": "SafeERC20FailedOperation",
      "type": "error"
    },
    {
      "anonymous": false,
      "inputs": [
        {
          "indexed": true,
          "internalType": "address",
          "name": "owner",
          "type": "address"
        },
        {
          "indexed": true,
          "internalType": "address",
          "name": "spender",
          "type": "address"
        },
        {
          "indexed": false,
          "internalType": "uint256",
          "name": "value",
          "type": "uint256"
        }
      ],
      "name": "Approval",
      "type": "event"
    },
    {
      "anonymous": false,
      "inputs": [
        {
          "indexed": true,
          "internalType": "uint256",
          "name": "root",
          "type": "uint256"
        },
        {
          "indexed": false,
          "internalType": "uint256[10]",
          "name": "hashPairings",
          "type": "uint256[10]"
        },
        {
          "indexed": false,
          "internalType": "uint8[10]",
          "name": "pairDirection",
          "type": "uint8[10]"
        },
        {
          "indexed": false,
          "internalType": "uint256",
          "name": "amount",
          "type": "uint256"
        }
      ],
      "name": "Deposit",
      "type": "event"
    },
    {
      "anonymous": false,
      "inputs": [
        {
          "indexed": false,
          "internalType": "uint64",
          "name": "version",
          "type": "uint64"
        }
      ],
      "name": "Initialized",
      "type": "event"
    },
    {
      "anonymous": false,
      "inputs": [
        {
          "indexed": true,
          "internalType": "address",
          "name": "previousOwner",
          "type": "address"
        },
        {
          "indexed": true,
          "internalType": "address",
          "name": "newOwner",
          "type": "address"
        }
      ],
      "name": "OwnershipTransferred",
      "type": "event"
    },
    {
      "anonymous": false,
      "inputs": [
        {
          "indexed": true,
          "internalType": "address",
          "name": "from",
          "type": "address"
        },
        {
          "indexed": true,
          "internalType": "address",
          "name": "to",
          "type": "address"
        },
        {
          "indexed": false,
          "internalType": "uint256",
          "name": "value",
          "type": "uint256"
        }
      ],
      "name": "Transfer",
      "type": "event"
    },
    {
      "anonymous": false,
      "inputs": [
        {
          "indexed": true,
          "internalType": "address",
          "name": "user",
          "type": "address"
        },
        {
          "indexed": true,
          "internalType": "uint256",
          "name": "nullifierHash",
          "type": "uint256"
        },
        {
          "indexed": false,
          "internalType": "uint256",
          "name": "amount",
          "type": "uint256"
        }
      ],
      "name": "Withdrawal",
      "type": "event"
    },
    {
      "inputs": [],
      "name": "LOCK_PERIOD",
      "outputs": [
        {
          "internalType": "uint256",
          "name": "",
          "type": "uint256"
        }
      ],
      "stateMutability": "view",
      "type": "function"
    },
    {
      "inputs": [],
      "name": "aavePool",
      "outputs": [
        {
          "internalType": "contract IPool",
          "name": "",
          "type": "address"
        }
      ],
      "stateMutability": "view",
      "type": "function"
    },
    {
      "inputs": [
        {
          "internalType": "address",
          "name": "owner",
          "type": "address"
        },
        {
          "internalType": "address",
          "name": "spender",
          "type": "address"
        }
      ],
      "name": "allowance",
      "outputs": [
        {
          "internalType": "uint256",
          "name": "",
          "type": "uint256"
        }
      ],
      "stateMutability": "view",
      "type": "function"
    },
    {
      "inputs": [
        {
          "internalType": "address",
          "name": "spender",
          "type": "address"
        },
        {
          "internalType": "uint256",
          "name": "value",
          "type": "uint256"
        }
      ],
      "name": "approve",
      "outputs": [
        {
          "internalType": "bool",
          "name": "",
          "type": "bool"
        }
      ],
      "stateMutability": "nonpayable",
      "type": "function"
    },
    {
      "inputs": [
        {
          "internalType": "address",
          "name": "account",
          "type": "address"
        }
      ],
      "name": "balanceOf",
      "outputs": [
        {
          "internalType": "uint256",
          "name": "",
          "type": "uint256"
        }
      ],
      "stateMutability": "view",
      "type": "function"
    },
    {
      "inputs": [
        {
          "internalType": "uint256",
          "name": "",
          "type": "uint256"
        }
      ],
      "name": "commitments",
      "outputs": [
        {
          "internalType": "bool",
          "name": "",
          "type": "bool"
        }
      ],
      "stateMutability": "view",
      "type": "function"
    },
    {
      "inputs": [],
      "name": "decimals",
      "outputs": [
        {
          "internalType": "uint8",
          "name": "",
          "type": "uint8"
        }
      ],
      "stateMutability": "view",
      "type": "function"
    },
    {
      "inputs": [
        {
          "internalType": "uint256",
          "name": "amount",
          "type": "uint256"
        },
        {
          "internalType": "uint256",
          "name": "_commitment",
          "type": "uint256"
        }
      ],
      "name": "deposit",
      "outputs": [],
      "stateMutability": "nonpayable",
      "type": "function"
    },
    {
      "inputs": [],
      "name": "getAccountInformation",
      "outputs": [
        {
          "internalType": "uint256",
          "name": "totalCollateralBase",
          "type": "uint256"
        },
        {
          "internalType": "uint256",
          "name": "totalDebtBase",
          "type": "uint256"
        },
        {
          "internalType": "uint256",
          "name": "availableBorrowsBase",
          "type": "uint256"
        },
        {
          "internalType": "uint256",
          "name": "currentLiquidationThreshold",
          "type": "uint256"
        },
        {
          "internalType": "uint256",
          "name": "ltv",
          "type": "uint256"
        },
        {
          "internalType": "uint256",
          "name": "healthFactor",
          "type": "uint256"
        }
      ],
      "stateMutability": "view",
      "type": "function"
    },
    {
      "inputs": [],
      "name": "hasher",
      "outputs": [
        {
          "internalType": "contract Hasher",
          "name": "",
          "type": "address"
        }
      ],
      "stateMutability": "view",
      "type": "function"
    },
    {
      "inputs": [
        {
          "internalType": "uint8",
          "name": "",
          "type": "uint8"
        }
      ],
      "name": "lastLevelHash",
      "outputs": [
        {
          "internalType": "uint256",
          "name": "",
          "type": "uint256"
        }
      ],
      "stateMutability": "view",
      "type": "function"
    },
    {
      "inputs": [],
      "name": "name",
      "outputs": [
        {
          "internalType": "string",
          "name": "",
          "type": "string"
        }
      ],
      "stateMutability": "view",
      "type": "function"
    },
    {
      "inputs": [],
      "name": "nextLeafIdex",
      "outputs": [
        {
          "internalType": "uint256",
          "name": "",
          "type": "uint256"
        }
      ],
      "stateMutability": "view",
      "type": "function"
    },
    {
      "inputs": [
        {
          "internalType": "uint256",
          "name": "",
          "type": "uint256"
        }
      ],
      "name": "nullifierHashs",
      "outputs": [
        {
          "internalType": "bool",
          "name": "",
          "type": "bool"
        }
      ],
      "stateMutability": "view",
      "type": "function"
    },
    {
      "inputs": [],
      "name": "owner",
      "outputs": [
        {
          "internalType": "address",
          "name": "",
          "type": "address"
        }
      ],
      "stateMutability": "view",
      "type": "function"
    },
    {
      "inputs": [],
      "name": "renounceOwnership",
      "outputs": [],
      "stateMutability": "nonpayable",
      "type": "function"
    },
    {
      "inputs": [
        {
          "internalType": "uint256",
          "name": "",
          "type": "uint256"
        }
      ],
      "name": "roots",
      "outputs": [
        {
          "internalType": "bool",
          "name": "",
          "type": "bool"
        }
      ],
      "stateMutability": "view",
      "type": "function"
    },
    {
      "inputs": [],
      "name": "symbol",
      "outputs": [
        {
          "internalType": "string",
          "name": "",
          "type": "string"
        }
      ],
      "stateMutability": "view",
      "type": "function"
    },
    {
      "inputs": [],
      "name": "timelockId",
      "outputs": [
        {
          "internalType": "uint256",
          "name": "",
          "type": "uint256"
        }
      ],
      "stateMutability": "view",
      "type": "function"
    },
    {
      "inputs": [
        {
          "internalType": "uint256",
          "name": "",
          "type": "uint256"
        }
      ],
      "name": "timelockToken",
      "outputs": [
        {
          "internalType": "address",
          "name": "owner",
          "type": "address"
        },
        {
          "internalType": "uint256",
          "name": "amount",
          "type": "uint256"
        },
        {
          "internalType": "uint256",
          "name": "timelockStart",
          "type": "uint256"
        },
        {
          "internalType": "bool",
          "name": "valid",
          "type": "bool"
        }
      ],
      "stateMutability": "view",
      "type": "function"
    },
    {
      "inputs": [],
      "name": "totalStaked",
      "outputs": [
        {
          "internalType": "uint256",
          "name": "",
          "type": "uint256"
        }
      ],
      "stateMutability": "view",
      "type": "function"
    },
    {
      "inputs": [],
      "name": "totalSupply",
      "outputs": [
        {
          "internalType": "uint256",
          "name": "",
          "type": "uint256"
        }
      ],
      "stateMutability": "view",
      "type": "function"
    },
    {
      "inputs": [
        {
          "internalType": "address",
          "name": "to",
          "type": "address"
        },
        {
          "internalType": "uint256",
          "name": "value",
          "type": "uint256"
        }
      ],
      "name": "transfer",
      "outputs": [
        {
          "internalType": "bool",
          "name": "",
          "type": "bool"
        }
      ],
      "stateMutability": "nonpayable",
      "type": "function"
    },
    {
      "inputs": [
        {
          "internalType": "address",
          "name": "from",
          "type": "address"
        },
        {
          "internalType": "address",
          "name": "to",
          "type": "address"
        },
        {
          "internalType": "uint256",
          "name": "value",
          "type": "uint256"
        }
      ],
      "name": "transferFrom",
      "outputs": [
        {
          "internalType": "bool",
          "name": "",
          "type": "bool"
        }
      ],
      "stateMutability": "nonpayable",
      "type": "function"
    },
    {
      "inputs": [
        {
          "internalType": "address",
          "name": "newOwner",
          "type": "address"
        }
      ],
      "name": "transferOwnership",
      "outputs": [],
      "stateMutability": "nonpayable",
      "type": "function"
    },
    {
      "inputs": [],
      "name": "treeLevel",
      "outputs": [
        {
          "internalType": "uint8",
          "name": "",
          "type": "uint8"
        }
      ],
      "stateMutability": "view",
      "type": "function"
    },
    {
      "inputs": [],
      "name": "usdcToken",
      "outputs": [
        {
          "internalType": "address",
          "name": "",
          "type": "address"
        }
      ],
      "stateMutability": "view",
      "type": "function"
    },
    {
      "inputs": [],
      "name": "verifier",
      "outputs": [
        {
          "internalType": "address",
          "name": "",
          "type": "address"
        }
      ],
      "stateMutability": "view",
      "type": "function"
    },
    {
      "inputs": [
        {
          "internalType": "uint256",
          "name": "id",
          "type": "uint256"
        },
        {
          "internalType": "uint256[2]",
          "name": "_pA",
          "type": "uint256[2]"
        },
        {
          "internalType": "uint256[2][2]",
          "name": "_pB",
          "type": "uint256[2][2]"
        },
        {
          "internalType": "uint256[2]",
          "name": "_pC",
          "type": "uint256[2]"
        },
        {
          "internalType": "uint256[2]",
          "name": "_pubSignals",
          "type": "uint256[2]"
        }
      ],
      "name": "withdraw",
      "outputs": [],
      "stateMutability": "nonpayable",
      "type": "function"
    }
  ],
  "bytecode": "0x6080604052600a600660006101000a81548160ff021916908360ff16021790555060006007556040518061014001604052807fd4b1397294ac371d7e6327985b84e513e1a67d7511cd9e97c8d863f475234ff381526020017f7a1950291d8f8d98ffa31fb48d4ade1f75579c189663a7ad6253e054eb3c6e0281526020017f9a5bd8dcbf46dd9d94aa5f453a88c30ea30078f4233b48b7e6a09c309efcaacf81526020017f10d25a62653575746e8c8d14d457cad6d4d84237f8c0469f2b6fc1d8eefdedcf81526020017fb8cca00d5457eeba20a4a2559e4b7b8474aa461fdcca193ab9c684f42548a79281526020017ff1fa21b6a1c7e39c31bc19188cd3492b0093f7a08b3a5452bcc90fd72e39169b81526020017fa7719a5fce76578cf8f2fe028aa33a8d8dafbb9d56d135d6bdbb98b588bfbe4d81526020017fd74b7e6e290c206af23fa785f7088f4646778a6f4e238bff11a81493b421da6b81526020017f43b04fd9e248d46a8e3c53786aaa06abcbc7152859d957393a7ed77f937b82df81526020017f4a6b78ef2b2e9ae43bb3c90c13058a03141de722292df4b889908ef2f19fd3e6815250600d90600a620001bd92919062000687565b50348015620001cb57600080fd5b5060405162004708380380620047088339818101604052810190620001f1919062000755565b83600160006101000a81548173ffffffffffffffffffffffffffffffffffffffff021916908373ffffffffffffffffffffffffffffffffffffffff160217905550826000806101000a81548173ffffffffffffffffffffffffffffffffffffffff021916908373ffffffffffffffffffffffffffffffffffffffff16021790555081600360006101000a81548173ffffffffffffffffffffffffffffffffffffffff021916908373ffffffffffffffffffffffffffffffffffffffff16021790555080600260006101000a81548173ffffffffffffffffffffffffffffffffffffffff021916908373ffffffffffffffffffffffffffffffffffffffff160217905550620003706040518060400160405280600681526020017f54524956494100000000000000000000000000000000000000000000000000008152506040518060400160405280600681526020017f54524956494100000000000000000000000000000000000000000000000000008152506200038b60201b60201c565b6200038133620003b160201b60201c565b5050505062000b56565b6200039b620003d560201b60201c565b620003ad82826200041e60201b60201c565b5050565b620003c1620003d560201b60201c565b620003d2816200046f60201b60201c565b50565b620003e56200050860201b60201c565b6200041c576040517fd7e6bcf800000000000000000000000000000000000000000000000000000000815260040160405180910390fd5b565b6200042e620003d560201b60201c565b6000620004406200053060201b60201c565b90508281600301908162000455919062000a41565b508181600401908162000469919062000a41565b50505050565b6200047f620003d560201b60201c565b600073ffffffffffffffffffffffffffffffffffffffff168173ffffffffffffffffffffffffffffffffffffffff1603620004f45760006040517f1e4fbdf7000000000000000000000000000000000000000000000000000000008152600401620004eb919062000b39565b60405180910390fd5b62000505816200055860201b60201c565b50565b60006200051a6200063760201b60201c565b60000160089054906101000a900460ff16905090565b60007f52c63247e1f47db19d5ce0460030c497f067ca4cebf71ba98eeadabe20bace00905090565b60006200056a6200065f60201b60201c565b905060008160000160009054906101000a900473ffffffffffffffffffffffffffffffffffffffff169050828260000160006101000a81548173ffffffffffffffffffffffffffffffffffffffff021916908373ffffffffffffffffffffffffffffffffffffffff1602179055508273ffffffffffffffffffffffffffffffffffffffff168173ffffffffffffffffffffffffffffffffffffffff167f8be0079c531659141344cd1fd0a4f28419497f9722a3daafe3b4186f6b6457e060405160405180910390a3505050565b60007ff0c57e16840df040f15088dc2f81fe391c3923bec73e23a9662efc9c229c6a00905090565b60007f9016d09d72d40fdae2fd8ceac6b6234c7706214fd39c1cd1e609a0528c199300905090565b82600a8101928215620006b9579160200282015b82811115620006b85782518255916020019190600101906200069b565b5b509050620006c89190620006cc565b5090565b5b80821115620006e7576000816000905550600101620006cd565b5090565b600080fd5b600073ffffffffffffffffffffffffffffffffffffffff82169050919050565b60006200071d82620006f0565b9050919050565b6200072f8162000710565b81146200073b57600080fd5b50565b6000815190506200074f8162000724565b92915050565b60008060008060808587031215620007725762000771620006eb565b5b600062000782878288016200073e565b945050602062000795878288016200073e565b9350506040620007a8878288016200073e565b9250506060620007bb878288016200073e565b91505092959194509250565b600081519050919050565b7f4e487b7100000000000000000000000000000000000000000000000000000000600052604160045260246000fd5b7f4e487b7100000000000000000000000000000000000000000000000000000000600052602260045260246000fd5b600060028204905060018216806200084957607f821691505b6020821081036200085f576200085e62000801565b5b50919050565b60008190508160005260206000209050919050565b60006020601f8301049050919050565b600082821b905092915050565b600060088302620008c97fffffffffffffffffffffffffffffffffffffffffffffffffffffffffffffffff826200088a565b620008d586836200088a565b95508019841693508086168417925050509392505050565b6000819050919050565b6000819050919050565b6000620009226200091c6200091684620008ed565b620008f7565b620008ed565b9050919050565b6000819050919050565b6200093e8362000901565b620009566200094d8262000929565b84845462000897565b825550505050565b600090565b6200096d6200095e565b6200097a81848462000933565b505050565b5b81811015620009a2576200099660008262000963565b60018101905062000980565b5050565b601f821115620009f157620009bb8162000865565b620009c6846200087a565b81016020851015620009d6578190505b620009ee620009e5856200087a565b8301826200097f565b50505b505050565b600082821c905092915050565b600062000a1660001984600802620009f6565b1980831691505092915050565b600062000a31838362000a03565b9150826002028217905092915050565b62000a4c82620007c7565b67ffffffffffffffff81111562000a685762000a67620007d2565b5b62000a74825462000830565b62000a81828285620009a6565b600060209050601f83116001811462000ab9576000841562000aa4578287015190505b62000ab0858262000a23565b86555062000b20565b601f19841662000ac98662000865565b60005b8281101562000af35784890151825560018201915060208501945060208101905062000acc565b8683101562000b13578489015162000b0f601f89168262000a03565b8355505b6001600288020188555050505b505050505050565b62000b338162000710565b82525050565b600060208201905062000b50600083018462000b28565b92915050565b613ba28062000b666000396000f3fe608060405234801561001057600080fd5b50600436106101cf5760003560e01c806378757d5711610104578063b8e79564116100a2578063dd62ed3e11610071578063dd62ed3e14610556578063e2bbb15814610586578063ed33639f146105a2578063f2fde38b146105c0576101cf565b8063b8e79564146104a5578063c2b40ae4146104c3578063cee9e428146104f3578063d540004714610526576101cf565b80638da5cb5b116100de5780638da5cb5b1461041b57806395d89b4114610439578063a03e4bc314610457578063a9059cbb14610475576101cf565b806378757d57146103aa5780637b5758b1146103cd578063817b1cd2146103fd576101cf565b80632b7ac3f31161017157806349ce89971161014b57806349ce8997146103245780636fece60b1461035457806370a0823114610370578063715018a6146103a0576101cf565b80632b7ac3f3146102ca578063313ce567146102e85780634056ff1b14610306576101cf565b806311eac855116101ad57806311eac8551461024057806318160ddd1461025e5780631820cabb1461027c57806323b872dd1461029a576101cf565b806306683e4b146101d457806306fdde03146101f2578063095ea7b314610210575b600080fd5b6101dc6105dc565b6040516101e991906125f0565b60405180910390f35b6101fa6105e2565b604051610207919061269b565b60405180910390f35b61022a6004803603810190610225919061274c565b610683565b60405161023791906127a7565b60405180910390f35b6102486106a6565b60405161025591906127d1565b60405180910390f35b6102666106cc565b60405161027391906125f0565b60405180910390f35b6102846106e4565b60405161029191906125f0565b60405180910390f35b6102b460048036038101906102af91906127ec565b6106eb565b6040516102c191906127a7565b60405180910390f35b6102d261071a565b6040516102df91906127d1565b60405180910390f35b6102f061073e565b6040516102fd919061285b565b60405180910390f35b61030e610747565b60405161031b91906125f0565b60405180910390f35b61033e60048036038101906103399190612876565b61074d565b60405161034b91906127a7565b60405180910390f35b61036e600480360381019061036991906128ec565b61076d565b005b61038a60048036038101906103859190612969565b610d47565b60405161039791906125f0565b60405180910390f35b6103a8610d9e565b005b6103b2610db2565b6040516103c496959493929190612996565b60405180910390f35b6103e760048036038101906103e29190612876565b610e77565b6040516103f491906127a7565b60405180910390f35b610405610e97565b60405161041291906125f0565b60405180910390f35b610423610e9d565b60405161043091906127d1565b60405180910390f35b610441610ed5565b60405161044e919061269b565b60405180910390f35b61045f610f76565b60405161046c9190612a56565b60405180910390f35b61048f600480360381019061048a919061274c565b610f9c565b60405161049c91906127a7565b60405180910390f35b6104ad610fbf565b6040516104ba919061285b565b60405180910390f35b6104dd60048036038101906104d89190612876565b610fd2565b6040516104ea91906127a7565b60405180910390f35b61050d60048036038101906105089190612876565b610ff2565b60405161051d9493929190612a71565b60405180910390f35b610540600480360381019061053b9190612ae2565b61105f565b60405161054d91906125f0565b60405180910390f35b610570600480360381019061056b9190612b0f565b611077565b60405161057d91906125f0565b60405180910390f35b6105a0600480360381019061059b9190612b4f565b61110c565b005b6105aa6119ff565b6040516105b79190612bb0565b60405180910390f35b6105da60048036038101906105d59190612969565b611a25565b005b60075481565b606060006105ee611aab565b90508060030180546105ff90612bfa565b80601f016020809104026020016040519081016040528092919081815260200182805461062b90612bfa565b80156106785780601f1061064d57610100808354040283529160200191610678565b820191906000526020600020905b81548152906001019060200180831161065b57829003601f168201915b505050505091505090565b60008061068e611ad3565b905061069b818585611adb565b600191505092915050565b600360009054906101000a900473ffffffffffffffffffffffffffffffffffffffff1681565b6000806106d7611aab565b9050806002015491505090565b6276a70081565b6000806106f6611ad3565b9050610703858285611aed565b61070e858585611b81565b60019150509392505050565b60008054906101000a900473ffffffffffffffffffffffffffffffffffffffff1681565b60006012905090565b60055481565b600c6020528060005260406000206000915054906101000a900460ff1681565b60055485106107b1576040517f08c379a00000000000000000000000000000000000000000000000000000000081526004016107a890612c77565b60405180910390fd5b6000600886815481106107c7576107c6612c97565b5b906000526020600020906004020190508060000160009054906101000a900473ffffffffffffffffffffffffffffffffffffffff1673ffffffffffffffffffffffffffffffffffffffff163373ffffffffffffffffffffffffffffffffffffffff1614610869576040517f08c379a000000000000000000000000000000000000000000000000000000000815260040161086090612d12565b60405180910390fd5b6276a700816002015461087c9190612d61565b4210156108be576040517f08c379a00000000000000000000000000000000000000000000000000000000081526004016108b590612de1565b60405180910390fd5b8060030160009054906101000a900460ff1661090f576040517f08c379a000000000000000000000000000000000000000000000000000000000815260040161090690612e4d565b60405180910390fd5b60008260006002811061092557610924612c97565b5b6020020135905060008360016002811061094257610941612c97565b5b60200201359050600b600082815260200190815260200160002060009054906101000a900460ff16156109aa576040517f08c379a00000000000000000000000000000000000000000000000000000000081526004016109a190612eb9565b60405180910390fd5b6009600083815260200190815260200160002060009054906101000a900460ff16610a0a576040517f08c379a0000000000000000000000000000000000000000000000000000000008152600401610a0190612f25565b60405180910390fd5b60003373ffffffffffffffffffffffffffffffffffffffff16905060008060009054906101000a900473ffffffffffffffffffffffffffffffffffffffff1673ffffffffffffffffffffffffffffffffffffffff16898989604051806060016040528089815260200188815260200187815250604051602401610a9094939291906130c8565b6040516020818303038152906040526311479fea60e01b6020820180517bffffffffffffffffffffffffffffffffffffffffffffffffffffffff8381831617835250505050604051610ae29190613156565b6000604051808303816000865af19150503d8060008114610b1f576040519150601f19603f3d011682016040523d82523d6000602084013e610b24565b606091505b5050905080610b68576040517f08c379a0000000000000000000000000000000000000000000000000000000008152600401610b5f906131b9565b60405180910390fd5b6001600b600085815260200190815260200160002060006101000a81548160ff021916908315150217905550600260009054906101000a900473ffffffffffffffffffffffffffffffffffffffff1673ffffffffffffffffffffffffffffffffffffffff166369328dec600360009054906101000a900473ffffffffffffffffffffffffffffffffffffffff168760010154306040518463ffffffff1660e01b8152600401610c19939291906131d9565b6020604051808303816000875af1158015610c38573d6000803e3d6000fd5b505050506040513d601f19601f82011682018060405250810190610c5c9190613225565b50610cae338660010154600360009054906101000a900473ffffffffffffffffffffffffffffffffffffffff1673ffffffffffffffffffffffffffffffffffffffff16611c759092919063ffffffff16565b846001015460046000828254610cc49190613252565b9250508190555060008560030160006101000a81548160ff021916908315150217905550823373ffffffffffffffffffffffffffffffffffffffff167fdf273cb619d95419a9cd0ec88123a0538c85064229baa6363788f743fff90deb8760010154604051610d3391906125f0565b60405180910390a350505050505050505050565b600080610d52611aab565b90508060000160008473ffffffffffffffffffffffffffffffffffffffff1673ffffffffffffffffffffffffffffffffffffffff16815260200190815260200160002054915050919050565b610da6611cf4565b610db06000611d7b565b565b600080600080600080600260009054906101000a900473ffffffffffffffffffffffffffffffffffffffff1673ffffffffffffffffffffffffffffffffffffffff1663bf92857c306040518263ffffffff1660e01b8152600401610e1691906127d1565b60c060405180830381865afa158015610e33573d6000803e3d6000fd5b505050506040513d601f19601f82011682018060405250810190610e579190613286565b809650819750829850839950849a50859b50505050505050909192939495565b600b6020528060005260406000206000915054906101000a900460ff1681565b60045481565b600080610ea8611e52565b90508060000160009054906101000a900473ffffffffffffffffffffffffffffffffffffffff1691505090565b60606000610ee1611aab565b9050806004018054610ef290612bfa565b80601f0160208091040260200160405190810160405280929190818152602001828054610f1e90612bfa565b8015610f6b5780601f10610f4057610100808354040283529160200191610f6b565b820191906000526020600020905b815481529060010190602001808311610f4e57829003601f168201915b505050505091505090565b600260009054906101000a900473ffffffffffffffffffffffffffffffffffffffff1681565b600080610fa7611ad3565b9050610fb4818585611b81565b600191505092915050565b600660009054906101000a900460ff1681565b60096020528060005260406000206000915054906101000a900460ff1681565b6008818154811061100257600080fd5b90600052602060002090600402016000915090508060000160009054906101000a900473ffffffffffffffffffffffffffffffffffffffff16908060010154908060020154908060030160009054906101000a900460ff16905084565b600a6020528060005260406000206000915090505481565b600080611082611aab565b90508060010160008573ffffffffffffffffffffffffffffffffffffffff1673ffffffffffffffffffffffffffffffffffffffff16815260200190815260200160002060008473ffffffffffffffffffffffffffffffffffffffff1673ffffffffffffffffffffffffffffffffffffffff1681526020019081526020016000205491505092915050565b6000821161114f576040517f08c379a00000000000000000000000000000000000000000000000000000000081526004016111469061335f565b60405180910390fd5b81600360009054906101000a900473ffffffffffffffffffffffffffffffffffffffff1673ffffffffffffffffffffffffffffffffffffffff166370a08231336040518263ffffffff1660e01b81526004016111ab91906127d1565b602060405180830381865afa1580156111c8573d6000803e3d6000fd5b505050506040513d601f19601f820116820180604052508101906111ec9190613225565b101561122d576040517f08c379a0000000000000000000000000000000000000000000000000000000008152600401611224906133cb565b60405180910390fd5b81600360009054906101000a900473ffffffffffffffffffffffffffffffffffffffff1673ffffffffffffffffffffffffffffffffffffffff1663dd62ed3e33306040518363ffffffff1660e01b815260040161128b9291906133eb565b602060405180830381865afa1580156112a8573d6000803e3d6000fd5b505050506040513d601f19601f820116820180604052508101906112cc9190613225565b101561130d576040517f08c379a000000000000000000000000000000000000000000000000000000000815260040161130490613460565b60405180910390fd5b600c600082815260200190815260200160002060009054906101000a900460ff161561136e576040517f08c379a0000000000000000000000000000000000000000000000000000000008152600401611365906134cc565b60405180910390fd5b600660009054906101000a900460ff16600261138a919061361f565b600754106113cd576040517f08c379a00000000000000000000000000000000000000000000000000000000081526004016113c4906136b6565b60405180910390fd5b61141c333084600360009054906101000a900473ffffffffffffffffffffffffffffffffffffffff1673ffffffffffffffffffffffffffffffffffffffff16611e7a909392919063ffffffff16565b600360009054906101000a900473ffffffffffffffffffffffffffffffffffffffff1673ffffffffffffffffffffffffffffffffffffffff1663095ea7b3600260009054906101000a900473ffffffffffffffffffffffffffffffffffffffff16846040518363ffffffff1660e01b815260040161149b9291906136d6565b6020604051808303816000875af11580156114ba573d6000803e3d6000fd5b505050506040513d601f19601f820116820180604052508101906114de919061372b565b50600260009054906101000a900473ffffffffffffffffffffffffffffffffffffffff1673ffffffffffffffffffffffffffffffffffffffff1663617ba037600360009054906101000a900473ffffffffffffffffffffffffffffffffffffffff16843060006040518563ffffffff1660e01b815260040161156394939291906137a1565b600060405180830381600087803b15801561157d57600080fd5b505af1158015611591573d6000803e3d6000fd5b50505050600860405180608001604052803373ffffffffffffffffffffffffffffffffffffffff16815260200184815260200142815260200160011515815250908060018154018082558091505060019003906000526020600020906004020160009091909190915060008201518160000160006101000a81548173ffffffffffffffffffffffffffffffffffffffff021916908373ffffffffffffffffffffffffffffffffffffffff160217905550602082015181600101556040820151816002015560608201518160030160006101000a81548160ff0219169083151502179055505050600061168161256f565b611689612592565b6000600754905060008590506000806116a06125b5565b60005b600660009054906101000a900460ff1660ff168160ff1610156119105784600a6000600660009054906101000a900460ff1660ff1660ff1681526020019081526020016000208190555060006002876116fc9190613815565b0361178557849350600d8160ff16600a811061171b5761171a612c97565b5b01549250600d8160ff16600a811061173657611735612c97565b5b0154888260ff16600a811061174e5761174d612c97565b5b6020020181815250506000878260ff16600a811061176f5761176e612c97565b5b602002019060ff16908160ff1681525050611807565b600a60008260ff1660ff168152602001908152602001600020549350849250600a60008260ff1660ff16815260200190815260200160002054888260ff16600a81106117d4576117d3612c97565b5b6020020181815250506001878260ff16600a81106117f5576117f4612c97565b5b602002019060ff16908160ff16815250505b838260006002811061181c5761181b612c97565b5b602002018181525050828260016002811061183a57611839612c97565b5b6020020181815250506000600160009054906101000a900473ffffffffffffffffffffffffffffffffffffffff1673ffffffffffffffffffffffffffffffffffffffff1663d622e5a4620249f0858e6040518463ffffffff1660e01b81526004016118a69291906138ca565b6020604051808303818786fa1580156118c3573d6000803e3d6000fd5b50505050506040513d601f19601f820116820180604052508101906118e89190613225565b90508095506002876118fa91906138f3565b965050808061190890613924565b9150506116a3565b508397506001600960008a815260200190815260200160002060006101000a81548160ff0219169083151502179055506001600760008282546119539190612d61565b925050819055506001600c60008b815260200190815260200160002060006101000a81548160ff02191690831515021790555089600460008282546119989190612d61565b92505081905550600560008154809291906119b29061394d565b9190505550877f839aef75338d2a3413d910305b67d28e181da1837c548c3a2b2ef147f33b008a88888d6040516119eb93929190613ac4565b60405180910390a250505050505050505050565b600160009054906101000a900473ffffffffffffffffffffffffffffffffffffffff1681565b611a2d611cf4565b600073ffffffffffffffffffffffffffffffffffffffff168173ffffffffffffffffffffffffffffffffffffffff1603611a9f5760006040517f1e4fbdf7000000000000000000000000000000000000000000000000000000008152600401611a9691906127d1565b60405180910390fd5b611aa881611d7b565b50565b60007f52c63247e1f47db19d5ce0460030c497f067ca4cebf71ba98eeadabe20bace00905090565b600033905090565b611ae88383836001611efc565b505050565b6000611af98484611077565b90507fffffffffffffffffffffffffffffffffffffffffffffffffffffffffffffffff8114611b7b5781811015611b6b578281836040517ffb8f41b2000000000000000000000000000000000000000000000000000000008152600401611b6293929190613afe565b60405180910390fd5b611b7a84848484036000611efc565b5b50505050565b600073ffffffffffffffffffffffffffffffffffffffff168373ffffffffffffffffffffffffffffffffffffffff1603611bf35760006040517f96c6fd1e000000000000000000000000000000000000000000000000000000008152600401611bea91906127d1565b60405180910390fd5b600073ffffffffffffffffffffffffffffffffffffffff168273ffffffffffffffffffffffffffffffffffffffff1603611c655760006040517fec442f05000000000000000000000000000000000000000000000000000000008152600401611c5c91906127d1565b60405180910390fd5b611c708383836120e2565b505050565b611cef838473ffffffffffffffffffffffffffffffffffffffff1663a9059cbb8585604051602401611ca89291906136d6565b604051602081830303815290604052915060e01b6020820180517bffffffffffffffffffffffffffffffffffffffffffffffffffffffff8381831617835250505050612321565b505050565b611cfc611ad3565b73ffffffffffffffffffffffffffffffffffffffff16611d1a610e9d565b73ffffffffffffffffffffffffffffffffffffffff1614611d7957611d3d611ad3565b6040517f118cdaa7000000000000000000000000000000000000000000000000000000008152600401611d7091906127d1565b60405180910390fd5b565b6000611d85611e52565b905060008160000160009054906101000a900473ffffffffffffffffffffffffffffffffffffffff169050828260000160006101000a81548173ffffffffffffffffffffffffffffffffffffffff021916908373ffffffffffffffffffffffffffffffffffffffff1602179055508273ffffffffffffffffffffffffffffffffffffffff168173ffffffffffffffffffffffffffffffffffffffff167f8be0079c531659141344cd1fd0a4f28419497f9722a3daafe3b4186f6b6457e060405160405180910390a3505050565b60007f9016d09d72d40fdae2fd8ceac6b6234c7706214fd39c1cd1e609a0528c199300905090565b611ef6848573ffffffffffffffffffffffffffffffffffffffff166323b872dd868686604051602401611eaf93929190613b35565b604051602081830303815290604052915060e01b6020820180517bffffffffffffffffffffffffffffffffffffffffffffffffffffffff8381831617835250505050612321565b50505050565b6000611f06611aab565b9050600073ffffffffffffffffffffffffffffffffffffffff168573ffffffffffffffffffffffffffffffffffffffff1603611f7a5760006040517fe602df05000000000000000000000000000000000000000000000000000000008152600401611f7191906127d1565b60405180910390fd5b600073ffffffffffffffffffffffffffffffffffffffff168473ffffffffffffffffffffffffffffffffffffffff1603611fec5760006040517f94280d62000000000000000000000000000000000000000000000000000000008152600401611fe391906127d1565b60405180910390fd5b828160010160008773ffffffffffffffffffffffffffffffffffffffff1673ffffffffffffffffffffffffffffffffffffffff16815260200190815260200160002060008673ffffffffffffffffffffffffffffffffffffffff1673ffffffffffffffffffffffffffffffffffffffff1681526020019081526020016000208190555081156120db578373ffffffffffffffffffffffffffffffffffffffff168573ffffffffffffffffffffffffffffffffffffffff167f8c5be1e5ebec7d5bd14f71427d1e84f3dd0314c0f7b2291e5b200ac8c7c3b925856040516120d291906125f0565b60405180910390a35b5050505050565b60006120ec611aab565b9050600073ffffffffffffffffffffffffffffffffffffffff168473ffffffffffffffffffffffffffffffffffffffff160361214257818160020160008282546121369190612d61565b9250508190555061221b565b60008160000160008673ffffffffffffffffffffffffffffffffffffffff1673ffffffffffffffffffffffffffffffffffffffff168152602001908152602001600020549050828110156121d1578481846040517fe450d38c0000000000000000000000000000000000000000000000000000000081526004016121c893929190613afe565b60405180910390fd5b8281038260000160008773ffffffffffffffffffffffffffffffffffffffff1673ffffffffffffffffffffffffffffffffffffffff16815260200190815260200160002081905550505b600073ffffffffffffffffffffffffffffffffffffffff168373ffffffffffffffffffffffffffffffffffffffff1603612266578181600201600082825403925050819055506122b6565b818160000160008573ffffffffffffffffffffffffffffffffffffffff1673ffffffffffffffffffffffffffffffffffffffff168152602001908152602001600020600082825401925050819055505b8273ffffffffffffffffffffffffffffffffffffffff168473ffffffffffffffffffffffffffffffffffffffff167fddf252ad1be2c89b69c2b068fc378daa952ba7f163c4a11628f55a4df523b3ef8460405161231391906125f0565b60405180910390a350505050565b600061234c828473ffffffffffffffffffffffffffffffffffffffff166123b890919063ffffffff16565b9050600081511415801561237157508080602001905181019061236f919061372b565b155b156123b357826040517f5274afe70000000000000000000000000000000000000000000000000000000081526004016123aa91906127d1565b60405180910390fd5b505050565b60606123c6838360006123ce565b905092915050565b60608147101561241557306040517fcd78605900000000000000000000000000000000000000000000000000000000815260040161240c91906127d1565b60405180910390fd5b6000808573ffffffffffffffffffffffffffffffffffffffff16848660405161243e9190613156565b60006040518083038185875af1925050503d806000811461247b576040519150601f19603f3d011682016040523d82523d6000602084013e612480565b606091505b509150915061249086838361249b565b925050509392505050565b6060826124b0576124ab8261252a565b612522565b600082511480156124d8575060008473ffffffffffffffffffffffffffffffffffffffff163b145b1561251a57836040517f9996b31500000000000000000000000000000000000000000000000000000000815260040161251191906127d1565b60405180910390fd5b819050612523565b5b9392505050565b60008151111561253d5780518082602001fd5b6040517f1425ea4200000000000000000000000000000000000000000000000000000000815260040160405180910390fd5b604051806101400160405280600a90602082028036833780820191505090505090565b604051806101400160405280600a90602082028036833780820191505090505090565b6040518060400160405280600290602082028036833780820191505090505090565b6000819050919050565b6125ea816125d7565b82525050565b600060208201905061260560008301846125e1565b92915050565b600081519050919050565b600082825260208201905092915050565b60005b8381101561264557808201518184015260208101905061262a565b60008484015250505050565b6000601f19601f8301169050919050565b600061266d8261260b565b6126778185612616565b9350612687818560208601612627565b61269081612651565b840191505092915050565b600060208201905081810360008301526126b58184612662565b905092915050565b600080fd5b600073ffffffffffffffffffffffffffffffffffffffff82169050919050565b60006126ed826126c2565b9050919050565b6126fd816126e2565b811461270857600080fd5b50565b60008135905061271a816126f4565b92915050565b612729816125d7565b811461273457600080fd5b50565b60008135905061274681612720565b92915050565b60008060408385031215612763576127626126bd565b5b60006127718582860161270b565b925050602061278285828601612737565b9150509250929050565b60008115159050919050565b6127a18161278c565b82525050565b60006020820190506127bc6000830184612798565b92915050565b6127cb816126e2565b82525050565b60006020820190506127e660008301846127c2565b92915050565b600080600060608486031215612805576128046126bd565b5b60006128138682870161270b565b93505060206128248682870161270b565b925050604061283586828701612737565b9150509250925092565b600060ff82169050919050565b6128558161283f565b82525050565b6000602082019050612870600083018461284c565b92915050565b60006020828403121561288c5761288b6126bd565b5b600061289a84828501612737565b91505092915050565b600080fd5b6000819050826020600202820111156128c4576128c36128a3565b5b92915050565b6000819050826040600202820111156128e6576128e56128a3565b5b92915050565b60008060008060006101608688031215612909576129086126bd565b5b600061291788828901612737565b9550506020612928888289016128a8565b9450506060612939888289016128ca565b93505060e061294a888289016128a8565b92505061012061295c888289016128a8565b9150509295509295909350565b60006020828403121561297f5761297e6126bd565b5b600061298d8482850161270b565b91505092915050565b600060c0820190506129ab60008301896125e1565b6129b860208301886125e1565b6129c560408301876125e1565b6129d260608301866125e1565b6129df60808301856125e1565b6129ec60a08301846125e1565b979650505050505050565b6000819050919050565b6000612a1c612a17612a12846126c2565b6129f7565b6126c2565b9050919050565b6000612a2e82612a01565b9050919050565b6000612a4082612a23565b9050919050565b612a5081612a35565b82525050565b6000602082019050612a6b6000830184612a47565b92915050565b6000608082019050612a8660008301876127c2565b612a9360208301866125e1565b612aa060408301856125e1565b612aad6060830184612798565b95945050505050565b612abf8161283f565b8114612aca57600080fd5b50565b600081359050612adc81612ab6565b92915050565b600060208284031215612af857612af76126bd565b5b6000612b0684828501612acd565b91505092915050565b60008060408385031215612b2657612b256126bd565b5b6000612b348582860161270b565b9250506020612b458582860161270b565b9150509250929050565b60008060408385031215612b6657612b656126bd565b5b6000612b7485828601612737565b9250506020612b8585828601612737565b9150509250929050565b6000612b9a82612a23565b9050919050565b612baa81612b8f565b82525050565b6000602082019050612bc56000830184612ba1565b92915050565b7f4e487b7100000000000000000000000000000000000000000000000000000000600052602260045260246000fd5b60006002820490506001821680612c1257607f821691505b602082108103612c2557612c24612bcb565b5b50919050565b7f496e76616c696420696400000000000000000000000000000000000000000000600082015250565b6000612c61600a83612616565b9150612c6c82612c2b565b602082019050919050565b60006020820190508181036000830152612c9081612c54565b9050919050565b7f4e487b7100000000000000000000000000000000000000000000000000000000600052603260045260246000fd5b7f4f6e6c79206f776e65722063616e2072656465656d0000000000000000000000600082015250565b6000612cfc601583612616565b9150612d0782612cc6565b602082019050919050565b60006020820190508181036000830152612d2b81612cef565b9050919050565b7f4e487b7100000000000000000000000000000000000000000000000000000000600052601160045260246000fd5b6000612d6c826125d7565b9150612d77836125d7565b9250828201905080821115612d8f57612d8e612d32565b5b92915050565b7f5374696c6c20696e206c6f636b20706572696f64000000000000000000000000600082015250565b6000612dcb601483612616565b9150612dd682612d95565b602082019050919050565b60006020820190508181036000830152612dfa81612dbe565b9050919050565b7f4e6f742076616c69640000000000000000000000000000000000000000000000600082015250565b6000612e37600983612616565b9150612e4282612e01565b602082019050919050565b60006020820190508181036000830152612e6681612e2a565b9050919050565b7f616c7265616479207370656e7400000000000000000000000000000000000000600082015250565b6000612ea3600d83612616565b9150612eae82612e6d565b602082019050919050565b60006020820190508181036000830152612ed281612e96565b9050919050565b7f6e6f7420726f6f74000000000000000000000000000000000000000000000000600082015250565b6000612f0f600883612616565b9150612f1a82612ed9565b602082019050919050565b60006020820190508181036000830152612f3e81612f02565b9050919050565b82818337505050565b612f5a60408383612f45565b5050565b600060029050919050565b600081905092915050565b6000819050919050565b612f8a60408383612f45565b5050565b6000612f9a8383612f7e565b60408301905092915050565b600082905092915050565b6000604082019050919050565b612fc781612f5e565b612fd18184612f69565b9250612fdc82612f74565b8060005b8381101561301557612ff28284612fa6565b612ffc8782612f8e565b965061300783612fb1565b925050600181019050612fe0565b505050505050565b600060039050919050565b600081905092915050565b6000819050919050565b613046816125d7565b82525050565b6000613058838361303d565b60208301905092915050565b6000602082019050919050565b61307a8161301d565b6130848184613028565b925061308f82613033565b8060005b838110156130c05781516130a7878261304c565b96506130b283613064565b925050600181019050613093565b505050505050565b6000610160820190506130de6000830187612f4e565b6130eb6040830186612fbe565b6130f860c0830185612f4e565b613106610100830184613071565b95945050505050565b600081519050919050565b600081905092915050565b60006131308261310f565b61313a818561311a565b935061314a818560208601612627565b80840191505092915050565b60006131628284613125565b915081905092915050565b7f696e76616c69642070726f6f6600000000000000000000000000000000000000600082015250565b60006131a3600d83612616565b91506131ae8261316d565b602082019050919050565b600060208201905081810360008301526131d281613196565b9050919050565b60006060820190506131ee60008301866127c2565b6131fb60208301856125e1565b61320860408301846127c2565b949350505050565b60008151905061321f81612720565b92915050565b60006020828403121561323b5761323a6126bd565b5b600061324984828501613210565b91505092915050565b600061325d826125d7565b9150613268836125d7565b92508282039050818111156132805761327f612d32565b5b92915050565b60008060008060008060c087890312156132a3576132a26126bd565b5b60006132b189828a01613210565b96505060206132c289828a01613210565b95505060406132d389828a01613210565b94505060606132e489828a01613210565b93505060806132f589828a01613210565b92505060a061330689828a01613210565b9150509295509295509295565b7f43616e6e6f74206465706f736974207a65726f20746f6b656e73000000000000600082015250565b6000613349601a83612616565b915061335482613313565b602082019050919050565b600060208201905081810360008301526133788161333c565b9050919050565b7f496e73756666696369656e742062616c616e6365000000000000000000000000600082015250565b60006133b5601483612616565b91506133c08261337f565b602082019050919050565b600060208201905081810360008301526133e4816133a8565b9050919050565b600060408201905061340060008301856127c2565b61340d60208301846127c2565b9392505050565b7f496e73756666696369656e7420616c6c6f77616e636500000000000000000000600082015250565b600061344a601683612616565b915061345582613414565b602082019050919050565b600060208201905081810360008301526134798161343d565b9050919050565b7f6475706c696361746520636f6d6d69746d656e74206861736800000000000000600082015250565b60006134b6601983612616565b91506134c182613480565b602082019050919050565b600060208201905081810360008301526134e5816134a9565b9050919050565b60008160011c9050919050565b6000808291508390505b60018511156135435780860481111561351f5761351e612d32565b5b600185161561352e5780820291505b808102905061353c856134ec565b9450613503565b94509492505050565b60008261355c5760019050613618565b8161356a5760009050613618565b8160018114613580576002811461358a576135b9565b6001915050613618565b60ff84111561359c5761359b612d32565b5b8360020a9150848211156135b3576135b2612d32565b5b50613618565b5060208310610133831016604e8410600b84101617156135ee5782820a9050838111156135e9576135e8612d32565b5b613618565b6135fb84848460016134f9565b9250905081840481111561361257613611612d32565b5b81810290505b9392505050565b600061362a826125d7565b91506136358361283f565b92506136627fffffffffffffffffffffffffffffffffffffffffffffffffffffffffffffffff848461354c565b905092915050565b7f747265652066756c6c0000000000000000000000000000000000000000000000600082015250565b60006136a0600983612616565b91506136ab8261366a565b602082019050919050565b600060208201905081810360008301526136cf81613693565b9050919050565b60006040820190506136eb60008301856127c2565b6136f860208301846125e1565b9392505050565b6137088161278c565b811461371357600080fd5b50565b600081519050613725816136ff565b92915050565b600060208284031215613741576137406126bd565b5b600061374f84828501613716565b91505092915050565b6000819050919050565b600061ffff82169050919050565b600061378b61378661378184613758565b6129f7565b613762565b9050919050565b61379b81613770565b82525050565b60006080820190506137b660008301876127c2565b6137c360208301866125e1565b6137d060408301856127c2565b6137dd6060830184613792565b95945050505050565b7f4e487b7100000000000000000000000000000000000000000000000000000000600052601260045260246000fd5b6000613820826125d7565b915061382b836125d7565b92508261383b5761383a6137e6565b5b828206905092915050565b600060029050919050565b600081905092915050565b6000819050919050565b6000602082019050919050565b61387c81613846565b6138868184613851565b92506138918261385c565b8060005b838110156138c25781516138a9878261304c565b96506138b483613866565b925050600181019050613895565b505050505050565b60006060820190506138df6000830185613873565b6138ec60408301846125e1565b9392505050565b60006138fe826125d7565b9150613909836125d7565b925082613919576139186137e6565b5b828204905092915050565b600061392f8261283f565b915060ff820361394257613941612d32565b5b600182019050919050565b6000613958826125d7565b91507fffffffffffffffffffffffffffffffffffffffffffffffffffffffffffffffff820361398a57613989612d32565b5b600182019050919050565b6000600a9050919050565b600081905092915050565b6000819050919050565b6000602082019050919050565b6139cb81613995565b6139d581846139a0565b92506139e0826139ab565b8060005b83811015613a115781516139f8878261304c565b9650613a03836139b5565b9250506001810190506139e4565b505050505050565b6000600a9050919050565b600081905092915050565b6000819050919050565b613a428161283f565b82525050565b6000613a548383613a39565b60208301905092915050565b6000602082019050919050565b613a7681613a19565b613a808184613a24565b9250613a8b82613a2f565b8060005b83811015613abc578151613aa38782613a48565b9650613aae83613a60565b925050600181019050613a8f565b505050505050565b60006102a082019050613ada60008301866139c2565b613ae8610140830185613a6d565b613af66102808301846125e1565b949350505050565b6000606082019050613b1360008301866127c2565b613b2060208301856125e1565b613b2d60408301846125e1565b949350505050565b6000606082019050613b4a60008301866127c2565b613b5760208301856127c2565b613b6460408301846125e1565b94935050505056fea2646970667358221220d53a22777f4201b5720dce04fcc3d9e62995c837af59eb2110bd158838b32c5264736f6c63430008140033",
  "linkReferences": {},
  "deployedLinkReferences": {}
}